{
	"contracts/Twitter.sol": {
		"Twitter": {
			"abi": [
				{
					"inputs": [],
					"stateMutability": "nonpayable",
					"type": "constructor"
				},
				{
					"anonymous": false,
					"inputs": [
						{
							"indexed": false,
							"internalType": "uint256",
							"name": "id",
							"type": "uint256"
						},
						{
							"indexed": false,
							"internalType": "address",
							"name": "author",
							"type": "address"
						},
						{
							"indexed": false,
							"internalType": "string",
							"name": "content",
							"type": "string"
						},
						{
							"indexed": false,
							"internalType": "uint256",
							"name": "timestamp",
							"type": "uint256"
						}
					],
					"name": "TweetCreated",
					"type": "event"
				},
				{
					"anonymous": false,
					"inputs": [
						{
							"indexed": false,
							"internalType": "address",
							"name": "liker",
							"type": "address"
						},
						{
							"indexed": false,
							"internalType": "address",
							"name": "tweetAuthor",
							"type": "address"
						},
						{
							"indexed": false,
							"internalType": "uint256",
							"name": "tweetId",
							"type": "uint256"
						},
						{
							"indexed": false,
							"internalType": "uint256",
							"name": "newLikeCount",
							"type": "uint256"
						}
					],
					"name": "TweetLiked",
					"type": "event"
				},
				{
					"anonymous": false,
					"inputs": [
						{
							"indexed": false,
							"internalType": "address",
							"name": "unliker",
							"type": "address"
						},
						{
							"indexed": false,
							"internalType": "address",
							"name": "tweetAuthor",
							"type": "address"
						},
						{
							"indexed": false,
							"internalType": "uint256",
							"name": "tweetId",
							"type": "uint256"
						},
						{
							"indexed": false,
							"internalType": "uint256",
							"name": "newLikeCount",
							"type": "uint256"
						}
					],
					"name": "TweetUnliked",
					"type": "event"
				},
				{
					"inputs": [],
					"name": "MAX_TWEET_LENGTH",
					"outputs": [
						{
							"internalType": "uint16",
							"name": "",
							"type": "uint16"
						}
					],
					"stateMutability": "view",
					"type": "function"
				},
				{
					"inputs": [
						{
							"internalType": "uint16",
							"name": "newTweetLength",
							"type": "uint16"
						}
					],
					"name": "changeTweetLength",
					"outputs": [],
					"stateMutability": "nonpayable",
					"type": "function"
				},
				{
					"inputs": [
						{
							"internalType": "string",
							"name": "_tweet",
							"type": "string"
						}
					],
					"name": "createtweet",
					"outputs": [],
					"stateMutability": "nonpayable",
					"type": "function"
				},
				{
					"inputs": [
						{
							"internalType": "address",
							"name": "_owner",
							"type": "address"
						}
					],
					"name": "getAllTweets",
					"outputs": [
						{
							"components": [
								{
									"internalType": "uint256",
									"name": "id",
									"type": "uint256"
								},
								{
									"internalType": "address",
									"name": "author",
									"type": "address"
								},
								{
									"internalType": "string",
									"name": "content",
									"type": "string"
								},
								{
									"internalType": "uint256",
									"name": "timestamp",
									"type": "uint256"
								},
								{
									"internalType": "uint256",
									"name": "likes",
									"type": "uint256"
								}
							],
							"internalType": "struct Twitter.Tweet[]",
							"name": "",
							"type": "tuple[]"
						}
					],
					"stateMutability": "view",
					"type": "function"
				},
				{
					"inputs": [
						{
							"internalType": "address",
							"name": "_author",
							"type": "address"
						}
					],
					"name": "getTotalLikes",
					"outputs": [
						{
							"internalType": "uint256",
							"name": "",
							"type": "uint256"
						}
					],
					"stateMutability": "view",
					"type": "function"
				},
				{
					"inputs": [
						{
							"internalType": "uint256",
							"name": "_i",
							"type": "uint256"
						}
					],
					"name": "getTweet",
					"outputs": [
						{
							"components": [
								{
									"internalType": "uint256",
									"name": "id",
									"type": "uint256"
								},
								{
									"internalType": "address",
									"name": "author",
									"type": "address"
								},
								{
									"internalType": "string",
									"name": "content",
									"type": "string"
								},
								{
									"internalType": "uint256",
									"name": "timestamp",
									"type": "uint256"
								},
								{
									"internalType": "uint256",
									"name": "likes",
									"type": "uint256"
								}
							],
							"internalType": "struct Twitter.Tweet",
							"name": "",
							"type": "tuple"
						}
					],
					"stateMutability": "view",
					"type": "function"
				},
				{
					"inputs": [
						{
							"internalType": "address",
							"name": "author",
							"type": "address"
						},
						{
							"internalType": "uint256",
							"name": "id",
							"type": "uint256"
						}
					],
					"name": "likeTweet",
					"outputs": [],
					"stateMutability": "nonpayable",
					"type": "function"
				},
				{
					"inputs": [],
					"name": "owner",
					"outputs": [
						{
							"internalType": "address",
							"name": "",
							"type": "address"
						}
					],
					"stateMutability": "view",
					"type": "function"
				},
				{
					"inputs": [
						{
							"internalType": "address",
							"name": "",
							"type": "address"
						},
						{
							"internalType": "uint256",
							"name": "",
							"type": "uint256"
						}
					],
					"name": "tweets",
					"outputs": [
						{
							"internalType": "uint256",
							"name": "id",
							"type": "uint256"
						},
						{
							"internalType": "address",
							"name": "author",
							"type": "address"
						},
						{
							"internalType": "string",
							"name": "content",
							"type": "string"
						},
						{
							"internalType": "uint256",
							"name": "timestamp",
							"type": "uint256"
						},
						{
							"internalType": "uint256",
							"name": "likes",
							"type": "uint256"
						}
					],
					"stateMutability": "view",
					"type": "function"
				},
				{
					"inputs": [
						{
							"internalType": "address",
							"name": "author",
							"type": "address"
						},
						{
							"internalType": "uint256",
							"name": "id",
							"type": "uint256"
						}
					],
					"name": "unlikeTweet",
					"outputs": [],
					"stateMutability": "nonpayable",
					"type": "function"
				}
			],
			"devdoc": {
				"kind": "dev",
				"methods": {},
				"version": 1
			},
			"evm": {
				"assembly": "    /* \"contracts/Twitter.sol\":58:2499  contract Twitter {... */\n  mstore(0x40, 0x80)\n    /* \"contracts/Twitter.sol\":115:118  280 */\n  0x0118\n    /* \"contracts/Twitter.sol\":82:118  uint16 public MAX_TWEET_LENGTH = 280 */\n  0x00\n  dup1\n  0x0100\n  exp\n  dup2\n  sload\n  dup2\n  0xffff\n  mul\n  not\n  and\n  swap1\n  dup4\n  0xffff\n  and\n  mul\n  or\n  swap1\n  sstore\n  pop\n    /* \"contracts/Twitter.sol\":630:679  constructor() {... */\n  callvalue\n  dup1\n  iszero\n  tag_1\n  jumpi\n  0x00\n  dup1\n  revert\ntag_1:\n  pop\n    /* \"contracts/Twitter.sol\":662:672  msg.sender */\n  caller\n    /* \"contracts/Twitter.sol\":654:659  owner */\n  0x02\n  0x00\n    /* \"contracts/Twitter.sol\":654:672  owner = msg.sender */\n  0x0100\n  exp\n  dup2\n  sload\n  dup2\n  0xffffffffffffffffffffffffffffffffffffffff\n  mul\n  not\n  and\n  swap1\n  dup4\n  0xffffffffffffffffffffffffffffffffffffffff\n  and\n  mul\n  or\n  swap1\n  sstore\n  pop\n    /* \"contracts/Twitter.sol\":58:2499  contract Twitter {... */\n  dataSize(sub_0)\n  dup1\n  dataOffset(sub_0)\n  0x00\n  codecopy\n  0x00\n  return\nstop\n\nsub_0: assembly {\n        /* \"contracts/Twitter.sol\":58:2499  contract Twitter {... */\n      mstore(0x40, 0x80)\n      callvalue\n      dup1\n      iszero\n      tag_1\n      jumpi\n      0x00\n      dup1\n      revert\n    tag_1:\n      pop\n      jumpi(tag_2, lt(calldatasize, 0x04))\n      shr(0xe0, calldataload(0x00))\n      dup1\n      0x6eb10797\n      gt\n      tag_13\n      jumpi\n      dup1\n      0x6eb10797\n      eq\n      tag_8\n      jumpi\n      dup1\n      0x820785cc\n      eq\n      tag_9\n      jumpi\n      dup1\n      0x8da5cb5b\n      eq\n      tag_10\n      jumpi\n      dup1\n      0xb8e4f167\n      eq\n      tag_11\n      jumpi\n      dup1\n      0xc3ad5ecb\n      eq\n      tag_12\n      jumpi\n      jump(tag_2)\n    tag_13:\n      dup1\n      0x05a1b4a9\n      eq\n      tag_3\n      jumpi\n      dup1\n      0x12e7ee1c\n      eq\n      tag_4\n      jumpi\n      dup1\n      0x3d9b569f\n      eq\n      tag_5\n      jumpi\n      dup1\n      0x58bfa4ab\n      eq\n      tag_6\n      jumpi\n      dup1\n      0x63378216\n      eq\n      tag_7\n      jumpi\n    tag_2:\n      0x00\n      dup1\n      revert\n        /* \"contracts/Twitter.sol\":269:310  mapping(address => Tweet[]) public tweets */\n    tag_3:\n      tag_14\n      0x04\n      dup1\n      calldatasize\n      sub\n      dup2\n      add\n      swap1\n      tag_15\n      swap2\n      swap1\n      tag_16\n      jump\t// in\n    tag_15:\n      tag_17\n      jump\t// in\n    tag_14:\n      mload(0x40)\n      tag_18\n      swap6\n      swap5\n      swap4\n      swap3\n      swap2\n      swap1\n      tag_19\n      jump\t// in\n    tag_18:\n      mload(0x40)\n      dup1\n      swap2\n      sub\n      swap1\n      return\n        /* \"contracts/Twitter.sol\":2386:2497  function getAllTweets(address _owner) public view returns(Tweet[] memory){... */\n    tag_4:\n      tag_20\n      0x04\n      dup1\n      calldatasize\n      sub\n      dup2\n      add\n      swap1\n      tag_21\n      swap2\n      swap1\n      tag_22\n      jump\t// in\n    tag_21:\n      tag_23\n      jump\t// in\n    tag_20:\n      mload(0x40)\n      tag_24\n      swap2\n      swap1\n      tag_25\n      jump\t// in\n    tag_24:\n      mload(0x40)\n      dup1\n      swap2\n      sub\n      swap1\n      return\n        /* \"contracts/Twitter.sol\":1946:2265  function unlikeTweet(address author, uint256 id) external {... */\n    tag_5:\n      tag_26\n      0x04\n      dup1\n      calldatasize\n      sub\n      dup2\n      add\n      swap1\n      tag_27\n      swap2\n      swap1\n      tag_16\n      jump\t// in\n    tag_27:\n      tag_28\n      jump\t// in\n    tag_26:\n      stop\n        /* \"contracts/Twitter.sol\":794:911  function changeTweetLength(uint16 newTweetLength) public onlyOwner {... */\n    tag_6:\n      tag_29\n      0x04\n      dup1\n      calldatasize\n      sub\n      dup2\n      add\n      swap1\n      tag_30\n      swap2\n      swap1\n      tag_31\n      jump\t// in\n    tag_30:\n      tag_32\n      jump\t// in\n    tag_29:\n      stop\n        /* \"contracts/Twitter.sol\":1694:1940  function likeTweet(address author, uint256 id) external {... */\n    tag_7:\n      tag_33\n      0x04\n      dup1\n      calldatasize\n      sub\n      dup2\n      add\n      swap1\n      tag_34\n      swap2\n      swap1\n      tag_16\n      jump\t// in\n    tag_34:\n      tag_35\n      jump\t// in\n    tag_33:\n      stop\n        /* \"contracts/Twitter.sol\":82:118  uint16 public MAX_TWEET_LENGTH = 280 */\n    tag_8:\n      tag_36\n      tag_37\n      jump\t// in\n    tag_36:\n      mload(0x40)\n      tag_38\n      swap2\n      swap1\n      tag_39\n      jump\t// in\n    tag_38:\n      mload(0x40)\n      dup1\n      swap2\n      sub\n      swap1\n      return\n        /* \"contracts/Twitter.sol\":917:1185  function getTotalLikes(address _author) external view returns (uint256) {... */\n    tag_9:\n      tag_40\n      0x04\n      dup1\n      calldatasize\n      sub\n      dup2\n      add\n      swap1\n      tag_41\n      swap2\n      swap1\n      tag_22\n      jump\t// in\n    tag_41:\n      tag_42\n      jump\t// in\n    tag_40:\n      mload(0x40)\n      tag_43\n      swap2\n      swap1\n      tag_44\n      jump\t// in\n    tag_43:\n      mload(0x40)\n      dup1\n      swap2\n      sub\n      swap1\n      return\n        /* \"contracts/Twitter.sol\":317:337  address public owner */\n    tag_10:\n      tag_45\n      tag_46\n      jump\t// in\n    tag_45:\n      mload(0x40)\n      tag_47\n      swap2\n      swap1\n      tag_48\n      jump\t// in\n    tag_47:\n      mload(0x40)\n      dup1\n      swap2\n      sub\n      swap1\n      return\n        /* \"contracts/Twitter.sol\":1191:1688  function createtweet(string memory _tweet) public {... */\n    tag_11:\n      tag_49\n      0x04\n      dup1\n      calldatasize\n      sub\n      dup2\n      add\n      swap1\n      tag_50\n      swap2\n      swap1\n      tag_51\n      jump\t// in\n    tag_50:\n      tag_52\n      jump\t// in\n    tag_49:\n      stop\n        /* \"contracts/Twitter.sol\":2271:2380  function getTweet(uint256 _i) public view returns(Tweet memory){... */\n    tag_12:\n      tag_53\n      0x04\n      dup1\n      calldatasize\n      sub\n      dup2\n      add\n      swap1\n      tag_54\n      swap2\n      swap1\n      tag_55\n      jump\t// in\n    tag_54:\n      tag_56\n      jump\t// in\n    tag_53:\n      mload(0x40)\n      tag_57\n      swap2\n      swap1\n      tag_58\n      jump\t// in\n    tag_57:\n      mload(0x40)\n      dup1\n      swap2\n      sub\n      swap1\n      return\n        /* \"contracts/Twitter.sol\":269:310  mapping(address => Tweet[]) public tweets */\n    tag_17:\n      mstore(0x20, 0x01)\n      dup2\n      0x00\n      mstore\n      keccak256(0x00, 0x40)\n      dup2\n      dup2\n      sload\n      dup2\n      lt\n      tag_59\n      jumpi\n      0x00\n      dup1\n      revert\n    tag_59:\n      swap1\n      0x00\n      mstore\n      keccak256(0x00, 0x20)\n      swap1\n      0x05\n      mul\n      add\n      0x00\n      swap2\n      pop\n      swap2\n      pop\n      pop\n      dup1\n      0x00\n      add\n      sload\n      swap1\n      dup1\n      0x01\n      add\n      0x00\n      swap1\n      sload\n      swap1\n      0x0100\n      exp\n      swap1\n      div\n      0xffffffffffffffffffffffffffffffffffffffff\n      and\n      swap1\n      dup1\n      0x02\n      add\n      dup1\n      sload\n      tag_61\n      swap1\n      tag_62\n      jump\t// in\n    tag_61:\n      dup1\n      0x1f\n      add\n      0x20\n      dup1\n      swap2\n      div\n      mul\n      0x20\n      add\n      mload(0x40)\n      swap1\n      dup2\n      add\n      0x40\n      mstore\n      dup1\n      swap3\n      swap2\n      swap1\n      dup2\n      dup2\n      mstore\n      0x20\n      add\n      dup3\n      dup1\n      sload\n      tag_63\n      swap1\n      tag_62\n      jump\t// in\n    tag_63:\n      dup1\n      iszero\n      tag_64\n      jumpi\n      dup1\n      0x1f\n      lt\n      tag_65\n      jumpi\n      0x0100\n      dup1\n      dup4\n      sload\n      div\n      mul\n      dup4\n      mstore\n      swap2\n      0x20\n      add\n      swap2\n      jump(tag_64)\n    tag_65:\n      dup3\n      add\n      swap2\n      swap1\n      0x00\n      mstore\n      keccak256(0x00, 0x20)\n      swap1\n    tag_66:\n      dup2\n      sload\n      dup2\n      mstore\n      swap1\n      0x01\n      add\n      swap1\n      0x20\n      add\n      dup1\n      dup4\n      gt\n      tag_66\n      jumpi\n      dup3\n      swap1\n      sub\n      0x1f\n      and\n      dup3\n      add\n      swap2\n    tag_64:\n      pop\n      pop\n      pop\n      pop\n      pop\n      swap1\n      dup1\n      0x03\n      add\n      sload\n      swap1\n      dup1\n      0x04\n      add\n      sload\n      swap1\n      pop\n      dup6\n      jump\t// out\n        /* \"contracts/Twitter.sol\":2386:2497  function getAllTweets(address _owner) public view returns(Tweet[] memory){... */\n    tag_23:\n        /* \"contracts/Twitter.sol\":2444:2458  Tweet[] memory */\n      0x60\n        /* \"contracts/Twitter.sol\":2476:2482  tweets */\n      0x01\n        /* \"contracts/Twitter.sol\":2476:2490  tweets[_owner] */\n      0x00\n        /* \"contracts/Twitter.sol\":2483:2489  _owner */\n      dup4\n        /* \"contracts/Twitter.sol\":2476:2490  tweets[_owner] */\n      0xffffffffffffffffffffffffffffffffffffffff\n      and\n      0xffffffffffffffffffffffffffffffffffffffff\n      and\n      dup2\n      mstore\n      0x20\n      add\n      swap1\n      dup2\n      mstore\n      0x20\n      add\n      0x00\n      keccak256\n        /* \"contracts/Twitter.sol\":2469:2490  return tweets[_owner] */\n      dup1\n      sload\n      dup1\n      0x20\n      mul\n      0x20\n      add\n      mload(0x40)\n      swap1\n      dup2\n      add\n      0x40\n      mstore\n      dup1\n      swap3\n      swap2\n      swap1\n      dup2\n      dup2\n      mstore\n      0x20\n      add\n      0x00\n      swap1\n    tag_68:\n      dup3\n      dup3\n      lt\n      iszero\n      tag_69\n      jumpi\n      dup4\n      dup3\n      swap1\n      0x00\n      mstore\n      keccak256(0x00, 0x20)\n      swap1\n      0x05\n      mul\n      add\n      mload(0x40)\n      dup1\n      0xa0\n      add\n      0x40\n      mstore\n      swap1\n      dup2\n      0x00\n      dup3\n      add\n      sload\n      dup2\n      mstore\n      0x20\n      add\n      0x01\n      dup3\n      add\n      0x00\n      swap1\n      sload\n      swap1\n      0x0100\n      exp\n      swap1\n      div\n      0xffffffffffffffffffffffffffffffffffffffff\n      and\n      0xffffffffffffffffffffffffffffffffffffffff\n      and\n      0xffffffffffffffffffffffffffffffffffffffff\n      and\n      dup2\n      mstore\n      0x20\n      add\n      0x02\n      dup3\n      add\n      dup1\n      sload\n      tag_71\n      swap1\n      tag_62\n      jump\t// in\n    tag_71:\n      dup1\n      0x1f\n      add\n      0x20\n      dup1\n      swap2\n      div\n      mul\n      0x20\n      add\n      mload(0x40)\n      swap1\n      dup2\n      add\n      0x40\n      mstore\n      dup1\n      swap3\n      swap2\n      swap1\n      dup2\n      dup2\n      mstore\n      0x20\n      add\n      dup3\n      dup1\n      sload\n      tag_72\n      swap1\n      tag_62\n      jump\t// in\n    tag_72:\n      dup1\n      iszero\n      tag_73\n      jumpi\n      dup1\n      0x1f\n      lt\n      tag_74\n      jumpi\n      0x0100\n      dup1\n      dup4\n      sload\n      div\n      mul\n      dup4\n      mstore\n      swap2\n      0x20\n      add\n      swap2\n      jump(tag_73)\n    tag_74:\n      dup3\n      add\n      swap2\n      swap1\n      0x00\n      mstore\n      keccak256(0x00, 0x20)\n      swap1\n    tag_75:\n      dup2\n      sload\n      dup2\n      mstore\n      swap1\n      0x01\n      add\n      swap1\n      0x20\n      add\n      dup1\n      dup4\n      gt\n      tag_75\n      jumpi\n      dup3\n      swap1\n      sub\n      0x1f\n      and\n      dup3\n      add\n      swap2\n    tag_73:\n      pop\n      pop\n      pop\n      pop\n      pop\n      dup2\n      mstore\n      0x20\n      add\n      0x03\n      dup3\n      add\n      sload\n      dup2\n      mstore\n      0x20\n      add\n      0x04\n      dup3\n      add\n      sload\n      dup2\n      mstore\n      pop\n      pop\n      dup2\n      mstore\n      0x20\n      add\n      swap1\n      0x01\n      add\n      swap1\n      jump(tag_68)\n    tag_69:\n      pop\n      pop\n      pop\n      pop\n      swap1\n      pop\n        /* \"contracts/Twitter.sol\":2386:2497  function getAllTweets(address _owner) public view returns(Tweet[] memory){... */\n      swap2\n      swap1\n      pop\n      jump\t// out\n        /* \"contracts/Twitter.sol\":1946:2265  function unlikeTweet(address author, uint256 id) external {... */\n    tag_28:\n        /* \"contracts/Twitter.sol\":2047:2049  id */\n      dup1\n        /* \"contracts/Twitter.sol\":2022:2028  tweets */\n      0x01\n        /* \"contracts/Twitter.sol\":2022:2036  tweets[author] */\n      0x00\n        /* \"contracts/Twitter.sol\":2029:2035  author */\n      dup5\n        /* \"contracts/Twitter.sol\":2022:2036  tweets[author] */\n      0xffffffffffffffffffffffffffffffffffffffff\n      and\n      0xffffffffffffffffffffffffffffffffffffffff\n      and\n      dup2\n      mstore\n      0x20\n      add\n      swap1\n      dup2\n      mstore\n      0x20\n      add\n      0x00\n      keccak256\n        /* \"contracts/Twitter.sol\":2037:2039  id */\n      dup3\n        /* \"contracts/Twitter.sol\":2022:2040  tweets[author][id] */\n      dup2\n      sload\n      dup2\n      lt\n      tag_77\n      jumpi\n      tag_78\n      tag_79\n      jump\t// in\n    tag_78:\n    tag_77:\n      swap1\n      0x00\n      mstore\n      keccak256(0x00, 0x20)\n      swap1\n      0x05\n      mul\n      add\n        /* \"contracts/Twitter.sol\":2022:2043  tweets[author][id].id */\n      0x00\n      add\n      sload\n        /* \"contracts/Twitter.sol\":2022:2049  tweets[author][id].id == id */\n      eq\n        /* \"contracts/Twitter.sol\":2014:2074  require(tweets[author][id].id == id, \"Tweet Does Not Exist\") */\n      tag_81\n      jumpi\n      mload(0x40)\n      0x08c379a000000000000000000000000000000000000000000000000000000000\n      dup2\n      mstore\n      0x04\n      add\n      tag_82\n      swap1\n      tag_83\n      jump\t// in\n    tag_82:\n      mload(0x40)\n      dup1\n      swap2\n      sub\n      swap1\n      revert\n    tag_81:\n        /* \"contracts/Twitter.sol\":2119:2120  0 */\n      0x00\n        /* \"contracts/Twitter.sol\":2092:2098  tweets */\n      0x01\n        /* \"contracts/Twitter.sol\":2092:2106  tweets[author] */\n      0x00\n        /* \"contracts/Twitter.sol\":2099:2105  author */\n      dup5\n        /* \"contracts/Twitter.sol\":2092:2106  tweets[author] */\n      0xffffffffffffffffffffffffffffffffffffffff\n      and\n      0xffffffffffffffffffffffffffffffffffffffff\n      and\n      dup2\n      mstore\n      0x20\n      add\n      swap1\n      dup2\n      mstore\n      0x20\n      add\n      0x00\n      keccak256\n        /* \"contracts/Twitter.sol\":2107:2109  id */\n      dup3\n        /* \"contracts/Twitter.sol\":2092:2110  tweets[author][id] */\n      dup2\n      sload\n      dup2\n      lt\n      tag_84\n      jumpi\n      tag_85\n      tag_79\n      jump\t// in\n    tag_85:\n    tag_84:\n      swap1\n      0x00\n      mstore\n      keccak256(0x00, 0x20)\n      swap1\n      0x05\n      mul\n      add\n        /* \"contracts/Twitter.sol\":2092:2116  tweets[author][id].likes */\n      0x04\n      add\n      sload\n        /* \"contracts/Twitter.sol\":2092:2120  tweets[author][id].likes > 0 */\n      gt\n        /* \"contracts/Twitter.sol\":2084:2143  require(tweets[author][id].likes > 0, \"Tweet Has No Likes\") */\n      tag_87\n      jumpi\n      mload(0x40)\n      0x08c379a000000000000000000000000000000000000000000000000000000000\n      dup2\n      mstore\n      0x04\n      add\n      tag_88\n      swap1\n      tag_89\n      jump\t// in\n    tag_88:\n      mload(0x40)\n      dup1\n      swap2\n      sub\n      swap1\n      revert\n    tag_87:\n        /* \"contracts/Twitter.sol\":2154:2160  tweets */\n      0x01\n        /* \"contracts/Twitter.sol\":2154:2168  tweets[author] */\n      0x00\n        /* \"contracts/Twitter.sol\":2161:2167  author */\n      dup4\n        /* \"contracts/Twitter.sol\":2154:2168  tweets[author] */\n      0xffffffffffffffffffffffffffffffffffffffff\n      and\n      0xffffffffffffffffffffffffffffffffffffffff\n      and\n      dup2\n      mstore\n      0x20\n      add\n      swap1\n      dup2\n      mstore\n      0x20\n      add\n      0x00\n      keccak256\n        /* \"contracts/Twitter.sol\":2169:2171  id */\n      dup2\n        /* \"contracts/Twitter.sol\":2154:2172  tweets[author][id] */\n      dup2\n      sload\n      dup2\n      lt\n      tag_90\n      jumpi\n      tag_91\n      tag_79\n      jump\t// in\n    tag_91:\n    tag_90:\n      swap1\n      0x00\n      mstore\n      keccak256(0x00, 0x20)\n      swap1\n      0x05\n      mul\n      add\n        /* \"contracts/Twitter.sol\":2154:2178  tweets[author][id].likes */\n      0x04\n      add\n      0x00\n        /* \"contracts/Twitter.sol\":2154:2180  tweets[author][id].likes-- */\n      dup2\n      sload\n      dup1\n      swap3\n      swap2\n      swap1\n      tag_93\n      swap1\n      tag_94\n      jump\t// in\n    tag_93:\n      swap2\n      swap1\n      pop\n      sstore\n      pop\n        /* \"contracts/Twitter.sol\":2196:2258  TweetUnliked(msg.sender, author, id, tweets[author][id].likes) */\n      0x762c2616349603ac16eba0de8e6141b79129a07ab63bd99e0a80b3a471716943\n        /* \"contracts/Twitter.sol\":2209:2219  msg.sender */\n      caller\n        /* \"contracts/Twitter.sol\":2221:2227  author */\n      dup4\n        /* \"contracts/Twitter.sol\":2229:2231  id */\n      dup4\n        /* \"contracts/Twitter.sol\":2233:2239  tweets */\n      0x01\n        /* \"contracts/Twitter.sol\":2233:2247  tweets[author] */\n      0x00\n        /* \"contracts/Twitter.sol\":2240:2246  author */\n      dup8\n        /* \"contracts/Twitter.sol\":2233:2247  tweets[author] */\n      0xffffffffffffffffffffffffffffffffffffffff\n      and\n      0xffffffffffffffffffffffffffffffffffffffff\n      and\n      dup2\n      mstore\n      0x20\n      add\n      swap1\n      dup2\n      mstore\n      0x20\n      add\n      0x00\n      keccak256\n        /* \"contracts/Twitter.sol\":2248:2250  id */\n      dup6\n        /* \"contracts/Twitter.sol\":2233:2251  tweets[author][id] */\n      dup2\n      sload\n      dup2\n      lt\n      tag_95\n      jumpi\n      tag_96\n      tag_79\n      jump\t// in\n    tag_96:\n    tag_95:\n      swap1\n      0x00\n      mstore\n      keccak256(0x00, 0x20)\n      swap1\n      0x05\n      mul\n      add\n        /* \"contracts/Twitter.sol\":2233:2257  tweets[author][id].likes */\n      0x04\n      add\n      sload\n        /* \"contracts/Twitter.sol\":2196:2258  TweetUnliked(msg.sender, author, id, tweets[author][id].likes) */\n      mload(0x40)\n      tag_98\n      swap5\n      swap4\n      swap3\n      swap2\n      swap1\n      tag_99\n      jump\t// in\n    tag_98:\n      mload(0x40)\n      dup1\n      swap2\n      sub\n      swap1\n      log1\n        /* \"contracts/Twitter.sol\":1946:2265  function unlikeTweet(address author, uint256 id) external {... */\n      pop\n      pop\n      jump\t// out\n        /* \"contracts/Twitter.sol\":794:911  function changeTweetLength(uint16 newTweetLength) public onlyOwner {... */\n    tag_32:\n        /* \"contracts/Twitter.sol\":738:743  owner */\n      0x02\n      0x00\n      swap1\n      sload\n      swap1\n      0x0100\n      exp\n      swap1\n      div\n      0xffffffffffffffffffffffffffffffffffffffff\n      and\n        /* \"contracts/Twitter.sol\":724:743  msg.sender == owner */\n      0xffffffffffffffffffffffffffffffffffffffff\n      and\n        /* \"contracts/Twitter.sol\":724:734  msg.sender */\n      caller\n        /* \"contracts/Twitter.sol\":724:743  msg.sender == owner */\n      0xffffffffffffffffffffffffffffffffffffffff\n      and\n      eq\n        /* \"contracts/Twitter.sol\":716:770  require(msg.sender == owner, \"YOU ARE NOT THE OWNER!\") */\n      tag_101\n      jumpi\n      mload(0x40)\n      0x08c379a000000000000000000000000000000000000000000000000000000000\n      dup2\n      mstore\n      0x04\n      add\n      tag_102\n      swap1\n      tag_103\n      jump\t// in\n    tag_102:\n      mload(0x40)\n      dup1\n      swap2\n      sub\n      swap1\n      revert\n    tag_101:\n        /* \"contracts/Twitter.sol\":890:904  newTweetLength */\n      dup1\n        /* \"contracts/Twitter.sol\":871:887  MAX_TWEET_LENGTH */\n      0x00\n      dup1\n        /* \"contracts/Twitter.sol\":871:904  MAX_TWEET_LENGTH = newTweetLength */\n      0x0100\n      exp\n      dup2\n      sload\n      dup2\n      0xffff\n      mul\n      not\n      and\n      swap1\n      dup4\n      0xffff\n      and\n      mul\n      or\n      swap1\n      sstore\n      pop\n        /* \"contracts/Twitter.sol\":794:911  function changeTweetLength(uint16 newTweetLength) public onlyOwner {... */\n      pop\n      jump\t// out\n        /* \"contracts/Twitter.sol\":1694:1940  function likeTweet(address author, uint256 id) external {... */\n    tag_35:\n        /* \"contracts/Twitter.sol\":1793:1795  id */\n      dup1\n        /* \"contracts/Twitter.sol\":1768:1774  tweets */\n      0x01\n        /* \"contracts/Twitter.sol\":1768:1782  tweets[author] */\n      0x00\n        /* \"contracts/Twitter.sol\":1775:1781  author */\n      dup5\n        /* \"contracts/Twitter.sol\":1768:1782  tweets[author] */\n      0xffffffffffffffffffffffffffffffffffffffff\n      and\n      0xffffffffffffffffffffffffffffffffffffffff\n      and\n      dup2\n      mstore\n      0x20\n      add\n      swap1\n      dup2\n      mstore\n      0x20\n      add\n      0x00\n      keccak256\n        /* \"contracts/Twitter.sol\":1783:1785  id */\n      dup3\n        /* \"contracts/Twitter.sol\":1768:1786  tweets[author][id] */\n      dup2\n      sload\n      dup2\n      lt\n      tag_106\n      jumpi\n      tag_107\n      tag_79\n      jump\t// in\n    tag_107:\n    tag_106:\n      swap1\n      0x00\n      mstore\n      keccak256(0x00, 0x20)\n      swap1\n      0x05\n      mul\n      add\n        /* \"contracts/Twitter.sol\":1768:1789  tweets[author][id].id */\n      0x00\n      add\n      sload\n        /* \"contracts/Twitter.sol\":1768:1795  tweets[author][id].id == id */\n      eq\n        /* \"contracts/Twitter.sol\":1760:1820  require(tweets[author][id].id == id, \"Tweet Does Not Exist\") */\n      tag_109\n      jumpi\n      mload(0x40)\n      0x08c379a000000000000000000000000000000000000000000000000000000000\n      dup2\n      mstore\n      0x04\n      add\n      tag_110\n      swap1\n      tag_83\n      jump\t// in\n    tag_110:\n      mload(0x40)\n      dup1\n      swap2\n      sub\n      swap1\n      revert\n    tag_109:\n        /* \"contracts/Twitter.sol\":1831:1837  tweets */\n      0x01\n        /* \"contracts/Twitter.sol\":1831:1845  tweets[author] */\n      0x00\n        /* \"contracts/Twitter.sol\":1838:1844  author */\n      dup4\n        /* \"contracts/Twitter.sol\":1831:1845  tweets[author] */\n      0xffffffffffffffffffffffffffffffffffffffff\n      and\n      0xffffffffffffffffffffffffffffffffffffffff\n      and\n      dup2\n      mstore\n      0x20\n      add\n      swap1\n      dup2\n      mstore\n      0x20\n      add\n      0x00\n      keccak256\n        /* \"contracts/Twitter.sol\":1846:1848  id */\n      dup2\n        /* \"contracts/Twitter.sol\":1831:1849  tweets[author][id] */\n      dup2\n      sload\n      dup2\n      lt\n      tag_111\n      jumpi\n      tag_112\n      tag_79\n      jump\t// in\n    tag_112:\n    tag_111:\n      swap1\n      0x00\n      mstore\n      keccak256(0x00, 0x20)\n      swap1\n      0x05\n      mul\n      add\n        /* \"contracts/Twitter.sol\":1831:1855  tweets[author][id].likes */\n      0x04\n      add\n      0x00\n        /* \"contracts/Twitter.sol\":1831:1857  tweets[author][id].likes++ */\n      dup2\n      sload\n      dup1\n      swap3\n      swap2\n      swap1\n      tag_114\n      swap1\n      tag_115\n      jump\t// in\n    tag_114:\n      swap2\n      swap1\n      pop\n      sstore\n      pop\n        /* \"contracts/Twitter.sol\":1873:1933  TweetLiked(msg.sender, author, id, tweets[author][id].likes) */\n      0xe8a76fc0f16d11a00d1e93b689b63d76cf60af914dd3d915375dc41d01a0c3c8\n        /* \"contracts/Twitter.sol\":1884:1894  msg.sender */\n      caller\n        /* \"contracts/Twitter.sol\":1896:1902  author */\n      dup4\n        /* \"contracts/Twitter.sol\":1904:1906  id */\n      dup4\n        /* \"contracts/Twitter.sol\":1908:1914  tweets */\n      0x01\n        /* \"contracts/Twitter.sol\":1908:1922  tweets[author] */\n      0x00\n        /* \"contracts/Twitter.sol\":1915:1921  author */\n      dup8\n        /* \"contracts/Twitter.sol\":1908:1922  tweets[author] */\n      0xffffffffffffffffffffffffffffffffffffffff\n      and\n      0xffffffffffffffffffffffffffffffffffffffff\n      and\n      dup2\n      mstore\n      0x20\n      add\n      swap1\n      dup2\n      mstore\n      0x20\n      add\n      0x00\n      keccak256\n        /* \"contracts/Twitter.sol\":1923:1925  id */\n      dup6\n        /* \"contracts/Twitter.sol\":1908:1926  tweets[author][id] */\n      dup2\n      sload\n      dup2\n      lt\n      tag_116\n      jumpi\n      tag_117\n      tag_79\n      jump\t// in\n    tag_117:\n    tag_116:\n      swap1\n      0x00\n      mstore\n      keccak256(0x00, 0x20)\n      swap1\n      0x05\n      mul\n      add\n        /* \"contracts/Twitter.sol\":1908:1932  tweets[author][id].likes */\n      0x04\n      add\n      sload\n        /* \"contracts/Twitter.sol\":1873:1933  TweetLiked(msg.sender, author, id, tweets[author][id].likes) */\n      mload(0x40)\n      tag_119\n      swap5\n      swap4\n      swap3\n      swap2\n      swap1\n      tag_99\n      jump\t// in\n    tag_119:\n      mload(0x40)\n      dup1\n      swap2\n      sub\n      swap1\n      log1\n        /* \"contracts/Twitter.sol\":1694:1940  function likeTweet(address author, uint256 id) external {... */\n      pop\n      pop\n      jump\t// out\n        /* \"contracts/Twitter.sol\":82:118  uint16 public MAX_TWEET_LENGTH = 280 */\n    tag_37:\n      0x00\n      dup1\n      sload\n      swap1\n      0x0100\n      exp\n      swap1\n      div\n      0xffff\n      and\n      dup2\n      jump\t// out\n        /* \"contracts/Twitter.sol\":917:1185  function getTotalLikes(address _author) external view returns (uint256) {... */\n    tag_42:\n        /* \"contracts/Twitter.sol\":980:987  uint256 */\n      0x00\n        /* \"contracts/Twitter.sol\":999:1017  uint256 totalLikes */\n      dup1\n        /* \"contracts/Twitter.sol\":1041:1050  uint256 i */\n      0x00\n        /* \"contracts/Twitter.sol\":1036:1151  for (uint256 i = 0; i < tweets[_author].length; i++){... */\n    tag_121:\n        /* \"contracts/Twitter.sol\":1060:1066  tweets */\n      0x01\n        /* \"contracts/Twitter.sol\":1060:1075  tweets[_author] */\n      0x00\n        /* \"contracts/Twitter.sol\":1067:1074  _author */\n      dup6\n        /* \"contracts/Twitter.sol\":1060:1075  tweets[_author] */\n      0xffffffffffffffffffffffffffffffffffffffff\n      and\n      0xffffffffffffffffffffffffffffffffffffffff\n      and\n      dup2\n      mstore\n      0x20\n      add\n      swap1\n      dup2\n      mstore\n      0x20\n      add\n      0x00\n      keccak256\n        /* \"contracts/Twitter.sol\":1060:1082  tweets[_author].length */\n      dup1\n      sload\n      swap1\n      pop\n        /* \"contracts/Twitter.sol\":1056:1057  i */\n      dup2\n        /* \"contracts/Twitter.sol\":1056:1082  i < tweets[_author].length */\n      lt\n        /* \"contracts/Twitter.sol\":1036:1151  for (uint256 i = 0; i < tweets[_author].length; i++){... */\n      iszero\n      tag_122\n      jumpi\n        /* \"contracts/Twitter.sol\":1116:1122  tweets */\n      0x01\n        /* \"contracts/Twitter.sol\":1116:1131  tweets[_author] */\n      0x00\n        /* \"contracts/Twitter.sol\":1123:1130  _author */\n      dup6\n        /* \"contracts/Twitter.sol\":1116:1131  tweets[_author] */\n      0xffffffffffffffffffffffffffffffffffffffff\n      and\n      0xffffffffffffffffffffffffffffffffffffffff\n      and\n      dup2\n      mstore\n      0x20\n      add\n      swap1\n      dup2\n      mstore\n      0x20\n      add\n      0x00\n      keccak256\n        /* \"contracts/Twitter.sol\":1132:1133  i */\n      dup2\n        /* \"contracts/Twitter.sol\":1116:1134  tweets[_author][i] */\n      dup2\n      sload\n      dup2\n      lt\n      tag_124\n      jumpi\n      tag_125\n      tag_79\n      jump\t// in\n    tag_125:\n    tag_124:\n      swap1\n      0x00\n      mstore\n      keccak256(0x00, 0x20)\n      swap1\n      0x05\n      mul\n      add\n        /* \"contracts/Twitter.sol\":1116:1140  tweets[_author][i].likes */\n      0x04\n      add\n      sload\n        /* \"contracts/Twitter.sol\":1102:1140  totalLikes += tweets[_author][i].likes */\n      dup3\n      tag_127\n      swap2\n      swap1\n      tag_128\n      jump\t// in\n    tag_127:\n      swap2\n      pop\n        /* \"contracts/Twitter.sol\":1084:1087  i++ */\n      dup1\n      dup1\n      0x01\n      add\n      swap2\n      pop\n      pop\n        /* \"contracts/Twitter.sol\":1036:1151  for (uint256 i = 0; i < tweets[_author].length; i++){... */\n      jump(tag_121)\n    tag_122:\n      pop\n        /* \"contracts/Twitter.sol\":1168:1178  totalLikes */\n      dup1\n        /* \"contracts/Twitter.sol\":1161:1178  return totalLikes */\n      swap2\n      pop\n      pop\n        /* \"contracts/Twitter.sol\":917:1185  function getTotalLikes(address _author) external view returns (uint256) {... */\n      swap2\n      swap1\n      pop\n      jump\t// out\n        /* \"contracts/Twitter.sol\":317:337  address public owner */\n    tag_46:\n      0x02\n      0x00\n      swap1\n      sload\n      swap1\n      0x0100\n      exp\n      swap1\n      div\n      0xffffffffffffffffffffffffffffffffffffffff\n      and\n      dup2\n      jump\t// out\n        /* \"contracts/Twitter.sol\":1191:1688  function createtweet(string memory _tweet) public {... */\n    tag_52:\n        /* \"contracts/Twitter.sol\":1283:1299  MAX_TWEET_LENGTH */\n      0x00\n      dup1\n      sload\n      swap1\n      0x0100\n      exp\n      swap1\n      div\n      0xffff\n      and\n        /* \"contracts/Twitter.sol\":1259:1299  bytes(_tweet).length <= MAX_TWEET_LENGTH */\n      0xffff\n      and\n        /* \"contracts/Twitter.sol\":1265:1271  _tweet */\n      dup2\n        /* \"contracts/Twitter.sol\":1259:1279  bytes(_tweet).length */\n      mload\n        /* \"contracts/Twitter.sol\":1259:1299  bytes(_tweet).length <= MAX_TWEET_LENGTH */\n      gt\n      iszero\n        /* \"contracts/Twitter.sol\":1251:1323  require(bytes(_tweet).length <= MAX_TWEET_LENGTH, \"You shall not pass!\") */\n      tag_130\n      jumpi\n      mload(0x40)\n      0x08c379a000000000000000000000000000000000000000000000000000000000\n      dup2\n      mstore\n      0x04\n      add\n      tag_131\n      swap1\n      tag_132\n      jump\t// in\n    tag_131:\n      mload(0x40)\n      dup1\n      swap2\n      sub\n      swap1\n      revert\n    tag_130:\n        /* \"contracts/Twitter.sol\":1334:1355  Tweet memory newTweet */\n      0x00\n        /* \"contracts/Twitter.sol\":1358:1541  Tweet({... */\n      mload(0x40)\n      dup1\n      0xa0\n      add\n      0x40\n      mstore\n      dup1\n        /* \"contracts/Twitter.sol\":1382:1388  tweets */\n      0x01\n        /* \"contracts/Twitter.sol\":1382:1400  tweets[msg.sender] */\n      0x00\n        /* \"contracts/Twitter.sol\":1389:1399  msg.sender */\n      caller\n        /* \"contracts/Twitter.sol\":1382:1400  tweets[msg.sender] */\n      0xffffffffffffffffffffffffffffffffffffffff\n      and\n      0xffffffffffffffffffffffffffffffffffffffff\n      and\n      dup2\n      mstore\n      0x20\n      add\n      swap1\n      dup2\n      mstore\n      0x20\n      add\n      0x00\n      keccak256\n        /* \"contracts/Twitter.sol\":1382:1407  tweets[msg.sender].length */\n      dup1\n      sload\n      swap1\n      pop\n        /* \"contracts/Twitter.sol\":1358:1541  Tweet({... */\n      dup2\n      mstore\n      0x20\n      add\n        /* \"contracts/Twitter.sol\":1429:1439  msg.sender */\n      caller\n        /* \"contracts/Twitter.sol\":1358:1541  Tweet({... */\n      0xffffffffffffffffffffffffffffffffffffffff\n      and\n      dup2\n      mstore\n      0x20\n      add\n        /* \"contracts/Twitter.sol\":1462:1468  _tweet */\n      dup4\n        /* \"contracts/Twitter.sol\":1358:1541  Tweet({... */\n      dup2\n      mstore\n      0x20\n      add\n        /* \"contracts/Twitter.sol\":1493:1508  block.timestamp */\n      timestamp\n        /* \"contracts/Twitter.sol\":1358:1541  Tweet({... */\n      dup2\n      mstore\n      0x20\n      add\n        /* \"contracts/Twitter.sol\":1529:1530  0 */\n      0x00\n        /* \"contracts/Twitter.sol\":1358:1541  Tweet({... */\n      dup2\n      mstore\n      pop\n        /* \"contracts/Twitter.sol\":1334:1541  Tweet memory newTweet = Tweet({... */\n      swap1\n      pop\n        /* \"contracts/Twitter.sol\":1552:1558  tweets */\n      0x01\n        /* \"contracts/Twitter.sol\":1552:1570  tweets[msg.sender] */\n      0x00\n        /* \"contracts/Twitter.sol\":1559:1569  msg.sender */\n      caller\n        /* \"contracts/Twitter.sol\":1552:1570  tweets[msg.sender] */\n      0xffffffffffffffffffffffffffffffffffffffff\n      and\n      0xffffffffffffffffffffffffffffffffffffffff\n      and\n      dup2\n      mstore\n      0x20\n      add\n      swap1\n      dup2\n      mstore\n      0x20\n      add\n      0x00\n      keccak256\n        /* \"contracts/Twitter.sol\":1576:1584  newTweet */\n      dup2\n        /* \"contracts/Twitter.sol\":1552:1585  tweets[msg.sender].push(newTweet) */\n      swap1\n      dup1\n      0x01\n      dup2\n      sload\n      add\n      dup1\n      dup3\n      sstore\n      dup1\n      swap2\n      pop\n      pop\n      0x01\n      swap1\n      sub\n      swap1\n      0x00\n      mstore\n      keccak256(0x00, 0x20)\n      swap1\n      0x05\n      mul\n      add\n      0x00\n      swap1\n      swap2\n      swap1\n      swap2\n      swap1\n      swap2\n      pop\n      0x00\n      dup3\n      add\n      mload\n      dup2\n      0x00\n      add\n      sstore\n      0x20\n      dup3\n      add\n      mload\n      dup2\n      0x01\n      add\n      exp(0x0100, 0x00)\n      dup2\n      sload\n      dup2\n      0xffffffffffffffffffffffffffffffffffffffff\n      mul\n      not\n      and\n      swap1\n      dup4\n      0xffffffffffffffffffffffffffffffffffffffff\n      and\n      mul\n      or\n      swap1\n      sstore\n      pop\n      0x40\n      dup3\n      add\n      mload\n      dup2\n      0x02\n      add\n      swap1\n      dup2\n      tag_134\n      swap2\n      swap1\n      tag_135\n      jump\t// in\n    tag_134:\n      pop\n      0x60\n      dup3\n      add\n      mload\n      dup2\n      0x03\n      add\n      sstore\n      0x80\n      dup3\n      add\n      mload\n      dup2\n      0x04\n      add\n      sstore\n      pop\n      pop\n        /* \"contracts/Twitter.sol\":1601:1681  TweetCreated(newTweet.id, newTweet.author, newTweet.content, newTweet.timestamp) */\n      0x16fd3c13e9d46923e0a8bce11c7b473ec508a72e6c96cd2404b29ce972afc29e\n        /* \"contracts/Twitter.sol\":1614:1622  newTweet */\n      dup2\n        /* \"contracts/Twitter.sol\":1614:1625  newTweet.id */\n      0x00\n      add\n      mload\n        /* \"contracts/Twitter.sol\":1627:1635  newTweet */\n      dup3\n        /* \"contracts/Twitter.sol\":1627:1642  newTweet.author */\n      0x20\n      add\n      mload\n        /* \"contracts/Twitter.sol\":1644:1652  newTweet */\n      dup4\n        /* \"contracts/Twitter.sol\":1644:1660  newTweet.content */\n      0x40\n      add\n      mload\n        /* \"contracts/Twitter.sol\":1662:1670  newTweet */\n      dup5\n        /* \"contracts/Twitter.sol\":1662:1680  newTweet.timestamp */\n      0x60\n      add\n      mload\n        /* \"contracts/Twitter.sol\":1601:1681  TweetCreated(newTweet.id, newTweet.author, newTweet.content, newTweet.timestamp) */\n      mload(0x40)\n      tag_136\n      swap5\n      swap4\n      swap3\n      swap2\n      swap1\n      tag_137\n      jump\t// in\n    tag_136:\n      mload(0x40)\n      dup1\n      swap2\n      sub\n      swap1\n      log1\n        /* \"contracts/Twitter.sol\":1241:1688  {... */\n      pop\n        /* \"contracts/Twitter.sol\":1191:1688  function createtweet(string memory _tweet) public {... */\n      pop\n      jump\t// out\n        /* \"contracts/Twitter.sol\":2271:2380  function getTweet(uint256 _i) public view returns(Tweet memory){... */\n    tag_56:\n        /* \"contracts/Twitter.sol\":2321:2333  Tweet memory */\n      tag_138\n      tag_139\n      jump\t// in\n    tag_138:\n        /* \"contracts/Twitter.sol\":2351:2357  tweets */\n      0x01\n        /* \"contracts/Twitter.sol\":2351:2369  tweets[msg.sender] */\n      0x00\n        /* \"contracts/Twitter.sol\":2358:2368  msg.sender */\n      caller\n        /* \"contracts/Twitter.sol\":2351:2369  tweets[msg.sender] */\n      0xffffffffffffffffffffffffffffffffffffffff\n      and\n      0xffffffffffffffffffffffffffffffffffffffff\n      and\n      dup2\n      mstore\n      0x20\n      add\n      swap1\n      dup2\n      mstore\n      0x20\n      add\n      0x00\n      keccak256\n        /* \"contracts/Twitter.sol\":2370:2372  _i */\n      dup3\n        /* \"contracts/Twitter.sol\":2351:2373  tweets[msg.sender][_i] */\n      dup2\n      sload\n      dup2\n      lt\n      tag_141\n      jumpi\n      tag_142\n      tag_79\n      jump\t// in\n    tag_142:\n    tag_141:\n      swap1\n      0x00\n      mstore\n      keccak256(0x00, 0x20)\n      swap1\n      0x05\n      mul\n      add\n        /* \"contracts/Twitter.sol\":2344:2373  return tweets[msg.sender][_i] */\n      mload(0x40)\n      dup1\n      0xa0\n      add\n      0x40\n      mstore\n      swap1\n      dup2\n      0x00\n      dup3\n      add\n      sload\n      dup2\n      mstore\n      0x20\n      add\n      0x01\n      dup3\n      add\n      0x00\n      swap1\n      sload\n      swap1\n      0x0100\n      exp\n      swap1\n      div\n      0xffffffffffffffffffffffffffffffffffffffff\n      and\n      0xffffffffffffffffffffffffffffffffffffffff\n      and\n      0xffffffffffffffffffffffffffffffffffffffff\n      and\n      dup2\n      mstore\n      0x20\n      add\n      0x02\n      dup3\n      add\n      dup1\n      sload\n      tag_144\n      swap1\n      tag_62\n      jump\t// in\n    tag_144:\n      dup1\n      0x1f\n      add\n      0x20\n      dup1\n      swap2\n      div\n      mul\n      0x20\n      add\n      mload(0x40)\n      swap1\n      dup2\n      add\n      0x40\n      mstore\n      dup1\n      swap3\n      swap2\n      swap1\n      dup2\n      dup2\n      mstore\n      0x20\n      add\n      dup3\n      dup1\n      sload\n      tag_145\n      swap1\n      tag_62\n      jump\t// in\n    tag_145:\n      dup1\n      iszero\n      tag_146\n      jumpi\n      dup1\n      0x1f\n      lt\n      tag_147\n      jumpi\n      0x0100\n      dup1\n      dup4\n      sload\n      div\n      mul\n      dup4\n      mstore\n      swap2\n      0x20\n      add\n      swap2\n      jump(tag_146)\n    tag_147:\n      dup3\n      add\n      swap2\n      swap1\n      0x00\n      mstore\n      keccak256(0x00, 0x20)\n      swap1\n    tag_148:\n      dup2\n      sload\n      dup2\n      mstore\n      swap1\n      0x01\n      add\n      swap1\n      0x20\n      add\n      dup1\n      dup4\n      gt\n      tag_148\n      jumpi\n      dup3\n      swap1\n      sub\n      0x1f\n      and\n      dup3\n      add\n      swap2\n    tag_146:\n      pop\n      pop\n      pop\n      pop\n      pop\n      dup2\n      mstore\n      0x20\n      add\n      0x03\n      dup3\n      add\n      sload\n      dup2\n      mstore\n      0x20\n      add\n      0x04\n      dup3\n      add\n      sload\n      dup2\n      mstore\n      pop\n      pop\n      swap1\n      pop\n        /* \"contracts/Twitter.sol\":2271:2380  function getTweet(uint256 _i) public view returns(Tweet memory){... */\n      swap2\n      swap1\n      pop\n      jump\t// out\n    tag_139:\n      mload(0x40)\n      dup1\n      0xa0\n      add\n      0x40\n      mstore\n      dup1\n      0x00\n      dup2\n      mstore\n      0x20\n      add\n      and(0xffffffffffffffffffffffffffffffffffffffff, 0x00)\n      dup2\n      mstore\n      0x20\n      add\n      0x60\n      dup2\n      mstore\n      0x20\n      add\n      0x00\n      dup2\n      mstore\n      0x20\n      add\n      0x00\n      dup2\n      mstore\n      pop\n      swap1\n      jump\t// out\n        /* \"#utility.yul\":7:82   */\n    tag_149:\n        /* \"#utility.yul\":40:46   */\n      0x00\n        /* \"#utility.yul\":73:75   */\n      0x40\n        /* \"#utility.yul\":67:76   */\n      mload\n        /* \"#utility.yul\":57:76   */\n      swap1\n      pop\n        /* \"#utility.yul\":7:82   */\n      swap1\n      jump\t// out\n        /* \"#utility.yul\":88:205   */\n    tag_150:\n        /* \"#utility.yul\":197:198   */\n      0x00\n        /* \"#utility.yul\":194:195   */\n      dup1\n        /* \"#utility.yul\":187:199   */\n      revert\n        /* \"#utility.yul\":211:328   */\n    tag_151:\n        /* \"#utility.yul\":320:321   */\n      0x00\n        /* \"#utility.yul\":317:318   */\n      dup1\n        /* \"#utility.yul\":310:322   */\n      revert\n        /* \"#utility.yul\":334:460   */\n    tag_152:\n        /* \"#utility.yul\":371:378   */\n      0x00\n        /* \"#utility.yul\":411:453   */\n      0xffffffffffffffffffffffffffffffffffffffff\n        /* \"#utility.yul\":404:409   */\n      dup3\n        /* \"#utility.yul\":400:454   */\n      and\n        /* \"#utility.yul\":389:454   */\n      swap1\n      pop\n        /* \"#utility.yul\":334:460   */\n      swap2\n      swap1\n      pop\n      jump\t// out\n        /* \"#utility.yul\":466:562   */\n    tag_153:\n        /* \"#utility.yul\":503:510   */\n      0x00\n        /* \"#utility.yul\":532:556   */\n      tag_222\n        /* \"#utility.yul\":550:555   */\n      dup3\n        /* \"#utility.yul\":532:556   */\n      tag_152\n      jump\t// in\n    tag_222:\n        /* \"#utility.yul\":521:556   */\n      swap1\n      pop\n        /* \"#utility.yul\":466:562   */\n      swap2\n      swap1\n      pop\n      jump\t// out\n        /* \"#utility.yul\":568:690   */\n    tag_154:\n        /* \"#utility.yul\":641:665   */\n      tag_224\n        /* \"#utility.yul\":659:664   */\n      dup2\n        /* \"#utility.yul\":641:665   */\n      tag_153\n      jump\t// in\n    tag_224:\n        /* \"#utility.yul\":634:639   */\n      dup2\n        /* \"#utility.yul\":631:666   */\n      eq\n        /* \"#utility.yul\":621:684   */\n      tag_225\n      jumpi\n        /* \"#utility.yul\":680:681   */\n      0x00\n        /* \"#utility.yul\":677:678   */\n      dup1\n        /* \"#utility.yul\":670:682   */\n      revert\n        /* \"#utility.yul\":621:684   */\n    tag_225:\n        /* \"#utility.yul\":568:690   */\n      pop\n      jump\t// out\n        /* \"#utility.yul\":696:835   */\n    tag_155:\n        /* \"#utility.yul\":742:747   */\n      0x00\n        /* \"#utility.yul\":780:786   */\n      dup2\n        /* \"#utility.yul\":767:787   */\n      calldataload\n        /* \"#utility.yul\":758:787   */\n      swap1\n      pop\n        /* \"#utility.yul\":796:829   */\n      tag_227\n        /* \"#utility.yul\":823:828   */\n      dup2\n        /* \"#utility.yul\":796:829   */\n      tag_154\n      jump\t// in\n    tag_227:\n        /* \"#utility.yul\":696:835   */\n      swap3\n      swap2\n      pop\n      pop\n      jump\t// out\n        /* \"#utility.yul\":841:918   */\n    tag_156:\n        /* \"#utility.yul\":878:885   */\n      0x00\n        /* \"#utility.yul\":907:912   */\n      dup2\n        /* \"#utility.yul\":896:912   */\n      swap1\n      pop\n        /* \"#utility.yul\":841:918   */\n      swap2\n      swap1\n      pop\n      jump\t// out\n        /* \"#utility.yul\":924:1046   */\n    tag_157:\n        /* \"#utility.yul\":997:1021   */\n      tag_230\n        /* \"#utility.yul\":1015:1020   */\n      dup2\n        /* \"#utility.yul\":997:1021   */\n      tag_156\n      jump\t// in\n    tag_230:\n        /* \"#utility.yul\":990:995   */\n      dup2\n        /* \"#utility.yul\":987:1022   */\n      eq\n        /* \"#utility.yul\":977:1040   */\n      tag_231\n      jumpi\n        /* \"#utility.yul\":1036:1037   */\n      0x00\n        /* \"#utility.yul\":1033:1034   */\n      dup1\n        /* \"#utility.yul\":1026:1038   */\n      revert\n        /* \"#utility.yul\":977:1040   */\n    tag_231:\n        /* \"#utility.yul\":924:1046   */\n      pop\n      jump\t// out\n        /* \"#utility.yul\":1052:1191   */\n    tag_158:\n        /* \"#utility.yul\":1098:1103   */\n      0x00\n        /* \"#utility.yul\":1136:1142   */\n      dup2\n        /* \"#utility.yul\":1123:1143   */\n      calldataload\n        /* \"#utility.yul\":1114:1143   */\n      swap1\n      pop\n        /* \"#utility.yul\":1152:1185   */\n      tag_233\n        /* \"#utility.yul\":1179:1184   */\n      dup2\n        /* \"#utility.yul\":1152:1185   */\n      tag_157\n      jump\t// in\n    tag_233:\n        /* \"#utility.yul\":1052:1191   */\n      swap3\n      swap2\n      pop\n      pop\n      jump\t// out\n        /* \"#utility.yul\":1197:1671   */\n    tag_16:\n        /* \"#utility.yul\":1265:1271   */\n      0x00\n        /* \"#utility.yul\":1273:1279   */\n      dup1\n        /* \"#utility.yul\":1322:1324   */\n      0x40\n        /* \"#utility.yul\":1310:1319   */\n      dup4\n        /* \"#utility.yul\":1301:1308   */\n      dup6\n        /* \"#utility.yul\":1297:1320   */\n      sub\n        /* \"#utility.yul\":1293:1325   */\n      slt\n        /* \"#utility.yul\":1290:1409   */\n      iszero\n      tag_235\n      jumpi\n        /* \"#utility.yul\":1328:1407   */\n      tag_236\n      tag_150\n      jump\t// in\n    tag_236:\n        /* \"#utility.yul\":1290:1409   */\n    tag_235:\n        /* \"#utility.yul\":1448:1449   */\n      0x00\n        /* \"#utility.yul\":1473:1526   */\n      tag_237\n        /* \"#utility.yul\":1518:1525   */\n      dup6\n        /* \"#utility.yul\":1509:1515   */\n      dup3\n        /* \"#utility.yul\":1498:1507   */\n      dup7\n        /* \"#utility.yul\":1494:1516   */\n      add\n        /* \"#utility.yul\":1473:1526   */\n      tag_155\n      jump\t// in\n    tag_237:\n        /* \"#utility.yul\":1463:1526   */\n      swap3\n      pop\n        /* \"#utility.yul\":1419:1536   */\n      pop\n        /* \"#utility.yul\":1575:1577   */\n      0x20\n        /* \"#utility.yul\":1601:1654   */\n      tag_238\n        /* \"#utility.yul\":1646:1653   */\n      dup6\n        /* \"#utility.yul\":1637:1643   */\n      dup3\n        /* \"#utility.yul\":1626:1635   */\n      dup7\n        /* \"#utility.yul\":1622:1644   */\n      add\n        /* \"#utility.yul\":1601:1654   */\n      tag_158\n      jump\t// in\n    tag_238:\n        /* \"#utility.yul\":1591:1654   */\n      swap2\n      pop\n        /* \"#utility.yul\":1546:1664   */\n      pop\n        /* \"#utility.yul\":1197:1671   */\n      swap3\n      pop\n      swap3\n      swap1\n      pop\n      jump\t// out\n        /* \"#utility.yul\":1677:1795   */\n    tag_159:\n        /* \"#utility.yul\":1764:1788   */\n      tag_240\n        /* \"#utility.yul\":1782:1787   */\n      dup2\n        /* \"#utility.yul\":1764:1788   */\n      tag_156\n      jump\t// in\n    tag_240:\n        /* \"#utility.yul\":1759:1762   */\n      dup3\n        /* \"#utility.yul\":1752:1789   */\n      mstore\n        /* \"#utility.yul\":1677:1795   */\n      pop\n      pop\n      jump\t// out\n        /* \"#utility.yul\":1801:1919   */\n    tag_160:\n        /* \"#utility.yul\":1888:1912   */\n      tag_242\n        /* \"#utility.yul\":1906:1911   */\n      dup2\n        /* \"#utility.yul\":1888:1912   */\n      tag_153\n      jump\t// in\n    tag_242:\n        /* \"#utility.yul\":1883:1886   */\n      dup3\n        /* \"#utility.yul\":1876:1913   */\n      mstore\n        /* \"#utility.yul\":1801:1919   */\n      pop\n      pop\n      jump\t// out\n        /* \"#utility.yul\":1925:2024   */\n    tag_161:\n        /* \"#utility.yul\":1977:1983   */\n      0x00\n        /* \"#utility.yul\":2011:2016   */\n      dup2\n        /* \"#utility.yul\":2005:2017   */\n      mload\n        /* \"#utility.yul\":1995:2017   */\n      swap1\n      pop\n        /* \"#utility.yul\":1925:2024   */\n      swap2\n      swap1\n      pop\n      jump\t// out\n        /* \"#utility.yul\":2030:2199   */\n    tag_162:\n        /* \"#utility.yul\":2114:2125   */\n      0x00\n        /* \"#utility.yul\":2148:2154   */\n      dup3\n        /* \"#utility.yul\":2143:2146   */\n      dup3\n        /* \"#utility.yul\":2136:2155   */\n      mstore\n        /* \"#utility.yul\":2188:2192   */\n      0x20\n        /* \"#utility.yul\":2183:2186   */\n      dup3\n        /* \"#utility.yul\":2179:2193   */\n      add\n        /* \"#utility.yul\":2164:2193   */\n      swap1\n      pop\n        /* \"#utility.yul\":2030:2199   */\n      swap3\n      swap2\n      pop\n      pop\n      jump\t// out\n        /* \"#utility.yul\":2205:2344   */\n    tag_163:\n        /* \"#utility.yul\":2294:2300   */\n      dup3\n        /* \"#utility.yul\":2289:2292   */\n      dup2\n        /* \"#utility.yul\":2284:2287   */\n      dup4\n        /* \"#utility.yul\":2278:2301   */\n      mcopy\n        /* \"#utility.yul\":2335:2336   */\n      0x00\n        /* \"#utility.yul\":2326:2332   */\n      dup4\n        /* \"#utility.yul\":2321:2324   */\n      dup4\n        /* \"#utility.yul\":2317:2333   */\n      add\n        /* \"#utility.yul\":2310:2337   */\n      mstore\n        /* \"#utility.yul\":2205:2344   */\n      pop\n      pop\n      pop\n      jump\t// out\n        /* \"#utility.yul\":2350:2452   */\n    tag_164:\n        /* \"#utility.yul\":2391:2397   */\n      0x00\n        /* \"#utility.yul\":2442:2444   */\n      0x1f\n        /* \"#utility.yul\":2438:2445   */\n      not\n        /* \"#utility.yul\":2433:2435   */\n      0x1f\n        /* \"#utility.yul\":2426:2431   */\n      dup4\n        /* \"#utility.yul\":2422:2436   */\n      add\n        /* \"#utility.yul\":2418:2446   */\n      and\n        /* \"#utility.yul\":2408:2446   */\n      swap1\n      pop\n        /* \"#utility.yul\":2350:2452   */\n      swap2\n      swap1\n      pop\n      jump\t// out\n        /* \"#utility.yul\":2458:2835   */\n    tag_165:\n        /* \"#utility.yul\":2546:2549   */\n      0x00\n        /* \"#utility.yul\":2574:2613   */\n      tag_248\n        /* \"#utility.yul\":2607:2612   */\n      dup3\n        /* \"#utility.yul\":2574:2613   */\n      tag_161\n      jump\t// in\n    tag_248:\n        /* \"#utility.yul\":2629:2700   */\n      tag_249\n        /* \"#utility.yul\":2693:2699   */\n      dup2\n        /* \"#utility.yul\":2688:2691   */\n      dup6\n        /* \"#utility.yul\":2629:2700   */\n      tag_162\n      jump\t// in\n    tag_249:\n        /* \"#utility.yul\":2622:2700   */\n      swap4\n      pop\n        /* \"#utility.yul\":2709:2774   */\n      tag_250\n        /* \"#utility.yul\":2767:2773   */\n      dup2\n        /* \"#utility.yul\":2762:2765   */\n      dup6\n        /* \"#utility.yul\":2755:2759   */\n      0x20\n        /* \"#utility.yul\":2748:2753   */\n      dup7\n        /* \"#utility.yul\":2744:2760   */\n      add\n        /* \"#utility.yul\":2709:2774   */\n      tag_163\n      jump\t// in\n    tag_250:\n        /* \"#utility.yul\":2799:2828   */\n      tag_251\n        /* \"#utility.yul\":2821:2827   */\n      dup2\n        /* \"#utility.yul\":2799:2828   */\n      tag_164\n      jump\t// in\n    tag_251:\n        /* \"#utility.yul\":2794:2797   */\n      dup5\n        /* \"#utility.yul\":2790:2829   */\n      add\n        /* \"#utility.yul\":2783:2829   */\n      swap2\n      pop\n        /* \"#utility.yul\":2550:2835   */\n      pop\n        /* \"#utility.yul\":2458:2835   */\n      swap3\n      swap2\n      pop\n      pop\n      jump\t// out\n        /* \"#utility.yul\":2841:3596   */\n    tag_19:\n        /* \"#utility.yul\":3066:3070   */\n      0x00\n        /* \"#utility.yul\":3104:3107   */\n      0xa0\n        /* \"#utility.yul\":3093:3102   */\n      dup3\n        /* \"#utility.yul\":3089:3108   */\n      add\n        /* \"#utility.yul\":3081:3108   */\n      swap1\n      pop\n        /* \"#utility.yul\":3118:3189   */\n      tag_253\n        /* \"#utility.yul\":3186:3187   */\n      0x00\n        /* \"#utility.yul\":3175:3184   */\n      dup4\n        /* \"#utility.yul\":3171:3188   */\n      add\n        /* \"#utility.yul\":3162:3168   */\n      dup9\n        /* \"#utility.yul\":3118:3189   */\n      tag_159\n      jump\t// in\n    tag_253:\n        /* \"#utility.yul\":3199:3271   */\n      tag_254\n        /* \"#utility.yul\":3267:3269   */\n      0x20\n        /* \"#utility.yul\":3256:3265   */\n      dup4\n        /* \"#utility.yul\":3252:3270   */\n      add\n        /* \"#utility.yul\":3243:3249   */\n      dup8\n        /* \"#utility.yul\":3199:3271   */\n      tag_160\n      jump\t// in\n    tag_254:\n        /* \"#utility.yul\":3318:3327   */\n      dup2\n        /* \"#utility.yul\":3312:3316   */\n      dup2\n        /* \"#utility.yul\":3308:3328   */\n      sub\n        /* \"#utility.yul\":3303:3305   */\n      0x40\n        /* \"#utility.yul\":3292:3301   */\n      dup4\n        /* \"#utility.yul\":3288:3306   */\n      add\n        /* \"#utility.yul\":3281:3329   */\n      mstore\n        /* \"#utility.yul\":3346:3424   */\n      tag_255\n        /* \"#utility.yul\":3419:3423   */\n      dup2\n        /* \"#utility.yul\":3410:3416   */\n      dup7\n        /* \"#utility.yul\":3346:3424   */\n      tag_165\n      jump\t// in\n    tag_255:\n        /* \"#utility.yul\":3338:3424   */\n      swap1\n      pop\n        /* \"#utility.yul\":3434:3506   */\n      tag_256\n        /* \"#utility.yul\":3502:3504   */\n      0x60\n        /* \"#utility.yul\":3491:3500   */\n      dup4\n        /* \"#utility.yul\":3487:3505   */\n      add\n        /* \"#utility.yul\":3478:3484   */\n      dup6\n        /* \"#utility.yul\":3434:3506   */\n      tag_159\n      jump\t// in\n    tag_256:\n        /* \"#utility.yul\":3516:3589   */\n      tag_257\n        /* \"#utility.yul\":3584:3587   */\n      0x80\n        /* \"#utility.yul\":3573:3582   */\n      dup4\n        /* \"#utility.yul\":3569:3588   */\n      add\n        /* \"#utility.yul\":3560:3566   */\n      dup5\n        /* \"#utility.yul\":3516:3589   */\n      tag_159\n      jump\t// in\n    tag_257:\n        /* \"#utility.yul\":2841:3596   */\n      swap7\n      swap6\n      pop\n      pop\n      pop\n      pop\n      pop\n      pop\n      jump\t// out\n        /* \"#utility.yul\":3602:3931   */\n    tag_22:\n        /* \"#utility.yul\":3661:3667   */\n      0x00\n        /* \"#utility.yul\":3710:3712   */\n      0x20\n        /* \"#utility.yul\":3698:3707   */\n      dup3\n        /* \"#utility.yul\":3689:3696   */\n      dup5\n        /* \"#utility.yul\":3685:3708   */\n      sub\n        /* \"#utility.yul\":3681:3713   */\n      slt\n        /* \"#utility.yul\":3678:3797   */\n      iszero\n      tag_259\n      jumpi\n        /* \"#utility.yul\":3716:3795   */\n      tag_260\n      tag_150\n      jump\t// in\n    tag_260:\n        /* \"#utility.yul\":3678:3797   */\n    tag_259:\n        /* \"#utility.yul\":3836:3837   */\n      0x00\n        /* \"#utility.yul\":3861:3914   */\n      tag_261\n        /* \"#utility.yul\":3906:3913   */\n      dup5\n        /* \"#utility.yul\":3897:3903   */\n      dup3\n        /* \"#utility.yul\":3886:3895   */\n      dup6\n        /* \"#utility.yul\":3882:3904   */\n      add\n        /* \"#utility.yul\":3861:3914   */\n      tag_155\n      jump\t// in\n    tag_261:\n        /* \"#utility.yul\":3851:3914   */\n      swap2\n      pop\n        /* \"#utility.yul\":3807:3924   */\n      pop\n        /* \"#utility.yul\":3602:3931   */\n      swap3\n      swap2\n      pop\n      pop\n      jump\t// out\n        /* \"#utility.yul\":3937:4072   */\n    tag_166:\n        /* \"#utility.yul\":4025:4031   */\n      0x00\n        /* \"#utility.yul\":4059:4064   */\n      dup2\n        /* \"#utility.yul\":4053:4065   */\n      mload\n        /* \"#utility.yul\":4043:4065   */\n      swap1\n      pop\n        /* \"#utility.yul\":3937:4072   */\n      swap2\n      swap1\n      pop\n      jump\t// out\n        /* \"#utility.yul\":4078:4283   */\n    tag_167:\n        /* \"#utility.yul\":4198:4209   */\n      0x00\n        /* \"#utility.yul\":4232:4238   */\n      dup3\n        /* \"#utility.yul\":4227:4230   */\n      dup3\n        /* \"#utility.yul\":4220:4239   */\n      mstore\n        /* \"#utility.yul\":4272:4276   */\n      0x20\n        /* \"#utility.yul\":4267:4270   */\n      dup3\n        /* \"#utility.yul\":4263:4277   */\n      add\n        /* \"#utility.yul\":4248:4277   */\n      swap1\n      pop\n        /* \"#utility.yul\":4078:4283   */\n      swap3\n      swap2\n      pop\n      pop\n      jump\t// out\n        /* \"#utility.yul\":4289:4442   */\n    tag_168:\n        /* \"#utility.yul\":4377:4381   */\n      0x00\n        /* \"#utility.yul\":4400:4403   */\n      dup2\n        /* \"#utility.yul\":4392:4403   */\n      swap1\n      pop\n        /* \"#utility.yul\":4430:4434   */\n      0x20\n        /* \"#utility.yul\":4425:4428   */\n      dup3\n        /* \"#utility.yul\":4421:4435   */\n      add\n        /* \"#utility.yul\":4413:4435   */\n      swap1\n      pop\n        /* \"#utility.yul\":4289:4442   */\n      swap2\n      swap1\n      pop\n      jump\t// out\n        /* \"#utility.yul\":4448:4556   */\n    tag_169:\n        /* \"#utility.yul\":4525:4549   */\n      tag_266\n        /* \"#utility.yul\":4543:4548   */\n      dup2\n        /* \"#utility.yul\":4525:4549   */\n      tag_156\n      jump\t// in\n    tag_266:\n        /* \"#utility.yul\":4520:4523   */\n      dup3\n        /* \"#utility.yul\":4513:4550   */\n      mstore\n        /* \"#utility.yul\":4448:4556   */\n      pop\n      pop\n      jump\t// out\n        /* \"#utility.yul\":4562:4670   */\n    tag_170:\n        /* \"#utility.yul\":4639:4663   */\n      tag_268\n        /* \"#utility.yul\":4657:4662   */\n      dup2\n        /* \"#utility.yul\":4639:4663   */\n      tag_153\n      jump\t// in\n    tag_268:\n        /* \"#utility.yul\":4634:4637   */\n      dup3\n        /* \"#utility.yul\":4627:4664   */\n      mstore\n        /* \"#utility.yul\":4562:4670   */\n      pop\n      pop\n      jump\t// out\n        /* \"#utility.yul\":4676:4835   */\n    tag_171:\n        /* \"#utility.yul\":4750:4761   */\n      0x00\n        /* \"#utility.yul\":4784:4790   */\n      dup3\n        /* \"#utility.yul\":4779:4782   */\n      dup3\n        /* \"#utility.yul\":4772:4791   */\n      mstore\n        /* \"#utility.yul\":4824:4828   */\n      0x20\n        /* \"#utility.yul\":4819:4822   */\n      dup3\n        /* \"#utility.yul\":4815:4829   */\n      add\n        /* \"#utility.yul\":4800:4829   */\n      swap1\n      pop\n        /* \"#utility.yul\":4676:4835   */\n      swap3\n      swap2\n      pop\n      pop\n      jump\t// out\n        /* \"#utility.yul\":4841:5198   */\n    tag_172:\n        /* \"#utility.yul\":4919:4922   */\n      0x00\n        /* \"#utility.yul\":4947:4986   */\n      tag_271\n        /* \"#utility.yul\":4980:4985   */\n      dup3\n        /* \"#utility.yul\":4947:4986   */\n      tag_161\n      jump\t// in\n    tag_271:\n        /* \"#utility.yul\":5002:5063   */\n      tag_272\n        /* \"#utility.yul\":5056:5062   */\n      dup2\n        /* \"#utility.yul\":5051:5054   */\n      dup6\n        /* \"#utility.yul\":5002:5063   */\n      tag_171\n      jump\t// in\n    tag_272:\n        /* \"#utility.yul\":4995:5063   */\n      swap4\n      pop\n        /* \"#utility.yul\":5072:5137   */\n      tag_273\n        /* \"#utility.yul\":5130:5136   */\n      dup2\n        /* \"#utility.yul\":5125:5128   */\n      dup6\n        /* \"#utility.yul\":5118:5122   */\n      0x20\n        /* \"#utility.yul\":5111:5116   */\n      dup7\n        /* \"#utility.yul\":5107:5123   */\n      add\n        /* \"#utility.yul\":5072:5137   */\n      tag_163\n      jump\t// in\n    tag_273:\n        /* \"#utility.yul\":5162:5191   */\n      tag_274\n        /* \"#utility.yul\":5184:5190   */\n      dup2\n        /* \"#utility.yul\":5162:5191   */\n      tag_164\n      jump\t// in\n    tag_274:\n        /* \"#utility.yul\":5157:5160   */\n      dup5\n        /* \"#utility.yul\":5153:5192   */\n      add\n        /* \"#utility.yul\":5146:5192   */\n      swap2\n      pop\n        /* \"#utility.yul\":4923:5198   */\n      pop\n        /* \"#utility.yul\":4841:5198   */\n      swap3\n      swap2\n      pop\n      pop\n      jump\t// out\n        /* \"#utility.yul\":5256:6375   */\n    tag_173:\n        /* \"#utility.yul\":5357:5360   */\n      0x00\n        /* \"#utility.yul\":5393:5397   */\n      0xa0\n        /* \"#utility.yul\":5388:5391   */\n      dup4\n        /* \"#utility.yul\":5384:5398   */\n      add\n        /* \"#utility.yul\":5478:5482   */\n      0x00\n        /* \"#utility.yul\":5471:5476   */\n      dup4\n        /* \"#utility.yul\":5467:5483   */\n      add\n        /* \"#utility.yul\":5461:5484   */\n      mload\n        /* \"#utility.yul\":5497:5560   */\n      tag_276\n        /* \"#utility.yul\":5554:5558   */\n      0x00\n        /* \"#utility.yul\":5549:5552   */\n      dup7\n        /* \"#utility.yul\":5545:5559   */\n      add\n        /* \"#utility.yul\":5531:5543   */\n      dup3\n        /* \"#utility.yul\":5497:5560   */\n      tag_169\n      jump\t// in\n    tag_276:\n        /* \"#utility.yul\":5408:5570   */\n      pop\n        /* \"#utility.yul\":5654:5658   */\n      0x20\n        /* \"#utility.yul\":5647:5652   */\n      dup4\n        /* \"#utility.yul\":5643:5659   */\n      add\n        /* \"#utility.yul\":5637:5660   */\n      mload\n        /* \"#utility.yul\":5673:5736   */\n      tag_277\n        /* \"#utility.yul\":5730:5734   */\n      0x20\n        /* \"#utility.yul\":5725:5728   */\n      dup7\n        /* \"#utility.yul\":5721:5735   */\n      add\n        /* \"#utility.yul\":5707:5719   */\n      dup3\n        /* \"#utility.yul\":5673:5736   */\n      tag_170\n      jump\t// in\n    tag_277:\n        /* \"#utility.yul\":5580:5746   */\n      pop\n        /* \"#utility.yul\":5831:5835   */\n      0x40\n        /* \"#utility.yul\":5824:5829   */\n      dup4\n        /* \"#utility.yul\":5820:5836   */\n      add\n        /* \"#utility.yul\":5814:5837   */\n      mload\n        /* \"#utility.yul\":5884:5887   */\n      dup5\n        /* \"#utility.yul\":5878:5882   */\n      dup3\n        /* \"#utility.yul\":5874:5888   */\n      sub\n        /* \"#utility.yul\":5867:5871   */\n      0x40\n        /* \"#utility.yul\":5862:5865   */\n      dup7\n        /* \"#utility.yul\":5858:5872   */\n      add\n        /* \"#utility.yul\":5851:5889   */\n      mstore\n        /* \"#utility.yul\":5910:5983   */\n      tag_278\n        /* \"#utility.yul\":5978:5982   */\n      dup3\n        /* \"#utility.yul\":5964:5976   */\n      dup3\n        /* \"#utility.yul\":5910:5983   */\n      tag_172\n      jump\t// in\n    tag_278:\n        /* \"#utility.yul\":5902:5983   */\n      swap2\n      pop\n        /* \"#utility.yul\":5756:5994   */\n      pop\n        /* \"#utility.yul\":6081:6085   */\n      0x60\n        /* \"#utility.yul\":6074:6079   */\n      dup4\n        /* \"#utility.yul\":6070:6086   */\n      add\n        /* \"#utility.yul\":6064:6087   */\n      mload\n        /* \"#utility.yul\":6100:6163   */\n      tag_279\n        /* \"#utility.yul\":6157:6161   */\n      0x60\n        /* \"#utility.yul\":6152:6155   */\n      dup7\n        /* \"#utility.yul\":6148:6162   */\n      add\n        /* \"#utility.yul\":6134:6146   */\n      dup3\n        /* \"#utility.yul\":6100:6163   */\n      tag_169\n      jump\t// in\n    tag_279:\n        /* \"#utility.yul\":6004:6173   */\n      pop\n        /* \"#utility.yul\":6256:6260   */\n      0x80\n        /* \"#utility.yul\":6249:6254   */\n      dup4\n        /* \"#utility.yul\":6245:6261   */\n      add\n        /* \"#utility.yul\":6239:6262   */\n      mload\n        /* \"#utility.yul\":6275:6338   */\n      tag_280\n        /* \"#utility.yul\":6332:6336   */\n      0x80\n        /* \"#utility.yul\":6327:6330   */\n      dup7\n        /* \"#utility.yul\":6323:6337   */\n      add\n        /* \"#utility.yul\":6309:6321   */\n      dup3\n        /* \"#utility.yul\":6275:6338   */\n      tag_169\n      jump\t// in\n    tag_280:\n        /* \"#utility.yul\":6183:6348   */\n      pop\n        /* \"#utility.yul\":6365:6369   */\n      dup1\n        /* \"#utility.yul\":6358:6369   */\n      swap2\n      pop\n        /* \"#utility.yul\":5362:6375   */\n      pop\n        /* \"#utility.yul\":5256:6375   */\n      swap3\n      swap2\n      pop\n      pop\n      jump\t// out\n        /* \"#utility.yul\":6381:6621   */\n    tag_174:\n        /* \"#utility.yul\":6492:6502   */\n      0x00\n        /* \"#utility.yul\":6527:6615   */\n      tag_282\n        /* \"#utility.yul\":6611:6614   */\n      dup4\n        /* \"#utility.yul\":6603:6609   */\n      dup4\n        /* \"#utility.yul\":6527:6615   */\n      tag_173\n      jump\t// in\n    tag_282:\n        /* \"#utility.yul\":6513:6615   */\n      swap1\n      pop\n        /* \"#utility.yul\":6381:6621   */\n      swap3\n      swap2\n      pop\n      pop\n      jump\t// out\n        /* \"#utility.yul\":6627:6761   */\n    tag_175:\n        /* \"#utility.yul\":6718:6722   */\n      0x00\n        /* \"#utility.yul\":6750:6754   */\n      0x20\n        /* \"#utility.yul\":6745:6748   */\n      dup3\n        /* \"#utility.yul\":6741:6755   */\n      add\n        /* \"#utility.yul\":6733:6755   */\n      swap1\n      pop\n        /* \"#utility.yul\":6627:6761   */\n      swap2\n      swap1\n      pop\n      jump\t// out\n        /* \"#utility.yul\":6823:7902   */\n    tag_176:\n        /* \"#utility.yul\":6984:6987   */\n      0x00\n        /* \"#utility.yul\":7013:7088   */\n      tag_285\n        /* \"#utility.yul\":7082:7087   */\n      dup3\n        /* \"#utility.yul\":7013:7088   */\n      tag_166\n      jump\t// in\n    tag_285:\n        /* \"#utility.yul\":7104:7211   */\n      tag_286\n        /* \"#utility.yul\":7204:7210   */\n      dup2\n        /* \"#utility.yul\":7199:7202   */\n      dup6\n        /* \"#utility.yul\":7104:7211   */\n      tag_167\n      jump\t// in\n    tag_286:\n        /* \"#utility.yul\":7097:7211   */\n      swap4\n      pop\n        /* \"#utility.yul\":7237:7240   */\n      dup4\n        /* \"#utility.yul\":7282:7286   */\n      0x20\n        /* \"#utility.yul\":7274:7280   */\n      dup3\n        /* \"#utility.yul\":7270:7287   */\n      mul\n        /* \"#utility.yul\":7265:7268   */\n      dup6\n        /* \"#utility.yul\":7261:7288   */\n      add\n        /* \"#utility.yul\":7312:7389   */\n      tag_287\n        /* \"#utility.yul\":7383:7388   */\n      dup6\n        /* \"#utility.yul\":7312:7389   */\n      tag_168\n      jump\t// in\n    tag_287:\n        /* \"#utility.yul\":7412:7419   */\n      dup1\n        /* \"#utility.yul\":7443:7444   */\n      0x00\n        /* \"#utility.yul\":7428:7857   */\n    tag_288:\n        /* \"#utility.yul\":7453:7459   */\n      dup6\n        /* \"#utility.yul\":7450:7451   */\n      dup2\n        /* \"#utility.yul\":7447:7460   */\n      lt\n        /* \"#utility.yul\":7428:7857   */\n      iszero\n      tag_290\n      jumpi\n        /* \"#utility.yul\":7524:7533   */\n      dup5\n        /* \"#utility.yul\":7518:7522   */\n      dup5\n        /* \"#utility.yul\":7514:7534   */\n      sub\n        /* \"#utility.yul\":7509:7512   */\n      dup10\n        /* \"#utility.yul\":7502:7535   */\n      mstore\n        /* \"#utility.yul\":7575:7581   */\n      dup2\n        /* \"#utility.yul\":7569:7582   */\n      mload\n        /* \"#utility.yul\":7603:7709   */\n      tag_291\n        /* \"#utility.yul\":7704:7708   */\n      dup6\n        /* \"#utility.yul\":7689:7702   */\n      dup3\n        /* \"#utility.yul\":7603:7709   */\n      tag_174\n      jump\t// in\n    tag_291:\n        /* \"#utility.yul\":7595:7709   */\n      swap5\n      pop\n        /* \"#utility.yul\":7732:7813   */\n      tag_292\n        /* \"#utility.yul\":7806:7812   */\n      dup4\n        /* \"#utility.yul\":7732:7813   */\n      tag_175\n      jump\t// in\n    tag_292:\n        /* \"#utility.yul\":7722:7813   */\n      swap3\n      pop\n        /* \"#utility.yul\":7842:7846   */\n      0x20\n        /* \"#utility.yul\":7837:7840   */\n      dup11\n        /* \"#utility.yul\":7833:7847   */\n      add\n        /* \"#utility.yul\":7826:7847   */\n      swap10\n      pop\n        /* \"#utility.yul\":7488:7857   */\n      pop\n        /* \"#utility.yul\":7475:7476   */\n      0x01\n        /* \"#utility.yul\":7472:7473   */\n      dup2\n        /* \"#utility.yul\":7468:7477   */\n      add\n        /* \"#utility.yul\":7463:7477   */\n      swap1\n      pop\n        /* \"#utility.yul\":7428:7857   */\n      jump(tag_288)\n    tag_290:\n        /* \"#utility.yul\":7432:7446   */\n      pop\n        /* \"#utility.yul\":7873:7877   */\n      dup3\n        /* \"#utility.yul\":7866:7877   */\n      swap8\n      pop\n        /* \"#utility.yul\":7893:7896   */\n      dup8\n        /* \"#utility.yul\":7886:7896   */\n      swap6\n      pop\n        /* \"#utility.yul\":6989:7902   */\n      pop\n      pop\n      pop\n      pop\n      pop\n        /* \"#utility.yul\":6823:7902   */\n      swap3\n      swap2\n      pop\n      pop\n      jump\t// out\n        /* \"#utility.yul\":7908:8365   */\n    tag_25:\n        /* \"#utility.yul\":8093:8097   */\n      0x00\n        /* \"#utility.yul\":8131:8133   */\n      0x20\n        /* \"#utility.yul\":8120:8129   */\n      dup3\n        /* \"#utility.yul\":8116:8134   */\n      add\n        /* \"#utility.yul\":8108:8134   */\n      swap1\n      pop\n        /* \"#utility.yul\":8180:8189   */\n      dup2\n        /* \"#utility.yul\":8174:8178   */\n      dup2\n        /* \"#utility.yul\":8170:8190   */\n      sub\n        /* \"#utility.yul\":8166:8167   */\n      0x00\n        /* \"#utility.yul\":8155:8164   */\n      dup4\n        /* \"#utility.yul\":8151:8168   */\n      add\n        /* \"#utility.yul\":8144:8191   */\n      mstore\n        /* \"#utility.yul\":8208:8358   */\n      tag_294\n        /* \"#utility.yul\":8353:8357   */\n      dup2\n        /* \"#utility.yul\":8344:8350   */\n      dup5\n        /* \"#utility.yul\":8208:8358   */\n      tag_176\n      jump\t// in\n    tag_294:\n        /* \"#utility.yul\":8200:8358   */\n      swap1\n      pop\n        /* \"#utility.yul\":7908:8365   */\n      swap3\n      swap2\n      pop\n      pop\n      jump\t// out\n        /* \"#utility.yul\":8371:8460   */\n    tag_177:\n        /* \"#utility.yul\":8407:8414   */\n      0x00\n        /* \"#utility.yul\":8447:8453   */\n      0xffff\n        /* \"#utility.yul\":8440:8445   */\n      dup3\n        /* \"#utility.yul\":8436:8454   */\n      and\n        /* \"#utility.yul\":8425:8454   */\n      swap1\n      pop\n        /* \"#utility.yul\":8371:8460   */\n      swap2\n      swap1\n      pop\n      jump\t// out\n        /* \"#utility.yul\":8466:8586   */\n    tag_178:\n        /* \"#utility.yul\":8538:8561   */\n      tag_297\n        /* \"#utility.yul\":8555:8560   */\n      dup2\n        /* \"#utility.yul\":8538:8561   */\n      tag_177\n      jump\t// in\n    tag_297:\n        /* \"#utility.yul\":8531:8536   */\n      dup2\n        /* \"#utility.yul\":8528:8562   */\n      eq\n        /* \"#utility.yul\":8518:8580   */\n      tag_298\n      jumpi\n        /* \"#utility.yul\":8576:8577   */\n      0x00\n        /* \"#utility.yul\":8573:8574   */\n      dup1\n        /* \"#utility.yul\":8566:8578   */\n      revert\n        /* \"#utility.yul\":8518:8580   */\n    tag_298:\n        /* \"#utility.yul\":8466:8586   */\n      pop\n      jump\t// out\n        /* \"#utility.yul\":8592:8729   */\n    tag_179:\n        /* \"#utility.yul\":8637:8642   */\n      0x00\n        /* \"#utility.yul\":8675:8681   */\n      dup2\n        /* \"#utility.yul\":8662:8682   */\n      calldataload\n        /* \"#utility.yul\":8653:8682   */\n      swap1\n      pop\n        /* \"#utility.yul\":8691:8723   */\n      tag_300\n        /* \"#utility.yul\":8717:8722   */\n      dup2\n        /* \"#utility.yul\":8691:8723   */\n      tag_178\n      jump\t// in\n    tag_300:\n        /* \"#utility.yul\":8592:8729   */\n      swap3\n      swap2\n      pop\n      pop\n      jump\t// out\n        /* \"#utility.yul\":8735:9062   */\n    tag_31:\n        /* \"#utility.yul\":8793:8799   */\n      0x00\n        /* \"#utility.yul\":8842:8844   */\n      0x20\n        /* \"#utility.yul\":8830:8839   */\n      dup3\n        /* \"#utility.yul\":8821:8828   */\n      dup5\n        /* \"#utility.yul\":8817:8840   */\n      sub\n        /* \"#utility.yul\":8813:8845   */\n      slt\n        /* \"#utility.yul\":8810:8929   */\n      iszero\n      tag_302\n      jumpi\n        /* \"#utility.yul\":8848:8927   */\n      tag_303\n      tag_150\n      jump\t// in\n    tag_303:\n        /* \"#utility.yul\":8810:8929   */\n    tag_302:\n        /* \"#utility.yul\":8968:8969   */\n      0x00\n        /* \"#utility.yul\":8993:9045   */\n      tag_304\n        /* \"#utility.yul\":9037:9044   */\n      dup5\n        /* \"#utility.yul\":9028:9034   */\n      dup3\n        /* \"#utility.yul\":9017:9026   */\n      dup6\n        /* \"#utility.yul\":9013:9035   */\n      add\n        /* \"#utility.yul\":8993:9045   */\n      tag_179\n      jump\t// in\n    tag_304:\n        /* \"#utility.yul\":8983:9045   */\n      swap2\n      pop\n        /* \"#utility.yul\":8939:9055   */\n      pop\n        /* \"#utility.yul\":8735:9062   */\n      swap3\n      swap2\n      pop\n      pop\n      jump\t// out\n        /* \"#utility.yul\":9068:9183   */\n    tag_180:\n        /* \"#utility.yul\":9153:9176   */\n      tag_306\n        /* \"#utility.yul\":9170:9175   */\n      dup2\n        /* \"#utility.yul\":9153:9176   */\n      tag_177\n      jump\t// in\n    tag_306:\n        /* \"#utility.yul\":9148:9151   */\n      dup3\n        /* \"#utility.yul\":9141:9177   */\n      mstore\n        /* \"#utility.yul\":9068:9183   */\n      pop\n      pop\n      jump\t// out\n        /* \"#utility.yul\":9189:9407   */\n    tag_39:\n        /* \"#utility.yul\":9280:9284   */\n      0x00\n        /* \"#utility.yul\":9318:9320   */\n      0x20\n        /* \"#utility.yul\":9307:9316   */\n      dup3\n        /* \"#utility.yul\":9303:9321   */\n      add\n        /* \"#utility.yul\":9295:9321   */\n      swap1\n      pop\n        /* \"#utility.yul\":9331:9400   */\n      tag_308\n        /* \"#utility.yul\":9397:9398   */\n      0x00\n        /* \"#utility.yul\":9386:9395   */\n      dup4\n        /* \"#utility.yul\":9382:9399   */\n      add\n        /* \"#utility.yul\":9373:9379   */\n      dup5\n        /* \"#utility.yul\":9331:9400   */\n      tag_180\n      jump\t// in\n    tag_308:\n        /* \"#utility.yul\":9189:9407   */\n      swap3\n      swap2\n      pop\n      pop\n      jump\t// out\n        /* \"#utility.yul\":9413:9635   */\n    tag_44:\n        /* \"#utility.yul\":9506:9510   */\n      0x00\n        /* \"#utility.yul\":9544:9546   */\n      0x20\n        /* \"#utility.yul\":9533:9542   */\n      dup3\n        /* \"#utility.yul\":9529:9547   */\n      add\n        /* \"#utility.yul\":9521:9547   */\n      swap1\n      pop\n        /* \"#utility.yul\":9557:9628   */\n      tag_310\n        /* \"#utility.yul\":9625:9626   */\n      0x00\n        /* \"#utility.yul\":9614:9623   */\n      dup4\n        /* \"#utility.yul\":9610:9627   */\n      add\n        /* \"#utility.yul\":9601:9607   */\n      dup5\n        /* \"#utility.yul\":9557:9628   */\n      tag_159\n      jump\t// in\n    tag_310:\n        /* \"#utility.yul\":9413:9635   */\n      swap3\n      swap2\n      pop\n      pop\n      jump\t// out\n        /* \"#utility.yul\":9641:9863   */\n    tag_48:\n        /* \"#utility.yul\":9734:9738   */\n      0x00\n        /* \"#utility.yul\":9772:9774   */\n      0x20\n        /* \"#utility.yul\":9761:9770   */\n      dup3\n        /* \"#utility.yul\":9757:9775   */\n      add\n        /* \"#utility.yul\":9749:9775   */\n      swap1\n      pop\n        /* \"#utility.yul\":9785:9856   */\n      tag_312\n        /* \"#utility.yul\":9853:9854   */\n      0x00\n        /* \"#utility.yul\":9842:9851   */\n      dup4\n        /* \"#utility.yul\":9838:9855   */\n      add\n        /* \"#utility.yul\":9829:9835   */\n      dup5\n        /* \"#utility.yul\":9785:9856   */\n      tag_160\n      jump\t// in\n    tag_312:\n        /* \"#utility.yul\":9641:9863   */\n      swap3\n      swap2\n      pop\n      pop\n      jump\t// out\n        /* \"#utility.yul\":9869:9986   */\n    tag_181:\n        /* \"#utility.yul\":9978:9979   */\n      0x00\n        /* \"#utility.yul\":9975:9976   */\n      dup1\n        /* \"#utility.yul\":9968:9980   */\n      revert\n        /* \"#utility.yul\":9992:10109   */\n    tag_182:\n        /* \"#utility.yul\":10101:10102   */\n      0x00\n        /* \"#utility.yul\":10098:10099   */\n      dup1\n        /* \"#utility.yul\":10091:10103   */\n      revert\n        /* \"#utility.yul\":10115:10295   */\n    tag_183:\n        /* \"#utility.yul\":10163:10240   */\n      0x4e487b7100000000000000000000000000000000000000000000000000000000\n        /* \"#utility.yul\":10160:10161   */\n      0x00\n        /* \"#utility.yul\":10153:10241   */\n      mstore\n        /* \"#utility.yul\":10260:10264   */\n      0x41\n        /* \"#utility.yul\":10257:10258   */\n      0x04\n        /* \"#utility.yul\":10250:10265   */\n      mstore\n        /* \"#utility.yul\":10284:10288   */\n      0x24\n        /* \"#utility.yul\":10281:10282   */\n      0x00\n        /* \"#utility.yul\":10274:10289   */\n      revert\n        /* \"#utility.yul\":10301:10582   */\n    tag_184:\n        /* \"#utility.yul\":10384:10411   */\n      tag_317\n        /* \"#utility.yul\":10406:10410   */\n      dup3\n        /* \"#utility.yul\":10384:10411   */\n      tag_164\n      jump\t// in\n    tag_317:\n        /* \"#utility.yul\":10376:10382   */\n      dup2\n        /* \"#utility.yul\":10372:10412   */\n      add\n        /* \"#utility.yul\":10514:10520   */\n      dup2\n        /* \"#utility.yul\":10502:10512   */\n      dup2\n        /* \"#utility.yul\":10499:10521   */\n      lt\n        /* \"#utility.yul\":10478:10496   */\n      0xffffffffffffffff\n        /* \"#utility.yul\":10466:10476   */\n      dup3\n        /* \"#utility.yul\":10463:10497   */\n      gt\n        /* \"#utility.yul\":10460:10522   */\n      or\n        /* \"#utility.yul\":10457:10545   */\n      iszero\n      tag_318\n      jumpi\n        /* \"#utility.yul\":10525:10543   */\n      tag_319\n      tag_183\n      jump\t// in\n    tag_319:\n        /* \"#utility.yul\":10457:10545   */\n    tag_318:\n        /* \"#utility.yul\":10565:10575   */\n      dup1\n        /* \"#utility.yul\":10561:10563   */\n      0x40\n        /* \"#utility.yul\":10554:10576   */\n      mstore\n        /* \"#utility.yul\":10344:10582   */\n      pop\n        /* \"#utility.yul\":10301:10582   */\n      pop\n      pop\n      jump\t// out\n        /* \"#utility.yul\":10588:10717   */\n    tag_185:\n        /* \"#utility.yul\":10622:10628   */\n      0x00\n        /* \"#utility.yul\":10649:10669   */\n      tag_321\n      tag_149\n      jump\t// in\n    tag_321:\n        /* \"#utility.yul\":10639:10669   */\n      swap1\n      pop\n        /* \"#utility.yul\":10678:10711   */\n      tag_322\n        /* \"#utility.yul\":10706:10710   */\n      dup3\n        /* \"#utility.yul\":10698:10704   */\n      dup3\n        /* \"#utility.yul\":10678:10711   */\n      tag_184\n      jump\t// in\n    tag_322:\n        /* \"#utility.yul\":10588:10717   */\n      swap2\n      swap1\n      pop\n      jump\t// out\n        /* \"#utility.yul\":10723:11031   */\n    tag_186:\n        /* \"#utility.yul\":10785:10789   */\n      0x00\n        /* \"#utility.yul\":10875:10893   */\n      0xffffffffffffffff\n        /* \"#utility.yul\":10867:10873   */\n      dup3\n        /* \"#utility.yul\":10864:10894   */\n      gt\n        /* \"#utility.yul\":10861:10917   */\n      iszero\n      tag_324\n      jumpi\n        /* \"#utility.yul\":10897:10915   */\n      tag_325\n      tag_183\n      jump\t// in\n    tag_325:\n        /* \"#utility.yul\":10861:10917   */\n    tag_324:\n        /* \"#utility.yul\":10935:10964   */\n      tag_326\n        /* \"#utility.yul\":10957:10963   */\n      dup3\n        /* \"#utility.yul\":10935:10964   */\n      tag_164\n      jump\t// in\n    tag_326:\n        /* \"#utility.yul\":10927:10964   */\n      swap1\n      pop\n        /* \"#utility.yul\":11019:11023   */\n      0x20\n        /* \"#utility.yul\":11013:11017   */\n      dup2\n        /* \"#utility.yul\":11009:11024   */\n      add\n        /* \"#utility.yul\":11001:11024   */\n      swap1\n      pop\n        /* \"#utility.yul\":10723:11031   */\n      swap2\n      swap1\n      pop\n      jump\t// out\n        /* \"#utility.yul\":11037:11185   */\n    tag_187:\n        /* \"#utility.yul\":11135:11141   */\n      dup3\n        /* \"#utility.yul\":11130:11133   */\n      dup2\n        /* \"#utility.yul\":11125:11128   */\n      dup4\n        /* \"#utility.yul\":11112:11142   */\n      calldatacopy\n        /* \"#utility.yul\":11176:11177   */\n      0x00\n        /* \"#utility.yul\":11167:11173   */\n      dup4\n        /* \"#utility.yul\":11162:11165   */\n      dup4\n        /* \"#utility.yul\":11158:11174   */\n      add\n        /* \"#utility.yul\":11151:11178   */\n      mstore\n        /* \"#utility.yul\":11037:11185   */\n      pop\n      pop\n      pop\n      jump\t// out\n        /* \"#utility.yul\":11191:11616   */\n    tag_188:\n        /* \"#utility.yul\":11269:11274   */\n      0x00\n        /* \"#utility.yul\":11294:11360   */\n      tag_329\n        /* \"#utility.yul\":11310:11359   */\n      tag_330\n        /* \"#utility.yul\":11352:11358   */\n      dup5\n        /* \"#utility.yul\":11310:11359   */\n      tag_186\n      jump\t// in\n    tag_330:\n        /* \"#utility.yul\":11294:11360   */\n      tag_185\n      jump\t// in\n    tag_329:\n        /* \"#utility.yul\":11285:11360   */\n      swap1\n      pop\n        /* \"#utility.yul\":11383:11389   */\n      dup3\n        /* \"#utility.yul\":11376:11381   */\n      dup2\n        /* \"#utility.yul\":11369:11390   */\n      mstore\n        /* \"#utility.yul\":11421:11425   */\n      0x20\n        /* \"#utility.yul\":11414:11419   */\n      dup2\n        /* \"#utility.yul\":11410:11426   */\n      add\n        /* \"#utility.yul\":11459:11462   */\n      dup5\n        /* \"#utility.yul\":11450:11456   */\n      dup5\n        /* \"#utility.yul\":11445:11448   */\n      dup5\n        /* \"#utility.yul\":11441:11457   */\n      add\n        /* \"#utility.yul\":11438:11463   */\n      gt\n        /* \"#utility.yul\":11435:11547   */\n      iszero\n      tag_331\n      jumpi\n        /* \"#utility.yul\":11466:11545   */\n      tag_332\n      tag_182\n      jump\t// in\n    tag_332:\n        /* \"#utility.yul\":11435:11547   */\n    tag_331:\n        /* \"#utility.yul\":11556:11610   */\n      tag_333\n        /* \"#utility.yul\":11603:11609   */\n      dup5\n        /* \"#utility.yul\":11598:11601   */\n      dup3\n        /* \"#utility.yul\":11593:11596   */\n      dup6\n        /* \"#utility.yul\":11556:11610   */\n      tag_187\n      jump\t// in\n    tag_333:\n        /* \"#utility.yul\":11275:11616   */\n      pop\n        /* \"#utility.yul\":11191:11616   */\n      swap4\n      swap3\n      pop\n      pop\n      pop\n      jump\t// out\n        /* \"#utility.yul\":11636:11976   */\n    tag_189:\n        /* \"#utility.yul\":11692:11697   */\n      0x00\n        /* \"#utility.yul\":11741:11744   */\n      dup3\n        /* \"#utility.yul\":11734:11738   */\n      0x1f\n        /* \"#utility.yul\":11726:11732   */\n      dup4\n        /* \"#utility.yul\":11722:11739   */\n      add\n        /* \"#utility.yul\":11718:11745   */\n      slt\n        /* \"#utility.yul\":11708:11830   */\n      tag_335\n      jumpi\n        /* \"#utility.yul\":11749:11828   */\n      tag_336\n      tag_181\n      jump\t// in\n    tag_336:\n        /* \"#utility.yul\":11708:11830   */\n    tag_335:\n        /* \"#utility.yul\":11866:11872   */\n      dup2\n        /* \"#utility.yul\":11853:11873   */\n      calldataload\n        /* \"#utility.yul\":11891:11970   */\n      tag_337\n        /* \"#utility.yul\":11966:11969   */\n      dup5\n        /* \"#utility.yul\":11958:11964   */\n      dup3\n        /* \"#utility.yul\":11951:11955   */\n      0x20\n        /* \"#utility.yul\":11943:11949   */\n      dup7\n        /* \"#utility.yul\":11939:11956   */\n      add\n        /* \"#utility.yul\":11891:11970   */\n      tag_188\n      jump\t// in\n    tag_337:\n        /* \"#utility.yul\":11882:11970   */\n      swap2\n      pop\n        /* \"#utility.yul\":11698:11976   */\n      pop\n        /* \"#utility.yul\":11636:11976   */\n      swap3\n      swap2\n      pop\n      pop\n      jump\t// out\n        /* \"#utility.yul\":11982:12491   */\n    tag_51:\n        /* \"#utility.yul\":12051:12057   */\n      0x00\n        /* \"#utility.yul\":12100:12102   */\n      0x20\n        /* \"#utility.yul\":12088:12097   */\n      dup3\n        /* \"#utility.yul\":12079:12086   */\n      dup5\n        /* \"#utility.yul\":12075:12098   */\n      sub\n        /* \"#utility.yul\":12071:12103   */\n      slt\n        /* \"#utility.yul\":12068:12187   */\n      iszero\n      tag_339\n      jumpi\n        /* \"#utility.yul\":12106:12185   */\n      tag_340\n      tag_150\n      jump\t// in\n    tag_340:\n        /* \"#utility.yul\":12068:12187   */\n    tag_339:\n        /* \"#utility.yul\":12254:12255   */\n      0x00\n        /* \"#utility.yul\":12243:12252   */\n      dup3\n        /* \"#utility.yul\":12239:12256   */\n      add\n        /* \"#utility.yul\":12226:12257   */\n      calldataload\n        /* \"#utility.yul\":12284:12302   */\n      0xffffffffffffffff\n        /* \"#utility.yul\":12276:12282   */\n      dup2\n        /* \"#utility.yul\":12273:12303   */\n      gt\n        /* \"#utility.yul\":12270:12387   */\n      iszero\n      tag_341\n      jumpi\n        /* \"#utility.yul\":12306:12385   */\n      tag_342\n      tag_151\n      jump\t// in\n    tag_342:\n        /* \"#utility.yul\":12270:12387   */\n    tag_341:\n        /* \"#utility.yul\":12411:12474   */\n      tag_343\n        /* \"#utility.yul\":12466:12473   */\n      dup5\n        /* \"#utility.yul\":12457:12463   */\n      dup3\n        /* \"#utility.yul\":12446:12455   */\n      dup6\n        /* \"#utility.yul\":12442:12464   */\n      add\n        /* \"#utility.yul\":12411:12474   */\n      tag_189\n      jump\t// in\n    tag_343:\n        /* \"#utility.yul\":12401:12474   */\n      swap2\n      pop\n        /* \"#utility.yul\":12197:12484   */\n      pop\n        /* \"#utility.yul\":11982:12491   */\n      swap3\n      swap2\n      pop\n      pop\n      jump\t// out\n        /* \"#utility.yul\":12497:12826   */\n    tag_55:\n        /* \"#utility.yul\":12556:12562   */\n      0x00\n        /* \"#utility.yul\":12605:12607   */\n      0x20\n        /* \"#utility.yul\":12593:12602   */\n      dup3\n        /* \"#utility.yul\":12584:12591   */\n      dup5\n        /* \"#utility.yul\":12580:12603   */\n      sub\n        /* \"#utility.yul\":12576:12608   */\n      slt\n        /* \"#utility.yul\":12573:12692   */\n      iszero\n      tag_345\n      jumpi\n        /* \"#utility.yul\":12611:12690   */\n      tag_346\n      tag_150\n      jump\t// in\n    tag_346:\n        /* \"#utility.yul\":12573:12692   */\n    tag_345:\n        /* \"#utility.yul\":12731:12732   */\n      0x00\n        /* \"#utility.yul\":12756:12809   */\n      tag_347\n        /* \"#utility.yul\":12801:12808   */\n      dup5\n        /* \"#utility.yul\":12792:12798   */\n      dup3\n        /* \"#utility.yul\":12781:12790   */\n      dup6\n        /* \"#utility.yul\":12777:12799   */\n      add\n        /* \"#utility.yul\":12756:12809   */\n      tag_158\n      jump\t// in\n    tag_347:\n        /* \"#utility.yul\":12746:12809   */\n      swap2\n      pop\n        /* \"#utility.yul\":12702:12819   */\n      pop\n        /* \"#utility.yul\":12497:12826   */\n      swap3\n      swap2\n      pop\n      pop\n      jump\t// out\n        /* \"#utility.yul\":12884:14013   */\n    tag_190:\n        /* \"#utility.yul\":12995:12998   */\n      0x00\n        /* \"#utility.yul\":13031:13035   */\n      0xa0\n        /* \"#utility.yul\":13026:13029   */\n      dup4\n        /* \"#utility.yul\":13022:13036   */\n      add\n        /* \"#utility.yul\":13116:13120   */\n      0x00\n        /* \"#utility.yul\":13109:13114   */\n      dup4\n        /* \"#utility.yul\":13105:13121   */\n      add\n        /* \"#utility.yul\":13099:13122   */\n      mload\n        /* \"#utility.yul\":13135:13198   */\n      tag_349\n        /* \"#utility.yul\":13192:13196   */\n      0x00\n        /* \"#utility.yul\":13187:13190   */\n      dup7\n        /* \"#utility.yul\":13183:13197   */\n      add\n        /* \"#utility.yul\":13169:13181   */\n      dup3\n        /* \"#utility.yul\":13135:13198   */\n      tag_169\n      jump\t// in\n    tag_349:\n        /* \"#utility.yul\":13046:13208   */\n      pop\n        /* \"#utility.yul\":13292:13296   */\n      0x20\n        /* \"#utility.yul\":13285:13290   */\n      dup4\n        /* \"#utility.yul\":13281:13297   */\n      add\n        /* \"#utility.yul\":13275:13298   */\n      mload\n        /* \"#utility.yul\":13311:13374   */\n      tag_350\n        /* \"#utility.yul\":13368:13372   */\n      0x20\n        /* \"#utility.yul\":13363:13366   */\n      dup7\n        /* \"#utility.yul\":13359:13373   */\n      add\n        /* \"#utility.yul\":13345:13357   */\n      dup3\n        /* \"#utility.yul\":13311:13374   */\n      tag_170\n      jump\t// in\n    tag_350:\n        /* \"#utility.yul\":13218:13384   */\n      pop\n        /* \"#utility.yul\":13469:13473   */\n      0x40\n        /* \"#utility.yul\":13462:13467   */\n      dup4\n        /* \"#utility.yul\":13458:13474   */\n      add\n        /* \"#utility.yul\":13452:13475   */\n      mload\n        /* \"#utility.yul\":13522:13525   */\n      dup5\n        /* \"#utility.yul\":13516:13520   */\n      dup3\n        /* \"#utility.yul\":13512:13526   */\n      sub\n        /* \"#utility.yul\":13505:13509   */\n      0x40\n        /* \"#utility.yul\":13500:13503   */\n      dup7\n        /* \"#utility.yul\":13496:13510   */\n      add\n        /* \"#utility.yul\":13489:13527   */\n      mstore\n        /* \"#utility.yul\":13548:13621   */\n      tag_351\n        /* \"#utility.yul\":13616:13620   */\n      dup3\n        /* \"#utility.yul\":13602:13614   */\n      dup3\n        /* \"#utility.yul\":13548:13621   */\n      tag_172\n      jump\t// in\n    tag_351:\n        /* \"#utility.yul\":13540:13621   */\n      swap2\n      pop\n        /* \"#utility.yul\":13394:13632   */\n      pop\n        /* \"#utility.yul\":13719:13723   */\n      0x60\n        /* \"#utility.yul\":13712:13717   */\n      dup4\n        /* \"#utility.yul\":13708:13724   */\n      add\n        /* \"#utility.yul\":13702:13725   */\n      mload\n        /* \"#utility.yul\":13738:13801   */\n      tag_352\n        /* \"#utility.yul\":13795:13799   */\n      0x60\n        /* \"#utility.yul\":13790:13793   */\n      dup7\n        /* \"#utility.yul\":13786:13800   */\n      add\n        /* \"#utility.yul\":13772:13784   */\n      dup3\n        /* \"#utility.yul\":13738:13801   */\n      tag_169\n      jump\t// in\n    tag_352:\n        /* \"#utility.yul\":13642:13811   */\n      pop\n        /* \"#utility.yul\":13894:13898   */\n      0x80\n        /* \"#utility.yul\":13887:13892   */\n      dup4\n        /* \"#utility.yul\":13883:13899   */\n      add\n        /* \"#utility.yul\":13877:13900   */\n      mload\n        /* \"#utility.yul\":13913:13976   */\n      tag_353\n        /* \"#utility.yul\":13970:13974   */\n      0x80\n        /* \"#utility.yul\":13965:13968   */\n      dup7\n        /* \"#utility.yul\":13961:13975   */\n      add\n        /* \"#utility.yul\":13947:13959   */\n      dup3\n        /* \"#utility.yul\":13913:13976   */\n      tag_169\n      jump\t// in\n    tag_353:\n        /* \"#utility.yul\":13821:13986   */\n      pop\n        /* \"#utility.yul\":14003:14007   */\n      dup1\n        /* \"#utility.yul\":13996:14007   */\n      swap2\n      pop\n        /* \"#utility.yul\":13000:14013   */\n      pop\n        /* \"#utility.yul\":12884:14013   */\n      swap3\n      swap2\n      pop\n      pop\n      jump\t// out\n        /* \"#utility.yul\":14019:14376   */\n    tag_58:\n        /* \"#utility.yul\":14154:14158   */\n      0x00\n        /* \"#utility.yul\":14192:14194   */\n      0x20\n        /* \"#utility.yul\":14181:14190   */\n      dup3\n        /* \"#utility.yul\":14177:14195   */\n      add\n        /* \"#utility.yul\":14169:14195   */\n      swap1\n      pop\n        /* \"#utility.yul\":14241:14250   */\n      dup2\n        /* \"#utility.yul\":14235:14239   */\n      dup2\n        /* \"#utility.yul\":14231:14251   */\n      sub\n        /* \"#utility.yul\":14227:14228   */\n      0x00\n        /* \"#utility.yul\":14216:14225   */\n      dup4\n        /* \"#utility.yul\":14212:14229   */\n      add\n        /* \"#utility.yul\":14205:14252   */\n      mstore\n        /* \"#utility.yul\":14269:14369   */\n      tag_355\n        /* \"#utility.yul\":14364:14368   */\n      dup2\n        /* \"#utility.yul\":14355:14361   */\n      dup5\n        /* \"#utility.yul\":14269:14369   */\n      tag_190\n      jump\t// in\n    tag_355:\n        /* \"#utility.yul\":14261:14369   */\n      swap1\n      pop\n        /* \"#utility.yul\":14019:14376   */\n      swap3\n      swap2\n      pop\n      pop\n      jump\t// out\n        /* \"#utility.yul\":14382:14562   */\n    tag_191:\n        /* \"#utility.yul\":14430:14507   */\n      0x4e487b7100000000000000000000000000000000000000000000000000000000\n        /* \"#utility.yul\":14427:14428   */\n      0x00\n        /* \"#utility.yul\":14420:14508   */\n      mstore\n        /* \"#utility.yul\":14527:14531   */\n      0x22\n        /* \"#utility.yul\":14524:14525   */\n      0x04\n        /* \"#utility.yul\":14517:14532   */\n      mstore\n        /* \"#utility.yul\":14551:14555   */\n      0x24\n        /* \"#utility.yul\":14548:14549   */\n      0x00\n        /* \"#utility.yul\":14541:14556   */\n      revert\n        /* \"#utility.yul\":14568:14888   */\n    tag_62:\n        /* \"#utility.yul\":14612:14618   */\n      0x00\n        /* \"#utility.yul\":14649:14650   */\n      0x02\n        /* \"#utility.yul\":14643:14647   */\n      dup3\n        /* \"#utility.yul\":14639:14651   */\n      div\n        /* \"#utility.yul\":14629:14651   */\n      swap1\n      pop\n        /* \"#utility.yul\":14696:14697   */\n      0x01\n        /* \"#utility.yul\":14690:14694   */\n      dup3\n        /* \"#utility.yul\":14686:14698   */\n      and\n        /* \"#utility.yul\":14717:14735   */\n      dup1\n        /* \"#utility.yul\":14707:14788   */\n      tag_358\n      jumpi\n        /* \"#utility.yul\":14773:14777   */\n      0x7f\n        /* \"#utility.yul\":14765:14771   */\n      dup3\n        /* \"#utility.yul\":14761:14778   */\n      and\n        /* \"#utility.yul\":14751:14778   */\n      swap2\n      pop\n        /* \"#utility.yul\":14707:14788   */\n    tag_358:\n        /* \"#utility.yul\":14835:14837   */\n      0x20\n        /* \"#utility.yul\":14827:14833   */\n      dup3\n        /* \"#utility.yul\":14824:14838   */\n      lt\n        /* \"#utility.yul\":14804:14822   */\n      dup2\n        /* \"#utility.yul\":14801:14839   */\n      sub\n        /* \"#utility.yul\":14798:14882   */\n      tag_359\n      jumpi\n        /* \"#utility.yul\":14854:14872   */\n      tag_360\n      tag_191\n      jump\t// in\n    tag_360:\n        /* \"#utility.yul\":14798:14882   */\n    tag_359:\n        /* \"#utility.yul\":14619:14888   */\n      pop\n        /* \"#utility.yul\":14568:14888   */\n      swap2\n      swap1\n      pop\n      jump\t// out\n        /* \"#utility.yul\":14894:15074   */\n    tag_79:\n        /* \"#utility.yul\":14942:15019   */\n      0x4e487b7100000000000000000000000000000000000000000000000000000000\n        /* \"#utility.yul\":14939:14940   */\n      0x00\n        /* \"#utility.yul\":14932:15020   */\n      mstore\n        /* \"#utility.yul\":15039:15043   */\n      0x32\n        /* \"#utility.yul\":15036:15037   */\n      0x04\n        /* \"#utility.yul\":15029:15044   */\n      mstore\n        /* \"#utility.yul\":15063:15067   */\n      0x24\n        /* \"#utility.yul\":15060:15061   */\n      0x00\n        /* \"#utility.yul\":15053:15068   */\n      revert\n        /* \"#utility.yul\":15080:15250   */\n    tag_192:\n        /* \"#utility.yul\":15220:15242   */\n      0x547765657420446f6573204e6f74204578697374000000000000000000000000\n        /* \"#utility.yul\":15216:15217   */\n      0x00\n        /* \"#utility.yul\":15208:15214   */\n      dup3\n        /* \"#utility.yul\":15204:15218   */\n      add\n        /* \"#utility.yul\":15197:15243   */\n      mstore\n        /* \"#utility.yul\":15080:15250   */\n      pop\n      jump\t// out\n        /* \"#utility.yul\":15256:15622   */\n    tag_193:\n        /* \"#utility.yul\":15398:15401   */\n      0x00\n        /* \"#utility.yul\":15419:15486   */\n      tag_364\n        /* \"#utility.yul\":15483:15485   */\n      0x14\n        /* \"#utility.yul\":15478:15481   */\n      dup4\n        /* \"#utility.yul\":15419:15486   */\n      tag_162\n      jump\t// in\n    tag_364:\n        /* \"#utility.yul\":15412:15486   */\n      swap2\n      pop\n        /* \"#utility.yul\":15495:15588   */\n      tag_365\n        /* \"#utility.yul\":15584:15587   */\n      dup3\n        /* \"#utility.yul\":15495:15588   */\n      tag_192\n      jump\t// in\n    tag_365:\n        /* \"#utility.yul\":15613:15615   */\n      0x20\n        /* \"#utility.yul\":15608:15611   */\n      dup3\n        /* \"#utility.yul\":15604:15616   */\n      add\n        /* \"#utility.yul\":15597:15616   */\n      swap1\n      pop\n        /* \"#utility.yul\":15256:15622   */\n      swap2\n      swap1\n      pop\n      jump\t// out\n        /* \"#utility.yul\":15628:16047   */\n    tag_83:\n        /* \"#utility.yul\":15794:15798   */\n      0x00\n        /* \"#utility.yul\":15832:15834   */\n      0x20\n        /* \"#utility.yul\":15821:15830   */\n      dup3\n        /* \"#utility.yul\":15817:15835   */\n      add\n        /* \"#utility.yul\":15809:15835   */\n      swap1\n      pop\n        /* \"#utility.yul\":15881:15890   */\n      dup2\n        /* \"#utility.yul\":15875:15879   */\n      dup2\n        /* \"#utility.yul\":15871:15891   */\n      sub\n        /* \"#utility.yul\":15867:15868   */\n      0x00\n        /* \"#utility.yul\":15856:15865   */\n      dup4\n        /* \"#utility.yul\":15852:15869   */\n      add\n        /* \"#utility.yul\":15845:15892   */\n      mstore\n        /* \"#utility.yul\":15909:16040   */\n      tag_367\n        /* \"#utility.yul\":16035:16039   */\n      dup2\n        /* \"#utility.yul\":15909:16040   */\n      tag_193\n      jump\t// in\n    tag_367:\n        /* \"#utility.yul\":15901:16040   */\n      swap1\n      pop\n        /* \"#utility.yul\":15628:16047   */\n      swap2\n      swap1\n      pop\n      jump\t// out\n        /* \"#utility.yul\":16053:16221   */\n    tag_194:\n        /* \"#utility.yul\":16193:16213   */\n      0x547765657420486173204e6f204c696b65730000000000000000000000000000\n        /* \"#utility.yul\":16189:16190   */\n      0x00\n        /* \"#utility.yul\":16181:16187   */\n      dup3\n        /* \"#utility.yul\":16177:16191   */\n      add\n        /* \"#utility.yul\":16170:16214   */\n      mstore\n        /* \"#utility.yul\":16053:16221   */\n      pop\n      jump\t// out\n        /* \"#utility.yul\":16227:16593   */\n    tag_195:\n        /* \"#utility.yul\":16369:16372   */\n      0x00\n        /* \"#utility.yul\":16390:16457   */\n      tag_370\n        /* \"#utility.yul\":16454:16456   */\n      0x12\n        /* \"#utility.yul\":16449:16452   */\n      dup4\n        /* \"#utility.yul\":16390:16457   */\n      tag_162\n      jump\t// in\n    tag_370:\n        /* \"#utility.yul\":16383:16457   */\n      swap2\n      pop\n        /* \"#utility.yul\":16466:16559   */\n      tag_371\n        /* \"#utility.yul\":16555:16558   */\n      dup3\n        /* \"#utility.yul\":16466:16559   */\n      tag_194\n      jump\t// in\n    tag_371:\n        /* \"#utility.yul\":16584:16586   */\n      0x20\n        /* \"#utility.yul\":16579:16582   */\n      dup3\n        /* \"#utility.yul\":16575:16587   */\n      add\n        /* \"#utility.yul\":16568:16587   */\n      swap1\n      pop\n        /* \"#utility.yul\":16227:16593   */\n      swap2\n      swap1\n      pop\n      jump\t// out\n        /* \"#utility.yul\":16599:17018   */\n    tag_89:\n        /* \"#utility.yul\":16765:16769   */\n      0x00\n        /* \"#utility.yul\":16803:16805   */\n      0x20\n        /* \"#utility.yul\":16792:16801   */\n      dup3\n        /* \"#utility.yul\":16788:16806   */\n      add\n        /* \"#utility.yul\":16780:16806   */\n      swap1\n      pop\n        /* \"#utility.yul\":16852:16861   */\n      dup2\n        /* \"#utility.yul\":16846:16850   */\n      dup2\n        /* \"#utility.yul\":16842:16862   */\n      sub\n        /* \"#utility.yul\":16838:16839   */\n      0x00\n        /* \"#utility.yul\":16827:16836   */\n      dup4\n        /* \"#utility.yul\":16823:16840   */\n      add\n        /* \"#utility.yul\":16816:16863   */\n      mstore\n        /* \"#utility.yul\":16880:17011   */\n      tag_373\n        /* \"#utility.yul\":17006:17010   */\n      dup2\n        /* \"#utility.yul\":16880:17011   */\n      tag_195\n      jump\t// in\n    tag_373:\n        /* \"#utility.yul\":16872:17011   */\n      swap1\n      pop\n        /* \"#utility.yul\":16599:17018   */\n      swap2\n      swap1\n      pop\n      jump\t// out\n        /* \"#utility.yul\":17024:17204   */\n    tag_196:\n        /* \"#utility.yul\":17072:17149   */\n      0x4e487b7100000000000000000000000000000000000000000000000000000000\n        /* \"#utility.yul\":17069:17070   */\n      0x00\n        /* \"#utility.yul\":17062:17150   */\n      mstore\n        /* \"#utility.yul\":17169:17173   */\n      0x11\n        /* \"#utility.yul\":17166:17167   */\n      0x04\n        /* \"#utility.yul\":17159:17174   */\n      mstore\n        /* \"#utility.yul\":17193:17197   */\n      0x24\n        /* \"#utility.yul\":17190:17191   */\n      0x00\n        /* \"#utility.yul\":17183:17198   */\n      revert\n        /* \"#utility.yul\":17210:17381   */\n    tag_94:\n        /* \"#utility.yul\":17249:17252   */\n      0x00\n        /* \"#utility.yul\":17272:17296   */\n      tag_376\n        /* \"#utility.yul\":17290:17295   */\n      dup3\n        /* \"#utility.yul\":17272:17296   */\n      tag_156\n      jump\t// in\n    tag_376:\n        /* \"#utility.yul\":17263:17296   */\n      swap2\n      pop\n        /* \"#utility.yul\":17318:17322   */\n      0x00\n        /* \"#utility.yul\":17311:17316   */\n      dup3\n        /* \"#utility.yul\":17308:17323   */\n      sub\n        /* \"#utility.yul\":17305:17346   */\n      tag_377\n      jumpi\n        /* \"#utility.yul\":17326:17344   */\n      tag_378\n      tag_196\n      jump\t// in\n    tag_378:\n        /* \"#utility.yul\":17305:17346   */\n    tag_377:\n        /* \"#utility.yul\":17373:17374   */\n      0x01\n        /* \"#utility.yul\":17366:17371   */\n      dup3\n        /* \"#utility.yul\":17362:17375   */\n      sub\n        /* \"#utility.yul\":17355:17375   */\n      swap1\n      pop\n        /* \"#utility.yul\":17210:17381   */\n      swap2\n      swap1\n      pop\n      jump\t// out\n        /* \"#utility.yul\":17387:17940   */\n    tag_99:\n        /* \"#utility.yul\":17564:17568   */\n      0x00\n        /* \"#utility.yul\":17602:17605   */\n      0x80\n        /* \"#utility.yul\":17591:17600   */\n      dup3\n        /* \"#utility.yul\":17587:17606   */\n      add\n        /* \"#utility.yul\":17579:17606   */\n      swap1\n      pop\n        /* \"#utility.yul\":17616:17687   */\n      tag_380\n        /* \"#utility.yul\":17684:17685   */\n      0x00\n        /* \"#utility.yul\":17673:17682   */\n      dup4\n        /* \"#utility.yul\":17669:17686   */\n      add\n        /* \"#utility.yul\":17660:17666   */\n      dup8\n        /* \"#utility.yul\":17616:17687   */\n      tag_160\n      jump\t// in\n    tag_380:\n        /* \"#utility.yul\":17697:17769   */\n      tag_381\n        /* \"#utility.yul\":17765:17767   */\n      0x20\n        /* \"#utility.yul\":17754:17763   */\n      dup4\n        /* \"#utility.yul\":17750:17768   */\n      add\n        /* \"#utility.yul\":17741:17747   */\n      dup7\n        /* \"#utility.yul\":17697:17769   */\n      tag_160\n      jump\t// in\n    tag_381:\n        /* \"#utility.yul\":17779:17851   */\n      tag_382\n        /* \"#utility.yul\":17847:17849   */\n      0x40\n        /* \"#utility.yul\":17836:17845   */\n      dup4\n        /* \"#utility.yul\":17832:17850   */\n      add\n        /* \"#utility.yul\":17823:17829   */\n      dup6\n        /* \"#utility.yul\":17779:17851   */\n      tag_159\n      jump\t// in\n    tag_382:\n        /* \"#utility.yul\":17861:17933   */\n      tag_383\n        /* \"#utility.yul\":17929:17931   */\n      0x60\n        /* \"#utility.yul\":17918:17927   */\n      dup4\n        /* \"#utility.yul\":17914:17932   */\n      add\n        /* \"#utility.yul\":17905:17911   */\n      dup5\n        /* \"#utility.yul\":17861:17933   */\n      tag_159\n      jump\t// in\n    tag_383:\n        /* \"#utility.yul\":17387:17940   */\n      swap6\n      swap5\n      pop\n      pop\n      pop\n      pop\n      pop\n      jump\t// out\n        /* \"#utility.yul\":17946:18118   */\n    tag_197:\n        /* \"#utility.yul\":18086:18110   */\n      0x594f5520415245204e4f5420544845204f574e45522100000000000000000000\n        /* \"#utility.yul\":18082:18083   */\n      0x00\n        /* \"#utility.yul\":18074:18080   */\n      dup3\n        /* \"#utility.yul\":18070:18084   */\n      add\n        /* \"#utility.yul\":18063:18111   */\n      mstore\n        /* \"#utility.yul\":17946:18118   */\n      pop\n      jump\t// out\n        /* \"#utility.yul\":18124:18490   */\n    tag_198:\n        /* \"#utility.yul\":18266:18269   */\n      0x00\n        /* \"#utility.yul\":18287:18354   */\n      tag_386\n        /* \"#utility.yul\":18351:18353   */\n      0x16\n        /* \"#utility.yul\":18346:18349   */\n      dup4\n        /* \"#utility.yul\":18287:18354   */\n      tag_162\n      jump\t// in\n    tag_386:\n        /* \"#utility.yul\":18280:18354   */\n      swap2\n      pop\n        /* \"#utility.yul\":18363:18456   */\n      tag_387\n        /* \"#utility.yul\":18452:18455   */\n      dup3\n        /* \"#utility.yul\":18363:18456   */\n      tag_197\n      jump\t// in\n    tag_387:\n        /* \"#utility.yul\":18481:18483   */\n      0x20\n        /* \"#utility.yul\":18476:18479   */\n      dup3\n        /* \"#utility.yul\":18472:18484   */\n      add\n        /* \"#utility.yul\":18465:18484   */\n      swap1\n      pop\n        /* \"#utility.yul\":18124:18490   */\n      swap2\n      swap1\n      pop\n      jump\t// out\n        /* \"#utility.yul\":18496:18915   */\n    tag_103:\n        /* \"#utility.yul\":18662:18666   */\n      0x00\n        /* \"#utility.yul\":18700:18702   */\n      0x20\n        /* \"#utility.yul\":18689:18698   */\n      dup3\n        /* \"#utility.yul\":18685:18703   */\n      add\n        /* \"#utility.yul\":18677:18703   */\n      swap1\n      pop\n        /* \"#utility.yul\":18749:18758   */\n      dup2\n        /* \"#utility.yul\":18743:18747   */\n      dup2\n        /* \"#utility.yul\":18739:18759   */\n      sub\n        /* \"#utility.yul\":18735:18736   */\n      0x00\n        /* \"#utility.yul\":18724:18733   */\n      dup4\n        /* \"#utility.yul\":18720:18737   */\n      add\n        /* \"#utility.yul\":18713:18760   */\n      mstore\n        /* \"#utility.yul\":18777:18908   */\n      tag_389\n        /* \"#utility.yul\":18903:18907   */\n      dup2\n        /* \"#utility.yul\":18777:18908   */\n      tag_198\n      jump\t// in\n    tag_389:\n        /* \"#utility.yul\":18769:18908   */\n      swap1\n      pop\n        /* \"#utility.yul\":18496:18915   */\n      swap2\n      swap1\n      pop\n      jump\t// out\n        /* \"#utility.yul\":18921:19154   */\n    tag_115:\n        /* \"#utility.yul\":18960:18963   */\n      0x00\n        /* \"#utility.yul\":18983:19007   */\n      tag_391\n        /* \"#utility.yul\":19001:19006   */\n      dup3\n        /* \"#utility.yul\":18983:19007   */\n      tag_156\n      jump\t// in\n    tag_391:\n        /* \"#utility.yul\":18974:19007   */\n      swap2\n      pop\n        /* \"#utility.yul\":19029:19095   */\n      0xffffffffffffffffffffffffffffffffffffffffffffffffffffffffffffffff\n        /* \"#utility.yul\":19022:19027   */\n      dup3\n        /* \"#utility.yul\":19019:19096   */\n      sub\n        /* \"#utility.yul\":19016:19119   */\n      tag_392\n      jumpi\n        /* \"#utility.yul\":19099:19117   */\n      tag_393\n      tag_196\n      jump\t// in\n    tag_393:\n        /* \"#utility.yul\":19016:19119   */\n    tag_392:\n        /* \"#utility.yul\":19146:19147   */\n      0x01\n        /* \"#utility.yul\":19139:19144   */\n      dup3\n        /* \"#utility.yul\":19135:19148   */\n      add\n        /* \"#utility.yul\":19128:19148   */\n      swap1\n      pop\n        /* \"#utility.yul\":18921:19154   */\n      swap2\n      swap1\n      pop\n      jump\t// out\n        /* \"#utility.yul\":19160:19351   */\n    tag_128:\n        /* \"#utility.yul\":19200:19203   */\n      0x00\n        /* \"#utility.yul\":19219:19239   */\n      tag_395\n        /* \"#utility.yul\":19237:19238   */\n      dup3\n        /* \"#utility.yul\":19219:19239   */\n      tag_156\n      jump\t// in\n    tag_395:\n        /* \"#utility.yul\":19214:19239   */\n      swap2\n      pop\n        /* \"#utility.yul\":19253:19273   */\n      tag_396\n        /* \"#utility.yul\":19271:19272   */\n      dup4\n        /* \"#utility.yul\":19253:19273   */\n      tag_156\n      jump\t// in\n    tag_396:\n        /* \"#utility.yul\":19248:19273   */\n      swap3\n      pop\n        /* \"#utility.yul\":19296:19297   */\n      dup3\n        /* \"#utility.yul\":19293:19294   */\n      dup3\n        /* \"#utility.yul\":19289:19298   */\n      add\n        /* \"#utility.yul\":19282:19298   */\n      swap1\n      pop\n        /* \"#utility.yul\":19317:19320   */\n      dup1\n        /* \"#utility.yul\":19314:19315   */\n      dup3\n        /* \"#utility.yul\":19311:19321   */\n      gt\n        /* \"#utility.yul\":19308:19344   */\n      iszero\n      tag_397\n      jumpi\n        /* \"#utility.yul\":19324:19342   */\n      tag_398\n      tag_196\n      jump\t// in\n    tag_398:\n        /* \"#utility.yul\":19308:19344   */\n    tag_397:\n        /* \"#utility.yul\":19160:19351   */\n      swap3\n      swap2\n      pop\n      pop\n      jump\t// out\n        /* \"#utility.yul\":19357:19526   */\n    tag_199:\n        /* \"#utility.yul\":19497:19518   */\n      0x596f75207368616c6c206e6f7420706173732100000000000000000000000000\n        /* \"#utility.yul\":19493:19494   */\n      0x00\n        /* \"#utility.yul\":19485:19491   */\n      dup3\n        /* \"#utility.yul\":19481:19495   */\n      add\n        /* \"#utility.yul\":19474:19519   */\n      mstore\n        /* \"#utility.yul\":19357:19526   */\n      pop\n      jump\t// out\n        /* \"#utility.yul\":19532:19898   */\n    tag_200:\n        /* \"#utility.yul\":19674:19677   */\n      0x00\n        /* \"#utility.yul\":19695:19762   */\n      tag_401\n        /* \"#utility.yul\":19759:19761   */\n      0x13\n        /* \"#utility.yul\":19754:19757   */\n      dup4\n        /* \"#utility.yul\":19695:19762   */\n      tag_162\n      jump\t// in\n    tag_401:\n        /* \"#utility.yul\":19688:19762   */\n      swap2\n      pop\n        /* \"#utility.yul\":19771:19864   */\n      tag_402\n        /* \"#utility.yul\":19860:19863   */\n      dup3\n        /* \"#utility.yul\":19771:19864   */\n      tag_199\n      jump\t// in\n    tag_402:\n        /* \"#utility.yul\":19889:19891   */\n      0x20\n        /* \"#utility.yul\":19884:19887   */\n      dup3\n        /* \"#utility.yul\":19880:19892   */\n      add\n        /* \"#utility.yul\":19873:19892   */\n      swap1\n      pop\n        /* \"#utility.yul\":19532:19898   */\n      swap2\n      swap1\n      pop\n      jump\t// out\n        /* \"#utility.yul\":19904:20323   */\n    tag_132:\n        /* \"#utility.yul\":20070:20074   */\n      0x00\n        /* \"#utility.yul\":20108:20110   */\n      0x20\n        /* \"#utility.yul\":20097:20106   */\n      dup3\n        /* \"#utility.yul\":20093:20111   */\n      add\n        /* \"#utility.yul\":20085:20111   */\n      swap1\n      pop\n        /* \"#utility.yul\":20157:20166   */\n      dup2\n        /* \"#utility.yul\":20151:20155   */\n      dup2\n        /* \"#utility.yul\":20147:20167   */\n      sub\n        /* \"#utility.yul\":20143:20144   */\n      0x00\n        /* \"#utility.yul\":20132:20141   */\n      dup4\n        /* \"#utility.yul\":20128:20145   */\n      add\n        /* \"#utility.yul\":20121:20168   */\n      mstore\n        /* \"#utility.yul\":20185:20316   */\n      tag_404\n        /* \"#utility.yul\":20311:20315   */\n      dup2\n        /* \"#utility.yul\":20185:20316   */\n      tag_200\n      jump\t// in\n    tag_404:\n        /* \"#utility.yul\":20177:20316   */\n      swap1\n      pop\n        /* \"#utility.yul\":19904:20323   */\n      swap2\n      swap1\n      pop\n      jump\t// out\n        /* \"#utility.yul\":20329:20470   */\n    tag_201:\n        /* \"#utility.yul\":20378:20382   */\n      0x00\n        /* \"#utility.yul\":20401:20404   */\n      dup2\n        /* \"#utility.yul\":20393:20404   */\n      swap1\n      pop\n        /* \"#utility.yul\":20424:20427   */\n      dup2\n        /* \"#utility.yul\":20421:20422   */\n      0x00\n        /* \"#utility.yul\":20414:20428   */\n      mstore\n        /* \"#utility.yul\":20458:20462   */\n      0x20\n        /* \"#utility.yul\":20455:20456   */\n      0x00\n        /* \"#utility.yul\":20445:20463   */\n      keccak256\n        /* \"#utility.yul\":20437:20463   */\n      swap1\n      pop\n        /* \"#utility.yul\":20329:20470   */\n      swap2\n      swap1\n      pop\n      jump\t// out\n        /* \"#utility.yul\":20476:20569   */\n    tag_202:\n        /* \"#utility.yul\":20513:20519   */\n      0x00\n        /* \"#utility.yul\":20560:20562   */\n      0x20\n        /* \"#utility.yul\":20555:20557   */\n      0x1f\n        /* \"#utility.yul\":20548:20553   */\n      dup4\n        /* \"#utility.yul\":20544:20558   */\n      add\n        /* \"#utility.yul\":20540:20563   */\n      div\n        /* \"#utility.yul\":20530:20563   */\n      swap1\n      pop\n        /* \"#utility.yul\":20476:20569   */\n      swap2\n      swap1\n      pop\n      jump\t// out\n        /* \"#utility.yul\":20575:20682   */\n    tag_203:\n        /* \"#utility.yul\":20619:20627   */\n      0x00\n        /* \"#utility.yul\":20669:20674   */\n      dup3\n        /* \"#utility.yul\":20663:20667   */\n      dup3\n        /* \"#utility.yul\":20659:20675   */\n      shl\n        /* \"#utility.yul\":20638:20675   */\n      swap1\n      pop\n        /* \"#utility.yul\":20575:20682   */\n      swap3\n      swap2\n      pop\n      pop\n      jump\t// out\n        /* \"#utility.yul\":20688:21081   */\n    tag_204:\n        /* \"#utility.yul\":20757:20763   */\n      0x00\n        /* \"#utility.yul\":20807:20808   */\n      0x08\n        /* \"#utility.yul\":20795:20805   */\n      dup4\n        /* \"#utility.yul\":20791:20809   */\n      mul\n        /* \"#utility.yul\":20830:20927   */\n      tag_409\n        /* \"#utility.yul\":20860:20926   */\n      0xffffffffffffffffffffffffffffffffffffffffffffffffffffffffffffffff\n        /* \"#utility.yul\":20849:20858   */\n      dup3\n        /* \"#utility.yul\":20830:20927   */\n      tag_203\n      jump\t// in\n    tag_409:\n        /* \"#utility.yul\":20948:20987   */\n      tag_410\n        /* \"#utility.yul\":20978:20986   */\n      dup7\n        /* \"#utility.yul\":20967:20976   */\n      dup4\n        /* \"#utility.yul\":20948:20987   */\n      tag_203\n      jump\t// in\n    tag_410:\n        /* \"#utility.yul\":20936:20987   */\n      swap6\n      pop\n        /* \"#utility.yul\":21020:21024   */\n      dup1\n        /* \"#utility.yul\":21016:21025   */\n      not\n        /* \"#utility.yul\":21009:21014   */\n      dup5\n        /* \"#utility.yul\":21005:21026   */\n      and\n        /* \"#utility.yul\":20996:21026   */\n      swap4\n      pop\n        /* \"#utility.yul\":21069:21073   */\n      dup1\n        /* \"#utility.yul\":21059:21067   */\n      dup7\n        /* \"#utility.yul\":21055:21074   */\n      and\n        /* \"#utility.yul\":21048:21053   */\n      dup5\n        /* \"#utility.yul\":21045:21075   */\n      or\n        /* \"#utility.yul\":21035:21075   */\n      swap3\n      pop\n        /* \"#utility.yul\":20764:21081   */\n      pop\n      pop\n        /* \"#utility.yul\":20688:21081   */\n      swap4\n      swap3\n      pop\n      pop\n      pop\n      jump\t// out\n        /* \"#utility.yul\":21087:21147   */\n    tag_205:\n        /* \"#utility.yul\":21115:21118   */\n      0x00\n        /* \"#utility.yul\":21136:21141   */\n      dup2\n        /* \"#utility.yul\":21129:21141   */\n      swap1\n      pop\n        /* \"#utility.yul\":21087:21147   */\n      swap2\n      swap1\n      pop\n      jump\t// out\n        /* \"#utility.yul\":21153:21295   */\n    tag_206:\n        /* \"#utility.yul\":21203:21212   */\n      0x00\n        /* \"#utility.yul\":21236:21289   */\n      tag_413\n        /* \"#utility.yul\":21254:21288   */\n      tag_414\n        /* \"#utility.yul\":21263:21287   */\n      tag_415\n        /* \"#utility.yul\":21281:21286   */\n      dup5\n        /* \"#utility.yul\":21263:21287   */\n      tag_156\n      jump\t// in\n    tag_415:\n        /* \"#utility.yul\":21254:21288   */\n      tag_205\n      jump\t// in\n    tag_414:\n        /* \"#utility.yul\":21236:21289   */\n      tag_156\n      jump\t// in\n    tag_413:\n        /* \"#utility.yul\":21223:21289   */\n      swap1\n      pop\n        /* \"#utility.yul\":21153:21295   */\n      swap2\n      swap1\n      pop\n      jump\t// out\n        /* \"#utility.yul\":21301:21376   */\n    tag_207:\n        /* \"#utility.yul\":21344:21347   */\n      0x00\n        /* \"#utility.yul\":21365:21370   */\n      dup2\n        /* \"#utility.yul\":21358:21370   */\n      swap1\n      pop\n        /* \"#utility.yul\":21301:21376   */\n      swap2\n      swap1\n      pop\n      jump\t// out\n        /* \"#utility.yul\":21382:21651   */\n    tag_208:\n        /* \"#utility.yul\":21492:21531   */\n      tag_418\n        /* \"#utility.yul\":21523:21530   */\n      dup4\n        /* \"#utility.yul\":21492:21531   */\n      tag_206\n      jump\t// in\n    tag_418:\n        /* \"#utility.yul\":21553:21644   */\n      tag_419\n        /* \"#utility.yul\":21602:21643   */\n      tag_420\n        /* \"#utility.yul\":21626:21642   */\n      dup3\n        /* \"#utility.yul\":21602:21643   */\n      tag_207\n      jump\t// in\n    tag_420:\n        /* \"#utility.yul\":21594:21600   */\n      dup5\n        /* \"#utility.yul\":21587:21591   */\n      dup5\n        /* \"#utility.yul\":21581:21592   */\n      sload\n        /* \"#utility.yul\":21553:21644   */\n      tag_204\n      jump\t// in\n    tag_419:\n        /* \"#utility.yul\":21547:21551   */\n      dup3\n        /* \"#utility.yul\":21540:21645   */\n      sstore\n        /* \"#utility.yul\":21458:21651   */\n      pop\n        /* \"#utility.yul\":21382:21651   */\n      pop\n      pop\n      pop\n      jump\t// out\n        /* \"#utility.yul\":21657:21730   */\n    tag_209:\n        /* \"#utility.yul\":21702:21705   */\n      0x00\n        /* \"#utility.yul\":21657:21730   */\n      swap1\n      jump\t// out\n        /* \"#utility.yul\":21736:21925   */\n    tag_210:\n        /* \"#utility.yul\":21813:21845   */\n      tag_423\n      tag_209\n      jump\t// in\n    tag_423:\n        /* \"#utility.yul\":21854:21919   */\n      tag_424\n        /* \"#utility.yul\":21912:21918   */\n      dup2\n        /* \"#utility.yul\":21904:21910   */\n      dup5\n        /* \"#utility.yul\":21898:21902   */\n      dup5\n        /* \"#utility.yul\":21854:21919   */\n      tag_208\n      jump\t// in\n    tag_424:\n        /* \"#utility.yul\":21789:21925   */\n      pop\n        /* \"#utility.yul\":21736:21925   */\n      pop\n      pop\n      jump\t// out\n        /* \"#utility.yul\":21931:22117   */\n    tag_211:\n        /* \"#utility.yul\":21991:22111   */\n    tag_426:\n        /* \"#utility.yul\":22008:22011   */\n      dup2\n        /* \"#utility.yul\":22001:22006   */\n      dup2\n        /* \"#utility.yul\":21998:22012   */\n      lt\n        /* \"#utility.yul\":21991:22111   */\n      iszero\n      tag_428\n      jumpi\n        /* \"#utility.yul\":22062:22101   */\n      tag_429\n        /* \"#utility.yul\":22099:22100   */\n      0x00\n        /* \"#utility.yul\":22092:22097   */\n      dup3\n        /* \"#utility.yul\":22062:22101   */\n      tag_210\n      jump\t// in\n    tag_429:\n        /* \"#utility.yul\":22035:22036   */\n      0x01\n        /* \"#utility.yul\":22028:22033   */\n      dup2\n        /* \"#utility.yul\":22024:22037   */\n      add\n        /* \"#utility.yul\":22015:22037   */\n      swap1\n      pop\n        /* \"#utility.yul\":21991:22111   */\n      jump(tag_426)\n    tag_428:\n        /* \"#utility.yul\":21931:22117   */\n      pop\n      pop\n      jump\t// out\n        /* \"#utility.yul\":22123:22666   */\n    tag_212:\n        /* \"#utility.yul\":22224:22226   */\n      0x1f\n        /* \"#utility.yul\":22219:22222   */\n      dup3\n        /* \"#utility.yul\":22216:22227   */\n      gt\n        /* \"#utility.yul\":22213:22659   */\n      iszero\n      tag_431\n      jumpi\n        /* \"#utility.yul\":22258:22296   */\n      tag_432\n        /* \"#utility.yul\":22290:22295   */\n      dup2\n        /* \"#utility.yul\":22258:22296   */\n      tag_201\n      jump\t// in\n    tag_432:\n        /* \"#utility.yul\":22342:22371   */\n      tag_433\n        /* \"#utility.yul\":22360:22370   */\n      dup5\n        /* \"#utility.yul\":22342:22371   */\n      tag_202\n      jump\t// in\n    tag_433:\n        /* \"#utility.yul\":22332:22340   */\n      dup2\n        /* \"#utility.yul\":22328:22372   */\n      add\n        /* \"#utility.yul\":22525:22527   */\n      0x20\n        /* \"#utility.yul\":22513:22523   */\n      dup6\n        /* \"#utility.yul\":22510:22528   */\n      lt\n        /* \"#utility.yul\":22507:22556   */\n      iszero\n      tag_434\n      jumpi\n        /* \"#utility.yul\":22546:22554   */\n      dup2\n        /* \"#utility.yul\":22531:22554   */\n      swap1\n      pop\n        /* \"#utility.yul\":22507:22556   */\n    tag_434:\n        /* \"#utility.yul\":22569:22649   */\n      tag_435\n        /* \"#utility.yul\":22625:22647   */\n      tag_436\n        /* \"#utility.yul\":22643:22646   */\n      dup6\n        /* \"#utility.yul\":22625:22647   */\n      tag_202\n      jump\t// in\n    tag_436:\n        /* \"#utility.yul\":22615:22623   */\n      dup4\n        /* \"#utility.yul\":22611:22648   */\n      add\n        /* \"#utility.yul\":22598:22609   */\n      dup3\n        /* \"#utility.yul\":22569:22649   */\n      tag_211\n      jump\t// in\n    tag_435:\n        /* \"#utility.yul\":22228:22659   */\n      pop\n      pop\n        /* \"#utility.yul\":22213:22659   */\n    tag_431:\n        /* \"#utility.yul\":22123:22666   */\n      pop\n      pop\n      pop\n      jump\t// out\n        /* \"#utility.yul\":22672:22789   */\n    tag_213:\n        /* \"#utility.yul\":22726:22734   */\n      0x00\n        /* \"#utility.yul\":22776:22781   */\n      dup3\n        /* \"#utility.yul\":22770:22774   */\n      dup3\n        /* \"#utility.yul\":22766:22782   */\n      shr\n        /* \"#utility.yul\":22745:22782   */\n      swap1\n      pop\n        /* \"#utility.yul\":22672:22789   */\n      swap3\n      swap2\n      pop\n      pop\n      jump\t// out\n        /* \"#utility.yul\":22795:22964   */\n    tag_214:\n        /* \"#utility.yul\":22839:22845   */\n      0x00\n        /* \"#utility.yul\":22872:22923   */\n      tag_439\n        /* \"#utility.yul\":22920:22921   */\n      0x00\n        /* \"#utility.yul\":22916:22922   */\n      not\n        /* \"#utility.yul\":22908:22913   */\n      dup5\n        /* \"#utility.yul\":22905:22906   */\n      0x08\n        /* \"#utility.yul\":22901:22914   */\n      mul\n        /* \"#utility.yul\":22872:22923   */\n      tag_213\n      jump\t// in\n    tag_439:\n        /* \"#utility.yul\":22868:22924   */\n      not\n        /* \"#utility.yul\":22953:22957   */\n      dup1\n        /* \"#utility.yul\":22947:22951   */\n      dup4\n        /* \"#utility.yul\":22943:22958   */\n      and\n        /* \"#utility.yul\":22933:22958   */\n      swap2\n      pop\n        /* \"#utility.yul\":22846:22964   */\n      pop\n        /* \"#utility.yul\":22795:22964   */\n      swap3\n      swap2\n      pop\n      pop\n      jump\t// out\n        /* \"#utility.yul\":22969:23264   */\n    tag_215:\n        /* \"#utility.yul\":23045:23049   */\n      0x00\n        /* \"#utility.yul\":23191:23220   */\n      tag_441\n        /* \"#utility.yul\":23216:23219   */\n      dup4\n        /* \"#utility.yul\":23210:23214   */\n      dup4\n        /* \"#utility.yul\":23191:23220   */\n      tag_214\n      jump\t// in\n    tag_441:\n        /* \"#utility.yul\":23183:23220   */\n      swap2\n      pop\n        /* \"#utility.yul\":23253:23256   */\n      dup3\n        /* \"#utility.yul\":23250:23251   */\n      0x02\n        /* \"#utility.yul\":23246:23257   */\n      mul\n        /* \"#utility.yul\":23240:23244   */\n      dup3\n        /* \"#utility.yul\":23237:23258   */\n      or\n        /* \"#utility.yul\":23229:23258   */\n      swap1\n      pop\n        /* \"#utility.yul\":22969:23264   */\n      swap3\n      swap2\n      pop\n      pop\n      jump\t// out\n        /* \"#utility.yul\":23269:24664   */\n    tag_135:\n        /* \"#utility.yul\":23386:23423   */\n      tag_443\n        /* \"#utility.yul\":23419:23422   */\n      dup3\n        /* \"#utility.yul\":23386:23423   */\n      tag_161\n      jump\t// in\n    tag_443:\n        /* \"#utility.yul\":23488:23506   */\n      0xffffffffffffffff\n        /* \"#utility.yul\":23480:23486   */\n      dup2\n        /* \"#utility.yul\":23477:23507   */\n      gt\n        /* \"#utility.yul\":23474:23530   */\n      iszero\n      tag_444\n      jumpi\n        /* \"#utility.yul\":23510:23528   */\n      tag_445\n      tag_183\n      jump\t// in\n    tag_445:\n        /* \"#utility.yul\":23474:23530   */\n    tag_444:\n        /* \"#utility.yul\":23554:23592   */\n      tag_446\n        /* \"#utility.yul\":23586:23590   */\n      dup3\n        /* \"#utility.yul\":23580:23591   */\n      sload\n        /* \"#utility.yul\":23554:23592   */\n      tag_62\n      jump\t// in\n    tag_446:\n        /* \"#utility.yul\":23639:23706   */\n      tag_447\n        /* \"#utility.yul\":23699:23705   */\n      dup3\n        /* \"#utility.yul\":23691:23697   */\n      dup3\n        /* \"#utility.yul\":23685:23689   */\n      dup6\n        /* \"#utility.yul\":23639:23706   */\n      tag_212\n      jump\t// in\n    tag_447:\n        /* \"#utility.yul\":23733:23734   */\n      0x00\n        /* \"#utility.yul\":23757:23761   */\n      0x20\n        /* \"#utility.yul\":23744:23761   */\n      swap1\n      pop\n        /* \"#utility.yul\":23789:23791   */\n      0x1f\n        /* \"#utility.yul\":23781:23787   */\n      dup4\n        /* \"#utility.yul\":23778:23792   */\n      gt\n        /* \"#utility.yul\":23806:23807   */\n      0x01\n        /* \"#utility.yul\":23801:24419   */\n      dup2\n      eq\n      tag_449\n      jumpi\n        /* \"#utility.yul\":24463:24464   */\n      0x00\n        /* \"#utility.yul\":24480:24486   */\n      dup5\n        /* \"#utility.yul\":24477:24554   */\n      iszero\n      tag_450\n      jumpi\n        /* \"#utility.yul\":24529:24538   */\n      dup3\n        /* \"#utility.yul\":24524:24527   */\n      dup8\n        /* \"#utility.yul\":24520:24539   */\n      add\n        /* \"#utility.yul\":24514:24540   */\n      mload\n        /* \"#utility.yul\":24505:24540   */\n      swap1\n      pop\n        /* \"#utility.yul\":24477:24554   */\n    tag_450:\n        /* \"#utility.yul\":24580:24647   */\n      tag_451\n        /* \"#utility.yul\":24640:24646   */\n      dup6\n        /* \"#utility.yul\":24633:24638   */\n      dup3\n        /* \"#utility.yul\":24580:24647   */\n      tag_215\n      jump\t// in\n    tag_451:\n        /* \"#utility.yul\":24574:24578   */\n      dup7\n        /* \"#utility.yul\":24567:24648   */\n      sstore\n        /* \"#utility.yul\":24436:24658   */\n      pop\n        /* \"#utility.yul\":23771:24658   */\n      jump(tag_448)\n        /* \"#utility.yul\":23801:24419   */\n    tag_449:\n        /* \"#utility.yul\":23853:23857   */\n      0x1f\n        /* \"#utility.yul\":23849:23858   */\n      not\n        /* \"#utility.yul\":23841:23847   */\n      dup5\n        /* \"#utility.yul\":23837:23859   */\n      and\n        /* \"#utility.yul\":23887:23924   */\n      tag_452\n        /* \"#utility.yul\":23919:23923   */\n      dup7\n        /* \"#utility.yul\":23887:23924   */\n      tag_201\n      jump\t// in\n    tag_452:\n        /* \"#utility.yul\":23946:23947   */\n      0x00\n        /* \"#utility.yul\":23960:24168   */\n    tag_453:\n        /* \"#utility.yul\":23974:23981   */\n      dup3\n        /* \"#utility.yul\":23971:23972   */\n      dup2\n        /* \"#utility.yul\":23968:23982   */\n      lt\n        /* \"#utility.yul\":23960:24168   */\n      iszero\n      tag_455\n      jumpi\n        /* \"#utility.yul\":24053:24062   */\n      dup5\n        /* \"#utility.yul\":24048:24051   */\n      dup10\n        /* \"#utility.yul\":24044:24063   */\n      add\n        /* \"#utility.yul\":24038:24064   */\n      mload\n        /* \"#utility.yul\":24030:24036   */\n      dup3\n        /* \"#utility.yul\":24023:24065   */\n      sstore\n        /* \"#utility.yul\":24104:24105   */\n      0x01\n        /* \"#utility.yul\":24096:24102   */\n      dup3\n        /* \"#utility.yul\":24092:24106   */\n      add\n        /* \"#utility.yul\":24082:24106   */\n      swap2\n      pop\n        /* \"#utility.yul\":24151:24153   */\n      0x20\n        /* \"#utility.yul\":24140:24149   */\n      dup6\n        /* \"#utility.yul\":24136:24154   */\n      add\n        /* \"#utility.yul\":24123:24154   */\n      swap5\n      pop\n        /* \"#utility.yul\":23997:24001   */\n      0x20\n        /* \"#utility.yul\":23994:23995   */\n      dup2\n        /* \"#utility.yul\":23990:24002   */\n      add\n        /* \"#utility.yul\":23985:24002   */\n      swap1\n      pop\n        /* \"#utility.yul\":23960:24168   */\n      jump(tag_453)\n    tag_455:\n        /* \"#utility.yul\":24196:24202   */\n      dup7\n        /* \"#utility.yul\":24187:24194   */\n      dup4\n        /* \"#utility.yul\":24184:24203   */\n      lt\n        /* \"#utility.yul\":24181:24360   */\n      iszero\n      tag_456\n      jumpi\n        /* \"#utility.yul\":24254:24263   */\n      dup5\n        /* \"#utility.yul\":24249:24252   */\n      dup10\n        /* \"#utility.yul\":24245:24264   */\n      add\n        /* \"#utility.yul\":24239:24265   */\n      mload\n        /* \"#utility.yul\":24297:24345   */\n      tag_457\n        /* \"#utility.yul\":24339:24343   */\n      0x1f\n        /* \"#utility.yul\":24331:24337   */\n      dup10\n        /* \"#utility.yul\":24327:24344   */\n      and\n        /* \"#utility.yul\":24316:24325   */\n      dup3\n        /* \"#utility.yul\":24297:24345   */\n      tag_214\n      jump\t// in\n    tag_457:\n        /* \"#utility.yul\":24289:24295   */\n      dup4\n        /* \"#utility.yul\":24282:24346   */\n      sstore\n        /* \"#utility.yul\":24204:24360   */\n      pop\n        /* \"#utility.yul\":24181:24360   */\n    tag_456:\n        /* \"#utility.yul\":24406:24407   */\n      0x01\n        /* \"#utility.yul\":24402:24403   */\n      0x02\n        /* \"#utility.yul\":24394:24400   */\n      dup9\n        /* \"#utility.yul\":24390:24404   */\n      mul\n        /* \"#utility.yul\":24386:24408   */\n      add\n        /* \"#utility.yul\":24380:24384   */\n      dup9\n        /* \"#utility.yul\":24373:24409   */\n      sstore\n        /* \"#utility.yul\":23808:24419   */\n      pop\n      pop\n      pop\n        /* \"#utility.yul\":23771:24658   */\n    tag_448:\n      pop\n        /* \"#utility.yul\":23361:24664   */\n      pop\n      pop\n      pop\n        /* \"#utility.yul\":23269:24664   */\n      pop\n      pop\n      jump\t// out\n        /* \"#utility.yul\":24670:25314   */\n    tag_137:\n        /* \"#utility.yul\":24867:24871   */\n      0x00\n        /* \"#utility.yul\":24905:24908   */\n      0x80\n        /* \"#utility.yul\":24894:24903   */\n      dup3\n        /* \"#utility.yul\":24890:24909   */\n      add\n        /* \"#utility.yul\":24882:24909   */\n      swap1\n      pop\n        /* \"#utility.yul\":24919:24990   */\n      tag_459\n        /* \"#utility.yul\":24987:24988   */\n      0x00\n        /* \"#utility.yul\":24976:24985   */\n      dup4\n        /* \"#utility.yul\":24972:24989   */\n      add\n        /* \"#utility.yul\":24963:24969   */\n      dup8\n        /* \"#utility.yul\":24919:24990   */\n      tag_159\n      jump\t// in\n    tag_459:\n        /* \"#utility.yul\":25000:25072   */\n      tag_460\n        /* \"#utility.yul\":25068:25070   */\n      0x20\n        /* \"#utility.yul\":25057:25066   */\n      dup4\n        /* \"#utility.yul\":25053:25071   */\n      add\n        /* \"#utility.yul\":25044:25050   */\n      dup7\n        /* \"#utility.yul\":25000:25072   */\n      tag_160\n      jump\t// in\n    tag_460:\n        /* \"#utility.yul\":25119:25128   */\n      dup2\n        /* \"#utility.yul\":25113:25117   */\n      dup2\n        /* \"#utility.yul\":25109:25129   */\n      sub\n        /* \"#utility.yul\":25104:25106   */\n      0x40\n        /* \"#utility.yul\":25093:25102   */\n      dup4\n        /* \"#utility.yul\":25089:25107   */\n      add\n        /* \"#utility.yul\":25082:25130   */\n      mstore\n        /* \"#utility.yul\":25147:25225   */\n      tag_461\n        /* \"#utility.yul\":25220:25224   */\n      dup2\n        /* \"#utility.yul\":25211:25217   */\n      dup6\n        /* \"#utility.yul\":25147:25225   */\n      tag_165\n      jump\t// in\n    tag_461:\n        /* \"#utility.yul\":25139:25225   */\n      swap1\n      pop\n        /* \"#utility.yul\":25235:25307   */\n      tag_462\n        /* \"#utility.yul\":25303:25305   */\n      0x60\n        /* \"#utility.yul\":25292:25301   */\n      dup4\n        /* \"#utility.yul\":25288:25306   */\n      add\n        /* \"#utility.yul\":25279:25285   */\n      dup5\n        /* \"#utility.yul\":25235:25307   */\n      tag_159\n      jump\t// in\n    tag_462:\n        /* \"#utility.yul\":24670:25314   */\n      swap6\n      swap5\n      pop\n      pop\n      pop\n      pop\n      pop\n      jump\t// out\n\n    auxdata: 0xa264697066735822122044ec96cd1efc2663482d9ab07c7b23a868e97615f3366c33ad29513eeb6487b064736f6c634300081a0033\n}\n",
				"bytecode": {
					"linkReferences": {},
					"object": "60806040526101185f806101000a81548161ffff021916908361ffff160217905550348015602b575f80fd5b503360025f6101000a81548173ffffffffffffffffffffffffffffffffffffffff021916908373ffffffffffffffffffffffffffffffffffffffff160217905550611ac0806100795f395ff3fe608060405234801561000f575f80fd5b506004361061009c575f3560e01c80636eb10797116100645780636eb1079714610158578063820785cc146101765780638da5cb5b146101a6578063b8e4f167146101c4578063c3ad5ecb146101e05761009c565b806305a1b4a9146100a057806312e7ee1c146100d45780633d9b569f1461010457806358bfa4ab14610120578063633782161461013c575b5f80fd5b6100ba60048036038101906100b59190610ea9565b610210565b6040516100cb959493929190610f75565b60405180910390f35b6100ee60048036038101906100e99190610fcd565b610301565b6040516100fb919061118c565b60405180910390f35b61011e60048036038101906101199190610ea9565b61049c565b005b61013a600480360381019061013591906111e3565b6106ed565b005b61015660048036038101906101519190610ea9565b61079a565b005b61016061094b565b60405161016d919061121d565b60405180910390f35b610190600480360381019061018b9190610fcd565b61095c565b60405161019d9190611236565b60405180910390f35b6101ae610a2b565b6040516101bb919061124f565b60405180910390f35b6101de60048036038101906101d99190611394565b610a50565b005b6101fa60048036038101906101f591906113db565b610c53565b6040516102079190611479565b60405180910390f35b6001602052815f5260405f208181548110610229575f80fd5b905f5260205f2090600502015f9150915050805f015490806001015f9054906101000a900473ffffffffffffffffffffffffffffffffffffffff1690806002018054610274906114c6565b80601f01602080910402602001604051908101604052809291908181526020018280546102a0906114c6565b80156102eb5780601f106102c2576101008083540402835291602001916102eb565b820191905f5260205f20905b8154815290600101906020018083116102ce57829003601f168201915b5050505050908060030154908060040154905085565b606060015f8373ffffffffffffffffffffffffffffffffffffffff1673ffffffffffffffffffffffffffffffffffffffff1681526020019081526020015f20805480602002602001604051908101604052809291908181526020015f905b82821015610491578382905f5260205f2090600502016040518060a00160405290815f8201548152602001600182015f9054906101000a900473ffffffffffffffffffffffffffffffffffffffff1673ffffffffffffffffffffffffffffffffffffffff1673ffffffffffffffffffffffffffffffffffffffff1681526020016002820180546103ee906114c6565b80601f016020809104026020016040519081016040528092919081815260200182805461041a906114c6565b80156104655780601f1061043c57610100808354040283529160200191610465565b820191905f5260205f20905b81548152906001019060200180831161044857829003601f168201915b50505050508152602001600382015481526020016004820154815250508152602001906001019061035f565b505050509050919050565b8060015f8473ffffffffffffffffffffffffffffffffffffffff1673ffffffffffffffffffffffffffffffffffffffff1681526020019081526020015f2082815481106104ec576104eb6114f6565b5b905f5260205f2090600502015f01541461053b576040517f08c379a00000000000000000000000000000000000000000000000000000000081526004016105329061156d565b60405180910390fd5b5f60015f8473ffffffffffffffffffffffffffffffffffffffff1673ffffffffffffffffffffffffffffffffffffffff1681526020019081526020015f20828154811061058b5761058a6114f6565b5b905f5260205f20906005020160040154116105db576040517f08c379a00000000000000000000000000000000000000000000000000000000081526004016105d2906115d5565b60405180910390fd5b60015f8373ffffffffffffffffffffffffffffffffffffffff1673ffffffffffffffffffffffffffffffffffffffff1681526020019081526020015f20818154811061062a576106296114f6565b5b905f5260205f2090600502016004015f81548092919061064990611620565b91905055507f762c2616349603ac16eba0de8e6141b79129a07ab63bd99e0a80b3a47171694333838360015f8773ffffffffffffffffffffffffffffffffffffffff1673ffffffffffffffffffffffffffffffffffffffff1681526020019081526020015f2085815481106106c1576106c06114f6565b5b905f5260205f209060050201600401546040516106e19493929190611647565b60405180910390a15050565b60025f9054906101000a900473ffffffffffffffffffffffffffffffffffffffff1673ffffffffffffffffffffffffffffffffffffffff163373ffffffffffffffffffffffffffffffffffffffff161461077c576040517f08c379a0000000000000000000000000000000000000000000000000000000008152600401610773906116d4565b60405180910390fd5b805f806101000a81548161ffff021916908361ffff16021790555050565b8060015f8473ffffffffffffffffffffffffffffffffffffffff1673ffffffffffffffffffffffffffffffffffffffff1681526020019081526020015f2082815481106107ea576107e96114f6565b5b905f5260205f2090600502015f015414610839576040517f08c379a00000000000000000000000000000000000000000000000000000000081526004016108309061156d565b60405180910390fd5b60015f8373ffffffffffffffffffffffffffffffffffffffff1673ffffffffffffffffffffffffffffffffffffffff1681526020019081526020015f208181548110610888576108876114f6565b5b905f5260205f2090600502016004015f8154809291906108a7906116f2565b91905055507fe8a76fc0f16d11a00d1e93b689b63d76cf60af914dd3d915375dc41d01a0c3c833838360015f8773ffffffffffffffffffffffffffffffffffffffff1673ffffffffffffffffffffffffffffffffffffffff1681526020019081526020015f20858154811061091f5761091e6114f6565b5b905f5260205f2090600502016004015460405161093f9493929190611647565b60405180910390a15050565b5f8054906101000a900461ffff1681565b5f805f5b60015f8573ffffffffffffffffffffffffffffffffffffffff1673ffffffffffffffffffffffffffffffffffffffff1681526020019081526020015f2080549050811015610a215760015f8573ffffffffffffffffffffffffffffffffffffffff1673ffffffffffffffffffffffffffffffffffffffff1681526020019081526020015f2081815481106109f7576109f66114f6565b5b905f5260205f2090600502016004015482610a129190611739565b91508080600101915050610960565b5080915050919050565b60025f9054906101000a900473ffffffffffffffffffffffffffffffffffffffff1681565b5f8054906101000a900461ffff1661ffff1681511115610aa5576040517f08c379a0000000000000000000000000000000000000000000000000000000008152600401610a9c906117b6565b60405180910390fd5b5f6040518060a0016040528060015f3373ffffffffffffffffffffffffffffffffffffffff1673ffffffffffffffffffffffffffffffffffffffff1681526020019081526020015f208054905081526020013373ffffffffffffffffffffffffffffffffffffffff1681526020018381526020014281526020015f815250905060015f3373ffffffffffffffffffffffffffffffffffffffff1673ffffffffffffffffffffffffffffffffffffffff1681526020019081526020015f2081908060018154018082558091505060019003905f5260205f2090600502015f909190919091505f820151815f01556020820151816001015f6101000a81548173ffffffffffffffffffffffffffffffffffffffff021916908373ffffffffffffffffffffffffffffffffffffffff1602179055506040820151816002019081610bec9190611971565b50606082015181600301556080820151816004015550507f16fd3c13e9d46923e0a8bce11c7b473ec508a72e6c96cd2404b29ce972afc29e815f0151826020015183604001518460600151604051610c479493929190611a40565b60405180910390a15050565b610c5b610dca565b60015f3373ffffffffffffffffffffffffffffffffffffffff1673ffffffffffffffffffffffffffffffffffffffff1681526020019081526020015f208281548110610caa57610ca96114f6565b5b905f5260205f2090600502016040518060a00160405290815f8201548152602001600182015f9054906101000a900473ffffffffffffffffffffffffffffffffffffffff1673ffffffffffffffffffffffffffffffffffffffff1673ffffffffffffffffffffffffffffffffffffffff168152602001600282018054610d2f906114c6565b80601f0160208091040260200160405190810160405280929190818152602001828054610d5b906114c6565b8015610da65780601f10610d7d57610100808354040283529160200191610da6565b820191905f5260205f20905b815481529060010190602001808311610d8957829003601f168201915b50505050508152602001600382015481526020016004820154815250509050919050565b6040518060a001604052805f81526020015f73ffffffffffffffffffffffffffffffffffffffff168152602001606081526020015f81526020015f81525090565b5f604051905090565b5f80fd5b5f80fd5b5f73ffffffffffffffffffffffffffffffffffffffff82169050919050565b5f610e4582610e1c565b9050919050565b610e5581610e3b565b8114610e5f575f80fd5b50565b5f81359050610e7081610e4c565b92915050565b5f819050919050565b610e8881610e76565b8114610e92575f80fd5b50565b5f81359050610ea381610e7f565b92915050565b5f8060408385031215610ebf57610ebe610e14565b5b5f610ecc85828601610e62565b9250506020610edd85828601610e95565b9150509250929050565b610ef081610e76565b82525050565b610eff81610e3b565b82525050565b5f81519050919050565b5f82825260208201905092915050565b8281835e5f83830152505050565b5f601f19601f8301169050919050565b5f610f4782610f05565b610f518185610f0f565b9350610f61818560208601610f1f565b610f6a81610f2d565b840191505092915050565b5f60a082019050610f885f830188610ee7565b610f956020830187610ef6565b8181036040830152610fa78186610f3d565b9050610fb66060830185610ee7565b610fc36080830184610ee7565b9695505050505050565b5f60208284031215610fe257610fe1610e14565b5b5f610fef84828501610e62565b91505092915050565b5f81519050919050565b5f82825260208201905092915050565b5f819050602082019050919050565b61102a81610e76565b82525050565b61103981610e3b565b82525050565b5f82825260208201905092915050565b5f61105982610f05565b611063818561103f565b9350611073818560208601610f1f565b61107c81610f2d565b840191505092915050565b5f60a083015f83015161109c5f860182611021565b5060208301516110af6020860182611030565b50604083015184820360408601526110c7828261104f565b91505060608301516110dc6060860182611021565b5060808301516110ef6080860182611021565b508091505092915050565b5f6111058383611087565b905092915050565b5f602082019050919050565b5f61112382610ff8565b61112d8185611002565b93508360208202850161113f85611012565b805f5b8581101561117a578484038952815161115b85826110fa565b94506111668361110d565b925060208a01995050600181019050611142565b50829750879550505050505092915050565b5f6020820190508181035f8301526111a48184611119565b905092915050565b5f61ffff82169050919050565b6111c2816111ac565b81146111cc575f80fd5b50565b5f813590506111dd816111b9565b92915050565b5f602082840312156111f8576111f7610e14565b5b5f611205848285016111cf565b91505092915050565b611217816111ac565b82525050565b5f6020820190506112305f83018461120e565b92915050565b5f6020820190506112495f830184610ee7565b92915050565b5f6020820190506112625f830184610ef6565b92915050565b5f80fd5b5f80fd5b7f4e487b71000000000000000000000000000000000000000000000000000000005f52604160045260245ffd5b6112a682610f2d565b810181811067ffffffffffffffff821117156112c5576112c4611270565b5b80604052505050565b5f6112d7610e0b565b90506112e3828261129d565b919050565b5f67ffffffffffffffff82111561130257611301611270565b5b61130b82610f2d565b9050602081019050919050565b828183375f83830152505050565b5f611338611333846112e8565b6112ce565b9050828152602081018484840111156113545761135361126c565b5b61135f848285611318565b509392505050565b5f82601f83011261137b5761137a611268565b5b813561138b848260208601611326565b91505092915050565b5f602082840312156113a9576113a8610e14565b5b5f82013567ffffffffffffffff8111156113c6576113c5610e18565b5b6113d284828501611367565b91505092915050565b5f602082840312156113f0576113ef610e14565b5b5f6113fd84828501610e95565b91505092915050565b5f60a083015f83015161141b5f860182611021565b50602083015161142e6020860182611030565b5060408301518482036040860152611446828261104f565b915050606083015161145b6060860182611021565b50608083015161146e6080860182611021565b508091505092915050565b5f6020820190508181035f8301526114918184611406565b905092915050565b7f4e487b71000000000000000000000000000000000000000000000000000000005f52602260045260245ffd5b5f60028204905060018216806114dd57607f821691505b6020821081036114f0576114ef611499565b5b50919050565b7f4e487b71000000000000000000000000000000000000000000000000000000005f52603260045260245ffd5b7f547765657420446f6573204e6f742045786973740000000000000000000000005f82015250565b5f611557601483610f0f565b915061156282611523565b602082019050919050565b5f6020820190508181035f8301526115848161154b565b9050919050565b7f547765657420486173204e6f204c696b657300000000000000000000000000005f82015250565b5f6115bf601283610f0f565b91506115ca8261158b565b602082019050919050565b5f6020820190508181035f8301526115ec816115b3565b9050919050565b7f4e487b71000000000000000000000000000000000000000000000000000000005f52601160045260245ffd5b5f61162a82610e76565b91505f820361163c5761163b6115f3565b5b600182039050919050565b5f60808201905061165a5f830187610ef6565b6116676020830186610ef6565b6116746040830185610ee7565b6116816060830184610ee7565b95945050505050565b7f594f5520415245204e4f5420544845204f574e455221000000000000000000005f82015250565b5f6116be601683610f0f565b91506116c98261168a565b602082019050919050565b5f6020820190508181035f8301526116eb816116b2565b9050919050565b5f6116fc82610e76565b91507fffffffffffffffffffffffffffffffffffffffffffffffffffffffffffffffff820361172e5761172d6115f3565b5b600182019050919050565b5f61174382610e76565b915061174e83610e76565b9250828201905080821115611766576117656115f3565b5b92915050565b7f596f75207368616c6c206e6f74207061737321000000000000000000000000005f82015250565b5f6117a0601383610f0f565b91506117ab8261176c565b602082019050919050565b5f6020820190508181035f8301526117cd81611794565b9050919050565b5f819050815f5260205f209050919050565b5f6020601f8301049050919050565b5f82821b905092915050565b5f600883026118307fffffffffffffffffffffffffffffffffffffffffffffffffffffffffffffffff826117f5565b61183a86836117f5565b95508019841693508086168417925050509392505050565b5f819050919050565b5f61187561187061186b84610e76565b611852565b610e76565b9050919050565b5f819050919050565b61188e8361185b565b6118a261189a8261187c565b848454611801565b825550505050565b5f90565b6118b66118aa565b6118c1818484611885565b505050565b5b818110156118e4576118d95f826118ae565b6001810190506118c7565b5050565b601f821115611929576118fa816117d4565b611903846117e6565b81016020851015611912578190505b61192661191e856117e6565b8301826118c6565b50505b505050565b5f82821c905092915050565b5f6119495f198460080261192e565b1980831691505092915050565b5f611961838361193a565b9150826002028217905092915050565b61197a82610f05565b67ffffffffffffffff81111561199357611992611270565b5b61199d82546114c6565b6119a88282856118e8565b5f60209050601f8311600181146119d9575f84156119c7578287015190505b6119d18582611956565b865550611a38565b601f1984166119e7866117d4565b5f5b82811015611a0e578489015182556001820191506020850194506020810190506119e9565b86831015611a2b5784890151611a27601f89168261193a565b8355505b6001600288020188555050505b505050505050565b5f608082019050611a535f830187610ee7565b611a606020830186610ef6565b8181036040830152611a728185610f3d565b9050611a816060830184610ee7565b9594505050505056fea264697066735822122044ec96cd1efc2663482d9ab07c7b23a868e97615f3366c33ad29513eeb6487b064736f6c634300081a0033",
					"opcodes": "PUSH1 0x80 PUSH1 0x40 MSTORE PUSH2 0x118 PUSH0 DUP1 PUSH2 0x100 EXP DUP2 SLOAD DUP2 PUSH2 0xFFFF MUL NOT AND SWAP1 DUP4 PUSH2 0xFFFF AND MUL OR SWAP1 SSTORE POP CALLVALUE DUP1 ISZERO PUSH1 0x2B JUMPI PUSH0 DUP1 REVERT JUMPDEST POP CALLER PUSH1 0x2 PUSH0 PUSH2 0x100 EXP DUP2 SLOAD DUP2 PUSH20 0xFFFFFFFFFFFFFFFFFFFFFFFFFFFFFFFFFFFFFFFF MUL NOT AND SWAP1 DUP4 PUSH20 0xFFFFFFFFFFFFFFFFFFFFFFFFFFFFFFFFFFFFFFFF AND MUL OR SWAP1 SSTORE POP PUSH2 0x1AC0 DUP1 PUSH2 0x79 PUSH0 CODECOPY PUSH0 RETURN INVALID PUSH1 0x80 PUSH1 0x40 MSTORE CALLVALUE DUP1 ISZERO PUSH2 0xF JUMPI PUSH0 DUP1 REVERT JUMPDEST POP PUSH1 0x4 CALLDATASIZE LT PUSH2 0x9C JUMPI PUSH0 CALLDATALOAD PUSH1 0xE0 SHR DUP1 PUSH4 0x6EB10797 GT PUSH2 0x64 JUMPI DUP1 PUSH4 0x6EB10797 EQ PUSH2 0x158 JUMPI DUP1 PUSH4 0x820785CC EQ PUSH2 0x176 JUMPI DUP1 PUSH4 0x8DA5CB5B EQ PUSH2 0x1A6 JUMPI DUP1 PUSH4 0xB8E4F167 EQ PUSH2 0x1C4 JUMPI DUP1 PUSH4 0xC3AD5ECB EQ PUSH2 0x1E0 JUMPI PUSH2 0x9C JUMP JUMPDEST DUP1 PUSH4 0x5A1B4A9 EQ PUSH2 0xA0 JUMPI DUP1 PUSH4 0x12E7EE1C EQ PUSH2 0xD4 JUMPI DUP1 PUSH4 0x3D9B569F EQ PUSH2 0x104 JUMPI DUP1 PUSH4 0x58BFA4AB EQ PUSH2 0x120 JUMPI DUP1 PUSH4 0x63378216 EQ PUSH2 0x13C JUMPI JUMPDEST PUSH0 DUP1 REVERT JUMPDEST PUSH2 0xBA PUSH1 0x4 DUP1 CALLDATASIZE SUB DUP2 ADD SWAP1 PUSH2 0xB5 SWAP2 SWAP1 PUSH2 0xEA9 JUMP JUMPDEST PUSH2 0x210 JUMP JUMPDEST PUSH1 0x40 MLOAD PUSH2 0xCB SWAP6 SWAP5 SWAP4 SWAP3 SWAP2 SWAP1 PUSH2 0xF75 JUMP JUMPDEST PUSH1 0x40 MLOAD DUP1 SWAP2 SUB SWAP1 RETURN JUMPDEST PUSH2 0xEE PUSH1 0x4 DUP1 CALLDATASIZE SUB DUP2 ADD SWAP1 PUSH2 0xE9 SWAP2 SWAP1 PUSH2 0xFCD JUMP JUMPDEST PUSH2 0x301 JUMP JUMPDEST PUSH1 0x40 MLOAD PUSH2 0xFB SWAP2 SWAP1 PUSH2 0x118C JUMP JUMPDEST PUSH1 0x40 MLOAD DUP1 SWAP2 SUB SWAP1 RETURN JUMPDEST PUSH2 0x11E PUSH1 0x4 DUP1 CALLDATASIZE SUB DUP2 ADD SWAP1 PUSH2 0x119 SWAP2 SWAP1 PUSH2 0xEA9 JUMP JUMPDEST PUSH2 0x49C JUMP JUMPDEST STOP JUMPDEST PUSH2 0x13A PUSH1 0x4 DUP1 CALLDATASIZE SUB DUP2 ADD SWAP1 PUSH2 0x135 SWAP2 SWAP1 PUSH2 0x11E3 JUMP JUMPDEST PUSH2 0x6ED JUMP JUMPDEST STOP JUMPDEST PUSH2 0x156 PUSH1 0x4 DUP1 CALLDATASIZE SUB DUP2 ADD SWAP1 PUSH2 0x151 SWAP2 SWAP1 PUSH2 0xEA9 JUMP JUMPDEST PUSH2 0x79A JUMP JUMPDEST STOP JUMPDEST PUSH2 0x160 PUSH2 0x94B JUMP JUMPDEST PUSH1 0x40 MLOAD PUSH2 0x16D SWAP2 SWAP1 PUSH2 0x121D JUMP JUMPDEST PUSH1 0x40 MLOAD DUP1 SWAP2 SUB SWAP1 RETURN JUMPDEST PUSH2 0x190 PUSH1 0x4 DUP1 CALLDATASIZE SUB DUP2 ADD SWAP1 PUSH2 0x18B SWAP2 SWAP1 PUSH2 0xFCD JUMP JUMPDEST PUSH2 0x95C JUMP JUMPDEST PUSH1 0x40 MLOAD PUSH2 0x19D SWAP2 SWAP1 PUSH2 0x1236 JUMP JUMPDEST PUSH1 0x40 MLOAD DUP1 SWAP2 SUB SWAP1 RETURN JUMPDEST PUSH2 0x1AE PUSH2 0xA2B JUMP JUMPDEST PUSH1 0x40 MLOAD PUSH2 0x1BB SWAP2 SWAP1 PUSH2 0x124F JUMP JUMPDEST PUSH1 0x40 MLOAD DUP1 SWAP2 SUB SWAP1 RETURN JUMPDEST PUSH2 0x1DE PUSH1 0x4 DUP1 CALLDATASIZE SUB DUP2 ADD SWAP1 PUSH2 0x1D9 SWAP2 SWAP1 PUSH2 0x1394 JUMP JUMPDEST PUSH2 0xA50 JUMP JUMPDEST STOP JUMPDEST PUSH2 0x1FA PUSH1 0x4 DUP1 CALLDATASIZE SUB DUP2 ADD SWAP1 PUSH2 0x1F5 SWAP2 SWAP1 PUSH2 0x13DB JUMP JUMPDEST PUSH2 0xC53 JUMP JUMPDEST PUSH1 0x40 MLOAD PUSH2 0x207 SWAP2 SWAP1 PUSH2 0x1479 JUMP JUMPDEST PUSH1 0x40 MLOAD DUP1 SWAP2 SUB SWAP1 RETURN JUMPDEST PUSH1 0x1 PUSH1 0x20 MSTORE DUP2 PUSH0 MSTORE PUSH1 0x40 PUSH0 KECCAK256 DUP2 DUP2 SLOAD DUP2 LT PUSH2 0x229 JUMPI PUSH0 DUP1 REVERT JUMPDEST SWAP1 PUSH0 MSTORE PUSH1 0x20 PUSH0 KECCAK256 SWAP1 PUSH1 0x5 MUL ADD PUSH0 SWAP2 POP SWAP2 POP POP DUP1 PUSH0 ADD SLOAD SWAP1 DUP1 PUSH1 0x1 ADD PUSH0 SWAP1 SLOAD SWAP1 PUSH2 0x100 EXP SWAP1 DIV PUSH20 0xFFFFFFFFFFFFFFFFFFFFFFFFFFFFFFFFFFFFFFFF AND SWAP1 DUP1 PUSH1 0x2 ADD DUP1 SLOAD PUSH2 0x274 SWAP1 PUSH2 0x14C6 JUMP JUMPDEST DUP1 PUSH1 0x1F ADD PUSH1 0x20 DUP1 SWAP2 DIV MUL PUSH1 0x20 ADD PUSH1 0x40 MLOAD SWAP1 DUP2 ADD PUSH1 0x40 MSTORE DUP1 SWAP3 SWAP2 SWAP1 DUP2 DUP2 MSTORE PUSH1 0x20 ADD DUP3 DUP1 SLOAD PUSH2 0x2A0 SWAP1 PUSH2 0x14C6 JUMP JUMPDEST DUP1 ISZERO PUSH2 0x2EB JUMPI DUP1 PUSH1 0x1F LT PUSH2 0x2C2 JUMPI PUSH2 0x100 DUP1 DUP4 SLOAD DIV MUL DUP4 MSTORE SWAP2 PUSH1 0x20 ADD SWAP2 PUSH2 0x2EB JUMP JUMPDEST DUP3 ADD SWAP2 SWAP1 PUSH0 MSTORE PUSH1 0x20 PUSH0 KECCAK256 SWAP1 JUMPDEST DUP2 SLOAD DUP2 MSTORE SWAP1 PUSH1 0x1 ADD SWAP1 PUSH1 0x20 ADD DUP1 DUP4 GT PUSH2 0x2CE JUMPI DUP3 SWAP1 SUB PUSH1 0x1F AND DUP3 ADD SWAP2 JUMPDEST POP POP POP POP POP SWAP1 DUP1 PUSH1 0x3 ADD SLOAD SWAP1 DUP1 PUSH1 0x4 ADD SLOAD SWAP1 POP DUP6 JUMP JUMPDEST PUSH1 0x60 PUSH1 0x1 PUSH0 DUP4 PUSH20 0xFFFFFFFFFFFFFFFFFFFFFFFFFFFFFFFFFFFFFFFF AND PUSH20 0xFFFFFFFFFFFFFFFFFFFFFFFFFFFFFFFFFFFFFFFF AND DUP2 MSTORE PUSH1 0x20 ADD SWAP1 DUP2 MSTORE PUSH1 0x20 ADD PUSH0 KECCAK256 DUP1 SLOAD DUP1 PUSH1 0x20 MUL PUSH1 0x20 ADD PUSH1 0x40 MLOAD SWAP1 DUP2 ADD PUSH1 0x40 MSTORE DUP1 SWAP3 SWAP2 SWAP1 DUP2 DUP2 MSTORE PUSH1 0x20 ADD PUSH0 SWAP1 JUMPDEST DUP3 DUP3 LT ISZERO PUSH2 0x491 JUMPI DUP4 DUP3 SWAP1 PUSH0 MSTORE PUSH1 0x20 PUSH0 KECCAK256 SWAP1 PUSH1 0x5 MUL ADD PUSH1 0x40 MLOAD DUP1 PUSH1 0xA0 ADD PUSH1 0x40 MSTORE SWAP1 DUP2 PUSH0 DUP3 ADD SLOAD DUP2 MSTORE PUSH1 0x20 ADD PUSH1 0x1 DUP3 ADD PUSH0 SWAP1 SLOAD SWAP1 PUSH2 0x100 EXP SWAP1 DIV PUSH20 0xFFFFFFFFFFFFFFFFFFFFFFFFFFFFFFFFFFFFFFFF AND PUSH20 0xFFFFFFFFFFFFFFFFFFFFFFFFFFFFFFFFFFFFFFFF AND PUSH20 0xFFFFFFFFFFFFFFFFFFFFFFFFFFFFFFFFFFFFFFFF AND DUP2 MSTORE PUSH1 0x20 ADD PUSH1 0x2 DUP3 ADD DUP1 SLOAD PUSH2 0x3EE SWAP1 PUSH2 0x14C6 JUMP JUMPDEST DUP1 PUSH1 0x1F ADD PUSH1 0x20 DUP1 SWAP2 DIV MUL PUSH1 0x20 ADD PUSH1 0x40 MLOAD SWAP1 DUP2 ADD PUSH1 0x40 MSTORE DUP1 SWAP3 SWAP2 SWAP1 DUP2 DUP2 MSTORE PUSH1 0x20 ADD DUP3 DUP1 SLOAD PUSH2 0x41A SWAP1 PUSH2 0x14C6 JUMP JUMPDEST DUP1 ISZERO PUSH2 0x465 JUMPI DUP1 PUSH1 0x1F LT PUSH2 0x43C JUMPI PUSH2 0x100 DUP1 DUP4 SLOAD DIV MUL DUP4 MSTORE SWAP2 PUSH1 0x20 ADD SWAP2 PUSH2 0x465 JUMP JUMPDEST DUP3 ADD SWAP2 SWAP1 PUSH0 MSTORE PUSH1 0x20 PUSH0 KECCAK256 SWAP1 JUMPDEST DUP2 SLOAD DUP2 MSTORE SWAP1 PUSH1 0x1 ADD SWAP1 PUSH1 0x20 ADD DUP1 DUP4 GT PUSH2 0x448 JUMPI DUP3 SWAP1 SUB PUSH1 0x1F AND DUP3 ADD SWAP2 JUMPDEST POP POP POP POP POP DUP2 MSTORE PUSH1 0x20 ADD PUSH1 0x3 DUP3 ADD SLOAD DUP2 MSTORE PUSH1 0x20 ADD PUSH1 0x4 DUP3 ADD SLOAD DUP2 MSTORE POP POP DUP2 MSTORE PUSH1 0x20 ADD SWAP1 PUSH1 0x1 ADD SWAP1 PUSH2 0x35F JUMP JUMPDEST POP POP POP POP SWAP1 POP SWAP2 SWAP1 POP JUMP JUMPDEST DUP1 PUSH1 0x1 PUSH0 DUP5 PUSH20 0xFFFFFFFFFFFFFFFFFFFFFFFFFFFFFFFFFFFFFFFF AND PUSH20 0xFFFFFFFFFFFFFFFFFFFFFFFFFFFFFFFFFFFFFFFF AND DUP2 MSTORE PUSH1 0x20 ADD SWAP1 DUP2 MSTORE PUSH1 0x20 ADD PUSH0 KECCAK256 DUP3 DUP2 SLOAD DUP2 LT PUSH2 0x4EC JUMPI PUSH2 0x4EB PUSH2 0x14F6 JUMP JUMPDEST JUMPDEST SWAP1 PUSH0 MSTORE PUSH1 0x20 PUSH0 KECCAK256 SWAP1 PUSH1 0x5 MUL ADD PUSH0 ADD SLOAD EQ PUSH2 0x53B JUMPI PUSH1 0x40 MLOAD PUSH32 0x8C379A000000000000000000000000000000000000000000000000000000000 DUP2 MSTORE PUSH1 0x4 ADD PUSH2 0x532 SWAP1 PUSH2 0x156D JUMP JUMPDEST PUSH1 0x40 MLOAD DUP1 SWAP2 SUB SWAP1 REVERT JUMPDEST PUSH0 PUSH1 0x1 PUSH0 DUP5 PUSH20 0xFFFFFFFFFFFFFFFFFFFFFFFFFFFFFFFFFFFFFFFF AND PUSH20 0xFFFFFFFFFFFFFFFFFFFFFFFFFFFFFFFFFFFFFFFF AND DUP2 MSTORE PUSH1 0x20 ADD SWAP1 DUP2 MSTORE PUSH1 0x20 ADD PUSH0 KECCAK256 DUP3 DUP2 SLOAD DUP2 LT PUSH2 0x58B JUMPI PUSH2 0x58A PUSH2 0x14F6 JUMP JUMPDEST JUMPDEST SWAP1 PUSH0 MSTORE PUSH1 0x20 PUSH0 KECCAK256 SWAP1 PUSH1 0x5 MUL ADD PUSH1 0x4 ADD SLOAD GT PUSH2 0x5DB JUMPI PUSH1 0x40 MLOAD PUSH32 0x8C379A000000000000000000000000000000000000000000000000000000000 DUP2 MSTORE PUSH1 0x4 ADD PUSH2 0x5D2 SWAP1 PUSH2 0x15D5 JUMP JUMPDEST PUSH1 0x40 MLOAD DUP1 SWAP2 SUB SWAP1 REVERT JUMPDEST PUSH1 0x1 PUSH0 DUP4 PUSH20 0xFFFFFFFFFFFFFFFFFFFFFFFFFFFFFFFFFFFFFFFF AND PUSH20 0xFFFFFFFFFFFFFFFFFFFFFFFFFFFFFFFFFFFFFFFF AND DUP2 MSTORE PUSH1 0x20 ADD SWAP1 DUP2 MSTORE PUSH1 0x20 ADD PUSH0 KECCAK256 DUP2 DUP2 SLOAD DUP2 LT PUSH2 0x62A JUMPI PUSH2 0x629 PUSH2 0x14F6 JUMP JUMPDEST JUMPDEST SWAP1 PUSH0 MSTORE PUSH1 0x20 PUSH0 KECCAK256 SWAP1 PUSH1 0x5 MUL ADD PUSH1 0x4 ADD PUSH0 DUP2 SLOAD DUP1 SWAP3 SWAP2 SWAP1 PUSH2 0x649 SWAP1 PUSH2 0x1620 JUMP JUMPDEST SWAP2 SWAP1 POP SSTORE POP PUSH32 0x762C2616349603AC16EBA0DE8E6141B79129A07AB63BD99E0A80B3A471716943 CALLER DUP4 DUP4 PUSH1 0x1 PUSH0 DUP8 PUSH20 0xFFFFFFFFFFFFFFFFFFFFFFFFFFFFFFFFFFFFFFFF AND PUSH20 0xFFFFFFFFFFFFFFFFFFFFFFFFFFFFFFFFFFFFFFFF AND DUP2 MSTORE PUSH1 0x20 ADD SWAP1 DUP2 MSTORE PUSH1 0x20 ADD PUSH0 KECCAK256 DUP6 DUP2 SLOAD DUP2 LT PUSH2 0x6C1 JUMPI PUSH2 0x6C0 PUSH2 0x14F6 JUMP JUMPDEST JUMPDEST SWAP1 PUSH0 MSTORE PUSH1 0x20 PUSH0 KECCAK256 SWAP1 PUSH1 0x5 MUL ADD PUSH1 0x4 ADD SLOAD PUSH1 0x40 MLOAD PUSH2 0x6E1 SWAP5 SWAP4 SWAP3 SWAP2 SWAP1 PUSH2 0x1647 JUMP JUMPDEST PUSH1 0x40 MLOAD DUP1 SWAP2 SUB SWAP1 LOG1 POP POP JUMP JUMPDEST PUSH1 0x2 PUSH0 SWAP1 SLOAD SWAP1 PUSH2 0x100 EXP SWAP1 DIV PUSH20 0xFFFFFFFFFFFFFFFFFFFFFFFFFFFFFFFFFFFFFFFF AND PUSH20 0xFFFFFFFFFFFFFFFFFFFFFFFFFFFFFFFFFFFFFFFF AND CALLER PUSH20 0xFFFFFFFFFFFFFFFFFFFFFFFFFFFFFFFFFFFFFFFF AND EQ PUSH2 0x77C JUMPI PUSH1 0x40 MLOAD PUSH32 0x8C379A000000000000000000000000000000000000000000000000000000000 DUP2 MSTORE PUSH1 0x4 ADD PUSH2 0x773 SWAP1 PUSH2 0x16D4 JUMP JUMPDEST PUSH1 0x40 MLOAD DUP1 SWAP2 SUB SWAP1 REVERT JUMPDEST DUP1 PUSH0 DUP1 PUSH2 0x100 EXP DUP2 SLOAD DUP2 PUSH2 0xFFFF MUL NOT AND SWAP1 DUP4 PUSH2 0xFFFF AND MUL OR SWAP1 SSTORE POP POP JUMP JUMPDEST DUP1 PUSH1 0x1 PUSH0 DUP5 PUSH20 0xFFFFFFFFFFFFFFFFFFFFFFFFFFFFFFFFFFFFFFFF AND PUSH20 0xFFFFFFFFFFFFFFFFFFFFFFFFFFFFFFFFFFFFFFFF AND DUP2 MSTORE PUSH1 0x20 ADD SWAP1 DUP2 MSTORE PUSH1 0x20 ADD PUSH0 KECCAK256 DUP3 DUP2 SLOAD DUP2 LT PUSH2 0x7EA JUMPI PUSH2 0x7E9 PUSH2 0x14F6 JUMP JUMPDEST JUMPDEST SWAP1 PUSH0 MSTORE PUSH1 0x20 PUSH0 KECCAK256 SWAP1 PUSH1 0x5 MUL ADD PUSH0 ADD SLOAD EQ PUSH2 0x839 JUMPI PUSH1 0x40 MLOAD PUSH32 0x8C379A000000000000000000000000000000000000000000000000000000000 DUP2 MSTORE PUSH1 0x4 ADD PUSH2 0x830 SWAP1 PUSH2 0x156D JUMP JUMPDEST PUSH1 0x40 MLOAD DUP1 SWAP2 SUB SWAP1 REVERT JUMPDEST PUSH1 0x1 PUSH0 DUP4 PUSH20 0xFFFFFFFFFFFFFFFFFFFFFFFFFFFFFFFFFFFFFFFF AND PUSH20 0xFFFFFFFFFFFFFFFFFFFFFFFFFFFFFFFFFFFFFFFF AND DUP2 MSTORE PUSH1 0x20 ADD SWAP1 DUP2 MSTORE PUSH1 0x20 ADD PUSH0 KECCAK256 DUP2 DUP2 SLOAD DUP2 LT PUSH2 0x888 JUMPI PUSH2 0x887 PUSH2 0x14F6 JUMP JUMPDEST JUMPDEST SWAP1 PUSH0 MSTORE PUSH1 0x20 PUSH0 KECCAK256 SWAP1 PUSH1 0x5 MUL ADD PUSH1 0x4 ADD PUSH0 DUP2 SLOAD DUP1 SWAP3 SWAP2 SWAP1 PUSH2 0x8A7 SWAP1 PUSH2 0x16F2 JUMP JUMPDEST SWAP2 SWAP1 POP SSTORE POP PUSH32 0xE8A76FC0F16D11A00D1E93B689B63D76CF60AF914DD3D915375DC41D01A0C3C8 CALLER DUP4 DUP4 PUSH1 0x1 PUSH0 DUP8 PUSH20 0xFFFFFFFFFFFFFFFFFFFFFFFFFFFFFFFFFFFFFFFF AND PUSH20 0xFFFFFFFFFFFFFFFFFFFFFFFFFFFFFFFFFFFFFFFF AND DUP2 MSTORE PUSH1 0x20 ADD SWAP1 DUP2 MSTORE PUSH1 0x20 ADD PUSH0 KECCAK256 DUP6 DUP2 SLOAD DUP2 LT PUSH2 0x91F JUMPI PUSH2 0x91E PUSH2 0x14F6 JUMP JUMPDEST JUMPDEST SWAP1 PUSH0 MSTORE PUSH1 0x20 PUSH0 KECCAK256 SWAP1 PUSH1 0x5 MUL ADD PUSH1 0x4 ADD SLOAD PUSH1 0x40 MLOAD PUSH2 0x93F SWAP5 SWAP4 SWAP3 SWAP2 SWAP1 PUSH2 0x1647 JUMP JUMPDEST PUSH1 0x40 MLOAD DUP1 SWAP2 SUB SWAP1 LOG1 POP POP JUMP JUMPDEST PUSH0 DUP1 SLOAD SWAP1 PUSH2 0x100 EXP SWAP1 DIV PUSH2 0xFFFF AND DUP2 JUMP JUMPDEST PUSH0 DUP1 PUSH0 JUMPDEST PUSH1 0x1 PUSH0 DUP6 PUSH20 0xFFFFFFFFFFFFFFFFFFFFFFFFFFFFFFFFFFFFFFFF AND PUSH20 0xFFFFFFFFFFFFFFFFFFFFFFFFFFFFFFFFFFFFFFFF AND DUP2 MSTORE PUSH1 0x20 ADD SWAP1 DUP2 MSTORE PUSH1 0x20 ADD PUSH0 KECCAK256 DUP1 SLOAD SWAP1 POP DUP2 LT ISZERO PUSH2 0xA21 JUMPI PUSH1 0x1 PUSH0 DUP6 PUSH20 0xFFFFFFFFFFFFFFFFFFFFFFFFFFFFFFFFFFFFFFFF AND PUSH20 0xFFFFFFFFFFFFFFFFFFFFFFFFFFFFFFFFFFFFFFFF AND DUP2 MSTORE PUSH1 0x20 ADD SWAP1 DUP2 MSTORE PUSH1 0x20 ADD PUSH0 KECCAK256 DUP2 DUP2 SLOAD DUP2 LT PUSH2 0x9F7 JUMPI PUSH2 0x9F6 PUSH2 0x14F6 JUMP JUMPDEST JUMPDEST SWAP1 PUSH0 MSTORE PUSH1 0x20 PUSH0 KECCAK256 SWAP1 PUSH1 0x5 MUL ADD PUSH1 0x4 ADD SLOAD DUP3 PUSH2 0xA12 SWAP2 SWAP1 PUSH2 0x1739 JUMP JUMPDEST SWAP2 POP DUP1 DUP1 PUSH1 0x1 ADD SWAP2 POP POP PUSH2 0x960 JUMP JUMPDEST POP DUP1 SWAP2 POP POP SWAP2 SWAP1 POP JUMP JUMPDEST PUSH1 0x2 PUSH0 SWAP1 SLOAD SWAP1 PUSH2 0x100 EXP SWAP1 DIV PUSH20 0xFFFFFFFFFFFFFFFFFFFFFFFFFFFFFFFFFFFFFFFF AND DUP2 JUMP JUMPDEST PUSH0 DUP1 SLOAD SWAP1 PUSH2 0x100 EXP SWAP1 DIV PUSH2 0xFFFF AND PUSH2 0xFFFF AND DUP2 MLOAD GT ISZERO PUSH2 0xAA5 JUMPI PUSH1 0x40 MLOAD PUSH32 0x8C379A000000000000000000000000000000000000000000000000000000000 DUP2 MSTORE PUSH1 0x4 ADD PUSH2 0xA9C SWAP1 PUSH2 0x17B6 JUMP JUMPDEST PUSH1 0x40 MLOAD DUP1 SWAP2 SUB SWAP1 REVERT JUMPDEST PUSH0 PUSH1 0x40 MLOAD DUP1 PUSH1 0xA0 ADD PUSH1 0x40 MSTORE DUP1 PUSH1 0x1 PUSH0 CALLER PUSH20 0xFFFFFFFFFFFFFFFFFFFFFFFFFFFFFFFFFFFFFFFF AND PUSH20 0xFFFFFFFFFFFFFFFFFFFFFFFFFFFFFFFFFFFFFFFF AND DUP2 MSTORE PUSH1 0x20 ADD SWAP1 DUP2 MSTORE PUSH1 0x20 ADD PUSH0 KECCAK256 DUP1 SLOAD SWAP1 POP DUP2 MSTORE PUSH1 0x20 ADD CALLER PUSH20 0xFFFFFFFFFFFFFFFFFFFFFFFFFFFFFFFFFFFFFFFF AND DUP2 MSTORE PUSH1 0x20 ADD DUP4 DUP2 MSTORE PUSH1 0x20 ADD TIMESTAMP DUP2 MSTORE PUSH1 0x20 ADD PUSH0 DUP2 MSTORE POP SWAP1 POP PUSH1 0x1 PUSH0 CALLER PUSH20 0xFFFFFFFFFFFFFFFFFFFFFFFFFFFFFFFFFFFFFFFF AND PUSH20 0xFFFFFFFFFFFFFFFFFFFFFFFFFFFFFFFFFFFFFFFF AND DUP2 MSTORE PUSH1 0x20 ADD SWAP1 DUP2 MSTORE PUSH1 0x20 ADD PUSH0 KECCAK256 DUP2 SWAP1 DUP1 PUSH1 0x1 DUP2 SLOAD ADD DUP1 DUP3 SSTORE DUP1 SWAP2 POP POP PUSH1 0x1 SWAP1 SUB SWAP1 PUSH0 MSTORE PUSH1 0x20 PUSH0 KECCAK256 SWAP1 PUSH1 0x5 MUL ADD PUSH0 SWAP1 SWAP2 SWAP1 SWAP2 SWAP1 SWAP2 POP PUSH0 DUP3 ADD MLOAD DUP2 PUSH0 ADD SSTORE PUSH1 0x20 DUP3 ADD MLOAD DUP2 PUSH1 0x1 ADD PUSH0 PUSH2 0x100 EXP DUP2 SLOAD DUP2 PUSH20 0xFFFFFFFFFFFFFFFFFFFFFFFFFFFFFFFFFFFFFFFF MUL NOT AND SWAP1 DUP4 PUSH20 0xFFFFFFFFFFFFFFFFFFFFFFFFFFFFFFFFFFFFFFFF AND MUL OR SWAP1 SSTORE POP PUSH1 0x40 DUP3 ADD MLOAD DUP2 PUSH1 0x2 ADD SWAP1 DUP2 PUSH2 0xBEC SWAP2 SWAP1 PUSH2 0x1971 JUMP JUMPDEST POP PUSH1 0x60 DUP3 ADD MLOAD DUP2 PUSH1 0x3 ADD SSTORE PUSH1 0x80 DUP3 ADD MLOAD DUP2 PUSH1 0x4 ADD SSTORE POP POP PUSH32 0x16FD3C13E9D46923E0A8BCE11C7B473EC508A72E6C96CD2404B29CE972AFC29E DUP2 PUSH0 ADD MLOAD DUP3 PUSH1 0x20 ADD MLOAD DUP4 PUSH1 0x40 ADD MLOAD DUP5 PUSH1 0x60 ADD MLOAD PUSH1 0x40 MLOAD PUSH2 0xC47 SWAP5 SWAP4 SWAP3 SWAP2 SWAP1 PUSH2 0x1A40 JUMP JUMPDEST PUSH1 0x40 MLOAD DUP1 SWAP2 SUB SWAP1 LOG1 POP POP JUMP JUMPDEST PUSH2 0xC5B PUSH2 0xDCA JUMP JUMPDEST PUSH1 0x1 PUSH0 CALLER PUSH20 0xFFFFFFFFFFFFFFFFFFFFFFFFFFFFFFFFFFFFFFFF AND PUSH20 0xFFFFFFFFFFFFFFFFFFFFFFFFFFFFFFFFFFFFFFFF AND DUP2 MSTORE PUSH1 0x20 ADD SWAP1 DUP2 MSTORE PUSH1 0x20 ADD PUSH0 KECCAK256 DUP3 DUP2 SLOAD DUP2 LT PUSH2 0xCAA JUMPI PUSH2 0xCA9 PUSH2 0x14F6 JUMP JUMPDEST JUMPDEST SWAP1 PUSH0 MSTORE PUSH1 0x20 PUSH0 KECCAK256 SWAP1 PUSH1 0x5 MUL ADD PUSH1 0x40 MLOAD DUP1 PUSH1 0xA0 ADD PUSH1 0x40 MSTORE SWAP1 DUP2 PUSH0 DUP3 ADD SLOAD DUP2 MSTORE PUSH1 0x20 ADD PUSH1 0x1 DUP3 ADD PUSH0 SWAP1 SLOAD SWAP1 PUSH2 0x100 EXP SWAP1 DIV PUSH20 0xFFFFFFFFFFFFFFFFFFFFFFFFFFFFFFFFFFFFFFFF AND PUSH20 0xFFFFFFFFFFFFFFFFFFFFFFFFFFFFFFFFFFFFFFFF AND PUSH20 0xFFFFFFFFFFFFFFFFFFFFFFFFFFFFFFFFFFFFFFFF AND DUP2 MSTORE PUSH1 0x20 ADD PUSH1 0x2 DUP3 ADD DUP1 SLOAD PUSH2 0xD2F SWAP1 PUSH2 0x14C6 JUMP JUMPDEST DUP1 PUSH1 0x1F ADD PUSH1 0x20 DUP1 SWAP2 DIV MUL PUSH1 0x20 ADD PUSH1 0x40 MLOAD SWAP1 DUP2 ADD PUSH1 0x40 MSTORE DUP1 SWAP3 SWAP2 SWAP1 DUP2 DUP2 MSTORE PUSH1 0x20 ADD DUP3 DUP1 SLOAD PUSH2 0xD5B SWAP1 PUSH2 0x14C6 JUMP JUMPDEST DUP1 ISZERO PUSH2 0xDA6 JUMPI DUP1 PUSH1 0x1F LT PUSH2 0xD7D JUMPI PUSH2 0x100 DUP1 DUP4 SLOAD DIV MUL DUP4 MSTORE SWAP2 PUSH1 0x20 ADD SWAP2 PUSH2 0xDA6 JUMP JUMPDEST DUP3 ADD SWAP2 SWAP1 PUSH0 MSTORE PUSH1 0x20 PUSH0 KECCAK256 SWAP1 JUMPDEST DUP2 SLOAD DUP2 MSTORE SWAP1 PUSH1 0x1 ADD SWAP1 PUSH1 0x20 ADD DUP1 DUP4 GT PUSH2 0xD89 JUMPI DUP3 SWAP1 SUB PUSH1 0x1F AND DUP3 ADD SWAP2 JUMPDEST POP POP POP POP POP DUP2 MSTORE PUSH1 0x20 ADD PUSH1 0x3 DUP3 ADD SLOAD DUP2 MSTORE PUSH1 0x20 ADD PUSH1 0x4 DUP3 ADD SLOAD DUP2 MSTORE POP POP SWAP1 POP SWAP2 SWAP1 POP JUMP JUMPDEST PUSH1 0x40 MLOAD DUP1 PUSH1 0xA0 ADD PUSH1 0x40 MSTORE DUP1 PUSH0 DUP2 MSTORE PUSH1 0x20 ADD PUSH0 PUSH20 0xFFFFFFFFFFFFFFFFFFFFFFFFFFFFFFFFFFFFFFFF AND DUP2 MSTORE PUSH1 0x20 ADD PUSH1 0x60 DUP2 MSTORE PUSH1 0x20 ADD PUSH0 DUP2 MSTORE PUSH1 0x20 ADD PUSH0 DUP2 MSTORE POP SWAP1 JUMP JUMPDEST PUSH0 PUSH1 0x40 MLOAD SWAP1 POP SWAP1 JUMP JUMPDEST PUSH0 DUP1 REVERT JUMPDEST PUSH0 DUP1 REVERT JUMPDEST PUSH0 PUSH20 0xFFFFFFFFFFFFFFFFFFFFFFFFFFFFFFFFFFFFFFFF DUP3 AND SWAP1 POP SWAP2 SWAP1 POP JUMP JUMPDEST PUSH0 PUSH2 0xE45 DUP3 PUSH2 0xE1C JUMP JUMPDEST SWAP1 POP SWAP2 SWAP1 POP JUMP JUMPDEST PUSH2 0xE55 DUP2 PUSH2 0xE3B JUMP JUMPDEST DUP2 EQ PUSH2 0xE5F JUMPI PUSH0 DUP1 REVERT JUMPDEST POP JUMP JUMPDEST PUSH0 DUP2 CALLDATALOAD SWAP1 POP PUSH2 0xE70 DUP2 PUSH2 0xE4C JUMP JUMPDEST SWAP3 SWAP2 POP POP JUMP JUMPDEST PUSH0 DUP2 SWAP1 POP SWAP2 SWAP1 POP JUMP JUMPDEST PUSH2 0xE88 DUP2 PUSH2 0xE76 JUMP JUMPDEST DUP2 EQ PUSH2 0xE92 JUMPI PUSH0 DUP1 REVERT JUMPDEST POP JUMP JUMPDEST PUSH0 DUP2 CALLDATALOAD SWAP1 POP PUSH2 0xEA3 DUP2 PUSH2 0xE7F JUMP JUMPDEST SWAP3 SWAP2 POP POP JUMP JUMPDEST PUSH0 DUP1 PUSH1 0x40 DUP4 DUP6 SUB SLT ISZERO PUSH2 0xEBF JUMPI PUSH2 0xEBE PUSH2 0xE14 JUMP JUMPDEST JUMPDEST PUSH0 PUSH2 0xECC DUP6 DUP3 DUP7 ADD PUSH2 0xE62 JUMP JUMPDEST SWAP3 POP POP PUSH1 0x20 PUSH2 0xEDD DUP6 DUP3 DUP7 ADD PUSH2 0xE95 JUMP JUMPDEST SWAP2 POP POP SWAP3 POP SWAP3 SWAP1 POP JUMP JUMPDEST PUSH2 0xEF0 DUP2 PUSH2 0xE76 JUMP JUMPDEST DUP3 MSTORE POP POP JUMP JUMPDEST PUSH2 0xEFF DUP2 PUSH2 0xE3B JUMP JUMPDEST DUP3 MSTORE POP POP JUMP JUMPDEST PUSH0 DUP2 MLOAD SWAP1 POP SWAP2 SWAP1 POP JUMP JUMPDEST PUSH0 DUP3 DUP3 MSTORE PUSH1 0x20 DUP3 ADD SWAP1 POP SWAP3 SWAP2 POP POP JUMP JUMPDEST DUP3 DUP2 DUP4 MCOPY PUSH0 DUP4 DUP4 ADD MSTORE POP POP POP JUMP JUMPDEST PUSH0 PUSH1 0x1F NOT PUSH1 0x1F DUP4 ADD AND SWAP1 POP SWAP2 SWAP1 POP JUMP JUMPDEST PUSH0 PUSH2 0xF47 DUP3 PUSH2 0xF05 JUMP JUMPDEST PUSH2 0xF51 DUP2 DUP6 PUSH2 0xF0F JUMP JUMPDEST SWAP4 POP PUSH2 0xF61 DUP2 DUP6 PUSH1 0x20 DUP7 ADD PUSH2 0xF1F JUMP JUMPDEST PUSH2 0xF6A DUP2 PUSH2 0xF2D JUMP JUMPDEST DUP5 ADD SWAP2 POP POP SWAP3 SWAP2 POP POP JUMP JUMPDEST PUSH0 PUSH1 0xA0 DUP3 ADD SWAP1 POP PUSH2 0xF88 PUSH0 DUP4 ADD DUP9 PUSH2 0xEE7 JUMP JUMPDEST PUSH2 0xF95 PUSH1 0x20 DUP4 ADD DUP8 PUSH2 0xEF6 JUMP JUMPDEST DUP2 DUP2 SUB PUSH1 0x40 DUP4 ADD MSTORE PUSH2 0xFA7 DUP2 DUP7 PUSH2 0xF3D JUMP JUMPDEST SWAP1 POP PUSH2 0xFB6 PUSH1 0x60 DUP4 ADD DUP6 PUSH2 0xEE7 JUMP JUMPDEST PUSH2 0xFC3 PUSH1 0x80 DUP4 ADD DUP5 PUSH2 0xEE7 JUMP JUMPDEST SWAP7 SWAP6 POP POP POP POP POP POP JUMP JUMPDEST PUSH0 PUSH1 0x20 DUP3 DUP5 SUB SLT ISZERO PUSH2 0xFE2 JUMPI PUSH2 0xFE1 PUSH2 0xE14 JUMP JUMPDEST JUMPDEST PUSH0 PUSH2 0xFEF DUP5 DUP3 DUP6 ADD PUSH2 0xE62 JUMP JUMPDEST SWAP2 POP POP SWAP3 SWAP2 POP POP JUMP JUMPDEST PUSH0 DUP2 MLOAD SWAP1 POP SWAP2 SWAP1 POP JUMP JUMPDEST PUSH0 DUP3 DUP3 MSTORE PUSH1 0x20 DUP3 ADD SWAP1 POP SWAP3 SWAP2 POP POP JUMP JUMPDEST PUSH0 DUP2 SWAP1 POP PUSH1 0x20 DUP3 ADD SWAP1 POP SWAP2 SWAP1 POP JUMP JUMPDEST PUSH2 0x102A DUP2 PUSH2 0xE76 JUMP JUMPDEST DUP3 MSTORE POP POP JUMP JUMPDEST PUSH2 0x1039 DUP2 PUSH2 0xE3B JUMP JUMPDEST DUP3 MSTORE POP POP JUMP JUMPDEST PUSH0 DUP3 DUP3 MSTORE PUSH1 0x20 DUP3 ADD SWAP1 POP SWAP3 SWAP2 POP POP JUMP JUMPDEST PUSH0 PUSH2 0x1059 DUP3 PUSH2 0xF05 JUMP JUMPDEST PUSH2 0x1063 DUP2 DUP6 PUSH2 0x103F JUMP JUMPDEST SWAP4 POP PUSH2 0x1073 DUP2 DUP6 PUSH1 0x20 DUP7 ADD PUSH2 0xF1F JUMP JUMPDEST PUSH2 0x107C DUP2 PUSH2 0xF2D JUMP JUMPDEST DUP5 ADD SWAP2 POP POP SWAP3 SWAP2 POP POP JUMP JUMPDEST PUSH0 PUSH1 0xA0 DUP4 ADD PUSH0 DUP4 ADD MLOAD PUSH2 0x109C PUSH0 DUP7 ADD DUP3 PUSH2 0x1021 JUMP JUMPDEST POP PUSH1 0x20 DUP4 ADD MLOAD PUSH2 0x10AF PUSH1 0x20 DUP7 ADD DUP3 PUSH2 0x1030 JUMP JUMPDEST POP PUSH1 0x40 DUP4 ADD MLOAD DUP5 DUP3 SUB PUSH1 0x40 DUP7 ADD MSTORE PUSH2 0x10C7 DUP3 DUP3 PUSH2 0x104F JUMP JUMPDEST SWAP2 POP POP PUSH1 0x60 DUP4 ADD MLOAD PUSH2 0x10DC PUSH1 0x60 DUP7 ADD DUP3 PUSH2 0x1021 JUMP JUMPDEST POP PUSH1 0x80 DUP4 ADD MLOAD PUSH2 0x10EF PUSH1 0x80 DUP7 ADD DUP3 PUSH2 0x1021 JUMP JUMPDEST POP DUP1 SWAP2 POP POP SWAP3 SWAP2 POP POP JUMP JUMPDEST PUSH0 PUSH2 0x1105 DUP4 DUP4 PUSH2 0x1087 JUMP JUMPDEST SWAP1 POP SWAP3 SWAP2 POP POP JUMP JUMPDEST PUSH0 PUSH1 0x20 DUP3 ADD SWAP1 POP SWAP2 SWAP1 POP JUMP JUMPDEST PUSH0 PUSH2 0x1123 DUP3 PUSH2 0xFF8 JUMP JUMPDEST PUSH2 0x112D DUP2 DUP6 PUSH2 0x1002 JUMP JUMPDEST SWAP4 POP DUP4 PUSH1 0x20 DUP3 MUL DUP6 ADD PUSH2 0x113F DUP6 PUSH2 0x1012 JUMP JUMPDEST DUP1 PUSH0 JUMPDEST DUP6 DUP2 LT ISZERO PUSH2 0x117A JUMPI DUP5 DUP5 SUB DUP10 MSTORE DUP2 MLOAD PUSH2 0x115B DUP6 DUP3 PUSH2 0x10FA JUMP JUMPDEST SWAP5 POP PUSH2 0x1166 DUP4 PUSH2 0x110D JUMP JUMPDEST SWAP3 POP PUSH1 0x20 DUP11 ADD SWAP10 POP POP PUSH1 0x1 DUP2 ADD SWAP1 POP PUSH2 0x1142 JUMP JUMPDEST POP DUP3 SWAP8 POP DUP8 SWAP6 POP POP POP POP POP POP SWAP3 SWAP2 POP POP JUMP JUMPDEST PUSH0 PUSH1 0x20 DUP3 ADD SWAP1 POP DUP2 DUP2 SUB PUSH0 DUP4 ADD MSTORE PUSH2 0x11A4 DUP2 DUP5 PUSH2 0x1119 JUMP JUMPDEST SWAP1 POP SWAP3 SWAP2 POP POP JUMP JUMPDEST PUSH0 PUSH2 0xFFFF DUP3 AND SWAP1 POP SWAP2 SWAP1 POP JUMP JUMPDEST PUSH2 0x11C2 DUP2 PUSH2 0x11AC JUMP JUMPDEST DUP2 EQ PUSH2 0x11CC JUMPI PUSH0 DUP1 REVERT JUMPDEST POP JUMP JUMPDEST PUSH0 DUP2 CALLDATALOAD SWAP1 POP PUSH2 0x11DD DUP2 PUSH2 0x11B9 JUMP JUMPDEST SWAP3 SWAP2 POP POP JUMP JUMPDEST PUSH0 PUSH1 0x20 DUP3 DUP5 SUB SLT ISZERO PUSH2 0x11F8 JUMPI PUSH2 0x11F7 PUSH2 0xE14 JUMP JUMPDEST JUMPDEST PUSH0 PUSH2 0x1205 DUP5 DUP3 DUP6 ADD PUSH2 0x11CF JUMP JUMPDEST SWAP2 POP POP SWAP3 SWAP2 POP POP JUMP JUMPDEST PUSH2 0x1217 DUP2 PUSH2 0x11AC JUMP JUMPDEST DUP3 MSTORE POP POP JUMP JUMPDEST PUSH0 PUSH1 0x20 DUP3 ADD SWAP1 POP PUSH2 0x1230 PUSH0 DUP4 ADD DUP5 PUSH2 0x120E JUMP JUMPDEST SWAP3 SWAP2 POP POP JUMP JUMPDEST PUSH0 PUSH1 0x20 DUP3 ADD SWAP1 POP PUSH2 0x1249 PUSH0 DUP4 ADD DUP5 PUSH2 0xEE7 JUMP JUMPDEST SWAP3 SWAP2 POP POP JUMP JUMPDEST PUSH0 PUSH1 0x20 DUP3 ADD SWAP1 POP PUSH2 0x1262 PUSH0 DUP4 ADD DUP5 PUSH2 0xEF6 JUMP JUMPDEST SWAP3 SWAP2 POP POP JUMP JUMPDEST PUSH0 DUP1 REVERT JUMPDEST PUSH0 DUP1 REVERT JUMPDEST PUSH32 0x4E487B7100000000000000000000000000000000000000000000000000000000 PUSH0 MSTORE PUSH1 0x41 PUSH1 0x4 MSTORE PUSH1 0x24 PUSH0 REVERT JUMPDEST PUSH2 0x12A6 DUP3 PUSH2 0xF2D JUMP JUMPDEST DUP2 ADD DUP2 DUP2 LT PUSH8 0xFFFFFFFFFFFFFFFF DUP3 GT OR ISZERO PUSH2 0x12C5 JUMPI PUSH2 0x12C4 PUSH2 0x1270 JUMP JUMPDEST JUMPDEST DUP1 PUSH1 0x40 MSTORE POP POP POP JUMP JUMPDEST PUSH0 PUSH2 0x12D7 PUSH2 0xE0B JUMP JUMPDEST SWAP1 POP PUSH2 0x12E3 DUP3 DUP3 PUSH2 0x129D JUMP JUMPDEST SWAP2 SWAP1 POP JUMP JUMPDEST PUSH0 PUSH8 0xFFFFFFFFFFFFFFFF DUP3 GT ISZERO PUSH2 0x1302 JUMPI PUSH2 0x1301 PUSH2 0x1270 JUMP JUMPDEST JUMPDEST PUSH2 0x130B DUP3 PUSH2 0xF2D JUMP JUMPDEST SWAP1 POP PUSH1 0x20 DUP2 ADD SWAP1 POP SWAP2 SWAP1 POP JUMP JUMPDEST DUP3 DUP2 DUP4 CALLDATACOPY PUSH0 DUP4 DUP4 ADD MSTORE POP POP POP JUMP JUMPDEST PUSH0 PUSH2 0x1338 PUSH2 0x1333 DUP5 PUSH2 0x12E8 JUMP JUMPDEST PUSH2 0x12CE JUMP JUMPDEST SWAP1 POP DUP3 DUP2 MSTORE PUSH1 0x20 DUP2 ADD DUP5 DUP5 DUP5 ADD GT ISZERO PUSH2 0x1354 JUMPI PUSH2 0x1353 PUSH2 0x126C JUMP JUMPDEST JUMPDEST PUSH2 0x135F DUP5 DUP3 DUP6 PUSH2 0x1318 JUMP JUMPDEST POP SWAP4 SWAP3 POP POP POP JUMP JUMPDEST PUSH0 DUP3 PUSH1 0x1F DUP4 ADD SLT PUSH2 0x137B JUMPI PUSH2 0x137A PUSH2 0x1268 JUMP JUMPDEST JUMPDEST DUP2 CALLDATALOAD PUSH2 0x138B DUP5 DUP3 PUSH1 0x20 DUP7 ADD PUSH2 0x1326 JUMP JUMPDEST SWAP2 POP POP SWAP3 SWAP2 POP POP JUMP JUMPDEST PUSH0 PUSH1 0x20 DUP3 DUP5 SUB SLT ISZERO PUSH2 0x13A9 JUMPI PUSH2 0x13A8 PUSH2 0xE14 JUMP JUMPDEST JUMPDEST PUSH0 DUP3 ADD CALLDATALOAD PUSH8 0xFFFFFFFFFFFFFFFF DUP2 GT ISZERO PUSH2 0x13C6 JUMPI PUSH2 0x13C5 PUSH2 0xE18 JUMP JUMPDEST JUMPDEST PUSH2 0x13D2 DUP5 DUP3 DUP6 ADD PUSH2 0x1367 JUMP JUMPDEST SWAP2 POP POP SWAP3 SWAP2 POP POP JUMP JUMPDEST PUSH0 PUSH1 0x20 DUP3 DUP5 SUB SLT ISZERO PUSH2 0x13F0 JUMPI PUSH2 0x13EF PUSH2 0xE14 JUMP JUMPDEST JUMPDEST PUSH0 PUSH2 0x13FD DUP5 DUP3 DUP6 ADD PUSH2 0xE95 JUMP JUMPDEST SWAP2 POP POP SWAP3 SWAP2 POP POP JUMP JUMPDEST PUSH0 PUSH1 0xA0 DUP4 ADD PUSH0 DUP4 ADD MLOAD PUSH2 0x141B PUSH0 DUP7 ADD DUP3 PUSH2 0x1021 JUMP JUMPDEST POP PUSH1 0x20 DUP4 ADD MLOAD PUSH2 0x142E PUSH1 0x20 DUP7 ADD DUP3 PUSH2 0x1030 JUMP JUMPDEST POP PUSH1 0x40 DUP4 ADD MLOAD DUP5 DUP3 SUB PUSH1 0x40 DUP7 ADD MSTORE PUSH2 0x1446 DUP3 DUP3 PUSH2 0x104F JUMP JUMPDEST SWAP2 POP POP PUSH1 0x60 DUP4 ADD MLOAD PUSH2 0x145B PUSH1 0x60 DUP7 ADD DUP3 PUSH2 0x1021 JUMP JUMPDEST POP PUSH1 0x80 DUP4 ADD MLOAD PUSH2 0x146E PUSH1 0x80 DUP7 ADD DUP3 PUSH2 0x1021 JUMP JUMPDEST POP DUP1 SWAP2 POP POP SWAP3 SWAP2 POP POP JUMP JUMPDEST PUSH0 PUSH1 0x20 DUP3 ADD SWAP1 POP DUP2 DUP2 SUB PUSH0 DUP4 ADD MSTORE PUSH2 0x1491 DUP2 DUP5 PUSH2 0x1406 JUMP JUMPDEST SWAP1 POP SWAP3 SWAP2 POP POP JUMP JUMPDEST PUSH32 0x4E487B7100000000000000000000000000000000000000000000000000000000 PUSH0 MSTORE PUSH1 0x22 PUSH1 0x4 MSTORE PUSH1 0x24 PUSH0 REVERT JUMPDEST PUSH0 PUSH1 0x2 DUP3 DIV SWAP1 POP PUSH1 0x1 DUP3 AND DUP1 PUSH2 0x14DD JUMPI PUSH1 0x7F DUP3 AND SWAP2 POP JUMPDEST PUSH1 0x20 DUP3 LT DUP2 SUB PUSH2 0x14F0 JUMPI PUSH2 0x14EF PUSH2 0x1499 JUMP JUMPDEST JUMPDEST POP SWAP2 SWAP1 POP JUMP JUMPDEST PUSH32 0x4E487B7100000000000000000000000000000000000000000000000000000000 PUSH0 MSTORE PUSH1 0x32 PUSH1 0x4 MSTORE PUSH1 0x24 PUSH0 REVERT JUMPDEST PUSH32 0x547765657420446F6573204E6F74204578697374000000000000000000000000 PUSH0 DUP3 ADD MSTORE POP JUMP JUMPDEST PUSH0 PUSH2 0x1557 PUSH1 0x14 DUP4 PUSH2 0xF0F JUMP JUMPDEST SWAP2 POP PUSH2 0x1562 DUP3 PUSH2 0x1523 JUMP JUMPDEST PUSH1 0x20 DUP3 ADD SWAP1 POP SWAP2 SWAP1 POP JUMP JUMPDEST PUSH0 PUSH1 0x20 DUP3 ADD SWAP1 POP DUP2 DUP2 SUB PUSH0 DUP4 ADD MSTORE PUSH2 0x1584 DUP2 PUSH2 0x154B JUMP JUMPDEST SWAP1 POP SWAP2 SWAP1 POP JUMP JUMPDEST PUSH32 0x547765657420486173204E6F204C696B65730000000000000000000000000000 PUSH0 DUP3 ADD MSTORE POP JUMP JUMPDEST PUSH0 PUSH2 0x15BF PUSH1 0x12 DUP4 PUSH2 0xF0F JUMP JUMPDEST SWAP2 POP PUSH2 0x15CA DUP3 PUSH2 0x158B JUMP JUMPDEST PUSH1 0x20 DUP3 ADD SWAP1 POP SWAP2 SWAP1 POP JUMP JUMPDEST PUSH0 PUSH1 0x20 DUP3 ADD SWAP1 POP DUP2 DUP2 SUB PUSH0 DUP4 ADD MSTORE PUSH2 0x15EC DUP2 PUSH2 0x15B3 JUMP JUMPDEST SWAP1 POP SWAP2 SWAP1 POP JUMP JUMPDEST PUSH32 0x4E487B7100000000000000000000000000000000000000000000000000000000 PUSH0 MSTORE PUSH1 0x11 PUSH1 0x4 MSTORE PUSH1 0x24 PUSH0 REVERT JUMPDEST PUSH0 PUSH2 0x162A DUP3 PUSH2 0xE76 JUMP JUMPDEST SWAP2 POP PUSH0 DUP3 SUB PUSH2 0x163C JUMPI PUSH2 0x163B PUSH2 0x15F3 JUMP JUMPDEST JUMPDEST PUSH1 0x1 DUP3 SUB SWAP1 POP SWAP2 SWAP1 POP JUMP JUMPDEST PUSH0 PUSH1 0x80 DUP3 ADD SWAP1 POP PUSH2 0x165A PUSH0 DUP4 ADD DUP8 PUSH2 0xEF6 JUMP JUMPDEST PUSH2 0x1667 PUSH1 0x20 DUP4 ADD DUP7 PUSH2 0xEF6 JUMP JUMPDEST PUSH2 0x1674 PUSH1 0x40 DUP4 ADD DUP6 PUSH2 0xEE7 JUMP JUMPDEST PUSH2 0x1681 PUSH1 0x60 DUP4 ADD DUP5 PUSH2 0xEE7 JUMP JUMPDEST SWAP6 SWAP5 POP POP POP POP POP JUMP JUMPDEST PUSH32 0x594F5520415245204E4F5420544845204F574E45522100000000000000000000 PUSH0 DUP3 ADD MSTORE POP JUMP JUMPDEST PUSH0 PUSH2 0x16BE PUSH1 0x16 DUP4 PUSH2 0xF0F JUMP JUMPDEST SWAP2 POP PUSH2 0x16C9 DUP3 PUSH2 0x168A JUMP JUMPDEST PUSH1 0x20 DUP3 ADD SWAP1 POP SWAP2 SWAP1 POP JUMP JUMPDEST PUSH0 PUSH1 0x20 DUP3 ADD SWAP1 POP DUP2 DUP2 SUB PUSH0 DUP4 ADD MSTORE PUSH2 0x16EB DUP2 PUSH2 0x16B2 JUMP JUMPDEST SWAP1 POP SWAP2 SWAP1 POP JUMP JUMPDEST PUSH0 PUSH2 0x16FC DUP3 PUSH2 0xE76 JUMP JUMPDEST SWAP2 POP PUSH32 0xFFFFFFFFFFFFFFFFFFFFFFFFFFFFFFFFFFFFFFFFFFFFFFFFFFFFFFFFFFFFFFFF DUP3 SUB PUSH2 0x172E JUMPI PUSH2 0x172D PUSH2 0x15F3 JUMP JUMPDEST JUMPDEST PUSH1 0x1 DUP3 ADD SWAP1 POP SWAP2 SWAP1 POP JUMP JUMPDEST PUSH0 PUSH2 0x1743 DUP3 PUSH2 0xE76 JUMP JUMPDEST SWAP2 POP PUSH2 0x174E DUP4 PUSH2 0xE76 JUMP JUMPDEST SWAP3 POP DUP3 DUP3 ADD SWAP1 POP DUP1 DUP3 GT ISZERO PUSH2 0x1766 JUMPI PUSH2 0x1765 PUSH2 0x15F3 JUMP JUMPDEST JUMPDEST SWAP3 SWAP2 POP POP JUMP JUMPDEST PUSH32 0x596F75207368616C6C206E6F7420706173732100000000000000000000000000 PUSH0 DUP3 ADD MSTORE POP JUMP JUMPDEST PUSH0 PUSH2 0x17A0 PUSH1 0x13 DUP4 PUSH2 0xF0F JUMP JUMPDEST SWAP2 POP PUSH2 0x17AB DUP3 PUSH2 0x176C JUMP JUMPDEST PUSH1 0x20 DUP3 ADD SWAP1 POP SWAP2 SWAP1 POP JUMP JUMPDEST PUSH0 PUSH1 0x20 DUP3 ADD SWAP1 POP DUP2 DUP2 SUB PUSH0 DUP4 ADD MSTORE PUSH2 0x17CD DUP2 PUSH2 0x1794 JUMP JUMPDEST SWAP1 POP SWAP2 SWAP1 POP JUMP JUMPDEST PUSH0 DUP2 SWAP1 POP DUP2 PUSH0 MSTORE PUSH1 0x20 PUSH0 KECCAK256 SWAP1 POP SWAP2 SWAP1 POP JUMP JUMPDEST PUSH0 PUSH1 0x20 PUSH1 0x1F DUP4 ADD DIV SWAP1 POP SWAP2 SWAP1 POP JUMP JUMPDEST PUSH0 DUP3 DUP3 SHL SWAP1 POP SWAP3 SWAP2 POP POP JUMP JUMPDEST PUSH0 PUSH1 0x8 DUP4 MUL PUSH2 0x1830 PUSH32 0xFFFFFFFFFFFFFFFFFFFFFFFFFFFFFFFFFFFFFFFFFFFFFFFFFFFFFFFFFFFFFFFF DUP3 PUSH2 0x17F5 JUMP JUMPDEST PUSH2 0x183A DUP7 DUP4 PUSH2 0x17F5 JUMP JUMPDEST SWAP6 POP DUP1 NOT DUP5 AND SWAP4 POP DUP1 DUP7 AND DUP5 OR SWAP3 POP POP POP SWAP4 SWAP3 POP POP POP JUMP JUMPDEST PUSH0 DUP2 SWAP1 POP SWAP2 SWAP1 POP JUMP JUMPDEST PUSH0 PUSH2 0x1875 PUSH2 0x1870 PUSH2 0x186B DUP5 PUSH2 0xE76 JUMP JUMPDEST PUSH2 0x1852 JUMP JUMPDEST PUSH2 0xE76 JUMP JUMPDEST SWAP1 POP SWAP2 SWAP1 POP JUMP JUMPDEST PUSH0 DUP2 SWAP1 POP SWAP2 SWAP1 POP JUMP JUMPDEST PUSH2 0x188E DUP4 PUSH2 0x185B JUMP JUMPDEST PUSH2 0x18A2 PUSH2 0x189A DUP3 PUSH2 0x187C JUMP JUMPDEST DUP5 DUP5 SLOAD PUSH2 0x1801 JUMP JUMPDEST DUP3 SSTORE POP POP POP POP JUMP JUMPDEST PUSH0 SWAP1 JUMP JUMPDEST PUSH2 0x18B6 PUSH2 0x18AA JUMP JUMPDEST PUSH2 0x18C1 DUP2 DUP5 DUP5 PUSH2 0x1885 JUMP JUMPDEST POP POP POP JUMP JUMPDEST JUMPDEST DUP2 DUP2 LT ISZERO PUSH2 0x18E4 JUMPI PUSH2 0x18D9 PUSH0 DUP3 PUSH2 0x18AE JUMP JUMPDEST PUSH1 0x1 DUP2 ADD SWAP1 POP PUSH2 0x18C7 JUMP JUMPDEST POP POP JUMP JUMPDEST PUSH1 0x1F DUP3 GT ISZERO PUSH2 0x1929 JUMPI PUSH2 0x18FA DUP2 PUSH2 0x17D4 JUMP JUMPDEST PUSH2 0x1903 DUP5 PUSH2 0x17E6 JUMP JUMPDEST DUP2 ADD PUSH1 0x20 DUP6 LT ISZERO PUSH2 0x1912 JUMPI DUP2 SWAP1 POP JUMPDEST PUSH2 0x1926 PUSH2 0x191E DUP6 PUSH2 0x17E6 JUMP JUMPDEST DUP4 ADD DUP3 PUSH2 0x18C6 JUMP JUMPDEST POP POP JUMPDEST POP POP POP JUMP JUMPDEST PUSH0 DUP3 DUP3 SHR SWAP1 POP SWAP3 SWAP2 POP POP JUMP JUMPDEST PUSH0 PUSH2 0x1949 PUSH0 NOT DUP5 PUSH1 0x8 MUL PUSH2 0x192E JUMP JUMPDEST NOT DUP1 DUP4 AND SWAP2 POP POP SWAP3 SWAP2 POP POP JUMP JUMPDEST PUSH0 PUSH2 0x1961 DUP4 DUP4 PUSH2 0x193A JUMP JUMPDEST SWAP2 POP DUP3 PUSH1 0x2 MUL DUP3 OR SWAP1 POP SWAP3 SWAP2 POP POP JUMP JUMPDEST PUSH2 0x197A DUP3 PUSH2 0xF05 JUMP JUMPDEST PUSH8 0xFFFFFFFFFFFFFFFF DUP2 GT ISZERO PUSH2 0x1993 JUMPI PUSH2 0x1992 PUSH2 0x1270 JUMP JUMPDEST JUMPDEST PUSH2 0x199D DUP3 SLOAD PUSH2 0x14C6 JUMP JUMPDEST PUSH2 0x19A8 DUP3 DUP3 DUP6 PUSH2 0x18E8 JUMP JUMPDEST PUSH0 PUSH1 0x20 SWAP1 POP PUSH1 0x1F DUP4 GT PUSH1 0x1 DUP2 EQ PUSH2 0x19D9 JUMPI PUSH0 DUP5 ISZERO PUSH2 0x19C7 JUMPI DUP3 DUP8 ADD MLOAD SWAP1 POP JUMPDEST PUSH2 0x19D1 DUP6 DUP3 PUSH2 0x1956 JUMP JUMPDEST DUP7 SSTORE POP PUSH2 0x1A38 JUMP JUMPDEST PUSH1 0x1F NOT DUP5 AND PUSH2 0x19E7 DUP7 PUSH2 0x17D4 JUMP JUMPDEST PUSH0 JUMPDEST DUP3 DUP2 LT ISZERO PUSH2 0x1A0E JUMPI DUP5 DUP10 ADD MLOAD DUP3 SSTORE PUSH1 0x1 DUP3 ADD SWAP2 POP PUSH1 0x20 DUP6 ADD SWAP5 POP PUSH1 0x20 DUP2 ADD SWAP1 POP PUSH2 0x19E9 JUMP JUMPDEST DUP7 DUP4 LT ISZERO PUSH2 0x1A2B JUMPI DUP5 DUP10 ADD MLOAD PUSH2 0x1A27 PUSH1 0x1F DUP10 AND DUP3 PUSH2 0x193A JUMP JUMPDEST DUP4 SSTORE POP JUMPDEST PUSH1 0x1 PUSH1 0x2 DUP9 MUL ADD DUP9 SSTORE POP POP POP JUMPDEST POP POP POP POP POP POP JUMP JUMPDEST PUSH0 PUSH1 0x80 DUP3 ADD SWAP1 POP PUSH2 0x1A53 PUSH0 DUP4 ADD DUP8 PUSH2 0xEE7 JUMP JUMPDEST PUSH2 0x1A60 PUSH1 0x20 DUP4 ADD DUP7 PUSH2 0xEF6 JUMP JUMPDEST DUP2 DUP2 SUB PUSH1 0x40 DUP4 ADD MSTORE PUSH2 0x1A72 DUP2 DUP6 PUSH2 0xF3D JUMP JUMPDEST SWAP1 POP PUSH2 0x1A81 PUSH1 0x60 DUP4 ADD DUP5 PUSH2 0xEE7 JUMP JUMPDEST SWAP6 SWAP5 POP POP POP POP POP JUMP INVALID LOG2 PUSH5 0x6970667358 0x22 SLT KECCAK256 PREVRANDAO 0xEC SWAP7 0xCD 0x1E 0xFC 0x26 PUSH4 0x482D9AB0 PUSH29 0x7B23A868E97615F3366C33AD29513EEB6487B064736F6C634300081A00 CALLER "
				},
				"gasEstimates": {
					"creation": {
						"codeDepositCost": "1369600",
						"executionCost": "49953",
						"totalCost": "1419553"
					},
					"external": {
						"MAX_TWEET_LENGTH()": "2463",
						"changeTweetLength(uint16)": "26909",
						"createtweet(string)": "infinite",
						"getAllTweets(address)": "infinite",
						"getTotalLikes(address)": "infinite",
						"getTweet(uint256)": "infinite",
						"likeTweet(address,uint256)": "infinite",
						"owner()": "2552",
						"tweets(address,uint256)": "infinite",
						"unlikeTweet(address,uint256)": "infinite"
					}
				},
				"methodIdentifiers": {
					"MAX_TWEET_LENGTH()": "6eb10797",
					"changeTweetLength(uint16)": "58bfa4ab",
					"createtweet(string)": "b8e4f167",
					"getAllTweets(address)": "12e7ee1c",
					"getTotalLikes(address)": "820785cc",
					"getTweet(uint256)": "c3ad5ecb",
					"likeTweet(address,uint256)": "63378216",
					"owner()": "8da5cb5b",
					"tweets(address,uint256)": "05a1b4a9",
					"unlikeTweet(address,uint256)": "3d9b569f"
				}
			},
			"storageLayout": {
				"storage": [
					{
						"astId": 4,
						"contract": "contracts/Twitter.sol:Twitter",
						"label": "MAX_TWEET_LENGTH",
						"offset": 0,
						"slot": "0",
						"type": "t_uint16"
					},
					{
						"astId": 21,
						"contract": "contracts/Twitter.sol:Twitter",
						"label": "tweets",
						"offset": 0,
						"slot": "1",
						"type": "t_mapping(t_address,t_array(t_struct(Tweet)15_storage)dyn_storage)"
					},
					{
						"astId": 23,
						"contract": "contracts/Twitter.sol:Twitter",
						"label": "owner",
						"offset": 0,
						"slot": "2",
						"type": "t_address"
					}
				],
				"types": {
					"t_address": {
						"encoding": "inplace",
						"label": "address",
						"numberOfBytes": "20"
					},
					"t_array(t_struct(Tweet)15_storage)dyn_storage": {
						"base": "t_struct(Tweet)15_storage",
						"encoding": "dynamic_array",
						"label": "struct Twitter.Tweet[]",
						"numberOfBytes": "32"
					},
					"t_mapping(t_address,t_array(t_struct(Tweet)15_storage)dyn_storage)": {
						"encoding": "mapping",
						"key": "t_address",
						"label": "mapping(address => struct Twitter.Tweet[])",
						"numberOfBytes": "32",
						"value": "t_array(t_struct(Tweet)15_storage)dyn_storage"
					},
					"t_string_storage": {
						"encoding": "bytes",
						"label": "string",
						"numberOfBytes": "32"
					},
					"t_struct(Tweet)15_storage": {
						"encoding": "inplace",
						"label": "struct Twitter.Tweet",
						"members": [
							{
								"astId": 6,
								"contract": "contracts/Twitter.sol:Twitter",
								"label": "id",
								"offset": 0,
								"slot": "0",
								"type": "t_uint256"
							},
							{
								"astId": 8,
								"contract": "contracts/Twitter.sol:Twitter",
								"label": "author",
								"offset": 0,
								"slot": "1",
								"type": "t_address"
							},
							{
								"astId": 10,
								"contract": "contracts/Twitter.sol:Twitter",
								"label": "content",
								"offset": 0,
								"slot": "2",
								"type": "t_string_storage"
							},
							{
								"astId": 12,
								"contract": "contracts/Twitter.sol:Twitter",
								"label": "timestamp",
								"offset": 0,
								"slot": "3",
								"type": "t_uint256"
							},
							{
								"astId": 14,
								"contract": "contracts/Twitter.sol:Twitter",
								"label": "likes",
								"offset": 0,
								"slot": "4",
								"type": "t_uint256"
							}
						],
						"numberOfBytes": "160"
					},
					"t_uint16": {
						"encoding": "inplace",
						"label": "uint16",
						"numberOfBytes": "2"
					},
					"t_uint256": {
						"encoding": "inplace",
						"label": "uint256",
						"numberOfBytes": "32"
					}
				}
			},
			"userdoc": {
				"kind": "user",
				"methods": {},
				"version": 1
			}
		}
	}
}