{
	"contracts/Twitter.sol": {
		"Twitter": {
			"abi": [
				{
					"inputs": [],
					"stateMutability": "nonpayable",
					"type": "constructor"
				},
				{
					"inputs": [],
					"name": "MAX_TWEET_LENGTH",
					"outputs": [
						{
							"internalType": "uint16",
							"name": "",
							"type": "uint16"
						}
					],
					"stateMutability": "view",
					"type": "function"
				},
				{
					"inputs": [
						{
							"internalType": "uint16",
							"name": "newTweetLength",
							"type": "uint16"
						}
					],
					"name": "changeTweetLength",
					"outputs": [],
					"stateMutability": "nonpayable",
					"type": "function"
				},
				{
					"inputs": [
						{
							"internalType": "string",
							"name": "_tweet",
							"type": "string"
						}
					],
					"name": "createtweet",
					"outputs": [],
					"stateMutability": "nonpayable",
					"type": "function"
				},
				{
					"inputs": [
						{
							"internalType": "address",
							"name": "_owner",
							"type": "address"
						}
					],
					"name": "getAllTweets",
					"outputs": [
						{
							"components": [
								{
									"internalType": "address",
									"name": "author",
									"type": "address"
								},
								{
									"internalType": "string",
									"name": "content",
									"type": "string"
								},
								{
									"internalType": "uint256",
									"name": "timestamp",
									"type": "uint256"
								},
								{
									"internalType": "uint256",
									"name": "likes",
									"type": "uint256"
								}
							],
							"internalType": "struct Twitter.Tweet[]",
							"name": "",
							"type": "tuple[]"
						}
					],
					"stateMutability": "view",
					"type": "function"
				},
				{
					"inputs": [
						{
							"internalType": "uint256",
							"name": "_i",
							"type": "uint256"
						}
					],
					"name": "getTweet",
					"outputs": [
						{
							"components": [
								{
									"internalType": "address",
									"name": "author",
									"type": "address"
								},
								{
									"internalType": "string",
									"name": "content",
									"type": "string"
								},
								{
									"internalType": "uint256",
									"name": "timestamp",
									"type": "uint256"
								},
								{
									"internalType": "uint256",
									"name": "likes",
									"type": "uint256"
								}
							],
							"internalType": "struct Twitter.Tweet",
							"name": "",
							"type": "tuple"
						}
					],
					"stateMutability": "view",
					"type": "function"
				},
				{
					"inputs": [],
					"name": "owner",
					"outputs": [
						{
							"internalType": "address",
							"name": "",
							"type": "address"
						}
					],
					"stateMutability": "view",
					"type": "function"
				},
				{
					"inputs": [
						{
							"internalType": "address",
							"name": "",
							"type": "address"
						},
						{
							"internalType": "uint256",
							"name": "",
							"type": "uint256"
						}
					],
					"name": "tweets",
					"outputs": [
						{
							"internalType": "address",
							"name": "author",
							"type": "address"
						},
						{
							"internalType": "string",
							"name": "content",
							"type": "string"
						},
						{
							"internalType": "uint256",
							"name": "timestamp",
							"type": "uint256"
						},
						{
							"internalType": "uint256",
							"name": "likes",
							"type": "uint256"
						}
					],
					"stateMutability": "view",
					"type": "function"
				}
			],
			"devdoc": {
				"kind": "dev",
				"methods": {},
				"version": 1
			},
			"evm": {
				"assembly": "    /* \"contracts/Twitter.sol\":58:1203  contract Twitter {... */\n  mstore(0x40, 0x80)\n    /* \"contracts/Twitter.sol\":115:118  280 */\n  0x0118\n    /* \"contracts/Twitter.sol\":82:118  uint16 public MAX_TWEET_LENGTH = 280 */\n  0x00\n  dup1\n  0x0100\n  exp\n  dup2\n  sload\n  dup2\n  0xffff\n  mul\n  not\n  and\n  swap1\n  dup4\n  0xffff\n  and\n  mul\n  or\n  swap1\n  sstore\n  pop\n    /* \"contracts/Twitter.sol\":324:373  constructor() {... */\n  callvalue\n  dup1\n  iszero\n  tag_1\n  jumpi\n  0x00\n  dup1\n  revert\ntag_1:\n  pop\n    /* \"contracts/Twitter.sol\":356:366  msg.sender */\n  caller\n    /* \"contracts/Twitter.sol\":348:353  owner */\n  0x02\n  0x00\n    /* \"contracts/Twitter.sol\":348:366  owner = msg.sender */\n  0x0100\n  exp\n  dup2\n  sload\n  dup2\n  0xffffffffffffffffffffffffffffffffffffffff\n  mul\n  not\n  and\n  swap1\n  dup4\n  0xffffffffffffffffffffffffffffffffffffffff\n  and\n  mul\n  or\n  swap1\n  sstore\n  pop\n    /* \"contracts/Twitter.sol\":58:1203  contract Twitter {... */\n  dataSize(sub_0)\n  dup1\n  dataOffset(sub_0)\n  0x00\n  codecopy\n  0x00\n  return\nstop\n\nsub_0: assembly {\n        /* \"contracts/Twitter.sol\":58:1203  contract Twitter {... */\n      mstore(0x40, 0x80)\n      callvalue\n      dup1\n      iszero\n      tag_1\n      jumpi\n      0x00\n      dup1\n      revert\n    tag_1:\n      pop\n      jumpi(tag_2, lt(calldatasize, 0x04))\n      shr(0xe0, calldataload(0x00))\n      dup1\n      0x6eb10797\n      gt\n      tag_10\n      jumpi\n      dup1\n      0x6eb10797\n      eq\n      tag_6\n      jumpi\n      dup1\n      0x8da5cb5b\n      eq\n      tag_7\n      jumpi\n      dup1\n      0xb8e4f167\n      eq\n      tag_8\n      jumpi\n      dup1\n      0xc3ad5ecb\n      eq\n      tag_9\n      jumpi\n      jump(tag_2)\n    tag_10:\n      dup1\n      0x05a1b4a9\n      eq\n      tag_3\n      jumpi\n      dup1\n      0x12e7ee1c\n      eq\n      tag_4\n      jumpi\n      dup1\n      0x58bfa4ab\n      eq\n      tag_5\n      jumpi\n    tag_2:\n      0x00\n      dup1\n      revert\n        /* \"contracts/Twitter.sol\":249:290  mapping(address => Tweet[]) public tweets */\n    tag_3:\n      tag_11\n      0x04\n      dup1\n      calldatasize\n      sub\n      dup2\n      add\n      swap1\n      tag_12\n      swap2\n      swap1\n      tag_13\n      jump\t// in\n    tag_12:\n      tag_14\n      jump\t// in\n    tag_11:\n      mload(0x40)\n      tag_15\n      swap5\n      swap4\n      swap3\n      swap2\n      swap1\n      tag_16\n      jump\t// in\n    tag_15:\n      mload(0x40)\n      dup1\n      swap2\n      sub\n      swap1\n      return\n        /* \"contracts/Twitter.sol\":1090:1201  function getAllTweets(address _owner) public view returns(Tweet[] memory){... */\n    tag_4:\n      tag_17\n      0x04\n      dup1\n      calldatasize\n      sub\n      dup2\n      add\n      swap1\n      tag_18\n      swap2\n      swap1\n      tag_19\n      jump\t// in\n    tag_18:\n      tag_20\n      jump\t// in\n    tag_17:\n      mload(0x40)\n      tag_21\n      swap2\n      swap1\n      tag_22\n      jump\t// in\n    tag_21:\n      mload(0x40)\n      dup1\n      swap2\n      sub\n      swap1\n      return\n        /* \"contracts/Twitter.sol\":488:605  function changeTweetLength(uint16 newTweetLength) public onlyOwner {... */\n    tag_5:\n      tag_23\n      0x04\n      dup1\n      calldatasize\n      sub\n      dup2\n      add\n      swap1\n      tag_24\n      swap2\n      swap1\n      tag_25\n      jump\t// in\n    tag_24:\n      tag_26\n      jump\t// in\n    tag_23:\n      stop\n        /* \"contracts/Twitter.sol\":82:118  uint16 public MAX_TWEET_LENGTH = 280 */\n    tag_6:\n      tag_27\n      tag_28\n      jump\t// in\n    tag_27:\n      mload(0x40)\n      tag_29\n      swap2\n      swap1\n      tag_30\n      jump\t// in\n    tag_29:\n      mload(0x40)\n      dup1\n      swap2\n      sub\n      swap1\n      return\n        /* \"contracts/Twitter.sol\":297:317  address public owner */\n    tag_7:\n      tag_31\n      tag_32\n      jump\t// in\n    tag_31:\n      mload(0x40)\n      tag_33\n      swap2\n      swap1\n      tag_34\n      jump\t// in\n    tag_33:\n      mload(0x40)\n      dup1\n      swap2\n      sub\n      swap1\n      return\n        /* \"contracts/Twitter.sol\":611:969  function createtweet(string memory _tweet) public {... */\n    tag_8:\n      tag_35\n      0x04\n      dup1\n      calldatasize\n      sub\n      dup2\n      add\n      swap1\n      tag_36\n      swap2\n      swap1\n      tag_37\n      jump\t// in\n    tag_36:\n      tag_38\n      jump\t// in\n    tag_35:\n      stop\n        /* \"contracts/Twitter.sol\":975:1084  function getTweet(uint256 _i) public view returns(Tweet memory){... */\n    tag_9:\n      tag_39\n      0x04\n      dup1\n      calldatasize\n      sub\n      dup2\n      add\n      swap1\n      tag_40\n      swap2\n      swap1\n      tag_41\n      jump\t// in\n    tag_40:\n      tag_42\n      jump\t// in\n    tag_39:\n      mload(0x40)\n      tag_43\n      swap2\n      swap1\n      tag_44\n      jump\t// in\n    tag_43:\n      mload(0x40)\n      dup1\n      swap2\n      sub\n      swap1\n      return\n        /* \"contracts/Twitter.sol\":249:290  mapping(address => Tweet[]) public tweets */\n    tag_14:\n      mstore(0x20, 0x01)\n      dup2\n      0x00\n      mstore\n      keccak256(0x00, 0x40)\n      dup2\n      dup2\n      sload\n      dup2\n      lt\n      tag_45\n      jumpi\n      0x00\n      dup1\n      revert\n    tag_45:\n      swap1\n      0x00\n      mstore\n      keccak256(0x00, 0x20)\n      swap1\n      0x04\n      mul\n      add\n      0x00\n      swap2\n      pop\n      swap2\n      pop\n      pop\n      dup1\n      0x00\n      add\n      0x00\n      swap1\n      sload\n      swap1\n      0x0100\n      exp\n      swap1\n      div\n      0xffffffffffffffffffffffffffffffffffffffff\n      and\n      swap1\n      dup1\n      0x01\n      add\n      dup1\n      sload\n      tag_47\n      swap1\n      tag_48\n      jump\t// in\n    tag_47:\n      dup1\n      0x1f\n      add\n      0x20\n      dup1\n      swap2\n      div\n      mul\n      0x20\n      add\n      mload(0x40)\n      swap1\n      dup2\n      add\n      0x40\n      mstore\n      dup1\n      swap3\n      swap2\n      swap1\n      dup2\n      dup2\n      mstore\n      0x20\n      add\n      dup3\n      dup1\n      sload\n      tag_49\n      swap1\n      tag_48\n      jump\t// in\n    tag_49:\n      dup1\n      iszero\n      tag_50\n      jumpi\n      dup1\n      0x1f\n      lt\n      tag_51\n      jumpi\n      0x0100\n      dup1\n      dup4\n      sload\n      div\n      mul\n      dup4\n      mstore\n      swap2\n      0x20\n      add\n      swap2\n      jump(tag_50)\n    tag_51:\n      dup3\n      add\n      swap2\n      swap1\n      0x00\n      mstore\n      keccak256(0x00, 0x20)\n      swap1\n    tag_52:\n      dup2\n      sload\n      dup2\n      mstore\n      swap1\n      0x01\n      add\n      swap1\n      0x20\n      add\n      dup1\n      dup4\n      gt\n      tag_52\n      jumpi\n      dup3\n      swap1\n      sub\n      0x1f\n      and\n      dup3\n      add\n      swap2\n    tag_50:\n      pop\n      pop\n      pop\n      pop\n      pop\n      swap1\n      dup1\n      0x02\n      add\n      sload\n      swap1\n      dup1\n      0x03\n      add\n      sload\n      swap1\n      pop\n      dup5\n      jump\t// out\n        /* \"contracts/Twitter.sol\":1090:1201  function getAllTweets(address _owner) public view returns(Tweet[] memory){... */\n    tag_20:\n        /* \"contracts/Twitter.sol\":1148:1162  Tweet[] memory */\n      0x60\n        /* \"contracts/Twitter.sol\":1180:1186  tweets */\n      0x01\n        /* \"contracts/Twitter.sol\":1180:1194  tweets[_owner] */\n      0x00\n        /* \"contracts/Twitter.sol\":1187:1193  _owner */\n      dup4\n        /* \"contracts/Twitter.sol\":1180:1194  tweets[_owner] */\n      0xffffffffffffffffffffffffffffffffffffffff\n      and\n      0xffffffffffffffffffffffffffffffffffffffff\n      and\n      dup2\n      mstore\n      0x20\n      add\n      swap1\n      dup2\n      mstore\n      0x20\n      add\n      0x00\n      keccak256\n        /* \"contracts/Twitter.sol\":1173:1194  return tweets[_owner] */\n      dup1\n      sload\n      dup1\n      0x20\n      mul\n      0x20\n      add\n      mload(0x40)\n      swap1\n      dup2\n      add\n      0x40\n      mstore\n      dup1\n      swap3\n      swap2\n      swap1\n      dup2\n      dup2\n      mstore\n      0x20\n      add\n      0x00\n      swap1\n    tag_54:\n      dup3\n      dup3\n      lt\n      iszero\n      tag_55\n      jumpi\n      dup4\n      dup3\n      swap1\n      0x00\n      mstore\n      keccak256(0x00, 0x20)\n      swap1\n      0x04\n      mul\n      add\n      mload(0x40)\n      dup1\n      0x80\n      add\n      0x40\n      mstore\n      swap1\n      dup2\n      0x00\n      dup3\n      add\n      0x00\n      swap1\n      sload\n      swap1\n      0x0100\n      exp\n      swap1\n      div\n      0xffffffffffffffffffffffffffffffffffffffff\n      and\n      0xffffffffffffffffffffffffffffffffffffffff\n      and\n      0xffffffffffffffffffffffffffffffffffffffff\n      and\n      dup2\n      mstore\n      0x20\n      add\n      0x01\n      dup3\n      add\n      dup1\n      sload\n      tag_57\n      swap1\n      tag_48\n      jump\t// in\n    tag_57:\n      dup1\n      0x1f\n      add\n      0x20\n      dup1\n      swap2\n      div\n      mul\n      0x20\n      add\n      mload(0x40)\n      swap1\n      dup2\n      add\n      0x40\n      mstore\n      dup1\n      swap3\n      swap2\n      swap1\n      dup2\n      dup2\n      mstore\n      0x20\n      add\n      dup3\n      dup1\n      sload\n      tag_58\n      swap1\n      tag_48\n      jump\t// in\n    tag_58:\n      dup1\n      iszero\n      tag_59\n      jumpi\n      dup1\n      0x1f\n      lt\n      tag_60\n      jumpi\n      0x0100\n      dup1\n      dup4\n      sload\n      div\n      mul\n      dup4\n      mstore\n      swap2\n      0x20\n      add\n      swap2\n      jump(tag_59)\n    tag_60:\n      dup3\n      add\n      swap2\n      swap1\n      0x00\n      mstore\n      keccak256(0x00, 0x20)\n      swap1\n    tag_61:\n      dup2\n      sload\n      dup2\n      mstore\n      swap1\n      0x01\n      add\n      swap1\n      0x20\n      add\n      dup1\n      dup4\n      gt\n      tag_61\n      jumpi\n      dup3\n      swap1\n      sub\n      0x1f\n      and\n      dup3\n      add\n      swap2\n    tag_59:\n      pop\n      pop\n      pop\n      pop\n      pop\n      dup2\n      mstore\n      0x20\n      add\n      0x02\n      dup3\n      add\n      sload\n      dup2\n      mstore\n      0x20\n      add\n      0x03\n      dup3\n      add\n      sload\n      dup2\n      mstore\n      pop\n      pop\n      dup2\n      mstore\n      0x20\n      add\n      swap1\n      0x01\n      add\n      swap1\n      jump(tag_54)\n    tag_55:\n      pop\n      pop\n      pop\n      pop\n      swap1\n      pop\n        /* \"contracts/Twitter.sol\":1090:1201  function getAllTweets(address _owner) public view returns(Tweet[] memory){... */\n      swap2\n      swap1\n      pop\n      jump\t// out\n        /* \"contracts/Twitter.sol\":488:605  function changeTweetLength(uint16 newTweetLength) public onlyOwner {... */\n    tag_26:\n        /* \"contracts/Twitter.sol\":432:437  owner */\n      0x02\n      0x00\n      swap1\n      sload\n      swap1\n      0x0100\n      exp\n      swap1\n      div\n      0xffffffffffffffffffffffffffffffffffffffff\n      and\n        /* \"contracts/Twitter.sol\":418:437  msg.sender == owner */\n      0xffffffffffffffffffffffffffffffffffffffff\n      and\n        /* \"contracts/Twitter.sol\":418:428  msg.sender */\n      caller\n        /* \"contracts/Twitter.sol\":418:437  msg.sender == owner */\n      0xffffffffffffffffffffffffffffffffffffffff\n      and\n      eq\n        /* \"contracts/Twitter.sol\":410:464  require(msg.sender == owner, \"YOU ARE NOT THE OWNER!\") */\n      tag_63\n      jumpi\n      mload(0x40)\n      0x08c379a000000000000000000000000000000000000000000000000000000000\n      dup2\n      mstore\n      0x04\n      add\n      tag_64\n      swap1\n      tag_65\n      jump\t// in\n    tag_64:\n      mload(0x40)\n      dup1\n      swap2\n      sub\n      swap1\n      revert\n    tag_63:\n        /* \"contracts/Twitter.sol\":584:598  newTweetLength */\n      dup1\n        /* \"contracts/Twitter.sol\":565:581  MAX_TWEET_LENGTH */\n      0x00\n      dup1\n        /* \"contracts/Twitter.sol\":565:598  MAX_TWEET_LENGTH = newTweetLength */\n      0x0100\n      exp\n      dup2\n      sload\n      dup2\n      0xffff\n      mul\n      not\n      and\n      swap1\n      dup4\n      0xffff\n      and\n      mul\n      or\n      swap1\n      sstore\n      pop\n        /* \"contracts/Twitter.sol\":488:605  function changeTweetLength(uint16 newTweetLength) public onlyOwner {... */\n      pop\n      jump\t// out\n        /* \"contracts/Twitter.sol\":82:118  uint16 public MAX_TWEET_LENGTH = 280 */\n    tag_28:\n      0x00\n      dup1\n      sload\n      swap1\n      0x0100\n      exp\n      swap1\n      div\n      0xffff\n      and\n      dup2\n      jump\t// out\n        /* \"contracts/Twitter.sol\":297:317  address public owner */\n    tag_32:\n      0x02\n      0x00\n      swap1\n      sload\n      swap1\n      0x0100\n      exp\n      swap1\n      div\n      0xffffffffffffffffffffffffffffffffffffffff\n      and\n      dup2\n      jump\t// out\n        /* \"contracts/Twitter.sol\":611:969  function createtweet(string memory _tweet) public {... */\n    tag_38:\n        /* \"contracts/Twitter.sol\":703:719  MAX_TWEET_LENGTH */\n      0x00\n      dup1\n      sload\n      swap1\n      0x0100\n      exp\n      swap1\n      div\n      0xffff\n      and\n        /* \"contracts/Twitter.sol\":679:719  bytes(_tweet).length <= MAX_TWEET_LENGTH */\n      0xffff\n      and\n        /* \"contracts/Twitter.sol\":685:691  _tweet */\n      dup2\n        /* \"contracts/Twitter.sol\":679:699  bytes(_tweet).length */\n      mload\n        /* \"contracts/Twitter.sol\":679:719  bytes(_tweet).length <= MAX_TWEET_LENGTH */\n      gt\n      iszero\n        /* \"contracts/Twitter.sol\":671:743  require(bytes(_tweet).length <= MAX_TWEET_LENGTH, \"You shall not pass!\") */\n      tag_68\n      jumpi\n      mload(0x40)\n      0x08c379a000000000000000000000000000000000000000000000000000000000\n      dup2\n      mstore\n      0x04\n      add\n      tag_69\n      swap1\n      tag_70\n      jump\t// in\n    tag_69:\n      mload(0x40)\n      dup1\n      swap2\n      sub\n      swap1\n      revert\n    tag_68:\n        /* \"contracts/Twitter.sol\":754:775  Tweet memory newTweet */\n      0x00\n        /* \"contracts/Twitter.sol\":778:918  Tweet({... */\n      mload(0x40)\n      dup1\n      0x80\n      add\n      0x40\n      mstore\n      dup1\n        /* \"contracts/Twitter.sol\":806:816  msg.sender */\n      caller\n        /* \"contracts/Twitter.sol\":778:918  Tweet({... */\n      0xffffffffffffffffffffffffffffffffffffffff\n      and\n      dup2\n      mstore\n      0x20\n      add\n        /* \"contracts/Twitter.sol\":839:845  _tweet */\n      dup4\n        /* \"contracts/Twitter.sol\":778:918  Tweet({... */\n      dup2\n      mstore\n      0x20\n      add\n        /* \"contracts/Twitter.sol\":870:885  block.timestamp */\n      timestamp\n        /* \"contracts/Twitter.sol\":778:918  Tweet({... */\n      dup2\n      mstore\n      0x20\n      add\n        /* \"contracts/Twitter.sol\":906:907  0 */\n      0x00\n        /* \"contracts/Twitter.sol\":778:918  Tweet({... */\n      dup2\n      mstore\n      pop\n        /* \"contracts/Twitter.sol\":754:918  Tweet memory newTweet = Tweet({... */\n      swap1\n      pop\n        /* \"contracts/Twitter.sol\":929:935  tweets */\n      0x01\n        /* \"contracts/Twitter.sol\":929:947  tweets[msg.sender] */\n      0x00\n        /* \"contracts/Twitter.sol\":936:946  msg.sender */\n      caller\n        /* \"contracts/Twitter.sol\":929:947  tweets[msg.sender] */\n      0xffffffffffffffffffffffffffffffffffffffff\n      and\n      0xffffffffffffffffffffffffffffffffffffffff\n      and\n      dup2\n      mstore\n      0x20\n      add\n      swap1\n      dup2\n      mstore\n      0x20\n      add\n      0x00\n      keccak256\n        /* \"contracts/Twitter.sol\":953:961  newTweet */\n      dup2\n        /* \"contracts/Twitter.sol\":929:962  tweets[msg.sender].push(newTweet) */\n      swap1\n      dup1\n      0x01\n      dup2\n      sload\n      add\n      dup1\n      dup3\n      sstore\n      dup1\n      swap2\n      pop\n      pop\n      0x01\n      swap1\n      sub\n      swap1\n      0x00\n      mstore\n      keccak256(0x00, 0x20)\n      swap1\n      0x04\n      mul\n      add\n      0x00\n      swap1\n      swap2\n      swap1\n      swap2\n      swap1\n      swap2\n      pop\n      0x00\n      dup3\n      add\n      mload\n      dup2\n      0x00\n      add\n      exp(0x0100, 0x00)\n      dup2\n      sload\n      dup2\n      0xffffffffffffffffffffffffffffffffffffffff\n      mul\n      not\n      and\n      swap1\n      dup4\n      0xffffffffffffffffffffffffffffffffffffffff\n      and\n      mul\n      or\n      swap1\n      sstore\n      pop\n      0x20\n      dup3\n      add\n      mload\n      dup2\n      0x01\n      add\n      swap1\n      dup2\n      tag_72\n      swap2\n      swap1\n      tag_73\n      jump\t// in\n    tag_72:\n      pop\n      0x40\n      dup3\n      add\n      mload\n      dup2\n      0x02\n      add\n      sstore\n      0x60\n      dup3\n      add\n      mload\n      dup2\n      0x03\n      add\n      sstore\n      pop\n      pop\n        /* \"contracts/Twitter.sol\":661:969  {... */\n      pop\n        /* \"contracts/Twitter.sol\":611:969  function createtweet(string memory _tweet) public {... */\n      pop\n      jump\t// out\n        /* \"contracts/Twitter.sol\":975:1084  function getTweet(uint256 _i) public view returns(Tweet memory){... */\n    tag_42:\n        /* \"contracts/Twitter.sol\":1025:1037  Tweet memory */\n      tag_74\n      tag_75\n      jump\t// in\n    tag_74:\n        /* \"contracts/Twitter.sol\":1055:1061  tweets */\n      0x01\n        /* \"contracts/Twitter.sol\":1055:1073  tweets[msg.sender] */\n      0x00\n        /* \"contracts/Twitter.sol\":1062:1072  msg.sender */\n      caller\n        /* \"contracts/Twitter.sol\":1055:1073  tweets[msg.sender] */\n      0xffffffffffffffffffffffffffffffffffffffff\n      and\n      0xffffffffffffffffffffffffffffffffffffffff\n      and\n      dup2\n      mstore\n      0x20\n      add\n      swap1\n      dup2\n      mstore\n      0x20\n      add\n      0x00\n      keccak256\n        /* \"contracts/Twitter.sol\":1074:1076  _i */\n      dup3\n        /* \"contracts/Twitter.sol\":1055:1077  tweets[msg.sender][_i] */\n      dup2\n      sload\n      dup2\n      lt\n      tag_77\n      jumpi\n      tag_78\n      tag_79\n      jump\t// in\n    tag_78:\n    tag_77:\n      swap1\n      0x00\n      mstore\n      keccak256(0x00, 0x20)\n      swap1\n      0x04\n      mul\n      add\n        /* \"contracts/Twitter.sol\":1048:1077  return tweets[msg.sender][_i] */\n      mload(0x40)\n      dup1\n      0x80\n      add\n      0x40\n      mstore\n      swap1\n      dup2\n      0x00\n      dup3\n      add\n      0x00\n      swap1\n      sload\n      swap1\n      0x0100\n      exp\n      swap1\n      div\n      0xffffffffffffffffffffffffffffffffffffffff\n      and\n      0xffffffffffffffffffffffffffffffffffffffff\n      and\n      0xffffffffffffffffffffffffffffffffffffffff\n      and\n      dup2\n      mstore\n      0x20\n      add\n      0x01\n      dup3\n      add\n      dup1\n      sload\n      tag_81\n      swap1\n      tag_48\n      jump\t// in\n    tag_81:\n      dup1\n      0x1f\n      add\n      0x20\n      dup1\n      swap2\n      div\n      mul\n      0x20\n      add\n      mload(0x40)\n      swap1\n      dup2\n      add\n      0x40\n      mstore\n      dup1\n      swap3\n      swap2\n      swap1\n      dup2\n      dup2\n      mstore\n      0x20\n      add\n      dup3\n      dup1\n      sload\n      tag_82\n      swap1\n      tag_48\n      jump\t// in\n    tag_82:\n      dup1\n      iszero\n      tag_83\n      jumpi\n      dup1\n      0x1f\n      lt\n      tag_84\n      jumpi\n      0x0100\n      dup1\n      dup4\n      sload\n      div\n      mul\n      dup4\n      mstore\n      swap2\n      0x20\n      add\n      swap2\n      jump(tag_83)\n    tag_84:\n      dup3\n      add\n      swap2\n      swap1\n      0x00\n      mstore\n      keccak256(0x00, 0x20)\n      swap1\n    tag_85:\n      dup2\n      sload\n      dup2\n      mstore\n      swap1\n      0x01\n      add\n      swap1\n      0x20\n      add\n      dup1\n      dup4\n      gt\n      tag_85\n      jumpi\n      dup3\n      swap1\n      sub\n      0x1f\n      and\n      dup3\n      add\n      swap2\n    tag_83:\n      pop\n      pop\n      pop\n      pop\n      pop\n      dup2\n      mstore\n      0x20\n      add\n      0x02\n      dup3\n      add\n      sload\n      dup2\n      mstore\n      0x20\n      add\n      0x03\n      dup3\n      add\n      sload\n      dup2\n      mstore\n      pop\n      pop\n      swap1\n      pop\n        /* \"contracts/Twitter.sol\":975:1084  function getTweet(uint256 _i) public view returns(Tweet memory){... */\n      swap2\n      swap1\n      pop\n      jump\t// out\n    tag_75:\n      mload(0x40)\n      dup1\n      0x80\n      add\n      0x40\n      mstore\n      dup1\n      and(0xffffffffffffffffffffffffffffffffffffffff, 0x00)\n      dup2\n      mstore\n      0x20\n      add\n      0x60\n      dup2\n      mstore\n      0x20\n      add\n      0x00\n      dup2\n      mstore\n      0x20\n      add\n      0x00\n      dup2\n      mstore\n      pop\n      swap1\n      jump\t// out\n        /* \"#utility.yul\":7:82   */\n    tag_86:\n        /* \"#utility.yul\":40:46   */\n      0x00\n        /* \"#utility.yul\":73:75   */\n      0x40\n        /* \"#utility.yul\":67:76   */\n      mload\n        /* \"#utility.yul\":57:76   */\n      swap1\n      pop\n        /* \"#utility.yul\":7:82   */\n      swap1\n      jump\t// out\n        /* \"#utility.yul\":88:205   */\n    tag_87:\n        /* \"#utility.yul\":197:198   */\n      0x00\n        /* \"#utility.yul\":194:195   */\n      dup1\n        /* \"#utility.yul\":187:199   */\n      revert\n        /* \"#utility.yul\":211:328   */\n    tag_88:\n        /* \"#utility.yul\":320:321   */\n      0x00\n        /* \"#utility.yul\":317:318   */\n      dup1\n        /* \"#utility.yul\":310:322   */\n      revert\n        /* \"#utility.yul\":334:460   */\n    tag_89:\n        /* \"#utility.yul\":371:378   */\n      0x00\n        /* \"#utility.yul\":411:453   */\n      0xffffffffffffffffffffffffffffffffffffffff\n        /* \"#utility.yul\":404:409   */\n      dup3\n        /* \"#utility.yul\":400:454   */\n      and\n        /* \"#utility.yul\":389:454   */\n      swap1\n      pop\n        /* \"#utility.yul\":334:460   */\n      swap2\n      swap1\n      pop\n      jump\t// out\n        /* \"#utility.yul\":466:562   */\n    tag_90:\n        /* \"#utility.yul\":503:510   */\n      0x00\n        /* \"#utility.yul\":532:556   */\n      tag_154\n        /* \"#utility.yul\":550:555   */\n      dup3\n        /* \"#utility.yul\":532:556   */\n      tag_89\n      jump\t// in\n    tag_154:\n        /* \"#utility.yul\":521:556   */\n      swap1\n      pop\n        /* \"#utility.yul\":466:562   */\n      swap2\n      swap1\n      pop\n      jump\t// out\n        /* \"#utility.yul\":568:690   */\n    tag_91:\n        /* \"#utility.yul\":641:665   */\n      tag_156\n        /* \"#utility.yul\":659:664   */\n      dup2\n        /* \"#utility.yul\":641:665   */\n      tag_90\n      jump\t// in\n    tag_156:\n        /* \"#utility.yul\":634:639   */\n      dup2\n        /* \"#utility.yul\":631:666   */\n      eq\n        /* \"#utility.yul\":621:684   */\n      tag_157\n      jumpi\n        /* \"#utility.yul\":680:681   */\n      0x00\n        /* \"#utility.yul\":677:678   */\n      dup1\n        /* \"#utility.yul\":670:682   */\n      revert\n        /* \"#utility.yul\":621:684   */\n    tag_157:\n        /* \"#utility.yul\":568:690   */\n      pop\n      jump\t// out\n        /* \"#utility.yul\":696:835   */\n    tag_92:\n        /* \"#utility.yul\":742:747   */\n      0x00\n        /* \"#utility.yul\":780:786   */\n      dup2\n        /* \"#utility.yul\":767:787   */\n      calldataload\n        /* \"#utility.yul\":758:787   */\n      swap1\n      pop\n        /* \"#utility.yul\":796:829   */\n      tag_159\n        /* \"#utility.yul\":823:828   */\n      dup2\n        /* \"#utility.yul\":796:829   */\n      tag_91\n      jump\t// in\n    tag_159:\n        /* \"#utility.yul\":696:835   */\n      swap3\n      swap2\n      pop\n      pop\n      jump\t// out\n        /* \"#utility.yul\":841:918   */\n    tag_93:\n        /* \"#utility.yul\":878:885   */\n      0x00\n        /* \"#utility.yul\":907:912   */\n      dup2\n        /* \"#utility.yul\":896:912   */\n      swap1\n      pop\n        /* \"#utility.yul\":841:918   */\n      swap2\n      swap1\n      pop\n      jump\t// out\n        /* \"#utility.yul\":924:1046   */\n    tag_94:\n        /* \"#utility.yul\":997:1021   */\n      tag_162\n        /* \"#utility.yul\":1015:1020   */\n      dup2\n        /* \"#utility.yul\":997:1021   */\n      tag_93\n      jump\t// in\n    tag_162:\n        /* \"#utility.yul\":990:995   */\n      dup2\n        /* \"#utility.yul\":987:1022   */\n      eq\n        /* \"#utility.yul\":977:1040   */\n      tag_163\n      jumpi\n        /* \"#utility.yul\":1036:1037   */\n      0x00\n        /* \"#utility.yul\":1033:1034   */\n      dup1\n        /* \"#utility.yul\":1026:1038   */\n      revert\n        /* \"#utility.yul\":977:1040   */\n    tag_163:\n        /* \"#utility.yul\":924:1046   */\n      pop\n      jump\t// out\n        /* \"#utility.yul\":1052:1191   */\n    tag_95:\n        /* \"#utility.yul\":1098:1103   */\n      0x00\n        /* \"#utility.yul\":1136:1142   */\n      dup2\n        /* \"#utility.yul\":1123:1143   */\n      calldataload\n        /* \"#utility.yul\":1114:1143   */\n      swap1\n      pop\n        /* \"#utility.yul\":1152:1185   */\n      tag_165\n        /* \"#utility.yul\":1179:1184   */\n      dup2\n        /* \"#utility.yul\":1152:1185   */\n      tag_94\n      jump\t// in\n    tag_165:\n        /* \"#utility.yul\":1052:1191   */\n      swap3\n      swap2\n      pop\n      pop\n      jump\t// out\n        /* \"#utility.yul\":1197:1671   */\n    tag_13:\n        /* \"#utility.yul\":1265:1271   */\n      0x00\n        /* \"#utility.yul\":1273:1279   */\n      dup1\n        /* \"#utility.yul\":1322:1324   */\n      0x40\n        /* \"#utility.yul\":1310:1319   */\n      dup4\n        /* \"#utility.yul\":1301:1308   */\n      dup6\n        /* \"#utility.yul\":1297:1320   */\n      sub\n        /* \"#utility.yul\":1293:1325   */\n      slt\n        /* \"#utility.yul\":1290:1409   */\n      iszero\n      tag_167\n      jumpi\n        /* \"#utility.yul\":1328:1407   */\n      tag_168\n      tag_87\n      jump\t// in\n    tag_168:\n        /* \"#utility.yul\":1290:1409   */\n    tag_167:\n        /* \"#utility.yul\":1448:1449   */\n      0x00\n        /* \"#utility.yul\":1473:1526   */\n      tag_169\n        /* \"#utility.yul\":1518:1525   */\n      dup6\n        /* \"#utility.yul\":1509:1515   */\n      dup3\n        /* \"#utility.yul\":1498:1507   */\n      dup7\n        /* \"#utility.yul\":1494:1516   */\n      add\n        /* \"#utility.yul\":1473:1526   */\n      tag_92\n      jump\t// in\n    tag_169:\n        /* \"#utility.yul\":1463:1526   */\n      swap3\n      pop\n        /* \"#utility.yul\":1419:1536   */\n      pop\n        /* \"#utility.yul\":1575:1577   */\n      0x20\n        /* \"#utility.yul\":1601:1654   */\n      tag_170\n        /* \"#utility.yul\":1646:1653   */\n      dup6\n        /* \"#utility.yul\":1637:1643   */\n      dup3\n        /* \"#utility.yul\":1626:1635   */\n      dup7\n        /* \"#utility.yul\":1622:1644   */\n      add\n        /* \"#utility.yul\":1601:1654   */\n      tag_95\n      jump\t// in\n    tag_170:\n        /* \"#utility.yul\":1591:1654   */\n      swap2\n      pop\n        /* \"#utility.yul\":1546:1664   */\n      pop\n        /* \"#utility.yul\":1197:1671   */\n      swap3\n      pop\n      swap3\n      swap1\n      pop\n      jump\t// out\n        /* \"#utility.yul\":1677:1795   */\n    tag_96:\n        /* \"#utility.yul\":1764:1788   */\n      tag_172\n        /* \"#utility.yul\":1782:1787   */\n      dup2\n        /* \"#utility.yul\":1764:1788   */\n      tag_90\n      jump\t// in\n    tag_172:\n        /* \"#utility.yul\":1759:1762   */\n      dup3\n        /* \"#utility.yul\":1752:1789   */\n      mstore\n        /* \"#utility.yul\":1677:1795   */\n      pop\n      pop\n      jump\t// out\n        /* \"#utility.yul\":1801:1900   */\n    tag_97:\n        /* \"#utility.yul\":1853:1859   */\n      0x00\n        /* \"#utility.yul\":1887:1892   */\n      dup2\n        /* \"#utility.yul\":1881:1893   */\n      mload\n        /* \"#utility.yul\":1871:1893   */\n      swap1\n      pop\n        /* \"#utility.yul\":1801:1900   */\n      swap2\n      swap1\n      pop\n      jump\t// out\n        /* \"#utility.yul\":1906:2075   */\n    tag_98:\n        /* \"#utility.yul\":1990:2001   */\n      0x00\n        /* \"#utility.yul\":2024:2030   */\n      dup3\n        /* \"#utility.yul\":2019:2022   */\n      dup3\n        /* \"#utility.yul\":2012:2031   */\n      mstore\n        /* \"#utility.yul\":2064:2068   */\n      0x20\n        /* \"#utility.yul\":2059:2062   */\n      dup3\n        /* \"#utility.yul\":2055:2069   */\n      add\n        /* \"#utility.yul\":2040:2069   */\n      swap1\n      pop\n        /* \"#utility.yul\":1906:2075   */\n      swap3\n      swap2\n      pop\n      pop\n      jump\t// out\n        /* \"#utility.yul\":2081:2220   */\n    tag_99:\n        /* \"#utility.yul\":2170:2176   */\n      dup3\n        /* \"#utility.yul\":2165:2168   */\n      dup2\n        /* \"#utility.yul\":2160:2163   */\n      dup4\n        /* \"#utility.yul\":2154:2177   */\n      mcopy\n        /* \"#utility.yul\":2211:2212   */\n      0x00\n        /* \"#utility.yul\":2202:2208   */\n      dup4\n        /* \"#utility.yul\":2197:2200   */\n      dup4\n        /* \"#utility.yul\":2193:2209   */\n      add\n        /* \"#utility.yul\":2186:2213   */\n      mstore\n        /* \"#utility.yul\":2081:2220   */\n      pop\n      pop\n      pop\n      jump\t// out\n        /* \"#utility.yul\":2226:2328   */\n    tag_100:\n        /* \"#utility.yul\":2267:2273   */\n      0x00\n        /* \"#utility.yul\":2318:2320   */\n      0x1f\n        /* \"#utility.yul\":2314:2321   */\n      not\n        /* \"#utility.yul\":2309:2311   */\n      0x1f\n        /* \"#utility.yul\":2302:2307   */\n      dup4\n        /* \"#utility.yul\":2298:2312   */\n      add\n        /* \"#utility.yul\":2294:2322   */\n      and\n        /* \"#utility.yul\":2284:2322   */\n      swap1\n      pop\n        /* \"#utility.yul\":2226:2328   */\n      swap2\n      swap1\n      pop\n      jump\t// out\n        /* \"#utility.yul\":2334:2711   */\n    tag_101:\n        /* \"#utility.yul\":2422:2425   */\n      0x00\n        /* \"#utility.yul\":2450:2489   */\n      tag_178\n        /* \"#utility.yul\":2483:2488   */\n      dup3\n        /* \"#utility.yul\":2450:2489   */\n      tag_97\n      jump\t// in\n    tag_178:\n        /* \"#utility.yul\":2505:2576   */\n      tag_179\n        /* \"#utility.yul\":2569:2575   */\n      dup2\n        /* \"#utility.yul\":2564:2567   */\n      dup6\n        /* \"#utility.yul\":2505:2576   */\n      tag_98\n      jump\t// in\n    tag_179:\n        /* \"#utility.yul\":2498:2576   */\n      swap4\n      pop\n        /* \"#utility.yul\":2585:2650   */\n      tag_180\n        /* \"#utility.yul\":2643:2649   */\n      dup2\n        /* \"#utility.yul\":2638:2641   */\n      dup6\n        /* \"#utility.yul\":2631:2635   */\n      0x20\n        /* \"#utility.yul\":2624:2629   */\n      dup7\n        /* \"#utility.yul\":2620:2636   */\n      add\n        /* \"#utility.yul\":2585:2650   */\n      tag_99\n      jump\t// in\n    tag_180:\n        /* \"#utility.yul\":2675:2704   */\n      tag_181\n        /* \"#utility.yul\":2697:2703   */\n      dup2\n        /* \"#utility.yul\":2675:2704   */\n      tag_100\n      jump\t// in\n    tag_181:\n        /* \"#utility.yul\":2670:2673   */\n      dup5\n        /* \"#utility.yul\":2666:2705   */\n      add\n        /* \"#utility.yul\":2659:2705   */\n      swap2\n      pop\n        /* \"#utility.yul\":2426:2711   */\n      pop\n        /* \"#utility.yul\":2334:2711   */\n      swap3\n      swap2\n      pop\n      pop\n      jump\t// out\n        /* \"#utility.yul\":2717:2835   */\n    tag_102:\n        /* \"#utility.yul\":2804:2828   */\n      tag_183\n        /* \"#utility.yul\":2822:2827   */\n      dup2\n        /* \"#utility.yul\":2804:2828   */\n      tag_93\n      jump\t// in\n    tag_183:\n        /* \"#utility.yul\":2799:2802   */\n      dup3\n        /* \"#utility.yul\":2792:2829   */\n      mstore\n        /* \"#utility.yul\":2717:2835   */\n      pop\n      pop\n      jump\t// out\n        /* \"#utility.yul\":2841:3485   */\n    tag_16:\n        /* \"#utility.yul\":3038:3042   */\n      0x00\n        /* \"#utility.yul\":3076:3079   */\n      0x80\n        /* \"#utility.yul\":3065:3074   */\n      dup3\n        /* \"#utility.yul\":3061:3080   */\n      add\n        /* \"#utility.yul\":3053:3080   */\n      swap1\n      pop\n        /* \"#utility.yul\":3090:3161   */\n      tag_185\n        /* \"#utility.yul\":3158:3159   */\n      0x00\n        /* \"#utility.yul\":3147:3156   */\n      dup4\n        /* \"#utility.yul\":3143:3160   */\n      add\n        /* \"#utility.yul\":3134:3140   */\n      dup8\n        /* \"#utility.yul\":3090:3161   */\n      tag_96\n      jump\t// in\n    tag_185:\n        /* \"#utility.yul\":3208:3217   */\n      dup2\n        /* \"#utility.yul\":3202:3206   */\n      dup2\n        /* \"#utility.yul\":3198:3218   */\n      sub\n        /* \"#utility.yul\":3193:3195   */\n      0x20\n        /* \"#utility.yul\":3182:3191   */\n      dup4\n        /* \"#utility.yul\":3178:3196   */\n      add\n        /* \"#utility.yul\":3171:3219   */\n      mstore\n        /* \"#utility.yul\":3236:3314   */\n      tag_186\n        /* \"#utility.yul\":3309:3313   */\n      dup2\n        /* \"#utility.yul\":3300:3306   */\n      dup7\n        /* \"#utility.yul\":3236:3314   */\n      tag_101\n      jump\t// in\n    tag_186:\n        /* \"#utility.yul\":3228:3314   */\n      swap1\n      pop\n        /* \"#utility.yul\":3324:3396   */\n      tag_187\n        /* \"#utility.yul\":3392:3394   */\n      0x40\n        /* \"#utility.yul\":3381:3390   */\n      dup4\n        /* \"#utility.yul\":3377:3395   */\n      add\n        /* \"#utility.yul\":3368:3374   */\n      dup6\n        /* \"#utility.yul\":3324:3396   */\n      tag_102\n      jump\t// in\n    tag_187:\n        /* \"#utility.yul\":3406:3478   */\n      tag_188\n        /* \"#utility.yul\":3474:3476   */\n      0x60\n        /* \"#utility.yul\":3463:3472   */\n      dup4\n        /* \"#utility.yul\":3459:3477   */\n      add\n        /* \"#utility.yul\":3450:3456   */\n      dup5\n        /* \"#utility.yul\":3406:3478   */\n      tag_102\n      jump\t// in\n    tag_188:\n        /* \"#utility.yul\":2841:3485   */\n      swap6\n      swap5\n      pop\n      pop\n      pop\n      pop\n      pop\n      jump\t// out\n        /* \"#utility.yul\":3491:3820   */\n    tag_19:\n        /* \"#utility.yul\":3550:3556   */\n      0x00\n        /* \"#utility.yul\":3599:3601   */\n      0x20\n        /* \"#utility.yul\":3587:3596   */\n      dup3\n        /* \"#utility.yul\":3578:3585   */\n      dup5\n        /* \"#utility.yul\":3574:3597   */\n      sub\n        /* \"#utility.yul\":3570:3602   */\n      slt\n        /* \"#utility.yul\":3567:3686   */\n      iszero\n      tag_190\n      jumpi\n        /* \"#utility.yul\":3605:3684   */\n      tag_191\n      tag_87\n      jump\t// in\n    tag_191:\n        /* \"#utility.yul\":3567:3686   */\n    tag_190:\n        /* \"#utility.yul\":3725:3726   */\n      0x00\n        /* \"#utility.yul\":3750:3803   */\n      tag_192\n        /* \"#utility.yul\":3795:3802   */\n      dup5\n        /* \"#utility.yul\":3786:3792   */\n      dup3\n        /* \"#utility.yul\":3775:3784   */\n      dup6\n        /* \"#utility.yul\":3771:3793   */\n      add\n        /* \"#utility.yul\":3750:3803   */\n      tag_92\n      jump\t// in\n    tag_192:\n        /* \"#utility.yul\":3740:3803   */\n      swap2\n      pop\n        /* \"#utility.yul\":3696:3813   */\n      pop\n        /* \"#utility.yul\":3491:3820   */\n      swap3\n      swap2\n      pop\n      pop\n      jump\t// out\n        /* \"#utility.yul\":3826:3961   */\n    tag_103:\n        /* \"#utility.yul\":3914:3920   */\n      0x00\n        /* \"#utility.yul\":3948:3953   */\n      dup2\n        /* \"#utility.yul\":3942:3954   */\n      mload\n        /* \"#utility.yul\":3932:3954   */\n      swap1\n      pop\n        /* \"#utility.yul\":3826:3961   */\n      swap2\n      swap1\n      pop\n      jump\t// out\n        /* \"#utility.yul\":3967:4172   */\n    tag_104:\n        /* \"#utility.yul\":4087:4098   */\n      0x00\n        /* \"#utility.yul\":4121:4127   */\n      dup3\n        /* \"#utility.yul\":4116:4119   */\n      dup3\n        /* \"#utility.yul\":4109:4128   */\n      mstore\n        /* \"#utility.yul\":4161:4165   */\n      0x20\n        /* \"#utility.yul\":4156:4159   */\n      dup3\n        /* \"#utility.yul\":4152:4166   */\n      add\n        /* \"#utility.yul\":4137:4166   */\n      swap1\n      pop\n        /* \"#utility.yul\":3967:4172   */\n      swap3\n      swap2\n      pop\n      pop\n      jump\t// out\n        /* \"#utility.yul\":4178:4331   */\n    tag_105:\n        /* \"#utility.yul\":4266:4270   */\n      0x00\n        /* \"#utility.yul\":4289:4292   */\n      dup2\n        /* \"#utility.yul\":4281:4292   */\n      swap1\n      pop\n        /* \"#utility.yul\":4319:4323   */\n      0x20\n        /* \"#utility.yul\":4314:4317   */\n      dup3\n        /* \"#utility.yul\":4310:4324   */\n      add\n        /* \"#utility.yul\":4302:4324   */\n      swap1\n      pop\n        /* \"#utility.yul\":4178:4331   */\n      swap2\n      swap1\n      pop\n      jump\t// out\n        /* \"#utility.yul\":4337:4445   */\n    tag_106:\n        /* \"#utility.yul\":4414:4438   */\n      tag_197\n        /* \"#utility.yul\":4432:4437   */\n      dup2\n        /* \"#utility.yul\":4414:4438   */\n      tag_90\n      jump\t// in\n    tag_197:\n        /* \"#utility.yul\":4409:4412   */\n      dup3\n        /* \"#utility.yul\":4402:4439   */\n      mstore\n        /* \"#utility.yul\":4337:4445   */\n      pop\n      pop\n      jump\t// out\n        /* \"#utility.yul\":4451:4610   */\n    tag_107:\n        /* \"#utility.yul\":4525:4536   */\n      0x00\n        /* \"#utility.yul\":4559:4565   */\n      dup3\n        /* \"#utility.yul\":4554:4557   */\n      dup3\n        /* \"#utility.yul\":4547:4566   */\n      mstore\n        /* \"#utility.yul\":4599:4603   */\n      0x20\n        /* \"#utility.yul\":4594:4597   */\n      dup3\n        /* \"#utility.yul\":4590:4604   */\n      add\n        /* \"#utility.yul\":4575:4604   */\n      swap1\n      pop\n        /* \"#utility.yul\":4451:4610   */\n      swap3\n      swap2\n      pop\n      pop\n      jump\t// out\n        /* \"#utility.yul\":4616:4973   */\n    tag_108:\n        /* \"#utility.yul\":4694:4697   */\n      0x00\n        /* \"#utility.yul\":4722:4761   */\n      tag_200\n        /* \"#utility.yul\":4755:4760   */\n      dup3\n        /* \"#utility.yul\":4722:4761   */\n      tag_97\n      jump\t// in\n    tag_200:\n        /* \"#utility.yul\":4777:4838   */\n      tag_201\n        /* \"#utility.yul\":4831:4837   */\n      dup2\n        /* \"#utility.yul\":4826:4829   */\n      dup6\n        /* \"#utility.yul\":4777:4838   */\n      tag_107\n      jump\t// in\n    tag_201:\n        /* \"#utility.yul\":4770:4838   */\n      swap4\n      pop\n        /* \"#utility.yul\":4847:4912   */\n      tag_202\n        /* \"#utility.yul\":4905:4911   */\n      dup2\n        /* \"#utility.yul\":4900:4903   */\n      dup6\n        /* \"#utility.yul\":4893:4897   */\n      0x20\n        /* \"#utility.yul\":4886:4891   */\n      dup7\n        /* \"#utility.yul\":4882:4898   */\n      add\n        /* \"#utility.yul\":4847:4912   */\n      tag_99\n      jump\t// in\n    tag_202:\n        /* \"#utility.yul\":4937:4966   */\n      tag_203\n        /* \"#utility.yul\":4959:4965   */\n      dup2\n        /* \"#utility.yul\":4937:4966   */\n      tag_100\n      jump\t// in\n    tag_203:\n        /* \"#utility.yul\":4932:4935   */\n      dup5\n        /* \"#utility.yul\":4928:4967   */\n      add\n        /* \"#utility.yul\":4921:4967   */\n      swap2\n      pop\n        /* \"#utility.yul\":4698:4973   */\n      pop\n        /* \"#utility.yul\":4616:4973   */\n      swap3\n      swap2\n      pop\n      pop\n      jump\t// out\n        /* \"#utility.yul\":4979:5087   */\n    tag_109:\n        /* \"#utility.yul\":5056:5080   */\n      tag_205\n        /* \"#utility.yul\":5074:5079   */\n      dup2\n        /* \"#utility.yul\":5056:5080   */\n      tag_93\n      jump\t// in\n    tag_205:\n        /* \"#utility.yul\":5051:5054   */\n      dup3\n        /* \"#utility.yul\":5044:5081   */\n      mstore\n        /* \"#utility.yul\":4979:5087   */\n      pop\n      pop\n      jump\t// out\n        /* \"#utility.yul\":5145:6092   */\n    tag_110:\n        /* \"#utility.yul\":5246:5249   */\n      0x00\n        /* \"#utility.yul\":5282:5286   */\n      0x80\n        /* \"#utility.yul\":5277:5280   */\n      dup4\n        /* \"#utility.yul\":5273:5287   */\n      add\n        /* \"#utility.yul\":5371:5375   */\n      0x00\n        /* \"#utility.yul\":5364:5369   */\n      dup4\n        /* \"#utility.yul\":5360:5376   */\n      add\n        /* \"#utility.yul\":5354:5377   */\n      mload\n        /* \"#utility.yul\":5390:5453   */\n      tag_207\n        /* \"#utility.yul\":5447:5451   */\n      0x00\n        /* \"#utility.yul\":5442:5445   */\n      dup7\n        /* \"#utility.yul\":5438:5452   */\n      add\n        /* \"#utility.yul\":5424:5436   */\n      dup3\n        /* \"#utility.yul\":5390:5453   */\n      tag_106\n      jump\t// in\n    tag_207:\n        /* \"#utility.yul\":5297:5463   */\n      pop\n        /* \"#utility.yul\":5548:5552   */\n      0x20\n        /* \"#utility.yul\":5541:5546   */\n      dup4\n        /* \"#utility.yul\":5537:5553   */\n      add\n        /* \"#utility.yul\":5531:5554   */\n      mload\n        /* \"#utility.yul\":5601:5604   */\n      dup5\n        /* \"#utility.yul\":5595:5599   */\n      dup3\n        /* \"#utility.yul\":5591:5605   */\n      sub\n        /* \"#utility.yul\":5584:5588   */\n      0x20\n        /* \"#utility.yul\":5579:5582   */\n      dup7\n        /* \"#utility.yul\":5575:5589   */\n      add\n        /* \"#utility.yul\":5568:5606   */\n      mstore\n        /* \"#utility.yul\":5627:5700   */\n      tag_208\n        /* \"#utility.yul\":5695:5699   */\n      dup3\n        /* \"#utility.yul\":5681:5693   */\n      dup3\n        /* \"#utility.yul\":5627:5700   */\n      tag_108\n      jump\t// in\n    tag_208:\n        /* \"#utility.yul\":5619:5700   */\n      swap2\n      pop\n        /* \"#utility.yul\":5473:5711   */\n      pop\n        /* \"#utility.yul\":5798:5802   */\n      0x40\n        /* \"#utility.yul\":5791:5796   */\n      dup4\n        /* \"#utility.yul\":5787:5803   */\n      add\n        /* \"#utility.yul\":5781:5804   */\n      mload\n        /* \"#utility.yul\":5817:5880   */\n      tag_209\n        /* \"#utility.yul\":5874:5878   */\n      0x40\n        /* \"#utility.yul\":5869:5872   */\n      dup7\n        /* \"#utility.yul\":5865:5879   */\n      add\n        /* \"#utility.yul\":5851:5863   */\n      dup3\n        /* \"#utility.yul\":5817:5880   */\n      tag_109\n      jump\t// in\n    tag_209:\n        /* \"#utility.yul\":5721:5890   */\n      pop\n        /* \"#utility.yul\":5973:5977   */\n      0x60\n        /* \"#utility.yul\":5966:5971   */\n      dup4\n        /* \"#utility.yul\":5962:5978   */\n      add\n        /* \"#utility.yul\":5956:5979   */\n      mload\n        /* \"#utility.yul\":5992:6055   */\n      tag_210\n        /* \"#utility.yul\":6049:6053   */\n      0x60\n        /* \"#utility.yul\":6044:6047   */\n      dup7\n        /* \"#utility.yul\":6040:6054   */\n      add\n        /* \"#utility.yul\":6026:6038   */\n      dup3\n        /* \"#utility.yul\":5992:6055   */\n      tag_109\n      jump\t// in\n    tag_210:\n        /* \"#utility.yul\":5900:6065   */\n      pop\n        /* \"#utility.yul\":6082:6086   */\n      dup1\n        /* \"#utility.yul\":6075:6086   */\n      swap2\n      pop\n        /* \"#utility.yul\":5251:6092   */\n      pop\n        /* \"#utility.yul\":5145:6092   */\n      swap3\n      swap2\n      pop\n      pop\n      jump\t// out\n        /* \"#utility.yul\":6098:6338   */\n    tag_111:\n        /* \"#utility.yul\":6209:6219   */\n      0x00\n        /* \"#utility.yul\":6244:6332   */\n      tag_212\n        /* \"#utility.yul\":6328:6331   */\n      dup4\n        /* \"#utility.yul\":6320:6326   */\n      dup4\n        /* \"#utility.yul\":6244:6332   */\n      tag_110\n      jump\t// in\n    tag_212:\n        /* \"#utility.yul\":6230:6332   */\n      swap1\n      pop\n        /* \"#utility.yul\":6098:6338   */\n      swap3\n      swap2\n      pop\n      pop\n      jump\t// out\n        /* \"#utility.yul\":6344:6478   */\n    tag_112:\n        /* \"#utility.yul\":6435:6439   */\n      0x00\n        /* \"#utility.yul\":6467:6471   */\n      0x20\n        /* \"#utility.yul\":6462:6465   */\n      dup3\n        /* \"#utility.yul\":6458:6472   */\n      add\n        /* \"#utility.yul\":6450:6472   */\n      swap1\n      pop\n        /* \"#utility.yul\":6344:6478   */\n      swap2\n      swap1\n      pop\n      jump\t// out\n        /* \"#utility.yul\":6540:7619   */\n    tag_113:\n        /* \"#utility.yul\":6701:6704   */\n      0x00\n        /* \"#utility.yul\":6730:6805   */\n      tag_215\n        /* \"#utility.yul\":6799:6804   */\n      dup3\n        /* \"#utility.yul\":6730:6805   */\n      tag_103\n      jump\t// in\n    tag_215:\n        /* \"#utility.yul\":6821:6928   */\n      tag_216\n        /* \"#utility.yul\":6921:6927   */\n      dup2\n        /* \"#utility.yul\":6916:6919   */\n      dup6\n        /* \"#utility.yul\":6821:6928   */\n      tag_104\n      jump\t// in\n    tag_216:\n        /* \"#utility.yul\":6814:6928   */\n      swap4\n      pop\n        /* \"#utility.yul\":6954:6957   */\n      dup4\n        /* \"#utility.yul\":6999:7003   */\n      0x20\n        /* \"#utility.yul\":6991:6997   */\n      dup3\n        /* \"#utility.yul\":6987:7004   */\n      mul\n        /* \"#utility.yul\":6982:6985   */\n      dup6\n        /* \"#utility.yul\":6978:7005   */\n      add\n        /* \"#utility.yul\":7029:7106   */\n      tag_217\n        /* \"#utility.yul\":7100:7105   */\n      dup6\n        /* \"#utility.yul\":7029:7106   */\n      tag_105\n      jump\t// in\n    tag_217:\n        /* \"#utility.yul\":7129:7136   */\n      dup1\n        /* \"#utility.yul\":7160:7161   */\n      0x00\n        /* \"#utility.yul\":7145:7574   */\n    tag_218:\n        /* \"#utility.yul\":7170:7176   */\n      dup6\n        /* \"#utility.yul\":7167:7168   */\n      dup2\n        /* \"#utility.yul\":7164:7177   */\n      lt\n        /* \"#utility.yul\":7145:7574   */\n      iszero\n      tag_220\n      jumpi\n        /* \"#utility.yul\":7241:7250   */\n      dup5\n        /* \"#utility.yul\":7235:7239   */\n      dup5\n        /* \"#utility.yul\":7231:7251   */\n      sub\n        /* \"#utility.yul\":7226:7229   */\n      dup10\n        /* \"#utility.yul\":7219:7252   */\n      mstore\n        /* \"#utility.yul\":7292:7298   */\n      dup2\n        /* \"#utility.yul\":7286:7299   */\n      mload\n        /* \"#utility.yul\":7320:7426   */\n      tag_221\n        /* \"#utility.yul\":7421:7425   */\n      dup6\n        /* \"#utility.yul\":7406:7419   */\n      dup3\n        /* \"#utility.yul\":7320:7426   */\n      tag_111\n      jump\t// in\n    tag_221:\n        /* \"#utility.yul\":7312:7426   */\n      swap5\n      pop\n        /* \"#utility.yul\":7449:7530   */\n      tag_222\n        /* \"#utility.yul\":7523:7529   */\n      dup4\n        /* \"#utility.yul\":7449:7530   */\n      tag_112\n      jump\t// in\n    tag_222:\n        /* \"#utility.yul\":7439:7530   */\n      swap3\n      pop\n        /* \"#utility.yul\":7559:7563   */\n      0x20\n        /* \"#utility.yul\":7554:7557   */\n      dup11\n        /* \"#utility.yul\":7550:7564   */\n      add\n        /* \"#utility.yul\":7543:7564   */\n      swap10\n      pop\n        /* \"#utility.yul\":7205:7574   */\n      pop\n        /* \"#utility.yul\":7192:7193   */\n      0x01\n        /* \"#utility.yul\":7189:7190   */\n      dup2\n        /* \"#utility.yul\":7185:7194   */\n      add\n        /* \"#utility.yul\":7180:7194   */\n      swap1\n      pop\n        /* \"#utility.yul\":7145:7574   */\n      jump(tag_218)\n    tag_220:\n        /* \"#utility.yul\":7149:7163   */\n      pop\n        /* \"#utility.yul\":7590:7594   */\n      dup3\n        /* \"#utility.yul\":7583:7594   */\n      swap8\n      pop\n        /* \"#utility.yul\":7610:7613   */\n      dup8\n        /* \"#utility.yul\":7603:7613   */\n      swap6\n      pop\n        /* \"#utility.yul\":6706:7619   */\n      pop\n      pop\n      pop\n      pop\n      pop\n        /* \"#utility.yul\":6540:7619   */\n      swap3\n      swap2\n      pop\n      pop\n      jump\t// out\n        /* \"#utility.yul\":7625:8082   */\n    tag_22:\n        /* \"#utility.yul\":7810:7814   */\n      0x00\n        /* \"#utility.yul\":7848:7850   */\n      0x20\n        /* \"#utility.yul\":7837:7846   */\n      dup3\n        /* \"#utility.yul\":7833:7851   */\n      add\n        /* \"#utility.yul\":7825:7851   */\n      swap1\n      pop\n        /* \"#utility.yul\":7897:7906   */\n      dup2\n        /* \"#utility.yul\":7891:7895   */\n      dup2\n        /* \"#utility.yul\":7887:7907   */\n      sub\n        /* \"#utility.yul\":7883:7884   */\n      0x00\n        /* \"#utility.yul\":7872:7881   */\n      dup4\n        /* \"#utility.yul\":7868:7885   */\n      add\n        /* \"#utility.yul\":7861:7908   */\n      mstore\n        /* \"#utility.yul\":7925:8075   */\n      tag_224\n        /* \"#utility.yul\":8070:8074   */\n      dup2\n        /* \"#utility.yul\":8061:8067   */\n      dup5\n        /* \"#utility.yul\":7925:8075   */\n      tag_113\n      jump\t// in\n    tag_224:\n        /* \"#utility.yul\":7917:8075   */\n      swap1\n      pop\n        /* \"#utility.yul\":7625:8082   */\n      swap3\n      swap2\n      pop\n      pop\n      jump\t// out\n        /* \"#utility.yul\":8088:8177   */\n    tag_114:\n        /* \"#utility.yul\":8124:8131   */\n      0x00\n        /* \"#utility.yul\":8164:8170   */\n      0xffff\n        /* \"#utility.yul\":8157:8162   */\n      dup3\n        /* \"#utility.yul\":8153:8171   */\n      and\n        /* \"#utility.yul\":8142:8171   */\n      swap1\n      pop\n        /* \"#utility.yul\":8088:8177   */\n      swap2\n      swap1\n      pop\n      jump\t// out\n        /* \"#utility.yul\":8183:8303   */\n    tag_115:\n        /* \"#utility.yul\":8255:8278   */\n      tag_227\n        /* \"#utility.yul\":8272:8277   */\n      dup2\n        /* \"#utility.yul\":8255:8278   */\n      tag_114\n      jump\t// in\n    tag_227:\n        /* \"#utility.yul\":8248:8253   */\n      dup2\n        /* \"#utility.yul\":8245:8279   */\n      eq\n        /* \"#utility.yul\":8235:8297   */\n      tag_228\n      jumpi\n        /* \"#utility.yul\":8293:8294   */\n      0x00\n        /* \"#utility.yul\":8290:8291   */\n      dup1\n        /* \"#utility.yul\":8283:8295   */\n      revert\n        /* \"#utility.yul\":8235:8297   */\n    tag_228:\n        /* \"#utility.yul\":8183:8303   */\n      pop\n      jump\t// out\n        /* \"#utility.yul\":8309:8446   */\n    tag_116:\n        /* \"#utility.yul\":8354:8359   */\n      0x00\n        /* \"#utility.yul\":8392:8398   */\n      dup2\n        /* \"#utility.yul\":8379:8399   */\n      calldataload\n        /* \"#utility.yul\":8370:8399   */\n      swap1\n      pop\n        /* \"#utility.yul\":8408:8440   */\n      tag_230\n        /* \"#utility.yul\":8434:8439   */\n      dup2\n        /* \"#utility.yul\":8408:8440   */\n      tag_115\n      jump\t// in\n    tag_230:\n        /* \"#utility.yul\":8309:8446   */\n      swap3\n      swap2\n      pop\n      pop\n      jump\t// out\n        /* \"#utility.yul\":8452:8779   */\n    tag_25:\n        /* \"#utility.yul\":8510:8516   */\n      0x00\n        /* \"#utility.yul\":8559:8561   */\n      0x20\n        /* \"#utility.yul\":8547:8556   */\n      dup3\n        /* \"#utility.yul\":8538:8545   */\n      dup5\n        /* \"#utility.yul\":8534:8557   */\n      sub\n        /* \"#utility.yul\":8530:8562   */\n      slt\n        /* \"#utility.yul\":8527:8646   */\n      iszero\n      tag_232\n      jumpi\n        /* \"#utility.yul\":8565:8644   */\n      tag_233\n      tag_87\n      jump\t// in\n    tag_233:\n        /* \"#utility.yul\":8527:8646   */\n    tag_232:\n        /* \"#utility.yul\":8685:8686   */\n      0x00\n        /* \"#utility.yul\":8710:8762   */\n      tag_234\n        /* \"#utility.yul\":8754:8761   */\n      dup5\n        /* \"#utility.yul\":8745:8751   */\n      dup3\n        /* \"#utility.yul\":8734:8743   */\n      dup6\n        /* \"#utility.yul\":8730:8752   */\n      add\n        /* \"#utility.yul\":8710:8762   */\n      tag_116\n      jump\t// in\n    tag_234:\n        /* \"#utility.yul\":8700:8762   */\n      swap2\n      pop\n        /* \"#utility.yul\":8656:8772   */\n      pop\n        /* \"#utility.yul\":8452:8779   */\n      swap3\n      swap2\n      pop\n      pop\n      jump\t// out\n        /* \"#utility.yul\":8785:8900   */\n    tag_117:\n        /* \"#utility.yul\":8870:8893   */\n      tag_236\n        /* \"#utility.yul\":8887:8892   */\n      dup2\n        /* \"#utility.yul\":8870:8893   */\n      tag_114\n      jump\t// in\n    tag_236:\n        /* \"#utility.yul\":8865:8868   */\n      dup3\n        /* \"#utility.yul\":8858:8894   */\n      mstore\n        /* \"#utility.yul\":8785:8900   */\n      pop\n      pop\n      jump\t// out\n        /* \"#utility.yul\":8906:9124   */\n    tag_30:\n        /* \"#utility.yul\":8997:9001   */\n      0x00\n        /* \"#utility.yul\":9035:9037   */\n      0x20\n        /* \"#utility.yul\":9024:9033   */\n      dup3\n        /* \"#utility.yul\":9020:9038   */\n      add\n        /* \"#utility.yul\":9012:9038   */\n      swap1\n      pop\n        /* \"#utility.yul\":9048:9117   */\n      tag_238\n        /* \"#utility.yul\":9114:9115   */\n      0x00\n        /* \"#utility.yul\":9103:9112   */\n      dup4\n        /* \"#utility.yul\":9099:9116   */\n      add\n        /* \"#utility.yul\":9090:9096   */\n      dup5\n        /* \"#utility.yul\":9048:9117   */\n      tag_117\n      jump\t// in\n    tag_238:\n        /* \"#utility.yul\":8906:9124   */\n      swap3\n      swap2\n      pop\n      pop\n      jump\t// out\n        /* \"#utility.yul\":9130:9352   */\n    tag_34:\n        /* \"#utility.yul\":9223:9227   */\n      0x00\n        /* \"#utility.yul\":9261:9263   */\n      0x20\n        /* \"#utility.yul\":9250:9259   */\n      dup3\n        /* \"#utility.yul\":9246:9264   */\n      add\n        /* \"#utility.yul\":9238:9264   */\n      swap1\n      pop\n        /* \"#utility.yul\":9274:9345   */\n      tag_240\n        /* \"#utility.yul\":9342:9343   */\n      0x00\n        /* \"#utility.yul\":9331:9340   */\n      dup4\n        /* \"#utility.yul\":9327:9344   */\n      add\n        /* \"#utility.yul\":9318:9324   */\n      dup5\n        /* \"#utility.yul\":9274:9345   */\n      tag_96\n      jump\t// in\n    tag_240:\n        /* \"#utility.yul\":9130:9352   */\n      swap3\n      swap2\n      pop\n      pop\n      jump\t// out\n        /* \"#utility.yul\":9358:9475   */\n    tag_118:\n        /* \"#utility.yul\":9467:9468   */\n      0x00\n        /* \"#utility.yul\":9464:9465   */\n      dup1\n        /* \"#utility.yul\":9457:9469   */\n      revert\n        /* \"#utility.yul\":9481:9598   */\n    tag_119:\n        /* \"#utility.yul\":9590:9591   */\n      0x00\n        /* \"#utility.yul\":9587:9588   */\n      dup1\n        /* \"#utility.yul\":9580:9592   */\n      revert\n        /* \"#utility.yul\":9604:9784   */\n    tag_120:\n        /* \"#utility.yul\":9652:9729   */\n      0x4e487b7100000000000000000000000000000000000000000000000000000000\n        /* \"#utility.yul\":9649:9650   */\n      0x00\n        /* \"#utility.yul\":9642:9730   */\n      mstore\n        /* \"#utility.yul\":9749:9753   */\n      0x41\n        /* \"#utility.yul\":9746:9747   */\n      0x04\n        /* \"#utility.yul\":9739:9754   */\n      mstore\n        /* \"#utility.yul\":9773:9777   */\n      0x24\n        /* \"#utility.yul\":9770:9771   */\n      0x00\n        /* \"#utility.yul\":9763:9778   */\n      revert\n        /* \"#utility.yul\":9790:10071   */\n    tag_121:\n        /* \"#utility.yul\":9873:9900   */\n      tag_245\n        /* \"#utility.yul\":9895:9899   */\n      dup3\n        /* \"#utility.yul\":9873:9900   */\n      tag_100\n      jump\t// in\n    tag_245:\n        /* \"#utility.yul\":9865:9871   */\n      dup2\n        /* \"#utility.yul\":9861:9901   */\n      add\n        /* \"#utility.yul\":10003:10009   */\n      dup2\n        /* \"#utility.yul\":9991:10001   */\n      dup2\n        /* \"#utility.yul\":9988:10010   */\n      lt\n        /* \"#utility.yul\":9967:9985   */\n      0xffffffffffffffff\n        /* \"#utility.yul\":9955:9965   */\n      dup3\n        /* \"#utility.yul\":9952:9986   */\n      gt\n        /* \"#utility.yul\":9949:10011   */\n      or\n        /* \"#utility.yul\":9946:10034   */\n      iszero\n      tag_246\n      jumpi\n        /* \"#utility.yul\":10014:10032   */\n      tag_247\n      tag_120\n      jump\t// in\n    tag_247:\n        /* \"#utility.yul\":9946:10034   */\n    tag_246:\n        /* \"#utility.yul\":10054:10064   */\n      dup1\n        /* \"#utility.yul\":10050:10052   */\n      0x40\n        /* \"#utility.yul\":10043:10065   */\n      mstore\n        /* \"#utility.yul\":9833:10071   */\n      pop\n        /* \"#utility.yul\":9790:10071   */\n      pop\n      pop\n      jump\t// out\n        /* \"#utility.yul\":10077:10206   */\n    tag_122:\n        /* \"#utility.yul\":10111:10117   */\n      0x00\n        /* \"#utility.yul\":10138:10158   */\n      tag_249\n      tag_86\n      jump\t// in\n    tag_249:\n        /* \"#utility.yul\":10128:10158   */\n      swap1\n      pop\n        /* \"#utility.yul\":10167:10200   */\n      tag_250\n        /* \"#utility.yul\":10195:10199   */\n      dup3\n        /* \"#utility.yul\":10187:10193   */\n      dup3\n        /* \"#utility.yul\":10167:10200   */\n      tag_121\n      jump\t// in\n    tag_250:\n        /* \"#utility.yul\":10077:10206   */\n      swap2\n      swap1\n      pop\n      jump\t// out\n        /* \"#utility.yul\":10212:10520   */\n    tag_123:\n        /* \"#utility.yul\":10274:10278   */\n      0x00\n        /* \"#utility.yul\":10364:10382   */\n      0xffffffffffffffff\n        /* \"#utility.yul\":10356:10362   */\n      dup3\n        /* \"#utility.yul\":10353:10383   */\n      gt\n        /* \"#utility.yul\":10350:10406   */\n      iszero\n      tag_252\n      jumpi\n        /* \"#utility.yul\":10386:10404   */\n      tag_253\n      tag_120\n      jump\t// in\n    tag_253:\n        /* \"#utility.yul\":10350:10406   */\n    tag_252:\n        /* \"#utility.yul\":10424:10453   */\n      tag_254\n        /* \"#utility.yul\":10446:10452   */\n      dup3\n        /* \"#utility.yul\":10424:10453   */\n      tag_100\n      jump\t// in\n    tag_254:\n        /* \"#utility.yul\":10416:10453   */\n      swap1\n      pop\n        /* \"#utility.yul\":10508:10512   */\n      0x20\n        /* \"#utility.yul\":10502:10506   */\n      dup2\n        /* \"#utility.yul\":10498:10513   */\n      add\n        /* \"#utility.yul\":10490:10513   */\n      swap1\n      pop\n        /* \"#utility.yul\":10212:10520   */\n      swap2\n      swap1\n      pop\n      jump\t// out\n        /* \"#utility.yul\":10526:10674   */\n    tag_124:\n        /* \"#utility.yul\":10624:10630   */\n      dup3\n        /* \"#utility.yul\":10619:10622   */\n      dup2\n        /* \"#utility.yul\":10614:10617   */\n      dup4\n        /* \"#utility.yul\":10601:10631   */\n      calldatacopy\n        /* \"#utility.yul\":10665:10666   */\n      0x00\n        /* \"#utility.yul\":10656:10662   */\n      dup4\n        /* \"#utility.yul\":10651:10654   */\n      dup4\n        /* \"#utility.yul\":10647:10663   */\n      add\n        /* \"#utility.yul\":10640:10667   */\n      mstore\n        /* \"#utility.yul\":10526:10674   */\n      pop\n      pop\n      pop\n      jump\t// out\n        /* \"#utility.yul\":10680:11105   */\n    tag_125:\n        /* \"#utility.yul\":10758:10763   */\n      0x00\n        /* \"#utility.yul\":10783:10849   */\n      tag_257\n        /* \"#utility.yul\":10799:10848   */\n      tag_258\n        /* \"#utility.yul\":10841:10847   */\n      dup5\n        /* \"#utility.yul\":10799:10848   */\n      tag_123\n      jump\t// in\n    tag_258:\n        /* \"#utility.yul\":10783:10849   */\n      tag_122\n      jump\t// in\n    tag_257:\n        /* \"#utility.yul\":10774:10849   */\n      swap1\n      pop\n        /* \"#utility.yul\":10872:10878   */\n      dup3\n        /* \"#utility.yul\":10865:10870   */\n      dup2\n        /* \"#utility.yul\":10858:10879   */\n      mstore\n        /* \"#utility.yul\":10910:10914   */\n      0x20\n        /* \"#utility.yul\":10903:10908   */\n      dup2\n        /* \"#utility.yul\":10899:10915   */\n      add\n        /* \"#utility.yul\":10948:10951   */\n      dup5\n        /* \"#utility.yul\":10939:10945   */\n      dup5\n        /* \"#utility.yul\":10934:10937   */\n      dup5\n        /* \"#utility.yul\":10930:10946   */\n      add\n        /* \"#utility.yul\":10927:10952   */\n      gt\n        /* \"#utility.yul\":10924:11036   */\n      iszero\n      tag_259\n      jumpi\n        /* \"#utility.yul\":10955:11034   */\n      tag_260\n      tag_119\n      jump\t// in\n    tag_260:\n        /* \"#utility.yul\":10924:11036   */\n    tag_259:\n        /* \"#utility.yul\":11045:11099   */\n      tag_261\n        /* \"#utility.yul\":11092:11098   */\n      dup5\n        /* \"#utility.yul\":11087:11090   */\n      dup3\n        /* \"#utility.yul\":11082:11085   */\n      dup6\n        /* \"#utility.yul\":11045:11099   */\n      tag_124\n      jump\t// in\n    tag_261:\n        /* \"#utility.yul\":10764:11105   */\n      pop\n        /* \"#utility.yul\":10680:11105   */\n      swap4\n      swap3\n      pop\n      pop\n      pop\n      jump\t// out\n        /* \"#utility.yul\":11125:11465   */\n    tag_126:\n        /* \"#utility.yul\":11181:11186   */\n      0x00\n        /* \"#utility.yul\":11230:11233   */\n      dup3\n        /* \"#utility.yul\":11223:11227   */\n      0x1f\n        /* \"#utility.yul\":11215:11221   */\n      dup4\n        /* \"#utility.yul\":11211:11228   */\n      add\n        /* \"#utility.yul\":11207:11234   */\n      slt\n        /* \"#utility.yul\":11197:11319   */\n      tag_263\n      jumpi\n        /* \"#utility.yul\":11238:11317   */\n      tag_264\n      tag_118\n      jump\t// in\n    tag_264:\n        /* \"#utility.yul\":11197:11319   */\n    tag_263:\n        /* \"#utility.yul\":11355:11361   */\n      dup2\n        /* \"#utility.yul\":11342:11362   */\n      calldataload\n        /* \"#utility.yul\":11380:11459   */\n      tag_265\n        /* \"#utility.yul\":11455:11458   */\n      dup5\n        /* \"#utility.yul\":11447:11453   */\n      dup3\n        /* \"#utility.yul\":11440:11444   */\n      0x20\n        /* \"#utility.yul\":11432:11438   */\n      dup7\n        /* \"#utility.yul\":11428:11445   */\n      add\n        /* \"#utility.yul\":11380:11459   */\n      tag_125\n      jump\t// in\n    tag_265:\n        /* \"#utility.yul\":11371:11459   */\n      swap2\n      pop\n        /* \"#utility.yul\":11187:11465   */\n      pop\n        /* \"#utility.yul\":11125:11465   */\n      swap3\n      swap2\n      pop\n      pop\n      jump\t// out\n        /* \"#utility.yul\":11471:11980   */\n    tag_37:\n        /* \"#utility.yul\":11540:11546   */\n      0x00\n        /* \"#utility.yul\":11589:11591   */\n      0x20\n        /* \"#utility.yul\":11577:11586   */\n      dup3\n        /* \"#utility.yul\":11568:11575   */\n      dup5\n        /* \"#utility.yul\":11564:11587   */\n      sub\n        /* \"#utility.yul\":11560:11592   */\n      slt\n        /* \"#utility.yul\":11557:11676   */\n      iszero\n      tag_267\n      jumpi\n        /* \"#utility.yul\":11595:11674   */\n      tag_268\n      tag_87\n      jump\t// in\n    tag_268:\n        /* \"#utility.yul\":11557:11676   */\n    tag_267:\n        /* \"#utility.yul\":11743:11744   */\n      0x00\n        /* \"#utility.yul\":11732:11741   */\n      dup3\n        /* \"#utility.yul\":11728:11745   */\n      add\n        /* \"#utility.yul\":11715:11746   */\n      calldataload\n        /* \"#utility.yul\":11773:11791   */\n      0xffffffffffffffff\n        /* \"#utility.yul\":11765:11771   */\n      dup2\n        /* \"#utility.yul\":11762:11792   */\n      gt\n        /* \"#utility.yul\":11759:11876   */\n      iszero\n      tag_269\n      jumpi\n        /* \"#utility.yul\":11795:11874   */\n      tag_270\n      tag_88\n      jump\t// in\n    tag_270:\n        /* \"#utility.yul\":11759:11876   */\n    tag_269:\n        /* \"#utility.yul\":11900:11963   */\n      tag_271\n        /* \"#utility.yul\":11955:11962   */\n      dup5\n        /* \"#utility.yul\":11946:11952   */\n      dup3\n        /* \"#utility.yul\":11935:11944   */\n      dup6\n        /* \"#utility.yul\":11931:11953   */\n      add\n        /* \"#utility.yul\":11900:11963   */\n      tag_126\n      jump\t// in\n    tag_271:\n        /* \"#utility.yul\":11890:11963   */\n      swap2\n      pop\n        /* \"#utility.yul\":11686:11973   */\n      pop\n        /* \"#utility.yul\":11471:11980   */\n      swap3\n      swap2\n      pop\n      pop\n      jump\t// out\n        /* \"#utility.yul\":11986:12315   */\n    tag_41:\n        /* \"#utility.yul\":12045:12051   */\n      0x00\n        /* \"#utility.yul\":12094:12096   */\n      0x20\n        /* \"#utility.yul\":12082:12091   */\n      dup3\n        /* \"#utility.yul\":12073:12080   */\n      dup5\n        /* \"#utility.yul\":12069:12092   */\n      sub\n        /* \"#utility.yul\":12065:12097   */\n      slt\n        /* \"#utility.yul\":12062:12181   */\n      iszero\n      tag_273\n      jumpi\n        /* \"#utility.yul\":12100:12179   */\n      tag_274\n      tag_87\n      jump\t// in\n    tag_274:\n        /* \"#utility.yul\":12062:12181   */\n    tag_273:\n        /* \"#utility.yul\":12220:12221   */\n      0x00\n        /* \"#utility.yul\":12245:12298   */\n      tag_275\n        /* \"#utility.yul\":12290:12297   */\n      dup5\n        /* \"#utility.yul\":12281:12287   */\n      dup3\n        /* \"#utility.yul\":12270:12279   */\n      dup6\n        /* \"#utility.yul\":12266:12288   */\n      add\n        /* \"#utility.yul\":12245:12298   */\n      tag_95\n      jump\t// in\n    tag_275:\n        /* \"#utility.yul\":12235:12298   */\n      swap2\n      pop\n        /* \"#utility.yul\":12191:12308   */\n      pop\n        /* \"#utility.yul\":11986:12315   */\n      swap3\n      swap2\n      pop\n      pop\n      jump\t// out\n        /* \"#utility.yul\":12373:13330   */\n    tag_127:\n        /* \"#utility.yul\":12484:12487   */\n      0x00\n        /* \"#utility.yul\":12520:12524   */\n      0x80\n        /* \"#utility.yul\":12515:12518   */\n      dup4\n        /* \"#utility.yul\":12511:12525   */\n      add\n        /* \"#utility.yul\":12609:12613   */\n      0x00\n        /* \"#utility.yul\":12602:12607   */\n      dup4\n        /* \"#utility.yul\":12598:12614   */\n      add\n        /* \"#utility.yul\":12592:12615   */\n      mload\n        /* \"#utility.yul\":12628:12691   */\n      tag_277\n        /* \"#utility.yul\":12685:12689   */\n      0x00\n        /* \"#utility.yul\":12680:12683   */\n      dup7\n        /* \"#utility.yul\":12676:12690   */\n      add\n        /* \"#utility.yul\":12662:12674   */\n      dup3\n        /* \"#utility.yul\":12628:12691   */\n      tag_106\n      jump\t// in\n    tag_277:\n        /* \"#utility.yul\":12535:12701   */\n      pop\n        /* \"#utility.yul\":12786:12790   */\n      0x20\n        /* \"#utility.yul\":12779:12784   */\n      dup4\n        /* \"#utility.yul\":12775:12791   */\n      add\n        /* \"#utility.yul\":12769:12792   */\n      mload\n        /* \"#utility.yul\":12839:12842   */\n      dup5\n        /* \"#utility.yul\":12833:12837   */\n      dup3\n        /* \"#utility.yul\":12829:12843   */\n      sub\n        /* \"#utility.yul\":12822:12826   */\n      0x20\n        /* \"#utility.yul\":12817:12820   */\n      dup7\n        /* \"#utility.yul\":12813:12827   */\n      add\n        /* \"#utility.yul\":12806:12844   */\n      mstore\n        /* \"#utility.yul\":12865:12938   */\n      tag_278\n        /* \"#utility.yul\":12933:12937   */\n      dup3\n        /* \"#utility.yul\":12919:12931   */\n      dup3\n        /* \"#utility.yul\":12865:12938   */\n      tag_108\n      jump\t// in\n    tag_278:\n        /* \"#utility.yul\":12857:12938   */\n      swap2\n      pop\n        /* \"#utility.yul\":12711:12949   */\n      pop\n        /* \"#utility.yul\":13036:13040   */\n      0x40\n        /* \"#utility.yul\":13029:13034   */\n      dup4\n        /* \"#utility.yul\":13025:13041   */\n      add\n        /* \"#utility.yul\":13019:13042   */\n      mload\n        /* \"#utility.yul\":13055:13118   */\n      tag_279\n        /* \"#utility.yul\":13112:13116   */\n      0x40\n        /* \"#utility.yul\":13107:13110   */\n      dup7\n        /* \"#utility.yul\":13103:13117   */\n      add\n        /* \"#utility.yul\":13089:13101   */\n      dup3\n        /* \"#utility.yul\":13055:13118   */\n      tag_109\n      jump\t// in\n    tag_279:\n        /* \"#utility.yul\":12959:13128   */\n      pop\n        /* \"#utility.yul\":13211:13215   */\n      0x60\n        /* \"#utility.yul\":13204:13209   */\n      dup4\n        /* \"#utility.yul\":13200:13216   */\n      add\n        /* \"#utility.yul\":13194:13217   */\n      mload\n        /* \"#utility.yul\":13230:13293   */\n      tag_280\n        /* \"#utility.yul\":13287:13291   */\n      0x60\n        /* \"#utility.yul\":13282:13285   */\n      dup7\n        /* \"#utility.yul\":13278:13292   */\n      add\n        /* \"#utility.yul\":13264:13276   */\n      dup3\n        /* \"#utility.yul\":13230:13293   */\n      tag_109\n      jump\t// in\n    tag_280:\n        /* \"#utility.yul\":13138:13303   */\n      pop\n        /* \"#utility.yul\":13320:13324   */\n      dup1\n        /* \"#utility.yul\":13313:13324   */\n      swap2\n      pop\n        /* \"#utility.yul\":12489:13330   */\n      pop\n        /* \"#utility.yul\":12373:13330   */\n      swap3\n      swap2\n      pop\n      pop\n      jump\t// out\n        /* \"#utility.yul\":13336:13693   */\n    tag_44:\n        /* \"#utility.yul\":13471:13475   */\n      0x00\n        /* \"#utility.yul\":13509:13511   */\n      0x20\n        /* \"#utility.yul\":13498:13507   */\n      dup3\n        /* \"#utility.yul\":13494:13512   */\n      add\n        /* \"#utility.yul\":13486:13512   */\n      swap1\n      pop\n        /* \"#utility.yul\":13558:13567   */\n      dup2\n        /* \"#utility.yul\":13552:13556   */\n      dup2\n        /* \"#utility.yul\":13548:13568   */\n      sub\n        /* \"#utility.yul\":13544:13545   */\n      0x00\n        /* \"#utility.yul\":13533:13542   */\n      dup4\n        /* \"#utility.yul\":13529:13546   */\n      add\n        /* \"#utility.yul\":13522:13569   */\n      mstore\n        /* \"#utility.yul\":13586:13686   */\n      tag_282\n        /* \"#utility.yul\":13681:13685   */\n      dup2\n        /* \"#utility.yul\":13672:13678   */\n      dup5\n        /* \"#utility.yul\":13586:13686   */\n      tag_127\n      jump\t// in\n    tag_282:\n        /* \"#utility.yul\":13578:13686   */\n      swap1\n      pop\n        /* \"#utility.yul\":13336:13693   */\n      swap3\n      swap2\n      pop\n      pop\n      jump\t// out\n        /* \"#utility.yul\":13699:13879   */\n    tag_128:\n        /* \"#utility.yul\":13747:13824   */\n      0x4e487b7100000000000000000000000000000000000000000000000000000000\n        /* \"#utility.yul\":13744:13745   */\n      0x00\n        /* \"#utility.yul\":13737:13825   */\n      mstore\n        /* \"#utility.yul\":13844:13848   */\n      0x22\n        /* \"#utility.yul\":13841:13842   */\n      0x04\n        /* \"#utility.yul\":13834:13849   */\n      mstore\n        /* \"#utility.yul\":13868:13872   */\n      0x24\n        /* \"#utility.yul\":13865:13866   */\n      0x00\n        /* \"#utility.yul\":13858:13873   */\n      revert\n        /* \"#utility.yul\":13885:14205   */\n    tag_48:\n        /* \"#utility.yul\":13929:13935   */\n      0x00\n        /* \"#utility.yul\":13966:13967   */\n      0x02\n        /* \"#utility.yul\":13960:13964   */\n      dup3\n        /* \"#utility.yul\":13956:13968   */\n      div\n        /* \"#utility.yul\":13946:13968   */\n      swap1\n      pop\n        /* \"#utility.yul\":14013:14014   */\n      0x01\n        /* \"#utility.yul\":14007:14011   */\n      dup3\n        /* \"#utility.yul\":14003:14015   */\n      and\n        /* \"#utility.yul\":14034:14052   */\n      dup1\n        /* \"#utility.yul\":14024:14105   */\n      tag_285\n      jumpi\n        /* \"#utility.yul\":14090:14094   */\n      0x7f\n        /* \"#utility.yul\":14082:14088   */\n      dup3\n        /* \"#utility.yul\":14078:14095   */\n      and\n        /* \"#utility.yul\":14068:14095   */\n      swap2\n      pop\n        /* \"#utility.yul\":14024:14105   */\n    tag_285:\n        /* \"#utility.yul\":14152:14154   */\n      0x20\n        /* \"#utility.yul\":14144:14150   */\n      dup3\n        /* \"#utility.yul\":14141:14155   */\n      lt\n        /* \"#utility.yul\":14121:14139   */\n      dup2\n        /* \"#utility.yul\":14118:14156   */\n      sub\n        /* \"#utility.yul\":14115:14199   */\n      tag_286\n      jumpi\n        /* \"#utility.yul\":14171:14189   */\n      tag_287\n      tag_128\n      jump\t// in\n    tag_287:\n        /* \"#utility.yul\":14115:14199   */\n    tag_286:\n        /* \"#utility.yul\":13936:14205   */\n      pop\n        /* \"#utility.yul\":13885:14205   */\n      swap2\n      swap1\n      pop\n      jump\t// out\n        /* \"#utility.yul\":14211:14383   */\n    tag_129:\n        /* \"#utility.yul\":14351:14375   */\n      0x594f5520415245204e4f5420544845204f574e45522100000000000000000000\n        /* \"#utility.yul\":14347:14348   */\n      0x00\n        /* \"#utility.yul\":14339:14345   */\n      dup3\n        /* \"#utility.yul\":14335:14349   */\n      add\n        /* \"#utility.yul\":14328:14376   */\n      mstore\n        /* \"#utility.yul\":14211:14383   */\n      pop\n      jump\t// out\n        /* \"#utility.yul\":14389:14755   */\n    tag_130:\n        /* \"#utility.yul\":14531:14534   */\n      0x00\n        /* \"#utility.yul\":14552:14619   */\n      tag_290\n        /* \"#utility.yul\":14616:14618   */\n      0x16\n        /* \"#utility.yul\":14611:14614   */\n      dup4\n        /* \"#utility.yul\":14552:14619   */\n      tag_98\n      jump\t// in\n    tag_290:\n        /* \"#utility.yul\":14545:14619   */\n      swap2\n      pop\n        /* \"#utility.yul\":14628:14721   */\n      tag_291\n        /* \"#utility.yul\":14717:14720   */\n      dup3\n        /* \"#utility.yul\":14628:14721   */\n      tag_129\n      jump\t// in\n    tag_291:\n        /* \"#utility.yul\":14746:14748   */\n      0x20\n        /* \"#utility.yul\":14741:14744   */\n      dup3\n        /* \"#utility.yul\":14737:14749   */\n      add\n        /* \"#utility.yul\":14730:14749   */\n      swap1\n      pop\n        /* \"#utility.yul\":14389:14755   */\n      swap2\n      swap1\n      pop\n      jump\t// out\n        /* \"#utility.yul\":14761:15180   */\n    tag_65:\n        /* \"#utility.yul\":14927:14931   */\n      0x00\n        /* \"#utility.yul\":14965:14967   */\n      0x20\n        /* \"#utility.yul\":14954:14963   */\n      dup3\n        /* \"#utility.yul\":14950:14968   */\n      add\n        /* \"#utility.yul\":14942:14968   */\n      swap1\n      pop\n        /* \"#utility.yul\":15014:15023   */\n      dup2\n        /* \"#utility.yul\":15008:15012   */\n      dup2\n        /* \"#utility.yul\":15004:15024   */\n      sub\n        /* \"#utility.yul\":15000:15001   */\n      0x00\n        /* \"#utility.yul\":14989:14998   */\n      dup4\n        /* \"#utility.yul\":14985:15002   */\n      add\n        /* \"#utility.yul\":14978:15025   */\n      mstore\n        /* \"#utility.yul\":15042:15173   */\n      tag_293\n        /* \"#utility.yul\":15168:15172   */\n      dup2\n        /* \"#utility.yul\":15042:15173   */\n      tag_130\n      jump\t// in\n    tag_293:\n        /* \"#utility.yul\":15034:15173   */\n      swap1\n      pop\n        /* \"#utility.yul\":14761:15180   */\n      swap2\n      swap1\n      pop\n      jump\t// out\n        /* \"#utility.yul\":15186:15355   */\n    tag_131:\n        /* \"#utility.yul\":15326:15347   */\n      0x596f75207368616c6c206e6f7420706173732100000000000000000000000000\n        /* \"#utility.yul\":15322:15323   */\n      0x00\n        /* \"#utility.yul\":15314:15320   */\n      dup3\n        /* \"#utility.yul\":15310:15324   */\n      add\n        /* \"#utility.yul\":15303:15348   */\n      mstore\n        /* \"#utility.yul\":15186:15355   */\n      pop\n      jump\t// out\n        /* \"#utility.yul\":15361:15727   */\n    tag_132:\n        /* \"#utility.yul\":15503:15506   */\n      0x00\n        /* \"#utility.yul\":15524:15591   */\n      tag_296\n        /* \"#utility.yul\":15588:15590   */\n      0x13\n        /* \"#utility.yul\":15583:15586   */\n      dup4\n        /* \"#utility.yul\":15524:15591   */\n      tag_98\n      jump\t// in\n    tag_296:\n        /* \"#utility.yul\":15517:15591   */\n      swap2\n      pop\n        /* \"#utility.yul\":15600:15693   */\n      tag_297\n        /* \"#utility.yul\":15689:15692   */\n      dup3\n        /* \"#utility.yul\":15600:15693   */\n      tag_131\n      jump\t// in\n    tag_297:\n        /* \"#utility.yul\":15718:15720   */\n      0x20\n        /* \"#utility.yul\":15713:15716   */\n      dup3\n        /* \"#utility.yul\":15709:15721   */\n      add\n        /* \"#utility.yul\":15702:15721   */\n      swap1\n      pop\n        /* \"#utility.yul\":15361:15727   */\n      swap2\n      swap1\n      pop\n      jump\t// out\n        /* \"#utility.yul\":15733:16152   */\n    tag_70:\n        /* \"#utility.yul\":15899:15903   */\n      0x00\n        /* \"#utility.yul\":15937:15939   */\n      0x20\n        /* \"#utility.yul\":15926:15935   */\n      dup3\n        /* \"#utility.yul\":15922:15940   */\n      add\n        /* \"#utility.yul\":15914:15940   */\n      swap1\n      pop\n        /* \"#utility.yul\":15986:15995   */\n      dup2\n        /* \"#utility.yul\":15980:15984   */\n      dup2\n        /* \"#utility.yul\":15976:15996   */\n      sub\n        /* \"#utility.yul\":15972:15973   */\n      0x00\n        /* \"#utility.yul\":15961:15970   */\n      dup4\n        /* \"#utility.yul\":15957:15974   */\n      add\n        /* \"#utility.yul\":15950:15997   */\n      mstore\n        /* \"#utility.yul\":16014:16145   */\n      tag_299\n        /* \"#utility.yul\":16140:16144   */\n      dup2\n        /* \"#utility.yul\":16014:16145   */\n      tag_132\n      jump\t// in\n    tag_299:\n        /* \"#utility.yul\":16006:16145   */\n      swap1\n      pop\n        /* \"#utility.yul\":15733:16152   */\n      swap2\n      swap1\n      pop\n      jump\t// out\n        /* \"#utility.yul\":16158:16299   */\n    tag_133:\n        /* \"#utility.yul\":16207:16211   */\n      0x00\n        /* \"#utility.yul\":16230:16233   */\n      dup2\n        /* \"#utility.yul\":16222:16233   */\n      swap1\n      pop\n        /* \"#utility.yul\":16253:16256   */\n      dup2\n        /* \"#utility.yul\":16250:16251   */\n      0x00\n        /* \"#utility.yul\":16243:16257   */\n      mstore\n        /* \"#utility.yul\":16287:16291   */\n      0x20\n        /* \"#utility.yul\":16284:16285   */\n      0x00\n        /* \"#utility.yul\":16274:16292   */\n      keccak256\n        /* \"#utility.yul\":16266:16292   */\n      swap1\n      pop\n        /* \"#utility.yul\":16158:16299   */\n      swap2\n      swap1\n      pop\n      jump\t// out\n        /* \"#utility.yul\":16305:16398   */\n    tag_134:\n        /* \"#utility.yul\":16342:16348   */\n      0x00\n        /* \"#utility.yul\":16389:16391   */\n      0x20\n        /* \"#utility.yul\":16384:16386   */\n      0x1f\n        /* \"#utility.yul\":16377:16382   */\n      dup4\n        /* \"#utility.yul\":16373:16387   */\n      add\n        /* \"#utility.yul\":16369:16392   */\n      div\n        /* \"#utility.yul\":16359:16392   */\n      swap1\n      pop\n        /* \"#utility.yul\":16305:16398   */\n      swap2\n      swap1\n      pop\n      jump\t// out\n        /* \"#utility.yul\":16404:16511   */\n    tag_135:\n        /* \"#utility.yul\":16448:16456   */\n      0x00\n        /* \"#utility.yul\":16498:16503   */\n      dup3\n        /* \"#utility.yul\":16492:16496   */\n      dup3\n        /* \"#utility.yul\":16488:16504   */\n      shl\n        /* \"#utility.yul\":16467:16504   */\n      swap1\n      pop\n        /* \"#utility.yul\":16404:16511   */\n      swap3\n      swap2\n      pop\n      pop\n      jump\t// out\n        /* \"#utility.yul\":16517:16910   */\n    tag_136:\n        /* \"#utility.yul\":16586:16592   */\n      0x00\n        /* \"#utility.yul\":16636:16637   */\n      0x08\n        /* \"#utility.yul\":16624:16634   */\n      dup4\n        /* \"#utility.yul\":16620:16638   */\n      mul\n        /* \"#utility.yul\":16659:16756   */\n      tag_304\n        /* \"#utility.yul\":16689:16755   */\n      0xffffffffffffffffffffffffffffffffffffffffffffffffffffffffffffffff\n        /* \"#utility.yul\":16678:16687   */\n      dup3\n        /* \"#utility.yul\":16659:16756   */\n      tag_135\n      jump\t// in\n    tag_304:\n        /* \"#utility.yul\":16777:16816   */\n      tag_305\n        /* \"#utility.yul\":16807:16815   */\n      dup7\n        /* \"#utility.yul\":16796:16805   */\n      dup4\n        /* \"#utility.yul\":16777:16816   */\n      tag_135\n      jump\t// in\n    tag_305:\n        /* \"#utility.yul\":16765:16816   */\n      swap6\n      pop\n        /* \"#utility.yul\":16849:16853   */\n      dup1\n        /* \"#utility.yul\":16845:16854   */\n      not\n        /* \"#utility.yul\":16838:16843   */\n      dup5\n        /* \"#utility.yul\":16834:16855   */\n      and\n        /* \"#utility.yul\":16825:16855   */\n      swap4\n      pop\n        /* \"#utility.yul\":16898:16902   */\n      dup1\n        /* \"#utility.yul\":16888:16896   */\n      dup7\n        /* \"#utility.yul\":16884:16903   */\n      and\n        /* \"#utility.yul\":16877:16882   */\n      dup5\n        /* \"#utility.yul\":16874:16904   */\n      or\n        /* \"#utility.yul\":16864:16904   */\n      swap3\n      pop\n        /* \"#utility.yul\":16593:16910   */\n      pop\n      pop\n        /* \"#utility.yul\":16517:16910   */\n      swap4\n      swap3\n      pop\n      pop\n      pop\n      jump\t// out\n        /* \"#utility.yul\":16916:16976   */\n    tag_137:\n        /* \"#utility.yul\":16944:16947   */\n      0x00\n        /* \"#utility.yul\":16965:16970   */\n      dup2\n        /* \"#utility.yul\":16958:16970   */\n      swap1\n      pop\n        /* \"#utility.yul\":16916:16976   */\n      swap2\n      swap1\n      pop\n      jump\t// out\n        /* \"#utility.yul\":16982:17124   */\n    tag_138:\n        /* \"#utility.yul\":17032:17041   */\n      0x00\n        /* \"#utility.yul\":17065:17118   */\n      tag_308\n        /* \"#utility.yul\":17083:17117   */\n      tag_309\n        /* \"#utility.yul\":17092:17116   */\n      tag_310\n        /* \"#utility.yul\":17110:17115   */\n      dup5\n        /* \"#utility.yul\":17092:17116   */\n      tag_93\n      jump\t// in\n    tag_310:\n        /* \"#utility.yul\":17083:17117   */\n      tag_137\n      jump\t// in\n    tag_309:\n        /* \"#utility.yul\":17065:17118   */\n      tag_93\n      jump\t// in\n    tag_308:\n        /* \"#utility.yul\":17052:17118   */\n      swap1\n      pop\n        /* \"#utility.yul\":16982:17124   */\n      swap2\n      swap1\n      pop\n      jump\t// out\n        /* \"#utility.yul\":17130:17205   */\n    tag_139:\n        /* \"#utility.yul\":17173:17176   */\n      0x00\n        /* \"#utility.yul\":17194:17199   */\n      dup2\n        /* \"#utility.yul\":17187:17199   */\n      swap1\n      pop\n        /* \"#utility.yul\":17130:17205   */\n      swap2\n      swap1\n      pop\n      jump\t// out\n        /* \"#utility.yul\":17211:17480   */\n    tag_140:\n        /* \"#utility.yul\":17321:17360   */\n      tag_313\n        /* \"#utility.yul\":17352:17359   */\n      dup4\n        /* \"#utility.yul\":17321:17360   */\n      tag_138\n      jump\t// in\n    tag_313:\n        /* \"#utility.yul\":17382:17473   */\n      tag_314\n        /* \"#utility.yul\":17431:17472   */\n      tag_315\n        /* \"#utility.yul\":17455:17471   */\n      dup3\n        /* \"#utility.yul\":17431:17472   */\n      tag_139\n      jump\t// in\n    tag_315:\n        /* \"#utility.yul\":17423:17429   */\n      dup5\n        /* \"#utility.yul\":17416:17420   */\n      dup5\n        /* \"#utility.yul\":17410:17421   */\n      sload\n        /* \"#utility.yul\":17382:17473   */\n      tag_136\n      jump\t// in\n    tag_314:\n        /* \"#utility.yul\":17376:17380   */\n      dup3\n        /* \"#utility.yul\":17369:17474   */\n      sstore\n        /* \"#utility.yul\":17287:17480   */\n      pop\n        /* \"#utility.yul\":17211:17480   */\n      pop\n      pop\n      pop\n      jump\t// out\n        /* \"#utility.yul\":17486:17559   */\n    tag_141:\n        /* \"#utility.yul\":17531:17534   */\n      0x00\n        /* \"#utility.yul\":17486:17559   */\n      swap1\n      jump\t// out\n        /* \"#utility.yul\":17565:17754   */\n    tag_142:\n        /* \"#utility.yul\":17642:17674   */\n      tag_318\n      tag_141\n      jump\t// in\n    tag_318:\n        /* \"#utility.yul\":17683:17748   */\n      tag_319\n        /* \"#utility.yul\":17741:17747   */\n      dup2\n        /* \"#utility.yul\":17733:17739   */\n      dup5\n        /* \"#utility.yul\":17727:17731   */\n      dup5\n        /* \"#utility.yul\":17683:17748   */\n      tag_140\n      jump\t// in\n    tag_319:\n        /* \"#utility.yul\":17618:17754   */\n      pop\n        /* \"#utility.yul\":17565:17754   */\n      pop\n      pop\n      jump\t// out\n        /* \"#utility.yul\":17760:17946   */\n    tag_143:\n        /* \"#utility.yul\":17820:17940   */\n    tag_321:\n        /* \"#utility.yul\":17837:17840   */\n      dup2\n        /* \"#utility.yul\":17830:17835   */\n      dup2\n        /* \"#utility.yul\":17827:17841   */\n      lt\n        /* \"#utility.yul\":17820:17940   */\n      iszero\n      tag_323\n      jumpi\n        /* \"#utility.yul\":17891:17930   */\n      tag_324\n        /* \"#utility.yul\":17928:17929   */\n      0x00\n        /* \"#utility.yul\":17921:17926   */\n      dup3\n        /* \"#utility.yul\":17891:17930   */\n      tag_142\n      jump\t// in\n    tag_324:\n        /* \"#utility.yul\":17864:17865   */\n      0x01\n        /* \"#utility.yul\":17857:17862   */\n      dup2\n        /* \"#utility.yul\":17853:17866   */\n      add\n        /* \"#utility.yul\":17844:17866   */\n      swap1\n      pop\n        /* \"#utility.yul\":17820:17940   */\n      jump(tag_321)\n    tag_323:\n        /* \"#utility.yul\":17760:17946   */\n      pop\n      pop\n      jump\t// out\n        /* \"#utility.yul\":17952:18495   */\n    tag_144:\n        /* \"#utility.yul\":18053:18055   */\n      0x1f\n        /* \"#utility.yul\":18048:18051   */\n      dup3\n        /* \"#utility.yul\":18045:18056   */\n      gt\n        /* \"#utility.yul\":18042:18488   */\n      iszero\n      tag_326\n      jumpi\n        /* \"#utility.yul\":18087:18125   */\n      tag_327\n        /* \"#utility.yul\":18119:18124   */\n      dup2\n        /* \"#utility.yul\":18087:18125   */\n      tag_133\n      jump\t// in\n    tag_327:\n        /* \"#utility.yul\":18171:18200   */\n      tag_328\n        /* \"#utility.yul\":18189:18199   */\n      dup5\n        /* \"#utility.yul\":18171:18200   */\n      tag_134\n      jump\t// in\n    tag_328:\n        /* \"#utility.yul\":18161:18169   */\n      dup2\n        /* \"#utility.yul\":18157:18201   */\n      add\n        /* \"#utility.yul\":18354:18356   */\n      0x20\n        /* \"#utility.yul\":18342:18352   */\n      dup6\n        /* \"#utility.yul\":18339:18357   */\n      lt\n        /* \"#utility.yul\":18336:18385   */\n      iszero\n      tag_329\n      jumpi\n        /* \"#utility.yul\":18375:18383   */\n      dup2\n        /* \"#utility.yul\":18360:18383   */\n      swap1\n      pop\n        /* \"#utility.yul\":18336:18385   */\n    tag_329:\n        /* \"#utility.yul\":18398:18478   */\n      tag_330\n        /* \"#utility.yul\":18454:18476   */\n      tag_331\n        /* \"#utility.yul\":18472:18475   */\n      dup6\n        /* \"#utility.yul\":18454:18476   */\n      tag_134\n      jump\t// in\n    tag_331:\n        /* \"#utility.yul\":18444:18452   */\n      dup4\n        /* \"#utility.yul\":18440:18477   */\n      add\n        /* \"#utility.yul\":18427:18438   */\n      dup3\n        /* \"#utility.yul\":18398:18478   */\n      tag_143\n      jump\t// in\n    tag_330:\n        /* \"#utility.yul\":18057:18488   */\n      pop\n      pop\n        /* \"#utility.yul\":18042:18488   */\n    tag_326:\n        /* \"#utility.yul\":17952:18495   */\n      pop\n      pop\n      pop\n      jump\t// out\n        /* \"#utility.yul\":18501:18618   */\n    tag_145:\n        /* \"#utility.yul\":18555:18563   */\n      0x00\n        /* \"#utility.yul\":18605:18610   */\n      dup3\n        /* \"#utility.yul\":18599:18603   */\n      dup3\n        /* \"#utility.yul\":18595:18611   */\n      shr\n        /* \"#utility.yul\":18574:18611   */\n      swap1\n      pop\n        /* \"#utility.yul\":18501:18618   */\n      swap3\n      swap2\n      pop\n      pop\n      jump\t// out\n        /* \"#utility.yul\":18624:18793   */\n    tag_146:\n        /* \"#utility.yul\":18668:18674   */\n      0x00\n        /* \"#utility.yul\":18701:18752   */\n      tag_334\n        /* \"#utility.yul\":18749:18750   */\n      0x00\n        /* \"#utility.yul\":18745:18751   */\n      not\n        /* \"#utility.yul\":18737:18742   */\n      dup5\n        /* \"#utility.yul\":18734:18735   */\n      0x08\n        /* \"#utility.yul\":18730:18743   */\n      mul\n        /* \"#utility.yul\":18701:18752   */\n      tag_145\n      jump\t// in\n    tag_334:\n        /* \"#utility.yul\":18697:18753   */\n      not\n        /* \"#utility.yul\":18782:18786   */\n      dup1\n        /* \"#utility.yul\":18776:18780   */\n      dup4\n        /* \"#utility.yul\":18772:18787   */\n      and\n        /* \"#utility.yul\":18762:18787   */\n      swap2\n      pop\n        /* \"#utility.yul\":18675:18793   */\n      pop\n        /* \"#utility.yul\":18624:18793   */\n      swap3\n      swap2\n      pop\n      pop\n      jump\t// out\n        /* \"#utility.yul\":18798:19093   */\n    tag_147:\n        /* \"#utility.yul\":18874:18878   */\n      0x00\n        /* \"#utility.yul\":19020:19049   */\n      tag_336\n        /* \"#utility.yul\":19045:19048   */\n      dup4\n        /* \"#utility.yul\":19039:19043   */\n      dup4\n        /* \"#utility.yul\":19020:19049   */\n      tag_146\n      jump\t// in\n    tag_336:\n        /* \"#utility.yul\":19012:19049   */\n      swap2\n      pop\n        /* \"#utility.yul\":19082:19085   */\n      dup3\n        /* \"#utility.yul\":19079:19080   */\n      0x02\n        /* \"#utility.yul\":19075:19086   */\n      mul\n        /* \"#utility.yul\":19069:19073   */\n      dup3\n        /* \"#utility.yul\":19066:19087   */\n      or\n        /* \"#utility.yul\":19058:19087   */\n      swap1\n      pop\n        /* \"#utility.yul\":18798:19093   */\n      swap3\n      swap2\n      pop\n      pop\n      jump\t// out\n        /* \"#utility.yul\":19098:20493   */\n    tag_73:\n        /* \"#utility.yul\":19215:19252   */\n      tag_338\n        /* \"#utility.yul\":19248:19251   */\n      dup3\n        /* \"#utility.yul\":19215:19252   */\n      tag_97\n      jump\t// in\n    tag_338:\n        /* \"#utility.yul\":19317:19335   */\n      0xffffffffffffffff\n        /* \"#utility.yul\":19309:19315   */\n      dup2\n        /* \"#utility.yul\":19306:19336   */\n      gt\n        /* \"#utility.yul\":19303:19359   */\n      iszero\n      tag_339\n      jumpi\n        /* \"#utility.yul\":19339:19357   */\n      tag_340\n      tag_120\n      jump\t// in\n    tag_340:\n        /* \"#utility.yul\":19303:19359   */\n    tag_339:\n        /* \"#utility.yul\":19383:19421   */\n      tag_341\n        /* \"#utility.yul\":19415:19419   */\n      dup3\n        /* \"#utility.yul\":19409:19420   */\n      sload\n        /* \"#utility.yul\":19383:19421   */\n      tag_48\n      jump\t// in\n    tag_341:\n        /* \"#utility.yul\":19468:19535   */\n      tag_342\n        /* \"#utility.yul\":19528:19534   */\n      dup3\n        /* \"#utility.yul\":19520:19526   */\n      dup3\n        /* \"#utility.yul\":19514:19518   */\n      dup6\n        /* \"#utility.yul\":19468:19535   */\n      tag_144\n      jump\t// in\n    tag_342:\n        /* \"#utility.yul\":19562:19563   */\n      0x00\n        /* \"#utility.yul\":19586:19590   */\n      0x20\n        /* \"#utility.yul\":19573:19590   */\n      swap1\n      pop\n        /* \"#utility.yul\":19618:19620   */\n      0x1f\n        /* \"#utility.yul\":19610:19616   */\n      dup4\n        /* \"#utility.yul\":19607:19621   */\n      gt\n        /* \"#utility.yul\":19635:19636   */\n      0x01\n        /* \"#utility.yul\":19630:20248   */\n      dup2\n      eq\n      tag_344\n      jumpi\n        /* \"#utility.yul\":20292:20293   */\n      0x00\n        /* \"#utility.yul\":20309:20315   */\n      dup5\n        /* \"#utility.yul\":20306:20383   */\n      iszero\n      tag_345\n      jumpi\n        /* \"#utility.yul\":20358:20367   */\n      dup3\n        /* \"#utility.yul\":20353:20356   */\n      dup8\n        /* \"#utility.yul\":20349:20368   */\n      add\n        /* \"#utility.yul\":20343:20369   */\n      mload\n        /* \"#utility.yul\":20334:20369   */\n      swap1\n      pop\n        /* \"#utility.yul\":20306:20383   */\n    tag_345:\n        /* \"#utility.yul\":20409:20476   */\n      tag_346\n        /* \"#utility.yul\":20469:20475   */\n      dup6\n        /* \"#utility.yul\":20462:20467   */\n      dup3\n        /* \"#utility.yul\":20409:20476   */\n      tag_147\n      jump\t// in\n    tag_346:\n        /* \"#utility.yul\":20403:20407   */\n      dup7\n        /* \"#utility.yul\":20396:20477   */\n      sstore\n        /* \"#utility.yul\":20265:20487   */\n      pop\n        /* \"#utility.yul\":19600:20487   */\n      jump(tag_343)\n        /* \"#utility.yul\":19630:20248   */\n    tag_344:\n        /* \"#utility.yul\":19682:19686   */\n      0x1f\n        /* \"#utility.yul\":19678:19687   */\n      not\n        /* \"#utility.yul\":19670:19676   */\n      dup5\n        /* \"#utility.yul\":19666:19688   */\n      and\n        /* \"#utility.yul\":19716:19753   */\n      tag_347\n        /* \"#utility.yul\":19748:19752   */\n      dup7\n        /* \"#utility.yul\":19716:19753   */\n      tag_133\n      jump\t// in\n    tag_347:\n        /* \"#utility.yul\":19775:19776   */\n      0x00\n        /* \"#utility.yul\":19789:19997   */\n    tag_348:\n        /* \"#utility.yul\":19803:19810   */\n      dup3\n        /* \"#utility.yul\":19800:19801   */\n      dup2\n        /* \"#utility.yul\":19797:19811   */\n      lt\n        /* \"#utility.yul\":19789:19997   */\n      iszero\n      tag_350\n      jumpi\n        /* \"#utility.yul\":19882:19891   */\n      dup5\n        /* \"#utility.yul\":19877:19880   */\n      dup10\n        /* \"#utility.yul\":19873:19892   */\n      add\n        /* \"#utility.yul\":19867:19893   */\n      mload\n        /* \"#utility.yul\":19859:19865   */\n      dup3\n        /* \"#utility.yul\":19852:19894   */\n      sstore\n        /* \"#utility.yul\":19933:19934   */\n      0x01\n        /* \"#utility.yul\":19925:19931   */\n      dup3\n        /* \"#utility.yul\":19921:19935   */\n      add\n        /* \"#utility.yul\":19911:19935   */\n      swap2\n      pop\n        /* \"#utility.yul\":19980:19982   */\n      0x20\n        /* \"#utility.yul\":19969:19978   */\n      dup6\n        /* \"#utility.yul\":19965:19983   */\n      add\n        /* \"#utility.yul\":19952:19983   */\n      swap5\n      pop\n        /* \"#utility.yul\":19826:19830   */\n      0x20\n        /* \"#utility.yul\":19823:19824   */\n      dup2\n        /* \"#utility.yul\":19819:19831   */\n      add\n        /* \"#utility.yul\":19814:19831   */\n      swap1\n      pop\n        /* \"#utility.yul\":19789:19997   */\n      jump(tag_348)\n    tag_350:\n        /* \"#utility.yul\":20025:20031   */\n      dup7\n        /* \"#utility.yul\":20016:20023   */\n      dup4\n        /* \"#utility.yul\":20013:20032   */\n      lt\n        /* \"#utility.yul\":20010:20189   */\n      iszero\n      tag_351\n      jumpi\n        /* \"#utility.yul\":20083:20092   */\n      dup5\n        /* \"#utility.yul\":20078:20081   */\n      dup10\n        /* \"#utility.yul\":20074:20093   */\n      add\n        /* \"#utility.yul\":20068:20094   */\n      mload\n        /* \"#utility.yul\":20126:20174   */\n      tag_352\n        /* \"#utility.yul\":20168:20172   */\n      0x1f\n        /* \"#utility.yul\":20160:20166   */\n      dup10\n        /* \"#utility.yul\":20156:20173   */\n      and\n        /* \"#utility.yul\":20145:20154   */\n      dup3\n        /* \"#utility.yul\":20126:20174   */\n      tag_146\n      jump\t// in\n    tag_352:\n        /* \"#utility.yul\":20118:20124   */\n      dup4\n        /* \"#utility.yul\":20111:20175   */\n      sstore\n        /* \"#utility.yul\":20033:20189   */\n      pop\n        /* \"#utility.yul\":20010:20189   */\n    tag_351:\n        /* \"#utility.yul\":20235:20236   */\n      0x01\n        /* \"#utility.yul\":20231:20232   */\n      0x02\n        /* \"#utility.yul\":20223:20229   */\n      dup9\n        /* \"#utility.yul\":20219:20233   */\n      mul\n        /* \"#utility.yul\":20215:20237   */\n      add\n        /* \"#utility.yul\":20209:20213   */\n      dup9\n        /* \"#utility.yul\":20202:20238   */\n      sstore\n        /* \"#utility.yul\":19637:20248   */\n      pop\n      pop\n      pop\n        /* \"#utility.yul\":19600:20487   */\n    tag_343:\n      pop\n        /* \"#utility.yul\":19190:20493   */\n      pop\n      pop\n      pop\n        /* \"#utility.yul\":19098:20493   */\n      pop\n      pop\n      jump\t// out\n        /* \"#utility.yul\":20499:20679   */\n    tag_79:\n        /* \"#utility.yul\":20547:20624   */\n      0x4e487b7100000000000000000000000000000000000000000000000000000000\n        /* \"#utility.yul\":20544:20545   */\n      0x00\n        /* \"#utility.yul\":20537:20625   */\n      mstore\n        /* \"#utility.yul\":20644:20648   */\n      0x32\n        /* \"#utility.yul\":20641:20642   */\n      0x04\n        /* \"#utility.yul\":20634:20649   */\n      mstore\n        /* \"#utility.yul\":20668:20672   */\n      0x24\n        /* \"#utility.yul\":20665:20666   */\n      0x00\n        /* \"#utility.yul\":20658:20673   */\n      revert\n\n    auxdata: 0xa264697066735822122026b956a2e28cf5bbd079e4533a80d9088337d302ca9a29a2895e572305213c2964736f6c634300081a0033\n}\n",
				"bytecode": {
					"linkReferences": {},
					"object": "60806040526101185f806101000a81548161ffff021916908361ffff160217905550348015602b575f80fd5b503360025f6101000a81548173ffffffffffffffffffffffffffffffffffffffff021916908373ffffffffffffffffffffffffffffffffffffffff160217905550611231806100795f395ff3fe608060405234801561000f575f80fd5b506004361061007b575f3560e01c80636eb10797116100595780636eb10797146100fe5780638da5cb5b1461011c578063b8e4f1671461013a578063c3ad5ecb146101565761007b565b806305a1b4a91461007f57806312e7ee1c146100b257806358bfa4ab146100e2575b5f80fd5b61009960048036038101906100949190610892565b610186565b6040516100a9949392919061095e565b60405180910390f35b6100cc60048036038101906100c791906109a8565b610271565b6040516100d99190610b54565b60405180910390f35b6100fc60048036038101906100f79190610bab565b610402565b005b6101066104af565b6040516101139190610be5565b60405180910390f35b6101246104c0565b6040516101319190610bfe565b60405180910390f35b610154600480360381019061014f9190610d43565b6104e5565b005b610170600480360381019061016b9190610d8a565b61064c565b60405161017d9190610e15565b60405180910390f35b6001602052815f5260405f20818154811061019f575f80fd5b905f5260205f2090600402015f9150915050805f015f9054906101000a900473ffffffffffffffffffffffffffffffffffffffff16908060010180546101e490610e62565b80601f016020809104026020016040519081016040528092919081815260200182805461021090610e62565b801561025b5780601f106102325761010080835404028352916020019161025b565b820191905f5260205f20905b81548152906001019060200180831161023e57829003601f168201915b5050505050908060020154908060030154905084565b606060015f8373ffffffffffffffffffffffffffffffffffffffff1673ffffffffffffffffffffffffffffffffffffffff1681526020019081526020015f20805480602002602001604051908101604052809291908181526020015f905b828210156103f7578382905f5260205f2090600402016040518060800160405290815f82015f9054906101000a900473ffffffffffffffffffffffffffffffffffffffff1673ffffffffffffffffffffffffffffffffffffffff1673ffffffffffffffffffffffffffffffffffffffff16815260200160018201805461035490610e62565b80601f016020809104026020016040519081016040528092919081815260200182805461038090610e62565b80156103cb5780601f106103a2576101008083540402835291602001916103cb565b820191905f5260205f20905b8154815290600101906020018083116103ae57829003601f168201915b5050505050815260200160028201548152602001600382015481525050815260200190600101906102cf565b505050509050919050565b60025f9054906101000a900473ffffffffffffffffffffffffffffffffffffffff1673ffffffffffffffffffffffffffffffffffffffff163373ffffffffffffffffffffffffffffffffffffffff1614610491576040517f08c379a000000000000000000000000000000000000000000000000000000000815260040161048890610edc565b60405180910390fd5b805f806101000a81548161ffff021916908361ffff16021790555050565b5f8054906101000a900461ffff1681565b60025f9054906101000a900473ffffffffffffffffffffffffffffffffffffffff1681565b5f8054906101000a900461ffff1661ffff168151111561053a576040517f08c379a000000000000000000000000000000000000000000000000000000000815260040161053190610f44565b60405180910390fd5b5f60405180608001604052803373ffffffffffffffffffffffffffffffffffffffff1681526020018381526020014281526020015f815250905060015f3373ffffffffffffffffffffffffffffffffffffffff1673ffffffffffffffffffffffffffffffffffffffff1681526020019081526020015f2081908060018154018082558091505060019003905f5260205f2090600402015f909190919091505f820151815f015f6101000a81548173ffffffffffffffffffffffffffffffffffffffff021916908373ffffffffffffffffffffffffffffffffffffffff160217905550602082015181600101908161063191906110ff565b50604082015181600201556060820151816003015550505050565b6106546107b9565b60015f3373ffffffffffffffffffffffffffffffffffffffff1673ffffffffffffffffffffffffffffffffffffffff1681526020019081526020015f2082815481106106a3576106a26111ce565b5b905f5260205f2090600402016040518060800160405290815f82015f9054906101000a900473ffffffffffffffffffffffffffffffffffffffff1673ffffffffffffffffffffffffffffffffffffffff1673ffffffffffffffffffffffffffffffffffffffff16815260200160018201805461071e90610e62565b80601f016020809104026020016040519081016040528092919081815260200182805461074a90610e62565b80156107955780601f1061076c57610100808354040283529160200191610795565b820191905f5260205f20905b81548152906001019060200180831161077857829003601f168201915b50505050508152602001600282015481526020016003820154815250509050919050565b60405180608001604052805f73ffffffffffffffffffffffffffffffffffffffff168152602001606081526020015f81526020015f81525090565b5f604051905090565b5f80fd5b5f80fd5b5f73ffffffffffffffffffffffffffffffffffffffff82169050919050565b5f61082e82610805565b9050919050565b61083e81610824565b8114610848575f80fd5b50565b5f8135905061085981610835565b92915050565b5f819050919050565b6108718161085f565b811461087b575f80fd5b50565b5f8135905061088c81610868565b92915050565b5f80604083850312156108a8576108a76107fd565b5b5f6108b58582860161084b565b92505060206108c68582860161087e565b9150509250929050565b6108d981610824565b82525050565b5f81519050919050565b5f82825260208201905092915050565b8281835e5f83830152505050565b5f601f19601f8301169050919050565b5f610921826108df565b61092b81856108e9565b935061093b8185602086016108f9565b61094481610907565b840191505092915050565b6109588161085f565b82525050565b5f6080820190506109715f8301876108d0565b81810360208301526109838186610917565b9050610992604083018561094f565b61099f606083018461094f565b95945050505050565b5f602082840312156109bd576109bc6107fd565b5b5f6109ca8482850161084b565b91505092915050565b5f81519050919050565b5f82825260208201905092915050565b5f819050602082019050919050565b610a0581610824565b82525050565b5f82825260208201905092915050565b5f610a25826108df565b610a2f8185610a0b565b9350610a3f8185602086016108f9565b610a4881610907565b840191505092915050565b610a5c8161085f565b82525050565b5f608083015f830151610a775f8601826109fc565b5060208301518482036020860152610a8f8282610a1b565b9150506040830151610aa46040860182610a53565b506060830151610ab76060860182610a53565b508091505092915050565b5f610acd8383610a62565b905092915050565b5f602082019050919050565b5f610aeb826109d3565b610af581856109dd565b935083602082028501610b07856109ed565b805f5b85811015610b425784840389528151610b238582610ac2565b9450610b2e83610ad5565b925060208a01995050600181019050610b0a565b50829750879550505050505092915050565b5f6020820190508181035f830152610b6c8184610ae1565b905092915050565b5f61ffff82169050919050565b610b8a81610b74565b8114610b94575f80fd5b50565b5f81359050610ba581610b81565b92915050565b5f60208284031215610bc057610bbf6107fd565b5b5f610bcd84828501610b97565b91505092915050565b610bdf81610b74565b82525050565b5f602082019050610bf85f830184610bd6565b92915050565b5f602082019050610c115f8301846108d0565b92915050565b5f80fd5b5f80fd5b7f4e487b71000000000000000000000000000000000000000000000000000000005f52604160045260245ffd5b610c5582610907565b810181811067ffffffffffffffff82111715610c7457610c73610c1f565b5b80604052505050565b5f610c866107f4565b9050610c928282610c4c565b919050565b5f67ffffffffffffffff821115610cb157610cb0610c1f565b5b610cba82610907565b9050602081019050919050565b828183375f83830152505050565b5f610ce7610ce284610c97565b610c7d565b905082815260208101848484011115610d0357610d02610c1b565b5b610d0e848285610cc7565b509392505050565b5f82601f830112610d2a57610d29610c17565b5b8135610d3a848260208601610cd5565b91505092915050565b5f60208284031215610d5857610d576107fd565b5b5f82013567ffffffffffffffff811115610d7557610d74610801565b5b610d8184828501610d16565b91505092915050565b5f60208284031215610d9f57610d9e6107fd565b5b5f610dac8482850161087e565b91505092915050565b5f608083015f830151610dca5f8601826109fc565b5060208301518482036020860152610de28282610a1b565b9150506040830151610df76040860182610a53565b506060830151610e0a6060860182610a53565b508091505092915050565b5f6020820190508181035f830152610e2d8184610db5565b905092915050565b7f4e487b71000000000000000000000000000000000000000000000000000000005f52602260045260245ffd5b5f6002820490506001821680610e7957607f821691505b602082108103610e8c57610e8b610e35565b5b50919050565b7f594f5520415245204e4f5420544845204f574e455221000000000000000000005f82015250565b5f610ec66016836108e9565b9150610ed182610e92565b602082019050919050565b5f6020820190508181035f830152610ef381610eba565b9050919050565b7f596f75207368616c6c206e6f74207061737321000000000000000000000000005f82015250565b5f610f2e6013836108e9565b9150610f3982610efa565b602082019050919050565b5f6020820190508181035f830152610f5b81610f22565b9050919050565b5f819050815f5260205f209050919050565b5f6020601f8301049050919050565b5f82821b905092915050565b5f60088302610fbe7fffffffffffffffffffffffffffffffffffffffffffffffffffffffffffffffff82610f83565b610fc88683610f83565b95508019841693508086168417925050509392505050565b5f819050919050565b5f611003610ffe610ff98461085f565b610fe0565b61085f565b9050919050565b5f819050919050565b61101c83610fe9565b6110306110288261100a565b848454610f8f565b825550505050565b5f90565b611044611038565b61104f818484611013565b505050565b5b81811015611072576110675f8261103c565b600181019050611055565b5050565b601f8211156110b75761108881610f62565b61109184610f74565b810160208510156110a0578190505b6110b46110ac85610f74565b830182611054565b50505b505050565b5f82821c905092915050565b5f6110d75f19846008026110bc565b1980831691505092915050565b5f6110ef83836110c8565b9150826002028217905092915050565b611108826108df565b67ffffffffffffffff81111561112157611120610c1f565b5b61112b8254610e62565b611136828285611076565b5f60209050601f831160018114611167575f8415611155578287015190505b61115f85826110e4565b8655506111c6565b601f19841661117586610f62565b5f5b8281101561119c57848901518255600182019150602085019450602081019050611177565b868310156111b957848901516111b5601f8916826110c8565b8355505b6001600288020188555050505b505050505050565b7f4e487b71000000000000000000000000000000000000000000000000000000005f52603260045260245ffdfea264697066735822122026b956a2e28cf5bbd079e4533a80d9088337d302ca9a29a2895e572305213c2964736f6c634300081a0033",
					"opcodes": "PUSH1 0x80 PUSH1 0x40 MSTORE PUSH2 0x118 PUSH0 DUP1 PUSH2 0x100 EXP DUP2 SLOAD DUP2 PUSH2 0xFFFF MUL NOT AND SWAP1 DUP4 PUSH2 0xFFFF AND MUL OR SWAP1 SSTORE POP CALLVALUE DUP1 ISZERO PUSH1 0x2B JUMPI PUSH0 DUP1 REVERT JUMPDEST POP CALLER PUSH1 0x2 PUSH0 PUSH2 0x100 EXP DUP2 SLOAD DUP2 PUSH20 0xFFFFFFFFFFFFFFFFFFFFFFFFFFFFFFFFFFFFFFFF MUL NOT AND SWAP1 DUP4 PUSH20 0xFFFFFFFFFFFFFFFFFFFFFFFFFFFFFFFFFFFFFFFF AND MUL OR SWAP1 SSTORE POP PUSH2 0x1231 DUP1 PUSH2 0x79 PUSH0 CODECOPY PUSH0 RETURN INVALID PUSH1 0x80 PUSH1 0x40 MSTORE CALLVALUE DUP1 ISZERO PUSH2 0xF JUMPI PUSH0 DUP1 REVERT JUMPDEST POP PUSH1 0x4 CALLDATASIZE LT PUSH2 0x7B JUMPI PUSH0 CALLDATALOAD PUSH1 0xE0 SHR DUP1 PUSH4 0x6EB10797 GT PUSH2 0x59 JUMPI DUP1 PUSH4 0x6EB10797 EQ PUSH2 0xFE JUMPI DUP1 PUSH4 0x8DA5CB5B EQ PUSH2 0x11C JUMPI DUP1 PUSH4 0xB8E4F167 EQ PUSH2 0x13A JUMPI DUP1 PUSH4 0xC3AD5ECB EQ PUSH2 0x156 JUMPI PUSH2 0x7B JUMP JUMPDEST DUP1 PUSH4 0x5A1B4A9 EQ PUSH2 0x7F JUMPI DUP1 PUSH4 0x12E7EE1C EQ PUSH2 0xB2 JUMPI DUP1 PUSH4 0x58BFA4AB EQ PUSH2 0xE2 JUMPI JUMPDEST PUSH0 DUP1 REVERT JUMPDEST PUSH2 0x99 PUSH1 0x4 DUP1 CALLDATASIZE SUB DUP2 ADD SWAP1 PUSH2 0x94 SWAP2 SWAP1 PUSH2 0x892 JUMP JUMPDEST PUSH2 0x186 JUMP JUMPDEST PUSH1 0x40 MLOAD PUSH2 0xA9 SWAP5 SWAP4 SWAP3 SWAP2 SWAP1 PUSH2 0x95E JUMP JUMPDEST PUSH1 0x40 MLOAD DUP1 SWAP2 SUB SWAP1 RETURN JUMPDEST PUSH2 0xCC PUSH1 0x4 DUP1 CALLDATASIZE SUB DUP2 ADD SWAP1 PUSH2 0xC7 SWAP2 SWAP1 PUSH2 0x9A8 JUMP JUMPDEST PUSH2 0x271 JUMP JUMPDEST PUSH1 0x40 MLOAD PUSH2 0xD9 SWAP2 SWAP1 PUSH2 0xB54 JUMP JUMPDEST PUSH1 0x40 MLOAD DUP1 SWAP2 SUB SWAP1 RETURN JUMPDEST PUSH2 0xFC PUSH1 0x4 DUP1 CALLDATASIZE SUB DUP2 ADD SWAP1 PUSH2 0xF7 SWAP2 SWAP1 PUSH2 0xBAB JUMP JUMPDEST PUSH2 0x402 JUMP JUMPDEST STOP JUMPDEST PUSH2 0x106 PUSH2 0x4AF JUMP JUMPDEST PUSH1 0x40 MLOAD PUSH2 0x113 SWAP2 SWAP1 PUSH2 0xBE5 JUMP JUMPDEST PUSH1 0x40 MLOAD DUP1 SWAP2 SUB SWAP1 RETURN JUMPDEST PUSH2 0x124 PUSH2 0x4C0 JUMP JUMPDEST PUSH1 0x40 MLOAD PUSH2 0x131 SWAP2 SWAP1 PUSH2 0xBFE JUMP JUMPDEST PUSH1 0x40 MLOAD DUP1 SWAP2 SUB SWAP1 RETURN JUMPDEST PUSH2 0x154 PUSH1 0x4 DUP1 CALLDATASIZE SUB DUP2 ADD SWAP1 PUSH2 0x14F SWAP2 SWAP1 PUSH2 0xD43 JUMP JUMPDEST PUSH2 0x4E5 JUMP JUMPDEST STOP JUMPDEST PUSH2 0x170 PUSH1 0x4 DUP1 CALLDATASIZE SUB DUP2 ADD SWAP1 PUSH2 0x16B SWAP2 SWAP1 PUSH2 0xD8A JUMP JUMPDEST PUSH2 0x64C JUMP JUMPDEST PUSH1 0x40 MLOAD PUSH2 0x17D SWAP2 SWAP1 PUSH2 0xE15 JUMP JUMPDEST PUSH1 0x40 MLOAD DUP1 SWAP2 SUB SWAP1 RETURN JUMPDEST PUSH1 0x1 PUSH1 0x20 MSTORE DUP2 PUSH0 MSTORE PUSH1 0x40 PUSH0 KECCAK256 DUP2 DUP2 SLOAD DUP2 LT PUSH2 0x19F JUMPI PUSH0 DUP1 REVERT JUMPDEST SWAP1 PUSH0 MSTORE PUSH1 0x20 PUSH0 KECCAK256 SWAP1 PUSH1 0x4 MUL ADD PUSH0 SWAP2 POP SWAP2 POP POP DUP1 PUSH0 ADD PUSH0 SWAP1 SLOAD SWAP1 PUSH2 0x100 EXP SWAP1 DIV PUSH20 0xFFFFFFFFFFFFFFFFFFFFFFFFFFFFFFFFFFFFFFFF AND SWAP1 DUP1 PUSH1 0x1 ADD DUP1 SLOAD PUSH2 0x1E4 SWAP1 PUSH2 0xE62 JUMP JUMPDEST DUP1 PUSH1 0x1F ADD PUSH1 0x20 DUP1 SWAP2 DIV MUL PUSH1 0x20 ADD PUSH1 0x40 MLOAD SWAP1 DUP2 ADD PUSH1 0x40 MSTORE DUP1 SWAP3 SWAP2 SWAP1 DUP2 DUP2 MSTORE PUSH1 0x20 ADD DUP3 DUP1 SLOAD PUSH2 0x210 SWAP1 PUSH2 0xE62 JUMP JUMPDEST DUP1 ISZERO PUSH2 0x25B JUMPI DUP1 PUSH1 0x1F LT PUSH2 0x232 JUMPI PUSH2 0x100 DUP1 DUP4 SLOAD DIV MUL DUP4 MSTORE SWAP2 PUSH1 0x20 ADD SWAP2 PUSH2 0x25B JUMP JUMPDEST DUP3 ADD SWAP2 SWAP1 PUSH0 MSTORE PUSH1 0x20 PUSH0 KECCAK256 SWAP1 JUMPDEST DUP2 SLOAD DUP2 MSTORE SWAP1 PUSH1 0x1 ADD SWAP1 PUSH1 0x20 ADD DUP1 DUP4 GT PUSH2 0x23E JUMPI DUP3 SWAP1 SUB PUSH1 0x1F AND DUP3 ADD SWAP2 JUMPDEST POP POP POP POP POP SWAP1 DUP1 PUSH1 0x2 ADD SLOAD SWAP1 DUP1 PUSH1 0x3 ADD SLOAD SWAP1 POP DUP5 JUMP JUMPDEST PUSH1 0x60 PUSH1 0x1 PUSH0 DUP4 PUSH20 0xFFFFFFFFFFFFFFFFFFFFFFFFFFFFFFFFFFFFFFFF AND PUSH20 0xFFFFFFFFFFFFFFFFFFFFFFFFFFFFFFFFFFFFFFFF AND DUP2 MSTORE PUSH1 0x20 ADD SWAP1 DUP2 MSTORE PUSH1 0x20 ADD PUSH0 KECCAK256 DUP1 SLOAD DUP1 PUSH1 0x20 MUL PUSH1 0x20 ADD PUSH1 0x40 MLOAD SWAP1 DUP2 ADD PUSH1 0x40 MSTORE DUP1 SWAP3 SWAP2 SWAP1 DUP2 DUP2 MSTORE PUSH1 0x20 ADD PUSH0 SWAP1 JUMPDEST DUP3 DUP3 LT ISZERO PUSH2 0x3F7 JUMPI DUP4 DUP3 SWAP1 PUSH0 MSTORE PUSH1 0x20 PUSH0 KECCAK256 SWAP1 PUSH1 0x4 MUL ADD PUSH1 0x40 MLOAD DUP1 PUSH1 0x80 ADD PUSH1 0x40 MSTORE SWAP1 DUP2 PUSH0 DUP3 ADD PUSH0 SWAP1 SLOAD SWAP1 PUSH2 0x100 EXP SWAP1 DIV PUSH20 0xFFFFFFFFFFFFFFFFFFFFFFFFFFFFFFFFFFFFFFFF AND PUSH20 0xFFFFFFFFFFFFFFFFFFFFFFFFFFFFFFFFFFFFFFFF AND PUSH20 0xFFFFFFFFFFFFFFFFFFFFFFFFFFFFFFFFFFFFFFFF AND DUP2 MSTORE PUSH1 0x20 ADD PUSH1 0x1 DUP3 ADD DUP1 SLOAD PUSH2 0x354 SWAP1 PUSH2 0xE62 JUMP JUMPDEST DUP1 PUSH1 0x1F ADD PUSH1 0x20 DUP1 SWAP2 DIV MUL PUSH1 0x20 ADD PUSH1 0x40 MLOAD SWAP1 DUP2 ADD PUSH1 0x40 MSTORE DUP1 SWAP3 SWAP2 SWAP1 DUP2 DUP2 MSTORE PUSH1 0x20 ADD DUP3 DUP1 SLOAD PUSH2 0x380 SWAP1 PUSH2 0xE62 JUMP JUMPDEST DUP1 ISZERO PUSH2 0x3CB JUMPI DUP1 PUSH1 0x1F LT PUSH2 0x3A2 JUMPI PUSH2 0x100 DUP1 DUP4 SLOAD DIV MUL DUP4 MSTORE SWAP2 PUSH1 0x20 ADD SWAP2 PUSH2 0x3CB JUMP JUMPDEST DUP3 ADD SWAP2 SWAP1 PUSH0 MSTORE PUSH1 0x20 PUSH0 KECCAK256 SWAP1 JUMPDEST DUP2 SLOAD DUP2 MSTORE SWAP1 PUSH1 0x1 ADD SWAP1 PUSH1 0x20 ADD DUP1 DUP4 GT PUSH2 0x3AE JUMPI DUP3 SWAP1 SUB PUSH1 0x1F AND DUP3 ADD SWAP2 JUMPDEST POP POP POP POP POP DUP2 MSTORE PUSH1 0x20 ADD PUSH1 0x2 DUP3 ADD SLOAD DUP2 MSTORE PUSH1 0x20 ADD PUSH1 0x3 DUP3 ADD SLOAD DUP2 MSTORE POP POP DUP2 MSTORE PUSH1 0x20 ADD SWAP1 PUSH1 0x1 ADD SWAP1 PUSH2 0x2CF JUMP JUMPDEST POP POP POP POP SWAP1 POP SWAP2 SWAP1 POP JUMP JUMPDEST PUSH1 0x2 PUSH0 SWAP1 SLOAD SWAP1 PUSH2 0x100 EXP SWAP1 DIV PUSH20 0xFFFFFFFFFFFFFFFFFFFFFFFFFFFFFFFFFFFFFFFF AND PUSH20 0xFFFFFFFFFFFFFFFFFFFFFFFFFFFFFFFFFFFFFFFF AND CALLER PUSH20 0xFFFFFFFFFFFFFFFFFFFFFFFFFFFFFFFFFFFFFFFF AND EQ PUSH2 0x491 JUMPI PUSH1 0x40 MLOAD PUSH32 0x8C379A000000000000000000000000000000000000000000000000000000000 DUP2 MSTORE PUSH1 0x4 ADD PUSH2 0x488 SWAP1 PUSH2 0xEDC JUMP JUMPDEST PUSH1 0x40 MLOAD DUP1 SWAP2 SUB SWAP1 REVERT JUMPDEST DUP1 PUSH0 DUP1 PUSH2 0x100 EXP DUP2 SLOAD DUP2 PUSH2 0xFFFF MUL NOT AND SWAP1 DUP4 PUSH2 0xFFFF AND MUL OR SWAP1 SSTORE POP POP JUMP JUMPDEST PUSH0 DUP1 SLOAD SWAP1 PUSH2 0x100 EXP SWAP1 DIV PUSH2 0xFFFF AND DUP2 JUMP JUMPDEST PUSH1 0x2 PUSH0 SWAP1 SLOAD SWAP1 PUSH2 0x100 EXP SWAP1 DIV PUSH20 0xFFFFFFFFFFFFFFFFFFFFFFFFFFFFFFFFFFFFFFFF AND DUP2 JUMP JUMPDEST PUSH0 DUP1 SLOAD SWAP1 PUSH2 0x100 EXP SWAP1 DIV PUSH2 0xFFFF AND PUSH2 0xFFFF AND DUP2 MLOAD GT ISZERO PUSH2 0x53A JUMPI PUSH1 0x40 MLOAD PUSH32 0x8C379A000000000000000000000000000000000000000000000000000000000 DUP2 MSTORE PUSH1 0x4 ADD PUSH2 0x531 SWAP1 PUSH2 0xF44 JUMP JUMPDEST PUSH1 0x40 MLOAD DUP1 SWAP2 SUB SWAP1 REVERT JUMPDEST PUSH0 PUSH1 0x40 MLOAD DUP1 PUSH1 0x80 ADD PUSH1 0x40 MSTORE DUP1 CALLER PUSH20 0xFFFFFFFFFFFFFFFFFFFFFFFFFFFFFFFFFFFFFFFF AND DUP2 MSTORE PUSH1 0x20 ADD DUP4 DUP2 MSTORE PUSH1 0x20 ADD TIMESTAMP DUP2 MSTORE PUSH1 0x20 ADD PUSH0 DUP2 MSTORE POP SWAP1 POP PUSH1 0x1 PUSH0 CALLER PUSH20 0xFFFFFFFFFFFFFFFFFFFFFFFFFFFFFFFFFFFFFFFF AND PUSH20 0xFFFFFFFFFFFFFFFFFFFFFFFFFFFFFFFFFFFFFFFF AND DUP2 MSTORE PUSH1 0x20 ADD SWAP1 DUP2 MSTORE PUSH1 0x20 ADD PUSH0 KECCAK256 DUP2 SWAP1 DUP1 PUSH1 0x1 DUP2 SLOAD ADD DUP1 DUP3 SSTORE DUP1 SWAP2 POP POP PUSH1 0x1 SWAP1 SUB SWAP1 PUSH0 MSTORE PUSH1 0x20 PUSH0 KECCAK256 SWAP1 PUSH1 0x4 MUL ADD PUSH0 SWAP1 SWAP2 SWAP1 SWAP2 SWAP1 SWAP2 POP PUSH0 DUP3 ADD MLOAD DUP2 PUSH0 ADD PUSH0 PUSH2 0x100 EXP DUP2 SLOAD DUP2 PUSH20 0xFFFFFFFFFFFFFFFFFFFFFFFFFFFFFFFFFFFFFFFF MUL NOT AND SWAP1 DUP4 PUSH20 0xFFFFFFFFFFFFFFFFFFFFFFFFFFFFFFFFFFFFFFFF AND MUL OR SWAP1 SSTORE POP PUSH1 0x20 DUP3 ADD MLOAD DUP2 PUSH1 0x1 ADD SWAP1 DUP2 PUSH2 0x631 SWAP2 SWAP1 PUSH2 0x10FF JUMP JUMPDEST POP PUSH1 0x40 DUP3 ADD MLOAD DUP2 PUSH1 0x2 ADD SSTORE PUSH1 0x60 DUP3 ADD MLOAD DUP2 PUSH1 0x3 ADD SSTORE POP POP POP POP JUMP JUMPDEST PUSH2 0x654 PUSH2 0x7B9 JUMP JUMPDEST PUSH1 0x1 PUSH0 CALLER PUSH20 0xFFFFFFFFFFFFFFFFFFFFFFFFFFFFFFFFFFFFFFFF AND PUSH20 0xFFFFFFFFFFFFFFFFFFFFFFFFFFFFFFFFFFFFFFFF AND DUP2 MSTORE PUSH1 0x20 ADD SWAP1 DUP2 MSTORE PUSH1 0x20 ADD PUSH0 KECCAK256 DUP3 DUP2 SLOAD DUP2 LT PUSH2 0x6A3 JUMPI PUSH2 0x6A2 PUSH2 0x11CE JUMP JUMPDEST JUMPDEST SWAP1 PUSH0 MSTORE PUSH1 0x20 PUSH0 KECCAK256 SWAP1 PUSH1 0x4 MUL ADD PUSH1 0x40 MLOAD DUP1 PUSH1 0x80 ADD PUSH1 0x40 MSTORE SWAP1 DUP2 PUSH0 DUP3 ADD PUSH0 SWAP1 SLOAD SWAP1 PUSH2 0x100 EXP SWAP1 DIV PUSH20 0xFFFFFFFFFFFFFFFFFFFFFFFFFFFFFFFFFFFFFFFF AND PUSH20 0xFFFFFFFFFFFFFFFFFFFFFFFFFFFFFFFFFFFFFFFF AND PUSH20 0xFFFFFFFFFFFFFFFFFFFFFFFFFFFFFFFFFFFFFFFF AND DUP2 MSTORE PUSH1 0x20 ADD PUSH1 0x1 DUP3 ADD DUP1 SLOAD PUSH2 0x71E SWAP1 PUSH2 0xE62 JUMP JUMPDEST DUP1 PUSH1 0x1F ADD PUSH1 0x20 DUP1 SWAP2 DIV MUL PUSH1 0x20 ADD PUSH1 0x40 MLOAD SWAP1 DUP2 ADD PUSH1 0x40 MSTORE DUP1 SWAP3 SWAP2 SWAP1 DUP2 DUP2 MSTORE PUSH1 0x20 ADD DUP3 DUP1 SLOAD PUSH2 0x74A SWAP1 PUSH2 0xE62 JUMP JUMPDEST DUP1 ISZERO PUSH2 0x795 JUMPI DUP1 PUSH1 0x1F LT PUSH2 0x76C JUMPI PUSH2 0x100 DUP1 DUP4 SLOAD DIV MUL DUP4 MSTORE SWAP2 PUSH1 0x20 ADD SWAP2 PUSH2 0x795 JUMP JUMPDEST DUP3 ADD SWAP2 SWAP1 PUSH0 MSTORE PUSH1 0x20 PUSH0 KECCAK256 SWAP1 JUMPDEST DUP2 SLOAD DUP2 MSTORE SWAP1 PUSH1 0x1 ADD SWAP1 PUSH1 0x20 ADD DUP1 DUP4 GT PUSH2 0x778 JUMPI DUP3 SWAP1 SUB PUSH1 0x1F AND DUP3 ADD SWAP2 JUMPDEST POP POP POP POP POP DUP2 MSTORE PUSH1 0x20 ADD PUSH1 0x2 DUP3 ADD SLOAD DUP2 MSTORE PUSH1 0x20 ADD PUSH1 0x3 DUP3 ADD SLOAD DUP2 MSTORE POP POP SWAP1 POP SWAP2 SWAP1 POP JUMP JUMPDEST PUSH1 0x40 MLOAD DUP1 PUSH1 0x80 ADD PUSH1 0x40 MSTORE DUP1 PUSH0 PUSH20 0xFFFFFFFFFFFFFFFFFFFFFFFFFFFFFFFFFFFFFFFF AND DUP2 MSTORE PUSH1 0x20 ADD PUSH1 0x60 DUP2 MSTORE PUSH1 0x20 ADD PUSH0 DUP2 MSTORE PUSH1 0x20 ADD PUSH0 DUP2 MSTORE POP SWAP1 JUMP JUMPDEST PUSH0 PUSH1 0x40 MLOAD SWAP1 POP SWAP1 JUMP JUMPDEST PUSH0 DUP1 REVERT JUMPDEST PUSH0 DUP1 REVERT JUMPDEST PUSH0 PUSH20 0xFFFFFFFFFFFFFFFFFFFFFFFFFFFFFFFFFFFFFFFF DUP3 AND SWAP1 POP SWAP2 SWAP1 POP JUMP JUMPDEST PUSH0 PUSH2 0x82E DUP3 PUSH2 0x805 JUMP JUMPDEST SWAP1 POP SWAP2 SWAP1 POP JUMP JUMPDEST PUSH2 0x83E DUP2 PUSH2 0x824 JUMP JUMPDEST DUP2 EQ PUSH2 0x848 JUMPI PUSH0 DUP1 REVERT JUMPDEST POP JUMP JUMPDEST PUSH0 DUP2 CALLDATALOAD SWAP1 POP PUSH2 0x859 DUP2 PUSH2 0x835 JUMP JUMPDEST SWAP3 SWAP2 POP POP JUMP JUMPDEST PUSH0 DUP2 SWAP1 POP SWAP2 SWAP1 POP JUMP JUMPDEST PUSH2 0x871 DUP2 PUSH2 0x85F JUMP JUMPDEST DUP2 EQ PUSH2 0x87B JUMPI PUSH0 DUP1 REVERT JUMPDEST POP JUMP JUMPDEST PUSH0 DUP2 CALLDATALOAD SWAP1 POP PUSH2 0x88C DUP2 PUSH2 0x868 JUMP JUMPDEST SWAP3 SWAP2 POP POP JUMP JUMPDEST PUSH0 DUP1 PUSH1 0x40 DUP4 DUP6 SUB SLT ISZERO PUSH2 0x8A8 JUMPI PUSH2 0x8A7 PUSH2 0x7FD JUMP JUMPDEST JUMPDEST PUSH0 PUSH2 0x8B5 DUP6 DUP3 DUP7 ADD PUSH2 0x84B JUMP JUMPDEST SWAP3 POP POP PUSH1 0x20 PUSH2 0x8C6 DUP6 DUP3 DUP7 ADD PUSH2 0x87E JUMP JUMPDEST SWAP2 POP POP SWAP3 POP SWAP3 SWAP1 POP JUMP JUMPDEST PUSH2 0x8D9 DUP2 PUSH2 0x824 JUMP JUMPDEST DUP3 MSTORE POP POP JUMP JUMPDEST PUSH0 DUP2 MLOAD SWAP1 POP SWAP2 SWAP1 POP JUMP JUMPDEST PUSH0 DUP3 DUP3 MSTORE PUSH1 0x20 DUP3 ADD SWAP1 POP SWAP3 SWAP2 POP POP JUMP JUMPDEST DUP3 DUP2 DUP4 MCOPY PUSH0 DUP4 DUP4 ADD MSTORE POP POP POP JUMP JUMPDEST PUSH0 PUSH1 0x1F NOT PUSH1 0x1F DUP4 ADD AND SWAP1 POP SWAP2 SWAP1 POP JUMP JUMPDEST PUSH0 PUSH2 0x921 DUP3 PUSH2 0x8DF JUMP JUMPDEST PUSH2 0x92B DUP2 DUP6 PUSH2 0x8E9 JUMP JUMPDEST SWAP4 POP PUSH2 0x93B DUP2 DUP6 PUSH1 0x20 DUP7 ADD PUSH2 0x8F9 JUMP JUMPDEST PUSH2 0x944 DUP2 PUSH2 0x907 JUMP JUMPDEST DUP5 ADD SWAP2 POP POP SWAP3 SWAP2 POP POP JUMP JUMPDEST PUSH2 0x958 DUP2 PUSH2 0x85F JUMP JUMPDEST DUP3 MSTORE POP POP JUMP JUMPDEST PUSH0 PUSH1 0x80 DUP3 ADD SWAP1 POP PUSH2 0x971 PUSH0 DUP4 ADD DUP8 PUSH2 0x8D0 JUMP JUMPDEST DUP2 DUP2 SUB PUSH1 0x20 DUP4 ADD MSTORE PUSH2 0x983 DUP2 DUP7 PUSH2 0x917 JUMP JUMPDEST SWAP1 POP PUSH2 0x992 PUSH1 0x40 DUP4 ADD DUP6 PUSH2 0x94F JUMP JUMPDEST PUSH2 0x99F PUSH1 0x60 DUP4 ADD DUP5 PUSH2 0x94F JUMP JUMPDEST SWAP6 SWAP5 POP POP POP POP POP JUMP JUMPDEST PUSH0 PUSH1 0x20 DUP3 DUP5 SUB SLT ISZERO PUSH2 0x9BD JUMPI PUSH2 0x9BC PUSH2 0x7FD JUMP JUMPDEST JUMPDEST PUSH0 PUSH2 0x9CA DUP5 DUP3 DUP6 ADD PUSH2 0x84B JUMP JUMPDEST SWAP2 POP POP SWAP3 SWAP2 POP POP JUMP JUMPDEST PUSH0 DUP2 MLOAD SWAP1 POP SWAP2 SWAP1 POP JUMP JUMPDEST PUSH0 DUP3 DUP3 MSTORE PUSH1 0x20 DUP3 ADD SWAP1 POP SWAP3 SWAP2 POP POP JUMP JUMPDEST PUSH0 DUP2 SWAP1 POP PUSH1 0x20 DUP3 ADD SWAP1 POP SWAP2 SWAP1 POP JUMP JUMPDEST PUSH2 0xA05 DUP2 PUSH2 0x824 JUMP JUMPDEST DUP3 MSTORE POP POP JUMP JUMPDEST PUSH0 DUP3 DUP3 MSTORE PUSH1 0x20 DUP3 ADD SWAP1 POP SWAP3 SWAP2 POP POP JUMP JUMPDEST PUSH0 PUSH2 0xA25 DUP3 PUSH2 0x8DF JUMP JUMPDEST PUSH2 0xA2F DUP2 DUP6 PUSH2 0xA0B JUMP JUMPDEST SWAP4 POP PUSH2 0xA3F DUP2 DUP6 PUSH1 0x20 DUP7 ADD PUSH2 0x8F9 JUMP JUMPDEST PUSH2 0xA48 DUP2 PUSH2 0x907 JUMP JUMPDEST DUP5 ADD SWAP2 POP POP SWAP3 SWAP2 POP POP JUMP JUMPDEST PUSH2 0xA5C DUP2 PUSH2 0x85F JUMP JUMPDEST DUP3 MSTORE POP POP JUMP JUMPDEST PUSH0 PUSH1 0x80 DUP4 ADD PUSH0 DUP4 ADD MLOAD PUSH2 0xA77 PUSH0 DUP7 ADD DUP3 PUSH2 0x9FC JUMP JUMPDEST POP PUSH1 0x20 DUP4 ADD MLOAD DUP5 DUP3 SUB PUSH1 0x20 DUP7 ADD MSTORE PUSH2 0xA8F DUP3 DUP3 PUSH2 0xA1B JUMP JUMPDEST SWAP2 POP POP PUSH1 0x40 DUP4 ADD MLOAD PUSH2 0xAA4 PUSH1 0x40 DUP7 ADD DUP3 PUSH2 0xA53 JUMP JUMPDEST POP PUSH1 0x60 DUP4 ADD MLOAD PUSH2 0xAB7 PUSH1 0x60 DUP7 ADD DUP3 PUSH2 0xA53 JUMP JUMPDEST POP DUP1 SWAP2 POP POP SWAP3 SWAP2 POP POP JUMP JUMPDEST PUSH0 PUSH2 0xACD DUP4 DUP4 PUSH2 0xA62 JUMP JUMPDEST SWAP1 POP SWAP3 SWAP2 POP POP JUMP JUMPDEST PUSH0 PUSH1 0x20 DUP3 ADD SWAP1 POP SWAP2 SWAP1 POP JUMP JUMPDEST PUSH0 PUSH2 0xAEB DUP3 PUSH2 0x9D3 JUMP JUMPDEST PUSH2 0xAF5 DUP2 DUP6 PUSH2 0x9DD JUMP JUMPDEST SWAP4 POP DUP4 PUSH1 0x20 DUP3 MUL DUP6 ADD PUSH2 0xB07 DUP6 PUSH2 0x9ED JUMP JUMPDEST DUP1 PUSH0 JUMPDEST DUP6 DUP2 LT ISZERO PUSH2 0xB42 JUMPI DUP5 DUP5 SUB DUP10 MSTORE DUP2 MLOAD PUSH2 0xB23 DUP6 DUP3 PUSH2 0xAC2 JUMP JUMPDEST SWAP5 POP PUSH2 0xB2E DUP4 PUSH2 0xAD5 JUMP JUMPDEST SWAP3 POP PUSH1 0x20 DUP11 ADD SWAP10 POP POP PUSH1 0x1 DUP2 ADD SWAP1 POP PUSH2 0xB0A JUMP JUMPDEST POP DUP3 SWAP8 POP DUP8 SWAP6 POP POP POP POP POP POP SWAP3 SWAP2 POP POP JUMP JUMPDEST PUSH0 PUSH1 0x20 DUP3 ADD SWAP1 POP DUP2 DUP2 SUB PUSH0 DUP4 ADD MSTORE PUSH2 0xB6C DUP2 DUP5 PUSH2 0xAE1 JUMP JUMPDEST SWAP1 POP SWAP3 SWAP2 POP POP JUMP JUMPDEST PUSH0 PUSH2 0xFFFF DUP3 AND SWAP1 POP SWAP2 SWAP1 POP JUMP JUMPDEST PUSH2 0xB8A DUP2 PUSH2 0xB74 JUMP JUMPDEST DUP2 EQ PUSH2 0xB94 JUMPI PUSH0 DUP1 REVERT JUMPDEST POP JUMP JUMPDEST PUSH0 DUP2 CALLDATALOAD SWAP1 POP PUSH2 0xBA5 DUP2 PUSH2 0xB81 JUMP JUMPDEST SWAP3 SWAP2 POP POP JUMP JUMPDEST PUSH0 PUSH1 0x20 DUP3 DUP5 SUB SLT ISZERO PUSH2 0xBC0 JUMPI PUSH2 0xBBF PUSH2 0x7FD JUMP JUMPDEST JUMPDEST PUSH0 PUSH2 0xBCD DUP5 DUP3 DUP6 ADD PUSH2 0xB97 JUMP JUMPDEST SWAP2 POP POP SWAP3 SWAP2 POP POP JUMP JUMPDEST PUSH2 0xBDF DUP2 PUSH2 0xB74 JUMP JUMPDEST DUP3 MSTORE POP POP JUMP JUMPDEST PUSH0 PUSH1 0x20 DUP3 ADD SWAP1 POP PUSH2 0xBF8 PUSH0 DUP4 ADD DUP5 PUSH2 0xBD6 JUMP JUMPDEST SWAP3 SWAP2 POP POP JUMP JUMPDEST PUSH0 PUSH1 0x20 DUP3 ADD SWAP1 POP PUSH2 0xC11 PUSH0 DUP4 ADD DUP5 PUSH2 0x8D0 JUMP JUMPDEST SWAP3 SWAP2 POP POP JUMP JUMPDEST PUSH0 DUP1 REVERT JUMPDEST PUSH0 DUP1 REVERT JUMPDEST PUSH32 0x4E487B7100000000000000000000000000000000000000000000000000000000 PUSH0 MSTORE PUSH1 0x41 PUSH1 0x4 MSTORE PUSH1 0x24 PUSH0 REVERT JUMPDEST PUSH2 0xC55 DUP3 PUSH2 0x907 JUMP JUMPDEST DUP2 ADD DUP2 DUP2 LT PUSH8 0xFFFFFFFFFFFFFFFF DUP3 GT OR ISZERO PUSH2 0xC74 JUMPI PUSH2 0xC73 PUSH2 0xC1F JUMP JUMPDEST JUMPDEST DUP1 PUSH1 0x40 MSTORE POP POP POP JUMP JUMPDEST PUSH0 PUSH2 0xC86 PUSH2 0x7F4 JUMP JUMPDEST SWAP1 POP PUSH2 0xC92 DUP3 DUP3 PUSH2 0xC4C JUMP JUMPDEST SWAP2 SWAP1 POP JUMP JUMPDEST PUSH0 PUSH8 0xFFFFFFFFFFFFFFFF DUP3 GT ISZERO PUSH2 0xCB1 JUMPI PUSH2 0xCB0 PUSH2 0xC1F JUMP JUMPDEST JUMPDEST PUSH2 0xCBA DUP3 PUSH2 0x907 JUMP JUMPDEST SWAP1 POP PUSH1 0x20 DUP2 ADD SWAP1 POP SWAP2 SWAP1 POP JUMP JUMPDEST DUP3 DUP2 DUP4 CALLDATACOPY PUSH0 DUP4 DUP4 ADD MSTORE POP POP POP JUMP JUMPDEST PUSH0 PUSH2 0xCE7 PUSH2 0xCE2 DUP5 PUSH2 0xC97 JUMP JUMPDEST PUSH2 0xC7D JUMP JUMPDEST SWAP1 POP DUP3 DUP2 MSTORE PUSH1 0x20 DUP2 ADD DUP5 DUP5 DUP5 ADD GT ISZERO PUSH2 0xD03 JUMPI PUSH2 0xD02 PUSH2 0xC1B JUMP JUMPDEST JUMPDEST PUSH2 0xD0E DUP5 DUP3 DUP6 PUSH2 0xCC7 JUMP JUMPDEST POP SWAP4 SWAP3 POP POP POP JUMP JUMPDEST PUSH0 DUP3 PUSH1 0x1F DUP4 ADD SLT PUSH2 0xD2A JUMPI PUSH2 0xD29 PUSH2 0xC17 JUMP JUMPDEST JUMPDEST DUP2 CALLDATALOAD PUSH2 0xD3A DUP5 DUP3 PUSH1 0x20 DUP7 ADD PUSH2 0xCD5 JUMP JUMPDEST SWAP2 POP POP SWAP3 SWAP2 POP POP JUMP JUMPDEST PUSH0 PUSH1 0x20 DUP3 DUP5 SUB SLT ISZERO PUSH2 0xD58 JUMPI PUSH2 0xD57 PUSH2 0x7FD JUMP JUMPDEST JUMPDEST PUSH0 DUP3 ADD CALLDATALOAD PUSH8 0xFFFFFFFFFFFFFFFF DUP2 GT ISZERO PUSH2 0xD75 JUMPI PUSH2 0xD74 PUSH2 0x801 JUMP JUMPDEST JUMPDEST PUSH2 0xD81 DUP5 DUP3 DUP6 ADD PUSH2 0xD16 JUMP JUMPDEST SWAP2 POP POP SWAP3 SWAP2 POP POP JUMP JUMPDEST PUSH0 PUSH1 0x20 DUP3 DUP5 SUB SLT ISZERO PUSH2 0xD9F JUMPI PUSH2 0xD9E PUSH2 0x7FD JUMP JUMPDEST JUMPDEST PUSH0 PUSH2 0xDAC DUP5 DUP3 DUP6 ADD PUSH2 0x87E JUMP JUMPDEST SWAP2 POP POP SWAP3 SWAP2 POP POP JUMP JUMPDEST PUSH0 PUSH1 0x80 DUP4 ADD PUSH0 DUP4 ADD MLOAD PUSH2 0xDCA PUSH0 DUP7 ADD DUP3 PUSH2 0x9FC JUMP JUMPDEST POP PUSH1 0x20 DUP4 ADD MLOAD DUP5 DUP3 SUB PUSH1 0x20 DUP7 ADD MSTORE PUSH2 0xDE2 DUP3 DUP3 PUSH2 0xA1B JUMP JUMPDEST SWAP2 POP POP PUSH1 0x40 DUP4 ADD MLOAD PUSH2 0xDF7 PUSH1 0x40 DUP7 ADD DUP3 PUSH2 0xA53 JUMP JUMPDEST POP PUSH1 0x60 DUP4 ADD MLOAD PUSH2 0xE0A PUSH1 0x60 DUP7 ADD DUP3 PUSH2 0xA53 JUMP JUMPDEST POP DUP1 SWAP2 POP POP SWAP3 SWAP2 POP POP JUMP JUMPDEST PUSH0 PUSH1 0x20 DUP3 ADD SWAP1 POP DUP2 DUP2 SUB PUSH0 DUP4 ADD MSTORE PUSH2 0xE2D DUP2 DUP5 PUSH2 0xDB5 JUMP JUMPDEST SWAP1 POP SWAP3 SWAP2 POP POP JUMP JUMPDEST PUSH32 0x4E487B7100000000000000000000000000000000000000000000000000000000 PUSH0 MSTORE PUSH1 0x22 PUSH1 0x4 MSTORE PUSH1 0x24 PUSH0 REVERT JUMPDEST PUSH0 PUSH1 0x2 DUP3 DIV SWAP1 POP PUSH1 0x1 DUP3 AND DUP1 PUSH2 0xE79 JUMPI PUSH1 0x7F DUP3 AND SWAP2 POP JUMPDEST PUSH1 0x20 DUP3 LT DUP2 SUB PUSH2 0xE8C JUMPI PUSH2 0xE8B PUSH2 0xE35 JUMP JUMPDEST JUMPDEST POP SWAP2 SWAP1 POP JUMP JUMPDEST PUSH32 0x594F5520415245204E4F5420544845204F574E45522100000000000000000000 PUSH0 DUP3 ADD MSTORE POP JUMP JUMPDEST PUSH0 PUSH2 0xEC6 PUSH1 0x16 DUP4 PUSH2 0x8E9 JUMP JUMPDEST SWAP2 POP PUSH2 0xED1 DUP3 PUSH2 0xE92 JUMP JUMPDEST PUSH1 0x20 DUP3 ADD SWAP1 POP SWAP2 SWAP1 POP JUMP JUMPDEST PUSH0 PUSH1 0x20 DUP3 ADD SWAP1 POP DUP2 DUP2 SUB PUSH0 DUP4 ADD MSTORE PUSH2 0xEF3 DUP2 PUSH2 0xEBA JUMP JUMPDEST SWAP1 POP SWAP2 SWAP1 POP JUMP JUMPDEST PUSH32 0x596F75207368616C6C206E6F7420706173732100000000000000000000000000 PUSH0 DUP3 ADD MSTORE POP JUMP JUMPDEST PUSH0 PUSH2 0xF2E PUSH1 0x13 DUP4 PUSH2 0x8E9 JUMP JUMPDEST SWAP2 POP PUSH2 0xF39 DUP3 PUSH2 0xEFA JUMP JUMPDEST PUSH1 0x20 DUP3 ADD SWAP1 POP SWAP2 SWAP1 POP JUMP JUMPDEST PUSH0 PUSH1 0x20 DUP3 ADD SWAP1 POP DUP2 DUP2 SUB PUSH0 DUP4 ADD MSTORE PUSH2 0xF5B DUP2 PUSH2 0xF22 JUMP JUMPDEST SWAP1 POP SWAP2 SWAP1 POP JUMP JUMPDEST PUSH0 DUP2 SWAP1 POP DUP2 PUSH0 MSTORE PUSH1 0x20 PUSH0 KECCAK256 SWAP1 POP SWAP2 SWAP1 POP JUMP JUMPDEST PUSH0 PUSH1 0x20 PUSH1 0x1F DUP4 ADD DIV SWAP1 POP SWAP2 SWAP1 POP JUMP JUMPDEST PUSH0 DUP3 DUP3 SHL SWAP1 POP SWAP3 SWAP2 POP POP JUMP JUMPDEST PUSH0 PUSH1 0x8 DUP4 MUL PUSH2 0xFBE PUSH32 0xFFFFFFFFFFFFFFFFFFFFFFFFFFFFFFFFFFFFFFFFFFFFFFFFFFFFFFFFFFFFFFFF DUP3 PUSH2 0xF83 JUMP JUMPDEST PUSH2 0xFC8 DUP7 DUP4 PUSH2 0xF83 JUMP JUMPDEST SWAP6 POP DUP1 NOT DUP5 AND SWAP4 POP DUP1 DUP7 AND DUP5 OR SWAP3 POP POP POP SWAP4 SWAP3 POP POP POP JUMP JUMPDEST PUSH0 DUP2 SWAP1 POP SWAP2 SWAP1 POP JUMP JUMPDEST PUSH0 PUSH2 0x1003 PUSH2 0xFFE PUSH2 0xFF9 DUP5 PUSH2 0x85F JUMP JUMPDEST PUSH2 0xFE0 JUMP JUMPDEST PUSH2 0x85F JUMP JUMPDEST SWAP1 POP SWAP2 SWAP1 POP JUMP JUMPDEST PUSH0 DUP2 SWAP1 POP SWAP2 SWAP1 POP JUMP JUMPDEST PUSH2 0x101C DUP4 PUSH2 0xFE9 JUMP JUMPDEST PUSH2 0x1030 PUSH2 0x1028 DUP3 PUSH2 0x100A JUMP JUMPDEST DUP5 DUP5 SLOAD PUSH2 0xF8F JUMP JUMPDEST DUP3 SSTORE POP POP POP POP JUMP JUMPDEST PUSH0 SWAP1 JUMP JUMPDEST PUSH2 0x1044 PUSH2 0x1038 JUMP JUMPDEST PUSH2 0x104F DUP2 DUP5 DUP5 PUSH2 0x1013 JUMP JUMPDEST POP POP POP JUMP JUMPDEST JUMPDEST DUP2 DUP2 LT ISZERO PUSH2 0x1072 JUMPI PUSH2 0x1067 PUSH0 DUP3 PUSH2 0x103C JUMP JUMPDEST PUSH1 0x1 DUP2 ADD SWAP1 POP PUSH2 0x1055 JUMP JUMPDEST POP POP JUMP JUMPDEST PUSH1 0x1F DUP3 GT ISZERO PUSH2 0x10B7 JUMPI PUSH2 0x1088 DUP2 PUSH2 0xF62 JUMP JUMPDEST PUSH2 0x1091 DUP5 PUSH2 0xF74 JUMP JUMPDEST DUP2 ADD PUSH1 0x20 DUP6 LT ISZERO PUSH2 0x10A0 JUMPI DUP2 SWAP1 POP JUMPDEST PUSH2 0x10B4 PUSH2 0x10AC DUP6 PUSH2 0xF74 JUMP JUMPDEST DUP4 ADD DUP3 PUSH2 0x1054 JUMP JUMPDEST POP POP JUMPDEST POP POP POP JUMP JUMPDEST PUSH0 DUP3 DUP3 SHR SWAP1 POP SWAP3 SWAP2 POP POP JUMP JUMPDEST PUSH0 PUSH2 0x10D7 PUSH0 NOT DUP5 PUSH1 0x8 MUL PUSH2 0x10BC JUMP JUMPDEST NOT DUP1 DUP4 AND SWAP2 POP POP SWAP3 SWAP2 POP POP JUMP JUMPDEST PUSH0 PUSH2 0x10EF DUP4 DUP4 PUSH2 0x10C8 JUMP JUMPDEST SWAP2 POP DUP3 PUSH1 0x2 MUL DUP3 OR SWAP1 POP SWAP3 SWAP2 POP POP JUMP JUMPDEST PUSH2 0x1108 DUP3 PUSH2 0x8DF JUMP JUMPDEST PUSH8 0xFFFFFFFFFFFFFFFF DUP2 GT ISZERO PUSH2 0x1121 JUMPI PUSH2 0x1120 PUSH2 0xC1F JUMP JUMPDEST JUMPDEST PUSH2 0x112B DUP3 SLOAD PUSH2 0xE62 JUMP JUMPDEST PUSH2 0x1136 DUP3 DUP3 DUP6 PUSH2 0x1076 JUMP JUMPDEST PUSH0 PUSH1 0x20 SWAP1 POP PUSH1 0x1F DUP4 GT PUSH1 0x1 DUP2 EQ PUSH2 0x1167 JUMPI PUSH0 DUP5 ISZERO PUSH2 0x1155 JUMPI DUP3 DUP8 ADD MLOAD SWAP1 POP JUMPDEST PUSH2 0x115F DUP6 DUP3 PUSH2 0x10E4 JUMP JUMPDEST DUP7 SSTORE POP PUSH2 0x11C6 JUMP JUMPDEST PUSH1 0x1F NOT DUP5 AND PUSH2 0x1175 DUP7 PUSH2 0xF62 JUMP JUMPDEST PUSH0 JUMPDEST DUP3 DUP2 LT ISZERO PUSH2 0x119C JUMPI DUP5 DUP10 ADD MLOAD DUP3 SSTORE PUSH1 0x1 DUP3 ADD SWAP2 POP PUSH1 0x20 DUP6 ADD SWAP5 POP PUSH1 0x20 DUP2 ADD SWAP1 POP PUSH2 0x1177 JUMP JUMPDEST DUP7 DUP4 LT ISZERO PUSH2 0x11B9 JUMPI DUP5 DUP10 ADD MLOAD PUSH2 0x11B5 PUSH1 0x1F DUP10 AND DUP3 PUSH2 0x10C8 JUMP JUMPDEST DUP4 SSTORE POP JUMPDEST PUSH1 0x1 PUSH1 0x2 DUP9 MUL ADD DUP9 SSTORE POP POP POP JUMPDEST POP POP POP POP POP POP JUMP JUMPDEST PUSH32 0x4E487B7100000000000000000000000000000000000000000000000000000000 PUSH0 MSTORE PUSH1 0x32 PUSH1 0x4 MSTORE PUSH1 0x24 PUSH0 REVERT INVALID LOG2 PUSH5 0x6970667358 0x22 SLT KECCAK256 0x26 0xB9 JUMP LOG2 0xE2 DUP13 CREATE2 0xBB 0xD0 PUSH26 0xE4533A80D9088337D302CA9A29A2895E572305213C2964736F6C PUSH4 0x4300081A STOP CALLER "
				},
				"gasEstimates": {
					"creation": {
						"codeDepositCost": "931400",
						"executionCost": "49497",
						"totalCost": "980897"
					},
					"external": {
						"MAX_TWEET_LENGTH()": "2463",
						"changeTweetLength(uint16)": "26887",
						"createtweet(string)": "infinite",
						"getAllTweets(address)": "infinite",
						"getTweet(uint256)": "infinite",
						"owner()": "2530",
						"tweets(address,uint256)": "infinite"
					}
				},
				"methodIdentifiers": {
					"MAX_TWEET_LENGTH()": "6eb10797",
					"changeTweetLength(uint16)": "58bfa4ab",
					"createtweet(string)": "b8e4f167",
					"getAllTweets(address)": "12e7ee1c",
					"getTweet(uint256)": "c3ad5ecb",
					"owner()": "8da5cb5b",
					"tweets(address,uint256)": "05a1b4a9"
				}
			},
			"storageLayout": {
				"storage": [
					{
						"astId": 4,
						"contract": "contracts/Twitter.sol:Twitter",
						"label": "MAX_TWEET_LENGTH",
						"offset": 0,
						"slot": "0",
						"type": "t_uint16"
					},
					{
						"astId": 19,
						"contract": "contracts/Twitter.sol:Twitter",
						"label": "tweets",
						"offset": 0,
						"slot": "1",
						"type": "t_mapping(t_address,t_array(t_struct(Tweet)13_storage)dyn_storage)"
					},
					{
						"astId": 21,
						"contract": "contracts/Twitter.sol:Twitter",
						"label": "owner",
						"offset": 0,
						"slot": "2",
						"type": "t_address"
					}
				],
				"types": {
					"t_address": {
						"encoding": "inplace",
						"label": "address",
						"numberOfBytes": "20"
					},
					"t_array(t_struct(Tweet)13_storage)dyn_storage": {
						"base": "t_struct(Tweet)13_storage",
						"encoding": "dynamic_array",
						"label": "struct Twitter.Tweet[]",
						"numberOfBytes": "32"
					},
					"t_mapping(t_address,t_array(t_struct(Tweet)13_storage)dyn_storage)": {
						"encoding": "mapping",
						"key": "t_address",
						"label": "mapping(address => struct Twitter.Tweet[])",
						"numberOfBytes": "32",
						"value": "t_array(t_struct(Tweet)13_storage)dyn_storage"
					},
					"t_string_storage": {
						"encoding": "bytes",
						"label": "string",
						"numberOfBytes": "32"
					},
					"t_struct(Tweet)13_storage": {
						"encoding": "inplace",
						"label": "struct Twitter.Tweet",
						"members": [
							{
								"astId": 6,
								"contract": "contracts/Twitter.sol:Twitter",
								"label": "author",
								"offset": 0,
								"slot": "0",
								"type": "t_address"
							},
							{
								"astId": 8,
								"contract": "contracts/Twitter.sol:Twitter",
								"label": "content",
								"offset": 0,
								"slot": "1",
								"type": "t_string_storage"
							},
							{
								"astId": 10,
								"contract": "contracts/Twitter.sol:Twitter",
								"label": "timestamp",
								"offset": 0,
								"slot": "2",
								"type": "t_uint256"
							},
							{
								"astId": 12,
								"contract": "contracts/Twitter.sol:Twitter",
								"label": "likes",
								"offset": 0,
								"slot": "3",
								"type": "t_uint256"
							}
						],
						"numberOfBytes": "128"
					},
					"t_uint16": {
						"encoding": "inplace",
						"label": "uint16",
						"numberOfBytes": "2"
					},
					"t_uint256": {
						"encoding": "inplace",
						"label": "uint256",
						"numberOfBytes": "32"
					}
				}
			},
			"userdoc": {
				"kind": "user",
				"methods": {},
				"version": 1
			}
		}
	}
}