{
	"contracts/Twitter.sol": {
		"Twitter": {
			"abi": [
				{
					"inputs": [
						{
							"internalType": "address",
							"name": "_profileContract",
							"type": "address"
						}
					],
					"stateMutability": "nonpayable",
					"type": "constructor"
				},
				{
					"inputs": [
						{
							"internalType": "address",
							"name": "owner",
							"type": "address"
						}
					],
					"name": "OwnableInvalidOwner",
					"type": "error"
				},
				{
					"inputs": [
						{
							"internalType": "address",
							"name": "account",
							"type": "address"
						}
					],
					"name": "OwnableUnauthorizedAccount",
					"type": "error"
				},
				{
					"anonymous": false,
					"inputs": [
						{
							"indexed": true,
							"internalType": "address",
							"name": "previousOwner",
							"type": "address"
						},
						{
							"indexed": true,
							"internalType": "address",
							"name": "newOwner",
							"type": "address"
						}
					],
					"name": "OwnershipTransferred",
					"type": "event"
				},
				{
					"anonymous": false,
					"inputs": [
						{
							"indexed": false,
							"internalType": "uint256",
							"name": "id",
							"type": "uint256"
						},
						{
							"indexed": false,
							"internalType": "address",
							"name": "author",
							"type": "address"
						},
						{
							"indexed": false,
							"internalType": "string",
							"name": "content",
							"type": "string"
						},
						{
							"indexed": false,
							"internalType": "uint256",
							"name": "timestamp",
							"type": "uint256"
						}
					],
					"name": "TweetCreated",
					"type": "event"
				},
				{
					"anonymous": false,
					"inputs": [
						{
							"indexed": false,
							"internalType": "address",
							"name": "liker",
							"type": "address"
						},
						{
							"indexed": false,
							"internalType": "address",
							"name": "tweetAuthor",
							"type": "address"
						},
						{
							"indexed": false,
							"internalType": "uint256",
							"name": "tweetId",
							"type": "uint256"
						},
						{
							"indexed": false,
							"internalType": "uint256",
							"name": "newLikeCount",
							"type": "uint256"
						}
					],
					"name": "TweetLiked",
					"type": "event"
				},
				{
					"anonymous": false,
					"inputs": [
						{
							"indexed": false,
							"internalType": "address",
							"name": "unliker",
							"type": "address"
						},
						{
							"indexed": false,
							"internalType": "address",
							"name": "tweetAuthor",
							"type": "address"
						},
						{
							"indexed": false,
							"internalType": "uint256",
							"name": "tweetId",
							"type": "uint256"
						},
						{
							"indexed": false,
							"internalType": "uint256",
							"name": "newLikeCount",
							"type": "uint256"
						}
					],
					"name": "TweetUnliked",
					"type": "event"
				},
				{
					"inputs": [],
					"name": "MAX_TWEET_LENGTH",
					"outputs": [
						{
							"internalType": "uint16",
							"name": "",
							"type": "uint16"
						}
					],
					"stateMutability": "view",
					"type": "function"
				},
				{
					"inputs": [
						{
							"internalType": "uint16",
							"name": "newTweetLength",
							"type": "uint16"
						}
					],
					"name": "changeTweetLength",
					"outputs": [],
					"stateMutability": "nonpayable",
					"type": "function"
				},
				{
					"inputs": [
						{
							"internalType": "string",
							"name": "_tweet",
							"type": "string"
						}
					],
					"name": "createtweet",
					"outputs": [],
					"stateMutability": "nonpayable",
					"type": "function"
				},
				{
					"inputs": [
						{
							"internalType": "address",
							"name": "_owner",
							"type": "address"
						}
					],
					"name": "getAllTweets",
					"outputs": [
						{
							"components": [
								{
									"internalType": "uint256",
									"name": "id",
									"type": "uint256"
								},
								{
									"internalType": "address",
									"name": "author",
									"type": "address"
								},
								{
									"internalType": "string",
									"name": "content",
									"type": "string"
								},
								{
									"internalType": "uint256",
									"name": "timestamp",
									"type": "uint256"
								},
								{
									"internalType": "uint256",
									"name": "likes",
									"type": "uint256"
								}
							],
							"internalType": "struct Twitter.Tweet[]",
							"name": "",
							"type": "tuple[]"
						}
					],
					"stateMutability": "view",
					"type": "function"
				},
				{
					"inputs": [
						{
							"internalType": "address",
							"name": "_author",
							"type": "address"
						}
					],
					"name": "getTotalLikes",
					"outputs": [
						{
							"internalType": "uint256",
							"name": "",
							"type": "uint256"
						}
					],
					"stateMutability": "view",
					"type": "function"
				},
				{
					"inputs": [
						{
							"internalType": "uint256",
							"name": "_i",
							"type": "uint256"
						}
					],
					"name": "getTweet",
					"outputs": [
						{
							"components": [
								{
									"internalType": "uint256",
									"name": "id",
									"type": "uint256"
								},
								{
									"internalType": "address",
									"name": "author",
									"type": "address"
								},
								{
									"internalType": "string",
									"name": "content",
									"type": "string"
								},
								{
									"internalType": "uint256",
									"name": "timestamp",
									"type": "uint256"
								},
								{
									"internalType": "uint256",
									"name": "likes",
									"type": "uint256"
								}
							],
							"internalType": "struct Twitter.Tweet",
							"name": "",
							"type": "tuple"
						}
					],
					"stateMutability": "view",
					"type": "function"
				},
				{
					"inputs": [
						{
							"internalType": "address",
							"name": "author",
							"type": "address"
						},
						{
							"internalType": "uint256",
							"name": "id",
							"type": "uint256"
						}
					],
					"name": "likeTweet",
					"outputs": [],
					"stateMutability": "nonpayable",
					"type": "function"
				},
				{
					"inputs": [],
					"name": "owner",
					"outputs": [
						{
							"internalType": "address",
							"name": "",
							"type": "address"
						}
					],
					"stateMutability": "view",
					"type": "function"
				},
				{
					"inputs": [],
					"name": "renounceOwnership",
					"outputs": [],
					"stateMutability": "nonpayable",
					"type": "function"
				},
				{
					"inputs": [
						{
							"internalType": "address",
							"name": "newOwner",
							"type": "address"
						}
					],
					"name": "transferOwnership",
					"outputs": [],
					"stateMutability": "nonpayable",
					"type": "function"
				},
				{
					"inputs": [
						{
							"internalType": "address",
							"name": "",
							"type": "address"
						},
						{
							"internalType": "uint256",
							"name": "",
							"type": "uint256"
						}
					],
					"name": "tweets",
					"outputs": [
						{
							"internalType": "uint256",
							"name": "id",
							"type": "uint256"
						},
						{
							"internalType": "address",
							"name": "author",
							"type": "address"
						},
						{
							"internalType": "string",
							"name": "content",
							"type": "string"
						},
						{
							"internalType": "uint256",
							"name": "timestamp",
							"type": "uint256"
						},
						{
							"internalType": "uint256",
							"name": "likes",
							"type": "uint256"
						}
					],
					"stateMutability": "view",
					"type": "function"
				},
				{
					"inputs": [
						{
							"internalType": "address",
							"name": "author",
							"type": "address"
						},
						{
							"internalType": "uint256",
							"name": "id",
							"type": "uint256"
						}
					],
					"name": "unlikeTweet",
					"outputs": [],
					"stateMutability": "nonpayable",
					"type": "function"
				}
			],
			"devdoc": {
				"errors": {
					"OwnableInvalidOwner(address)": [
						{
							"details": "The owner is not a valid owner account. (eg. `address(0)`)"
						}
					],
					"OwnableUnauthorizedAccount(address)": [
						{
							"details": "The caller account is not authorized to perform an operation."
						}
					]
				},
				"kind": "dev",
				"methods": {
					"owner()": {
						"details": "Returns the address of the current owner."
					},
					"renounceOwnership()": {
						"details": "Leaves the contract without owner. It will not be possible to call `onlyOwner` functions. Can only be called by the current owner. NOTE: Renouncing ownership will leave the contract without an owner, thereby disabling any functionality that is only available to the owner."
					},
					"transferOwnership(address)": {
						"details": "Transfers ownership of the contract to a new account (`newOwner`). Can only be called by the current owner."
					}
				},
				"version": 1
			},
			"evm": {
				"assembly": "    /* \"contracts/Twitter.sol\":313:3007  contract Twitter is Ownable{... */\n  mstore(0x40, 0x80)\n    /* \"contracts/Twitter.sol\":379:382  280 */\n  0x0118\n    /* \"contracts/Twitter.sol\":346:382  uint16 public MAX_TWEET_LENGTH = 280 */\n  0x00\n  exp(0x0100, 0x14)\n  dup2\n  sload\n  dup2\n  0xffff\n  mul\n  not\n  and\n  swap1\n  dup4\n  0xffff\n  and\n  mul\n  or\n  swap1\n  sstore\n  pop\n    /* \"contracts/Twitter.sol\":1133:1251  constructor(address _profileContract) Ownable(msg.sender){... */\n  callvalue\n  dup1\n  iszero\n  tag_1\n  jumpi\n  0x00\n  dup1\n  revert\ntag_1:\n  pop\n  mload(0x40)\n  sub(codesize, bytecodeSize)\n  dup1\n  bytecodeSize\n  dup4\n  codecopy\n  dup2\n  dup2\n  add\n  0x40\n  mstore\n  dup2\n  add\n  swap1\n  tag_2\n  swap2\n  swap1\n  tag_3\n  jump\t// in\ntag_2:\n    /* \"contracts/Twitter.sol\":1179:1189  msg.sender */\n  caller\n    /* \"@openzeppelin/contracts/access/Ownable.sol\":1297:1298  0 */\n  0x00\n    /* \"@openzeppelin/contracts/access/Ownable.sol\":1273:1299  initialOwner == address(0) */\n  0xffffffffffffffffffffffffffffffffffffffff\n  and\n    /* \"@openzeppelin/contracts/access/Ownable.sol\":1273:1285  initialOwner */\n  dup2\n    /* \"@openzeppelin/contracts/access/Ownable.sol\":1273:1299  initialOwner == address(0) */\n  0xffffffffffffffffffffffffffffffffffffffff\n  and\n  sub\n    /* \"@openzeppelin/contracts/access/Ownable.sol\":1269:1364  if (initialOwner == address(0)) {... */\n  tag_7\n  jumpi\n    /* \"@openzeppelin/contracts/access/Ownable.sol\":1350:1351  0 */\n  0x00\n    /* \"@openzeppelin/contracts/access/Ownable.sol\":1322:1353  OwnableInvalidOwner(address(0)) */\n  mload(0x40)\n  0x1e4fbdf700000000000000000000000000000000000000000000000000000000\n  dup2\n  mstore\n  0x04\n  add\n  tag_8\n  swap2\n  swap1\n  tag_9\n  jump\t// in\ntag_8:\n  mload(0x40)\n  dup1\n  swap2\n  sub\n  swap1\n  revert\n    /* \"@openzeppelin/contracts/access/Ownable.sol\":1269:1364  if (initialOwner == address(0)) {... */\ntag_7:\n    /* \"@openzeppelin/contracts/access/Ownable.sol\":1373:1405  _transferOwnership(initialOwner) */\n  tag_10\n    /* \"@openzeppelin/contracts/access/Ownable.sol\":1392:1404  initialOwner */\n  dup2\n    /* \"@openzeppelin/contracts/access/Ownable.sol\":1373:1391  _transferOwnership */\n  shl(0x20, tag_11)\n    /* \"@openzeppelin/contracts/access/Ownable.sol\":1373:1405  _transferOwnership(initialOwner) */\n  0x20\n  shr\n  jump\t// in\ntag_10:\n    /* \"@openzeppelin/contracts/access/Ownable.sol\":1225:1412  constructor(address initialOwner) {... */\n  pop\n    /* \"contracts/Twitter.sol\":1227:1243  _profileContract */\n  dup1\n    /* \"contracts/Twitter.sol\":1200:1215  profileContract */\n  0x02\n  0x00\n    /* \"contracts/Twitter.sol\":1200:1244  profileContract = IProfile(_profileContract) */\n  0x0100\n  exp\n  dup2\n  sload\n  dup2\n  0xffffffffffffffffffffffffffffffffffffffff\n  mul\n  not\n  and\n  swap1\n  dup4\n  0xffffffffffffffffffffffffffffffffffffffff\n  and\n  mul\n  or\n  swap1\n  sstore\n  pop\n    /* \"contracts/Twitter.sol\":1133:1251  constructor(address _profileContract) Ownable(msg.sender){... */\n  pop\n    /* \"contracts/Twitter.sol\":313:3007  contract Twitter is Ownable{... */\n  jump(tag_13)\n    /* \"@openzeppelin/contracts/access/Ownable.sol\":2912:3099  function _transferOwnership(address newOwner) internal virtual {... */\ntag_11:\n    /* \"@openzeppelin/contracts/access/Ownable.sol\":2985:3001  address oldOwner */\n  0x00\n    /* \"@openzeppelin/contracts/access/Ownable.sol\":3004:3010  _owner */\n  dup1\n  0x00\n  swap1\n  sload\n  swap1\n  0x0100\n  exp\n  swap1\n  div\n  0xffffffffffffffffffffffffffffffffffffffff\n  and\n    /* \"@openzeppelin/contracts/access/Ownable.sol\":2985:3010  address oldOwner = _owner */\n  swap1\n  pop\n    /* \"@openzeppelin/contracts/access/Ownable.sol\":3029:3037  newOwner */\n  dup2\n    /* \"@openzeppelin/contracts/access/Ownable.sol\":3020:3026  _owner */\n  0x00\n  dup1\n    /* \"@openzeppelin/contracts/access/Ownable.sol\":3020:3037  _owner = newOwner */\n  0x0100\n  exp\n  dup2\n  sload\n  dup2\n  0xffffffffffffffffffffffffffffffffffffffff\n  mul\n  not\n  and\n  swap1\n  dup4\n  0xffffffffffffffffffffffffffffffffffffffff\n  and\n  mul\n  or\n  swap1\n  sstore\n  pop\n    /* \"@openzeppelin/contracts/access/Ownable.sol\":3083:3091  newOwner */\n  dup2\n    /* \"@openzeppelin/contracts/access/Ownable.sol\":3052:3092  OwnershipTransferred(oldOwner, newOwner) */\n  0xffffffffffffffffffffffffffffffffffffffff\n  and\n    /* \"@openzeppelin/contracts/access/Ownable.sol\":3073:3081  oldOwner */\n  dup2\n    /* \"@openzeppelin/contracts/access/Ownable.sol\":3052:3092  OwnershipTransferred(oldOwner, newOwner) */\n  0xffffffffffffffffffffffffffffffffffffffff\n  and\n  0x8be0079c531659141344cd1fd0a4f28419497f9722a3daafe3b4186f6b6457e0\n  mload(0x40)\n  mload(0x40)\n  dup1\n  swap2\n  sub\n  swap1\n  log3\n    /* \"@openzeppelin/contracts/access/Ownable.sol\":2975:3099  {... */\n  pop\n    /* \"@openzeppelin/contracts/access/Ownable.sol\":2912:3099  function _transferOwnership(address newOwner) internal virtual {... */\n  pop\n  jump\t// out\n    /* \"#utility.yul\":88:205   */\ntag_16:\n    /* \"#utility.yul\":197:198   */\n  0x00\n    /* \"#utility.yul\":194:195   */\n  dup1\n    /* \"#utility.yul\":187:199   */\n  revert\n    /* \"#utility.yul\":334:460   */\ntag_18:\n    /* \"#utility.yul\":371:378   */\n  0x00\n    /* \"#utility.yul\":411:453   */\n  0xffffffffffffffffffffffffffffffffffffffff\n    /* \"#utility.yul\":404:409   */\n  dup3\n    /* \"#utility.yul\":400:454   */\n  and\n    /* \"#utility.yul\":389:454   */\n  swap1\n  pop\n    /* \"#utility.yul\":334:460   */\n  swap2\n  swap1\n  pop\n  jump\t// out\n    /* \"#utility.yul\":466:562   */\ntag_19:\n    /* \"#utility.yul\":503:510   */\n  0x00\n    /* \"#utility.yul\":532:556   */\n  tag_29\n    /* \"#utility.yul\":550:555   */\n  dup3\n    /* \"#utility.yul\":532:556   */\n  tag_18\n  jump\t// in\ntag_29:\n    /* \"#utility.yul\":521:556   */\n  swap1\n  pop\n    /* \"#utility.yul\":466:562   */\n  swap2\n  swap1\n  pop\n  jump\t// out\n    /* \"#utility.yul\":568:690   */\ntag_20:\n    /* \"#utility.yul\":641:665   */\n  tag_31\n    /* \"#utility.yul\":659:664   */\n  dup2\n    /* \"#utility.yul\":641:665   */\n  tag_19\n  jump\t// in\ntag_31:\n    /* \"#utility.yul\":634:639   */\n  dup2\n    /* \"#utility.yul\":631:666   */\n  eq\n    /* \"#utility.yul\":621:684   */\n  tag_32\n  jumpi\n    /* \"#utility.yul\":680:681   */\n  0x00\n    /* \"#utility.yul\":677:678   */\n  dup1\n    /* \"#utility.yul\":670:682   */\n  revert\n    /* \"#utility.yul\":621:684   */\ntag_32:\n    /* \"#utility.yul\":568:690   */\n  pop\n  jump\t// out\n    /* \"#utility.yul\":696:839   */\ntag_21:\n    /* \"#utility.yul\":753:758   */\n  0x00\n    /* \"#utility.yul\":784:790   */\n  dup2\n    /* \"#utility.yul\":778:791   */\n  mload\n    /* \"#utility.yul\":769:791   */\n  swap1\n  pop\n    /* \"#utility.yul\":800:833   */\n  tag_34\n    /* \"#utility.yul\":827:832   */\n  dup2\n    /* \"#utility.yul\":800:833   */\n  tag_20\n  jump\t// in\ntag_34:\n    /* \"#utility.yul\":696:839   */\n  swap3\n  swap2\n  pop\n  pop\n  jump\t// out\n    /* \"#utility.yul\":845:1196   */\ntag_3:\n    /* \"#utility.yul\":915:921   */\n  0x00\n    /* \"#utility.yul\":964:966   */\n  0x20\n    /* \"#utility.yul\":952:961   */\n  dup3\n    /* \"#utility.yul\":943:950   */\n  dup5\n    /* \"#utility.yul\":939:962   */\n  sub\n    /* \"#utility.yul\":935:967   */\n  slt\n    /* \"#utility.yul\":932:1051   */\n  iszero\n  tag_36\n  jumpi\n    /* \"#utility.yul\":970:1049   */\n  tag_37\n  tag_16\n  jump\t// in\ntag_37:\n    /* \"#utility.yul\":932:1051   */\ntag_36:\n    /* \"#utility.yul\":1090:1091   */\n  0x00\n    /* \"#utility.yul\":1115:1179   */\n  tag_38\n    /* \"#utility.yul\":1171:1178   */\n  dup5\n    /* \"#utility.yul\":1162:1168   */\n  dup3\n    /* \"#utility.yul\":1151:1160   */\n  dup6\n    /* \"#utility.yul\":1147:1169   */\n  add\n    /* \"#utility.yul\":1115:1179   */\n  tag_21\n  jump\t// in\ntag_38:\n    /* \"#utility.yul\":1105:1179   */\n  swap2\n  pop\n    /* \"#utility.yul\":1061:1189   */\n  pop\n    /* \"#utility.yul\":845:1196   */\n  swap3\n  swap2\n  pop\n  pop\n  jump\t// out\n    /* \"#utility.yul\":1202:1320   */\ntag_22:\n    /* \"#utility.yul\":1289:1313   */\n  tag_40\n    /* \"#utility.yul\":1307:1312   */\n  dup2\n    /* \"#utility.yul\":1289:1313   */\n  tag_19\n  jump\t// in\ntag_40:\n    /* \"#utility.yul\":1284:1287   */\n  dup3\n    /* \"#utility.yul\":1277:1314   */\n  mstore\n    /* \"#utility.yul\":1202:1320   */\n  pop\n  pop\n  jump\t// out\n    /* \"#utility.yul\":1326:1548   */\ntag_9:\n    /* \"#utility.yul\":1419:1423   */\n  0x00\n    /* \"#utility.yul\":1457:1459   */\n  0x20\n    /* \"#utility.yul\":1446:1455   */\n  dup3\n    /* \"#utility.yul\":1442:1460   */\n  add\n    /* \"#utility.yul\":1434:1460   */\n  swap1\n  pop\n    /* \"#utility.yul\":1470:1541   */\n  tag_42\n    /* \"#utility.yul\":1538:1539   */\n  0x00\n    /* \"#utility.yul\":1527:1536   */\n  dup4\n    /* \"#utility.yul\":1523:1540   */\n  add\n    /* \"#utility.yul\":1514:1520   */\n  dup5\n    /* \"#utility.yul\":1470:1541   */\n  tag_22\n  jump\t// in\ntag_42:\n    /* \"#utility.yul\":1326:1548   */\n  swap3\n  swap2\n  pop\n  pop\n  jump\t// out\n    /* \"contracts/Twitter.sol\":313:3007  contract Twitter is Ownable{... */\ntag_13:\n  dataSize(sub_0)\n  dup1\n  dataOffset(sub_0)\n  0x00\n  codecopy\n  0x00\n  return\nstop\n\nsub_0: assembly {\n        /* \"contracts/Twitter.sol\":313:3007  contract Twitter is Ownable{... */\n      mstore(0x40, 0x80)\n      callvalue\n      dup1\n      iszero\n      tag_1\n      jumpi\n      0x00\n      dup1\n      revert\n    tag_1:\n      pop\n      jumpi(tag_2, lt(calldatasize, 0x04))\n      shr(0xe0, calldataload(0x00))\n      dup1\n      0x715018a6\n      gt\n      tag_15\n      jumpi\n      dup1\n      0x715018a6\n      eq\n      tag_9\n      jumpi\n      dup1\n      0x820785cc\n      eq\n      tag_10\n      jumpi\n      dup1\n      0x8da5cb5b\n      eq\n      tag_11\n      jumpi\n      dup1\n      0xb8e4f167\n      eq\n      tag_12\n      jumpi\n      dup1\n      0xc3ad5ecb\n      eq\n      tag_13\n      jumpi\n      dup1\n      0xf2fde38b\n      eq\n      tag_14\n      jumpi\n      jump(tag_2)\n    tag_15:\n      dup1\n      0x05a1b4a9\n      eq\n      tag_3\n      jumpi\n      dup1\n      0x12e7ee1c\n      eq\n      tag_4\n      jumpi\n      dup1\n      0x3d9b569f\n      eq\n      tag_5\n      jumpi\n      dup1\n      0x58bfa4ab\n      eq\n      tag_6\n      jumpi\n      dup1\n      0x63378216\n      eq\n      tag_7\n      jumpi\n      dup1\n      0x6eb10797\n      eq\n      tag_8\n      jumpi\n    tag_2:\n      0x00\n      dup1\n      revert\n        /* \"contracts/Twitter.sol\":533:574  mapping(address => Tweet[]) public tweets */\n    tag_3:\n      tag_16\n      0x04\n      dup1\n      calldatasize\n      sub\n      dup2\n      add\n      swap1\n      tag_17\n      swap2\n      swap1\n      tag_18\n      jump\t// in\n    tag_17:\n      tag_19\n      jump\t// in\n    tag_16:\n      mload(0x40)\n      tag_20\n      swap6\n      swap5\n      swap4\n      swap3\n      swap2\n      swap1\n      tag_21\n      jump\t// in\n    tag_20:\n      mload(0x40)\n      dup1\n      swap2\n      sub\n      swap1\n      return\n        /* \"contracts/Twitter.sol\":2894:3005  function getAllTweets(address _owner) public view returns(Tweet[] memory){... */\n    tag_4:\n      tag_22\n      0x04\n      dup1\n      calldatasize\n      sub\n      dup2\n      add\n      swap1\n      tag_23\n      swap2\n      swap1\n      tag_24\n      jump\t// in\n    tag_23:\n      tag_25\n      jump\t// in\n    tag_22:\n      mload(0x40)\n      tag_26\n      swap2\n      swap1\n      tag_27\n      jump\t// in\n    tag_26:\n      mload(0x40)\n      dup1\n      swap2\n      sub\n      swap1\n      return\n        /* \"contracts/Twitter.sol\":2439:2773  function unlikeTweet(address author, uint256 id) external onlyRegistered {... */\n    tag_5:\n      tag_28\n      0x04\n      dup1\n      calldatasize\n      sub\n      dup2\n      add\n      swap1\n      tag_29\n      swap2\n      swap1\n      tag_18\n      jump\t// in\n    tag_29:\n      tag_30\n      jump\t// in\n    tag_28:\n      stop\n        /* \"contracts/Twitter.sol\":1257:1374  function changeTweetLength(uint16 newTweetLength) public onlyOwner {... */\n    tag_6:\n      tag_31\n      0x04\n      dup1\n      calldatasize\n      sub\n      dup2\n      add\n      swap1\n      tag_32\n      swap2\n      swap1\n      tag_33\n      jump\t// in\n    tag_32:\n      tag_34\n      jump\t// in\n    tag_31:\n      stop\n        /* \"contracts/Twitter.sol\":2172:2433  function likeTweet(address author, uint256 id) external onlyRegistered {... */\n    tag_7:\n      tag_35\n      0x04\n      dup1\n      calldatasize\n      sub\n      dup2\n      add\n      swap1\n      tag_36\n      swap2\n      swap1\n      tag_18\n      jump\t// in\n    tag_36:\n      tag_37\n      jump\t// in\n    tag_35:\n      stop\n        /* \"contracts/Twitter.sol\":346:382  uint16 public MAX_TWEET_LENGTH = 280 */\n    tag_8:\n      tag_38\n      tag_39\n      jump\t// in\n    tag_38:\n      mload(0x40)\n      tag_40\n      swap2\n      swap1\n      tag_41\n      jump\t// in\n    tag_40:\n      mload(0x40)\n      dup1\n      swap2\n      sub\n      swap1\n      return\n        /* \"@openzeppelin/contracts/access/Ownable.sol\":2293:2394  function renounceOwnership() public virtual onlyOwner {... */\n    tag_9:\n      tag_42\n      tag_43\n      jump\t// in\n    tag_42:\n      stop\n        /* \"contracts/Twitter.sol\":1380:1648  function getTotalLikes(address _author) external view returns (uint256) {... */\n    tag_10:\n      tag_44\n      0x04\n      dup1\n      calldatasize\n      sub\n      dup2\n      add\n      swap1\n      tag_45\n      swap2\n      swap1\n      tag_24\n      jump\t// in\n    tag_45:\n      tag_46\n      jump\t// in\n    tag_44:\n      mload(0x40)\n      tag_47\n      swap2\n      swap1\n      tag_48\n      jump\t// in\n    tag_47:\n      mload(0x40)\n      dup1\n      swap2\n      sub\n      swap1\n      return\n        /* \"@openzeppelin/contracts/access/Ownable.sol\":1638:1723  function owner() public view virtual returns (address) {... */\n    tag_11:\n      tag_49\n      tag_50\n      jump\t// in\n    tag_49:\n      mload(0x40)\n      tag_51\n      swap2\n      swap1\n      tag_52\n      jump\t// in\n    tag_51:\n      mload(0x40)\n      dup1\n      swap2\n      sub\n      swap1\n      return\n        /* \"contracts/Twitter.sol\":1654:2166  function createtweet(string memory _tweet) public onlyRegistered {... */\n    tag_12:\n      tag_53\n      0x04\n      dup1\n      calldatasize\n      sub\n      dup2\n      add\n      swap1\n      tag_54\n      swap2\n      swap1\n      tag_55\n      jump\t// in\n    tag_54:\n      tag_56\n      jump\t// in\n    tag_53:\n      stop\n        /* \"contracts/Twitter.sol\":2779:2888  function getTweet(uint256 _i) public view returns(Tweet memory){... */\n    tag_13:\n      tag_57\n      0x04\n      dup1\n      calldatasize\n      sub\n      dup2\n      add\n      swap1\n      tag_58\n      swap2\n      swap1\n      tag_59\n      jump\t// in\n    tag_58:\n      tag_60\n      jump\t// in\n    tag_57:\n      mload(0x40)\n      tag_61\n      swap2\n      swap1\n      tag_62\n      jump\t// in\n    tag_61:\n      mload(0x40)\n      dup1\n      swap2\n      sub\n      swap1\n      return\n        /* \"@openzeppelin/contracts/access/Ownable.sol\":2543:2758  function transferOwnership(address newOwner) public virtual onlyOwner {... */\n    tag_14:\n      tag_63\n      0x04\n      dup1\n      calldatasize\n      sub\n      dup2\n      add\n      swap1\n      tag_64\n      swap2\n      swap1\n      tag_24\n      jump\t// in\n    tag_64:\n      tag_65\n      jump\t// in\n    tag_63:\n      stop\n        /* \"contracts/Twitter.sol\":533:574  mapping(address => Tweet[]) public tweets */\n    tag_19:\n      mstore(0x20, 0x01)\n      dup2\n      0x00\n      mstore\n      keccak256(0x00, 0x40)\n      dup2\n      dup2\n      sload\n      dup2\n      lt\n      tag_66\n      jumpi\n      0x00\n      dup1\n      revert\n    tag_66:\n      swap1\n      0x00\n      mstore\n      keccak256(0x00, 0x20)\n      swap1\n      0x05\n      mul\n      add\n      0x00\n      swap2\n      pop\n      swap2\n      pop\n      pop\n      dup1\n      0x00\n      add\n      sload\n      swap1\n      dup1\n      0x01\n      add\n      0x00\n      swap1\n      sload\n      swap1\n      0x0100\n      exp\n      swap1\n      div\n      0xffffffffffffffffffffffffffffffffffffffff\n      and\n      swap1\n      dup1\n      0x02\n      add\n      dup1\n      sload\n      tag_68\n      swap1\n      tag_69\n      jump\t// in\n    tag_68:\n      dup1\n      0x1f\n      add\n      0x20\n      dup1\n      swap2\n      div\n      mul\n      0x20\n      add\n      mload(0x40)\n      swap1\n      dup2\n      add\n      0x40\n      mstore\n      dup1\n      swap3\n      swap2\n      swap1\n      dup2\n      dup2\n      mstore\n      0x20\n      add\n      dup3\n      dup1\n      sload\n      tag_70\n      swap1\n      tag_69\n      jump\t// in\n    tag_70:\n      dup1\n      iszero\n      tag_71\n      jumpi\n      dup1\n      0x1f\n      lt\n      tag_72\n      jumpi\n      0x0100\n      dup1\n      dup4\n      sload\n      div\n      mul\n      dup4\n      mstore\n      swap2\n      0x20\n      add\n      swap2\n      jump(tag_71)\n    tag_72:\n      dup3\n      add\n      swap2\n      swap1\n      0x00\n      mstore\n      keccak256(0x00, 0x20)\n      swap1\n    tag_73:\n      dup2\n      sload\n      dup2\n      mstore\n      swap1\n      0x01\n      add\n      swap1\n      0x20\n      add\n      dup1\n      dup4\n      gt\n      tag_73\n      jumpi\n      dup3\n      swap1\n      sub\n      0x1f\n      and\n      dup3\n      add\n      swap2\n    tag_71:\n      pop\n      pop\n      pop\n      pop\n      pop\n      swap1\n      dup1\n      0x03\n      add\n      sload\n      swap1\n      dup1\n      0x04\n      add\n      sload\n      swap1\n      pop\n      dup6\n      jump\t// out\n        /* \"contracts/Twitter.sol\":2894:3005  function getAllTweets(address _owner) public view returns(Tweet[] memory){... */\n    tag_25:\n        /* \"contracts/Twitter.sol\":2952:2966  Tweet[] memory */\n      0x60\n        /* \"contracts/Twitter.sol\":2984:2990  tweets */\n      0x01\n        /* \"contracts/Twitter.sol\":2984:2998  tweets[_owner] */\n      0x00\n        /* \"contracts/Twitter.sol\":2991:2997  _owner */\n      dup4\n        /* \"contracts/Twitter.sol\":2984:2998  tweets[_owner] */\n      0xffffffffffffffffffffffffffffffffffffffff\n      and\n      0xffffffffffffffffffffffffffffffffffffffff\n      and\n      dup2\n      mstore\n      0x20\n      add\n      swap1\n      dup2\n      mstore\n      0x20\n      add\n      0x00\n      keccak256\n        /* \"contracts/Twitter.sol\":2977:2998  return tweets[_owner] */\n      dup1\n      sload\n      dup1\n      0x20\n      mul\n      0x20\n      add\n      mload(0x40)\n      swap1\n      dup2\n      add\n      0x40\n      mstore\n      dup1\n      swap3\n      swap2\n      swap1\n      dup2\n      dup2\n      mstore\n      0x20\n      add\n      0x00\n      swap1\n    tag_75:\n      dup3\n      dup3\n      lt\n      iszero\n      tag_76\n      jumpi\n      dup4\n      dup3\n      swap1\n      0x00\n      mstore\n      keccak256(0x00, 0x20)\n      swap1\n      0x05\n      mul\n      add\n      mload(0x40)\n      dup1\n      0xa0\n      add\n      0x40\n      mstore\n      swap1\n      dup2\n      0x00\n      dup3\n      add\n      sload\n      dup2\n      mstore\n      0x20\n      add\n      0x01\n      dup3\n      add\n      0x00\n      swap1\n      sload\n      swap1\n      0x0100\n      exp\n      swap1\n      div\n      0xffffffffffffffffffffffffffffffffffffffff\n      and\n      0xffffffffffffffffffffffffffffffffffffffff\n      and\n      0xffffffffffffffffffffffffffffffffffffffff\n      and\n      dup2\n      mstore\n      0x20\n      add\n      0x02\n      dup3\n      add\n      dup1\n      sload\n      tag_78\n      swap1\n      tag_69\n      jump\t// in\n    tag_78:\n      dup1\n      0x1f\n      add\n      0x20\n      dup1\n      swap2\n      div\n      mul\n      0x20\n      add\n      mload(0x40)\n      swap1\n      dup2\n      add\n      0x40\n      mstore\n      dup1\n      swap3\n      swap2\n      swap1\n      dup2\n      dup2\n      mstore\n      0x20\n      add\n      dup3\n      dup1\n      sload\n      tag_79\n      swap1\n      tag_69\n      jump\t// in\n    tag_79:\n      dup1\n      iszero\n      tag_80\n      jumpi\n      dup1\n      0x1f\n      lt\n      tag_81\n      jumpi\n      0x0100\n      dup1\n      dup4\n      sload\n      div\n      mul\n      dup4\n      mstore\n      swap2\n      0x20\n      add\n      swap2\n      jump(tag_80)\n    tag_81:\n      dup3\n      add\n      swap2\n      swap1\n      0x00\n      mstore\n      keccak256(0x00, 0x20)\n      swap1\n    tag_82:\n      dup2\n      sload\n      dup2\n      mstore\n      swap1\n      0x01\n      add\n      swap1\n      0x20\n      add\n      dup1\n      dup4\n      gt\n      tag_82\n      jumpi\n      dup3\n      swap1\n      sub\n      0x1f\n      and\n      dup3\n      add\n      swap2\n    tag_80:\n      pop\n      pop\n      pop\n      pop\n      pop\n      dup2\n      mstore\n      0x20\n      add\n      0x03\n      dup3\n      add\n      sload\n      dup2\n      mstore\n      0x20\n      add\n      0x04\n      dup3\n      add\n      sload\n      dup2\n      mstore\n      pop\n      pop\n      dup2\n      mstore\n      0x20\n      add\n      swap1\n      0x01\n      add\n      swap1\n      jump(tag_75)\n    tag_76:\n      pop\n      pop\n      pop\n      pop\n      swap1\n      pop\n        /* \"contracts/Twitter.sol\":2894:3005  function getAllTweets(address _owner) public view returns(Tweet[] memory){... */\n      swap2\n      swap1\n      pop\n      jump\t// out\n        /* \"contracts/Twitter.sol\":2439:2773  function unlikeTweet(address author, uint256 id) external onlyRegistered {... */\n    tag_30:\n        /* \"contracts/Twitter.sol\":938:981  IProfile.UserProfile memory userProfileTemp */\n      0x00\n        /* \"contracts/Twitter.sol\":984:999  profileContract */\n      0x02\n      0x00\n      swap1\n      sload\n      swap1\n      0x0100\n      exp\n      swap1\n      div\n      0xffffffffffffffffffffffffffffffffffffffff\n      and\n        /* \"contracts/Twitter.sol\":984:1010  profileContract.getProfile */\n      0xffffffffffffffffffffffffffffffffffffffff\n      and\n      0x0f53a470\n        /* \"contracts/Twitter.sol\":1011:1021  msg.sender */\n      caller\n        /* \"contracts/Twitter.sol\":984:1022  profileContract.getProfile(msg.sender) */\n      mload(0x40)\n      dup3\n      0xffffffff\n      and\n      0xe0\n      shl\n      dup2\n      mstore\n      0x04\n      add\n      tag_84\n      swap2\n      swap1\n      tag_52\n      jump\t// in\n    tag_84:\n      0x00\n      mload(0x40)\n      dup1\n      dup4\n      sub\n      dup2\n      dup7\n      gas\n      staticcall\n      iszero\n      dup1\n      iszero\n      tag_86\n      jumpi\n      returndatasize\n      0x00\n      dup1\n      returndatacopy\n      revert(0x00, returndatasize)\n    tag_86:\n      pop\n      pop\n      pop\n      pop\n      mload(0x40)\n      returndatasize\n      0x00\n      dup3\n      returndatacopy\n      returndatasize\n      not(0x1f)\n      0x1f\n      dup3\n      add\n      and\n      dup3\n      add\n      dup1\n      0x40\n      mstore\n      pop\n      dup2\n      add\n      swap1\n      tag_87\n      swap2\n      swap1\n      tag_88\n      jump\t// in\n    tag_87:\n        /* \"contracts/Twitter.sol\":938:1022  IProfile.UserProfile memory userProfileTemp = profileContract.getProfile(msg.sender) */\n      swap1\n      pop\n        /* \"contracts/Twitter.sol\":1084:1085  0 */\n      0x00\n        /* \"contracts/Twitter.sol\":1046:1061  userProfileTemp */\n      dup2\n        /* \"contracts/Twitter.sol\":1046:1073  userProfileTemp.displayName */\n      0x00\n      add\n      mload\n        /* \"contracts/Twitter.sol\":1040:1081  bytes(userProfileTemp.displayName).length */\n      mload\n        /* \"contracts/Twitter.sol\":1040:1085  bytes(userProfileTemp.displayName).length > 0 */\n      gt\n        /* \"contracts/Twitter.sol\":1032:1109  require(bytes(userProfileTemp.displayName).length > 0, \"USER NOT REGISTERED\") */\n      tag_89\n      jumpi\n      mload(0x40)\n      0x08c379a000000000000000000000000000000000000000000000000000000000\n      dup2\n      mstore\n      0x04\n      add\n      tag_90\n      swap1\n      tag_91\n      jump\t// in\n    tag_90:\n      mload(0x40)\n      dup1\n      swap2\n      sub\n      swap1\n      revert\n    tag_89:\n        /* \"contracts/Twitter.sol\":2555:2557  id */\n      dup2\n        /* \"contracts/Twitter.sol\":2530:2536  tweets */\n      0x01\n        /* \"contracts/Twitter.sol\":2530:2544  tweets[author] */\n      0x00\n        /* \"contracts/Twitter.sol\":2537:2543  author */\n      dup6\n        /* \"contracts/Twitter.sol\":2530:2544  tweets[author] */\n      0xffffffffffffffffffffffffffffffffffffffff\n      and\n      0xffffffffffffffffffffffffffffffffffffffff\n      and\n      dup2\n      mstore\n      0x20\n      add\n      swap1\n      dup2\n      mstore\n      0x20\n      add\n      0x00\n      keccak256\n        /* \"contracts/Twitter.sol\":2545:2547  id */\n      dup4\n        /* \"contracts/Twitter.sol\":2530:2548  tweets[author][id] */\n      dup2\n      sload\n      dup2\n      lt\n      tag_93\n      jumpi\n      tag_94\n      tag_95\n      jump\t// in\n    tag_94:\n    tag_93:\n      swap1\n      0x00\n      mstore\n      keccak256(0x00, 0x20)\n      swap1\n      0x05\n      mul\n      add\n        /* \"contracts/Twitter.sol\":2530:2551  tweets[author][id].id */\n      0x00\n      add\n      sload\n        /* \"contracts/Twitter.sol\":2530:2557  tweets[author][id].id == id */\n      eq\n        /* \"contracts/Twitter.sol\":2522:2582  require(tweets[author][id].id == id, \"Tweet Does Not Exist\") */\n      tag_97\n      jumpi\n      mload(0x40)\n      0x08c379a000000000000000000000000000000000000000000000000000000000\n      dup2\n      mstore\n      0x04\n      add\n      tag_98\n      swap1\n      tag_99\n      jump\t// in\n    tag_98:\n      mload(0x40)\n      dup1\n      swap2\n      sub\n      swap1\n      revert\n    tag_97:\n        /* \"contracts/Twitter.sol\":2627:2628  0 */\n      0x00\n        /* \"contracts/Twitter.sol\":2600:2606  tweets */\n      0x01\n        /* \"contracts/Twitter.sol\":2600:2614  tweets[author] */\n      0x00\n        /* \"contracts/Twitter.sol\":2607:2613  author */\n      dup6\n        /* \"contracts/Twitter.sol\":2600:2614  tweets[author] */\n      0xffffffffffffffffffffffffffffffffffffffff\n      and\n      0xffffffffffffffffffffffffffffffffffffffff\n      and\n      dup2\n      mstore\n      0x20\n      add\n      swap1\n      dup2\n      mstore\n      0x20\n      add\n      0x00\n      keccak256\n        /* \"contracts/Twitter.sol\":2615:2617  id */\n      dup4\n        /* \"contracts/Twitter.sol\":2600:2618  tweets[author][id] */\n      dup2\n      sload\n      dup2\n      lt\n      tag_100\n      jumpi\n      tag_101\n      tag_95\n      jump\t// in\n    tag_101:\n    tag_100:\n      swap1\n      0x00\n      mstore\n      keccak256(0x00, 0x20)\n      swap1\n      0x05\n      mul\n      add\n        /* \"contracts/Twitter.sol\":2600:2624  tweets[author][id].likes */\n      0x04\n      add\n      sload\n        /* \"contracts/Twitter.sol\":2600:2628  tweets[author][id].likes > 0 */\n      gt\n        /* \"contracts/Twitter.sol\":2592:2651  require(tweets[author][id].likes > 0, \"Tweet Has No Likes\") */\n      tag_103\n      jumpi\n      mload(0x40)\n      0x08c379a000000000000000000000000000000000000000000000000000000000\n      dup2\n      mstore\n      0x04\n      add\n      tag_104\n      swap1\n      tag_105\n      jump\t// in\n    tag_104:\n      mload(0x40)\n      dup1\n      swap2\n      sub\n      swap1\n      revert\n    tag_103:\n        /* \"contracts/Twitter.sol\":2662:2668  tweets */\n      0x01\n        /* \"contracts/Twitter.sol\":2662:2676  tweets[author] */\n      0x00\n        /* \"contracts/Twitter.sol\":2669:2675  author */\n      dup5\n        /* \"contracts/Twitter.sol\":2662:2676  tweets[author] */\n      0xffffffffffffffffffffffffffffffffffffffff\n      and\n      0xffffffffffffffffffffffffffffffffffffffff\n      and\n      dup2\n      mstore\n      0x20\n      add\n      swap1\n      dup2\n      mstore\n      0x20\n      add\n      0x00\n      keccak256\n        /* \"contracts/Twitter.sol\":2677:2679  id */\n      dup3\n        /* \"contracts/Twitter.sol\":2662:2680  tweets[author][id] */\n      dup2\n      sload\n      dup2\n      lt\n      tag_106\n      jumpi\n      tag_107\n      tag_95\n      jump\t// in\n    tag_107:\n    tag_106:\n      swap1\n      0x00\n      mstore\n      keccak256(0x00, 0x20)\n      swap1\n      0x05\n      mul\n      add\n        /* \"contracts/Twitter.sol\":2662:2686  tweets[author][id].likes */\n      0x04\n      add\n      0x00\n        /* \"contracts/Twitter.sol\":2662:2688  tweets[author][id].likes-- */\n      dup2\n      sload\n      dup1\n      swap3\n      swap2\n      swap1\n      tag_109\n      swap1\n      tag_110\n      jump\t// in\n    tag_109:\n      swap2\n      swap1\n      pop\n      sstore\n      pop\n        /* \"contracts/Twitter.sol\":2704:2766  TweetUnliked(msg.sender, author, id, tweets[author][id].likes) */\n      0x762c2616349603ac16eba0de8e6141b79129a07ab63bd99e0a80b3a471716943\n        /* \"contracts/Twitter.sol\":2717:2727  msg.sender */\n      caller\n        /* \"contracts/Twitter.sol\":2729:2735  author */\n      dup5\n        /* \"contracts/Twitter.sol\":2737:2739  id */\n      dup5\n        /* \"contracts/Twitter.sol\":2741:2747  tweets */\n      0x01\n        /* \"contracts/Twitter.sol\":2741:2755  tweets[author] */\n      0x00\n        /* \"contracts/Twitter.sol\":2748:2754  author */\n      dup9\n        /* \"contracts/Twitter.sol\":2741:2755  tweets[author] */\n      0xffffffffffffffffffffffffffffffffffffffff\n      and\n      0xffffffffffffffffffffffffffffffffffffffff\n      and\n      dup2\n      mstore\n      0x20\n      add\n      swap1\n      dup2\n      mstore\n      0x20\n      add\n      0x00\n      keccak256\n        /* \"contracts/Twitter.sol\":2756:2758  id */\n      dup7\n        /* \"contracts/Twitter.sol\":2741:2759  tweets[author][id] */\n      dup2\n      sload\n      dup2\n      lt\n      tag_111\n      jumpi\n      tag_112\n      tag_95\n      jump\t// in\n    tag_112:\n    tag_111:\n      swap1\n      0x00\n      mstore\n      keccak256(0x00, 0x20)\n      swap1\n      0x05\n      mul\n      add\n        /* \"contracts/Twitter.sol\":2741:2765  tweets[author][id].likes */\n      0x04\n      add\n      sload\n        /* \"contracts/Twitter.sol\":2704:2766  TweetUnliked(msg.sender, author, id, tweets[author][id].likes) */\n      mload(0x40)\n      tag_114\n      swap5\n      swap4\n      swap3\n      swap2\n      swap1\n      tag_115\n      jump\t// in\n    tag_114:\n      mload(0x40)\n      dup1\n      swap2\n      sub\n      swap1\n      log1\n        /* \"contracts/Twitter.sol\":928:1127  {... */\n      pop\n        /* \"contracts/Twitter.sol\":2439:2773  function unlikeTweet(address author, uint256 id) external onlyRegistered {... */\n      pop\n      pop\n      jump\t// out\n        /* \"contracts/Twitter.sol\":1257:1374  function changeTweetLength(uint16 newTweetLength) public onlyOwner {... */\n    tag_34:\n        /* \"@openzeppelin/contracts/access/Ownable.sol\":1531:1544  _checkOwner() */\n      tag_117\n        /* \"@openzeppelin/contracts/access/Ownable.sol\":1531:1542  _checkOwner */\n      tag_118\n        /* \"@openzeppelin/contracts/access/Ownable.sol\":1531:1544  _checkOwner() */\n      jump\t// in\n    tag_117:\n        /* \"contracts/Twitter.sol\":1353:1367  newTweetLength */\n      dup1\n        /* \"contracts/Twitter.sol\":1334:1350  MAX_TWEET_LENGTH */\n      0x00\n      0x14\n        /* \"contracts/Twitter.sol\":1334:1367  MAX_TWEET_LENGTH = newTweetLength */\n      0x0100\n      exp\n      dup2\n      sload\n      dup2\n      0xffff\n      mul\n      not\n      and\n      swap1\n      dup4\n      0xffff\n      and\n      mul\n      or\n      swap1\n      sstore\n      pop\n        /* \"contracts/Twitter.sol\":1257:1374  function changeTweetLength(uint16 newTweetLength) public onlyOwner {... */\n      pop\n      jump\t// out\n        /* \"contracts/Twitter.sol\":2172:2433  function likeTweet(address author, uint256 id) external onlyRegistered {... */\n    tag_37:\n        /* \"contracts/Twitter.sol\":938:981  IProfile.UserProfile memory userProfileTemp */\n      0x00\n        /* \"contracts/Twitter.sol\":984:999  profileContract */\n      0x02\n      0x00\n      swap1\n      sload\n      swap1\n      0x0100\n      exp\n      swap1\n      div\n      0xffffffffffffffffffffffffffffffffffffffff\n      and\n        /* \"contracts/Twitter.sol\":984:1010  profileContract.getProfile */\n      0xffffffffffffffffffffffffffffffffffffffff\n      and\n      0x0f53a470\n        /* \"contracts/Twitter.sol\":1011:1021  msg.sender */\n      caller\n        /* \"contracts/Twitter.sol\":984:1022  profileContract.getProfile(msg.sender) */\n      mload(0x40)\n      dup3\n      0xffffffff\n      and\n      0xe0\n      shl\n      dup2\n      mstore\n      0x04\n      add\n      tag_121\n      swap2\n      swap1\n      tag_52\n      jump\t// in\n    tag_121:\n      0x00\n      mload(0x40)\n      dup1\n      dup4\n      sub\n      dup2\n      dup7\n      gas\n      staticcall\n      iszero\n      dup1\n      iszero\n      tag_123\n      jumpi\n      returndatasize\n      0x00\n      dup1\n      returndatacopy\n      revert(0x00, returndatasize)\n    tag_123:\n      pop\n      pop\n      pop\n      pop\n      mload(0x40)\n      returndatasize\n      0x00\n      dup3\n      returndatacopy\n      returndatasize\n      not(0x1f)\n      0x1f\n      dup3\n      add\n      and\n      dup3\n      add\n      dup1\n      0x40\n      mstore\n      pop\n      dup2\n      add\n      swap1\n      tag_124\n      swap2\n      swap1\n      tag_88\n      jump\t// in\n    tag_124:\n        /* \"contracts/Twitter.sol\":938:1022  IProfile.UserProfile memory userProfileTemp = profileContract.getProfile(msg.sender) */\n      swap1\n      pop\n        /* \"contracts/Twitter.sol\":1084:1085  0 */\n      0x00\n        /* \"contracts/Twitter.sol\":1046:1061  userProfileTemp */\n      dup2\n        /* \"contracts/Twitter.sol\":1046:1073  userProfileTemp.displayName */\n      0x00\n      add\n      mload\n        /* \"contracts/Twitter.sol\":1040:1081  bytes(userProfileTemp.displayName).length */\n      mload\n        /* \"contracts/Twitter.sol\":1040:1085  bytes(userProfileTemp.displayName).length > 0 */\n      gt\n        /* \"contracts/Twitter.sol\":1032:1109  require(bytes(userProfileTemp.displayName).length > 0, \"USER NOT REGISTERED\") */\n      tag_125\n      jumpi\n      mload(0x40)\n      0x08c379a000000000000000000000000000000000000000000000000000000000\n      dup2\n      mstore\n      0x04\n      add\n      tag_126\n      swap1\n      tag_91\n      jump\t// in\n    tag_126:\n      mload(0x40)\n      dup1\n      swap2\n      sub\n      swap1\n      revert\n    tag_125:\n        /* \"contracts/Twitter.sol\":2286:2288  id */\n      dup2\n        /* \"contracts/Twitter.sol\":2261:2267  tweets */\n      0x01\n        /* \"contracts/Twitter.sol\":2261:2275  tweets[author] */\n      0x00\n        /* \"contracts/Twitter.sol\":2268:2274  author */\n      dup6\n        /* \"contracts/Twitter.sol\":2261:2275  tweets[author] */\n      0xffffffffffffffffffffffffffffffffffffffff\n      and\n      0xffffffffffffffffffffffffffffffffffffffff\n      and\n      dup2\n      mstore\n      0x20\n      add\n      swap1\n      dup2\n      mstore\n      0x20\n      add\n      0x00\n      keccak256\n        /* \"contracts/Twitter.sol\":2276:2278  id */\n      dup4\n        /* \"contracts/Twitter.sol\":2261:2279  tweets[author][id] */\n      dup2\n      sload\n      dup2\n      lt\n      tag_128\n      jumpi\n      tag_129\n      tag_95\n      jump\t// in\n    tag_129:\n    tag_128:\n      swap1\n      0x00\n      mstore\n      keccak256(0x00, 0x20)\n      swap1\n      0x05\n      mul\n      add\n        /* \"contracts/Twitter.sol\":2261:2282  tweets[author][id].id */\n      0x00\n      add\n      sload\n        /* \"contracts/Twitter.sol\":2261:2288  tweets[author][id].id == id */\n      eq\n        /* \"contracts/Twitter.sol\":2253:2313  require(tweets[author][id].id == id, \"Tweet Does Not Exist\") */\n      tag_131\n      jumpi\n      mload(0x40)\n      0x08c379a000000000000000000000000000000000000000000000000000000000\n      dup2\n      mstore\n      0x04\n      add\n      tag_132\n      swap1\n      tag_99\n      jump\t// in\n    tag_132:\n      mload(0x40)\n      dup1\n      swap2\n      sub\n      swap1\n      revert\n    tag_131:\n        /* \"contracts/Twitter.sol\":2324:2330  tweets */\n      0x01\n        /* \"contracts/Twitter.sol\":2324:2338  tweets[author] */\n      0x00\n        /* \"contracts/Twitter.sol\":2331:2337  author */\n      dup5\n        /* \"contracts/Twitter.sol\":2324:2338  tweets[author] */\n      0xffffffffffffffffffffffffffffffffffffffff\n      and\n      0xffffffffffffffffffffffffffffffffffffffff\n      and\n      dup2\n      mstore\n      0x20\n      add\n      swap1\n      dup2\n      mstore\n      0x20\n      add\n      0x00\n      keccak256\n        /* \"contracts/Twitter.sol\":2339:2341  id */\n      dup3\n        /* \"contracts/Twitter.sol\":2324:2342  tweets[author][id] */\n      dup2\n      sload\n      dup2\n      lt\n      tag_133\n      jumpi\n      tag_134\n      tag_95\n      jump\t// in\n    tag_134:\n    tag_133:\n      swap1\n      0x00\n      mstore\n      keccak256(0x00, 0x20)\n      swap1\n      0x05\n      mul\n      add\n        /* \"contracts/Twitter.sol\":2324:2348  tweets[author][id].likes */\n      0x04\n      add\n      0x00\n        /* \"contracts/Twitter.sol\":2324:2350  tweets[author][id].likes++ */\n      dup2\n      sload\n      dup1\n      swap3\n      swap2\n      swap1\n      tag_136\n      swap1\n      tag_137\n      jump\t// in\n    tag_136:\n      swap2\n      swap1\n      pop\n      sstore\n      pop\n        /* \"contracts/Twitter.sol\":2366:2426  TweetLiked(msg.sender, author, id, tweets[author][id].likes) */\n      0xe8a76fc0f16d11a00d1e93b689b63d76cf60af914dd3d915375dc41d01a0c3c8\n        /* \"contracts/Twitter.sol\":2377:2387  msg.sender */\n      caller\n        /* \"contracts/Twitter.sol\":2389:2395  author */\n      dup5\n        /* \"contracts/Twitter.sol\":2397:2399  id */\n      dup5\n        /* \"contracts/Twitter.sol\":2401:2407  tweets */\n      0x01\n        /* \"contracts/Twitter.sol\":2401:2415  tweets[author] */\n      0x00\n        /* \"contracts/Twitter.sol\":2408:2414  author */\n      dup9\n        /* \"contracts/Twitter.sol\":2401:2415  tweets[author] */\n      0xffffffffffffffffffffffffffffffffffffffff\n      and\n      0xffffffffffffffffffffffffffffffffffffffff\n      and\n      dup2\n      mstore\n      0x20\n      add\n      swap1\n      dup2\n      mstore\n      0x20\n      add\n      0x00\n      keccak256\n        /* \"contracts/Twitter.sol\":2416:2418  id */\n      dup7\n        /* \"contracts/Twitter.sol\":2401:2419  tweets[author][id] */\n      dup2\n      sload\n      dup2\n      lt\n      tag_138\n      jumpi\n      tag_139\n      tag_95\n      jump\t// in\n    tag_139:\n    tag_138:\n      swap1\n      0x00\n      mstore\n      keccak256(0x00, 0x20)\n      swap1\n      0x05\n      mul\n      add\n        /* \"contracts/Twitter.sol\":2401:2425  tweets[author][id].likes */\n      0x04\n      add\n      sload\n        /* \"contracts/Twitter.sol\":2366:2426  TweetLiked(msg.sender, author, id, tweets[author][id].likes) */\n      mload(0x40)\n      tag_141\n      swap5\n      swap4\n      swap3\n      swap2\n      swap1\n      tag_115\n      jump\t// in\n    tag_141:\n      mload(0x40)\n      dup1\n      swap2\n      sub\n      swap1\n      log1\n        /* \"contracts/Twitter.sol\":928:1127  {... */\n      pop\n        /* \"contracts/Twitter.sol\":2172:2433  function likeTweet(address author, uint256 id) external onlyRegistered {... */\n      pop\n      pop\n      jump\t// out\n        /* \"contracts/Twitter.sol\":346:382  uint16 public MAX_TWEET_LENGTH = 280 */\n    tag_39:\n      0x00\n      0x14\n      swap1\n      sload\n      swap1\n      0x0100\n      exp\n      swap1\n      div\n      0xffff\n      and\n      dup2\n      jump\t// out\n        /* \"@openzeppelin/contracts/access/Ownable.sol\":2293:2394  function renounceOwnership() public virtual onlyOwner {... */\n    tag_43:\n        /* \"@openzeppelin/contracts/access/Ownable.sol\":1531:1544  _checkOwner() */\n      tag_143\n        /* \"@openzeppelin/contracts/access/Ownable.sol\":1531:1542  _checkOwner */\n      tag_118\n        /* \"@openzeppelin/contracts/access/Ownable.sol\":1531:1544  _checkOwner() */\n      jump\t// in\n    tag_143:\n        /* \"@openzeppelin/contracts/access/Ownable.sol\":2357:2387  _transferOwnership(address(0)) */\n      tag_145\n        /* \"@openzeppelin/contracts/access/Ownable.sol\":2384:2385  0 */\n      0x00\n        /* \"@openzeppelin/contracts/access/Ownable.sol\":2357:2375  _transferOwnership */\n      tag_146\n        /* \"@openzeppelin/contracts/access/Ownable.sol\":2357:2387  _transferOwnership(address(0)) */\n      jump\t// in\n    tag_145:\n        /* \"@openzeppelin/contracts/access/Ownable.sol\":2293:2394  function renounceOwnership() public virtual onlyOwner {... */\n      jump\t// out\n        /* \"contracts/Twitter.sol\":1380:1648  function getTotalLikes(address _author) external view returns (uint256) {... */\n    tag_46:\n        /* \"contracts/Twitter.sol\":1443:1450  uint256 */\n      0x00\n        /* \"contracts/Twitter.sol\":1462:1480  uint256 totalLikes */\n      dup1\n        /* \"contracts/Twitter.sol\":1504:1513  uint256 i */\n      0x00\n        /* \"contracts/Twitter.sol\":1499:1614  for (uint256 i = 0; i < tweets[_author].length; i++){... */\n    tag_148:\n        /* \"contracts/Twitter.sol\":1523:1529  tweets */\n      0x01\n        /* \"contracts/Twitter.sol\":1523:1538  tweets[_author] */\n      0x00\n        /* \"contracts/Twitter.sol\":1530:1537  _author */\n      dup6\n        /* \"contracts/Twitter.sol\":1523:1538  tweets[_author] */\n      0xffffffffffffffffffffffffffffffffffffffff\n      and\n      0xffffffffffffffffffffffffffffffffffffffff\n      and\n      dup2\n      mstore\n      0x20\n      add\n      swap1\n      dup2\n      mstore\n      0x20\n      add\n      0x00\n      keccak256\n        /* \"contracts/Twitter.sol\":1523:1545  tweets[_author].length */\n      dup1\n      sload\n      swap1\n      pop\n        /* \"contracts/Twitter.sol\":1519:1520  i */\n      dup2\n        /* \"contracts/Twitter.sol\":1519:1545  i < tweets[_author].length */\n      lt\n        /* \"contracts/Twitter.sol\":1499:1614  for (uint256 i = 0; i < tweets[_author].length; i++){... */\n      iszero\n      tag_149\n      jumpi\n        /* \"contracts/Twitter.sol\":1579:1585  tweets */\n      0x01\n        /* \"contracts/Twitter.sol\":1579:1594  tweets[_author] */\n      0x00\n        /* \"contracts/Twitter.sol\":1586:1593  _author */\n      dup6\n        /* \"contracts/Twitter.sol\":1579:1594  tweets[_author] */\n      0xffffffffffffffffffffffffffffffffffffffff\n      and\n      0xffffffffffffffffffffffffffffffffffffffff\n      and\n      dup2\n      mstore\n      0x20\n      add\n      swap1\n      dup2\n      mstore\n      0x20\n      add\n      0x00\n      keccak256\n        /* \"contracts/Twitter.sol\":1595:1596  i */\n      dup2\n        /* \"contracts/Twitter.sol\":1579:1597  tweets[_author][i] */\n      dup2\n      sload\n      dup2\n      lt\n      tag_151\n      jumpi\n      tag_152\n      tag_95\n      jump\t// in\n    tag_152:\n    tag_151:\n      swap1\n      0x00\n      mstore\n      keccak256(0x00, 0x20)\n      swap1\n      0x05\n      mul\n      add\n        /* \"contracts/Twitter.sol\":1579:1603  tweets[_author][i].likes */\n      0x04\n      add\n      sload\n        /* \"contracts/Twitter.sol\":1565:1603  totalLikes += tweets[_author][i].likes */\n      dup3\n      tag_154\n      swap2\n      swap1\n      tag_155\n      jump\t// in\n    tag_154:\n      swap2\n      pop\n        /* \"contracts/Twitter.sol\":1547:1550  i++ */\n      dup1\n      dup1\n      0x01\n      add\n      swap2\n      pop\n      pop\n        /* \"contracts/Twitter.sol\":1499:1614  for (uint256 i = 0; i < tweets[_author].length; i++){... */\n      jump(tag_148)\n    tag_149:\n      pop\n        /* \"contracts/Twitter.sol\":1631:1641  totalLikes */\n      dup1\n        /* \"contracts/Twitter.sol\":1624:1641  return totalLikes */\n      swap2\n      pop\n      pop\n        /* \"contracts/Twitter.sol\":1380:1648  function getTotalLikes(address _author) external view returns (uint256) {... */\n      swap2\n      swap1\n      pop\n      jump\t// out\n        /* \"@openzeppelin/contracts/access/Ownable.sol\":1638:1723  function owner() public view virtual returns (address) {... */\n    tag_50:\n        /* \"@openzeppelin/contracts/access/Ownable.sol\":1684:1691  address */\n      0x00\n        /* \"@openzeppelin/contracts/access/Ownable.sol\":1710:1716  _owner */\n      dup1\n      0x00\n      swap1\n      sload\n      swap1\n      0x0100\n      exp\n      swap1\n      div\n      0xffffffffffffffffffffffffffffffffffffffff\n      and\n        /* \"@openzeppelin/contracts/access/Ownable.sol\":1703:1716  return _owner */\n      swap1\n      pop\n        /* \"@openzeppelin/contracts/access/Ownable.sol\":1638:1723  function owner() public view virtual returns (address) {... */\n      swap1\n      jump\t// out\n        /* \"contracts/Twitter.sol\":1654:2166  function createtweet(string memory _tweet) public onlyRegistered {... */\n    tag_56:\n        /* \"contracts/Twitter.sol\":938:981  IProfile.UserProfile memory userProfileTemp */\n      0x00\n        /* \"contracts/Twitter.sol\":984:999  profileContract */\n      0x02\n      0x00\n      swap1\n      sload\n      swap1\n      0x0100\n      exp\n      swap1\n      div\n      0xffffffffffffffffffffffffffffffffffffffff\n      and\n        /* \"contracts/Twitter.sol\":984:1010  profileContract.getProfile */\n      0xffffffffffffffffffffffffffffffffffffffff\n      and\n      0x0f53a470\n        /* \"contracts/Twitter.sol\":1011:1021  msg.sender */\n      caller\n        /* \"contracts/Twitter.sol\":984:1022  profileContract.getProfile(msg.sender) */\n      mload(0x40)\n      dup3\n      0xffffffff\n      and\n      0xe0\n      shl\n      dup2\n      mstore\n      0x04\n      add\n      tag_158\n      swap2\n      swap1\n      tag_52\n      jump\t// in\n    tag_158:\n      0x00\n      mload(0x40)\n      dup1\n      dup4\n      sub\n      dup2\n      dup7\n      gas\n      staticcall\n      iszero\n      dup1\n      iszero\n      tag_160\n      jumpi\n      returndatasize\n      0x00\n      dup1\n      returndatacopy\n      revert(0x00, returndatasize)\n    tag_160:\n      pop\n      pop\n      pop\n      pop\n      mload(0x40)\n      returndatasize\n      0x00\n      dup3\n      returndatacopy\n      returndatasize\n      not(0x1f)\n      0x1f\n      dup3\n      add\n      and\n      dup3\n      add\n      dup1\n      0x40\n      mstore\n      pop\n      dup2\n      add\n      swap1\n      tag_161\n      swap2\n      swap1\n      tag_88\n      jump\t// in\n    tag_161:\n        /* \"contracts/Twitter.sol\":938:1022  IProfile.UserProfile memory userProfileTemp = profileContract.getProfile(msg.sender) */\n      swap1\n      pop\n        /* \"contracts/Twitter.sol\":1084:1085  0 */\n      0x00\n        /* \"contracts/Twitter.sol\":1046:1061  userProfileTemp */\n      dup2\n        /* \"contracts/Twitter.sol\":1046:1073  userProfileTemp.displayName */\n      0x00\n      add\n      mload\n        /* \"contracts/Twitter.sol\":1040:1081  bytes(userProfileTemp.displayName).length */\n      mload\n        /* \"contracts/Twitter.sol\":1040:1085  bytes(userProfileTemp.displayName).length > 0 */\n      gt\n        /* \"contracts/Twitter.sol\":1032:1109  require(bytes(userProfileTemp.displayName).length > 0, \"USER NOT REGISTERED\") */\n      tag_162\n      jumpi\n      mload(0x40)\n      0x08c379a000000000000000000000000000000000000000000000000000000000\n      dup2\n      mstore\n      0x04\n      add\n      tag_163\n      swap1\n      tag_91\n      jump\t// in\n    tag_163:\n      mload(0x40)\n      dup1\n      swap2\n      sub\n      swap1\n      revert\n    tag_162:\n        /* \"contracts/Twitter.sol\":1761:1777  MAX_TWEET_LENGTH */\n      0x00\n      0x14\n      swap1\n      sload\n      swap1\n      0x0100\n      exp\n      swap1\n      div\n      0xffff\n      and\n        /* \"contracts/Twitter.sol\":1737:1777  bytes(_tweet).length <= MAX_TWEET_LENGTH */\n      0xffff\n      and\n        /* \"contracts/Twitter.sol\":1743:1749  _tweet */\n      dup3\n        /* \"contracts/Twitter.sol\":1737:1757  bytes(_tweet).length */\n      mload\n        /* \"contracts/Twitter.sol\":1737:1777  bytes(_tweet).length <= MAX_TWEET_LENGTH */\n      gt\n      iszero\n        /* \"contracts/Twitter.sol\":1729:1801  require(bytes(_tweet).length <= MAX_TWEET_LENGTH, \"You shall not pass!\") */\n      tag_165\n      jumpi\n      mload(0x40)\n      0x08c379a000000000000000000000000000000000000000000000000000000000\n      dup2\n      mstore\n      0x04\n      add\n      tag_166\n      swap1\n      tag_167\n      jump\t// in\n    tag_166:\n      mload(0x40)\n      dup1\n      swap2\n      sub\n      swap1\n      revert\n    tag_165:\n        /* \"contracts/Twitter.sol\":1812:1833  Tweet memory newTweet */\n      0x00\n        /* \"contracts/Twitter.sol\":1836:2019  Tweet({... */\n      mload(0x40)\n      dup1\n      0xa0\n      add\n      0x40\n      mstore\n      dup1\n        /* \"contracts/Twitter.sol\":1860:1866  tweets */\n      0x01\n        /* \"contracts/Twitter.sol\":1860:1878  tweets[msg.sender] */\n      0x00\n        /* \"contracts/Twitter.sol\":1867:1877  msg.sender */\n      caller\n        /* \"contracts/Twitter.sol\":1860:1878  tweets[msg.sender] */\n      0xffffffffffffffffffffffffffffffffffffffff\n      and\n      0xffffffffffffffffffffffffffffffffffffffff\n      and\n      dup2\n      mstore\n      0x20\n      add\n      swap1\n      dup2\n      mstore\n      0x20\n      add\n      0x00\n      keccak256\n        /* \"contracts/Twitter.sol\":1860:1885  tweets[msg.sender].length */\n      dup1\n      sload\n      swap1\n      pop\n        /* \"contracts/Twitter.sol\":1836:2019  Tweet({... */\n      dup2\n      mstore\n      0x20\n      add\n        /* \"contracts/Twitter.sol\":1907:1917  msg.sender */\n      caller\n        /* \"contracts/Twitter.sol\":1836:2019  Tweet({... */\n      0xffffffffffffffffffffffffffffffffffffffff\n      and\n      dup2\n      mstore\n      0x20\n      add\n        /* \"contracts/Twitter.sol\":1940:1946  _tweet */\n      dup5\n        /* \"contracts/Twitter.sol\":1836:2019  Tweet({... */\n      dup2\n      mstore\n      0x20\n      add\n        /* \"contracts/Twitter.sol\":1971:1986  block.timestamp */\n      timestamp\n        /* \"contracts/Twitter.sol\":1836:2019  Tweet({... */\n      dup2\n      mstore\n      0x20\n      add\n        /* \"contracts/Twitter.sol\":2007:2008  0 */\n      0x00\n        /* \"contracts/Twitter.sol\":1836:2019  Tweet({... */\n      dup2\n      mstore\n      pop\n        /* \"contracts/Twitter.sol\":1812:2019  Tweet memory newTweet = Tweet({... */\n      swap1\n      pop\n        /* \"contracts/Twitter.sol\":2030:2036  tweets */\n      0x01\n        /* \"contracts/Twitter.sol\":2030:2048  tweets[msg.sender] */\n      0x00\n        /* \"contracts/Twitter.sol\":2037:2047  msg.sender */\n      caller\n        /* \"contracts/Twitter.sol\":2030:2048  tweets[msg.sender] */\n      0xffffffffffffffffffffffffffffffffffffffff\n      and\n      0xffffffffffffffffffffffffffffffffffffffff\n      and\n      dup2\n      mstore\n      0x20\n      add\n      swap1\n      dup2\n      mstore\n      0x20\n      add\n      0x00\n      keccak256\n        /* \"contracts/Twitter.sol\":2054:2062  newTweet */\n      dup2\n        /* \"contracts/Twitter.sol\":2030:2063  tweets[msg.sender].push(newTweet) */\n      swap1\n      dup1\n      0x01\n      dup2\n      sload\n      add\n      dup1\n      dup3\n      sstore\n      dup1\n      swap2\n      pop\n      pop\n      0x01\n      swap1\n      sub\n      swap1\n      0x00\n      mstore\n      keccak256(0x00, 0x20)\n      swap1\n      0x05\n      mul\n      add\n      0x00\n      swap1\n      swap2\n      swap1\n      swap2\n      swap1\n      swap2\n      pop\n      0x00\n      dup3\n      add\n      mload\n      dup2\n      0x00\n      add\n      sstore\n      0x20\n      dup3\n      add\n      mload\n      dup2\n      0x01\n      add\n      exp(0x0100, 0x00)\n      dup2\n      sload\n      dup2\n      0xffffffffffffffffffffffffffffffffffffffff\n      mul\n      not\n      and\n      swap1\n      dup4\n      0xffffffffffffffffffffffffffffffffffffffff\n      and\n      mul\n      or\n      swap1\n      sstore\n      pop\n      0x40\n      dup3\n      add\n      mload\n      dup2\n      0x02\n      add\n      swap1\n      dup2\n      tag_169\n      swap2\n      swap1\n      tag_170\n      jump\t// in\n    tag_169:\n      pop\n      0x60\n      dup3\n      add\n      mload\n      dup2\n      0x03\n      add\n      sstore\n      0x80\n      dup3\n      add\n      mload\n      dup2\n      0x04\n      add\n      sstore\n      pop\n      pop\n        /* \"contracts/Twitter.sol\":2079:2159  TweetCreated(newTweet.id, newTweet.author, newTweet.content, newTweet.timestamp) */\n      0x16fd3c13e9d46923e0a8bce11c7b473ec508a72e6c96cd2404b29ce972afc29e\n        /* \"contracts/Twitter.sol\":2092:2100  newTweet */\n      dup2\n        /* \"contracts/Twitter.sol\":2092:2103  newTweet.id */\n      0x00\n      add\n      mload\n        /* \"contracts/Twitter.sol\":2105:2113  newTweet */\n      dup3\n        /* \"contracts/Twitter.sol\":2105:2120  newTweet.author */\n      0x20\n      add\n      mload\n        /* \"contracts/Twitter.sol\":2122:2130  newTweet */\n      dup4\n        /* \"contracts/Twitter.sol\":2122:2138  newTweet.content */\n      0x40\n      add\n      mload\n        /* \"contracts/Twitter.sol\":2140:2148  newTweet */\n      dup5\n        /* \"contracts/Twitter.sol\":2140:2158  newTweet.timestamp */\n      0x60\n      add\n      mload\n        /* \"contracts/Twitter.sol\":2079:2159  TweetCreated(newTweet.id, newTweet.author, newTweet.content, newTweet.timestamp) */\n      mload(0x40)\n      tag_171\n      swap5\n      swap4\n      swap3\n      swap2\n      swap1\n      tag_172\n      jump\t// in\n    tag_171:\n      mload(0x40)\n      dup1\n      swap2\n      sub\n      swap1\n      log1\n        /* \"contracts/Twitter.sol\":1719:2166  {... */\n      pop\n        /* \"contracts/Twitter.sol\":928:1127  {... */\n      pop\n        /* \"contracts/Twitter.sol\":1654:2166  function createtweet(string memory _tweet) public onlyRegistered {... */\n      pop\n      jump\t// out\n        /* \"contracts/Twitter.sol\":2779:2888  function getTweet(uint256 _i) public view returns(Tweet memory){... */\n    tag_60:\n        /* \"contracts/Twitter.sol\":2829:2841  Tweet memory */\n      tag_173\n      tag_174\n      jump\t// in\n    tag_173:\n        /* \"contracts/Twitter.sol\":2859:2865  tweets */\n      0x01\n        /* \"contracts/Twitter.sol\":2859:2877  tweets[msg.sender] */\n      0x00\n        /* \"contracts/Twitter.sol\":2866:2876  msg.sender */\n      caller\n        /* \"contracts/Twitter.sol\":2859:2877  tweets[msg.sender] */\n      0xffffffffffffffffffffffffffffffffffffffff\n      and\n      0xffffffffffffffffffffffffffffffffffffffff\n      and\n      dup2\n      mstore\n      0x20\n      add\n      swap1\n      dup2\n      mstore\n      0x20\n      add\n      0x00\n      keccak256\n        /* \"contracts/Twitter.sol\":2878:2880  _i */\n      dup3\n        /* \"contracts/Twitter.sol\":2859:2881  tweets[msg.sender][_i] */\n      dup2\n      sload\n      dup2\n      lt\n      tag_176\n      jumpi\n      tag_177\n      tag_95\n      jump\t// in\n    tag_177:\n    tag_176:\n      swap1\n      0x00\n      mstore\n      keccak256(0x00, 0x20)\n      swap1\n      0x05\n      mul\n      add\n        /* \"contracts/Twitter.sol\":2852:2881  return tweets[msg.sender][_i] */\n      mload(0x40)\n      dup1\n      0xa0\n      add\n      0x40\n      mstore\n      swap1\n      dup2\n      0x00\n      dup3\n      add\n      sload\n      dup2\n      mstore\n      0x20\n      add\n      0x01\n      dup3\n      add\n      0x00\n      swap1\n      sload\n      swap1\n      0x0100\n      exp\n      swap1\n      div\n      0xffffffffffffffffffffffffffffffffffffffff\n      and\n      0xffffffffffffffffffffffffffffffffffffffff\n      and\n      0xffffffffffffffffffffffffffffffffffffffff\n      and\n      dup2\n      mstore\n      0x20\n      add\n      0x02\n      dup3\n      add\n      dup1\n      sload\n      tag_179\n      swap1\n      tag_69\n      jump\t// in\n    tag_179:\n      dup1\n      0x1f\n      add\n      0x20\n      dup1\n      swap2\n      div\n      mul\n      0x20\n      add\n      mload(0x40)\n      swap1\n      dup2\n      add\n      0x40\n      mstore\n      dup1\n      swap3\n      swap2\n      swap1\n      dup2\n      dup2\n      mstore\n      0x20\n      add\n      dup3\n      dup1\n      sload\n      tag_180\n      swap1\n      tag_69\n      jump\t// in\n    tag_180:\n      dup1\n      iszero\n      tag_181\n      jumpi\n      dup1\n      0x1f\n      lt\n      tag_182\n      jumpi\n      0x0100\n      dup1\n      dup4\n      sload\n      div\n      mul\n      dup4\n      mstore\n      swap2\n      0x20\n      add\n      swap2\n      jump(tag_181)\n    tag_182:\n      dup3\n      add\n      swap2\n      swap1\n      0x00\n      mstore\n      keccak256(0x00, 0x20)\n      swap1\n    tag_183:\n      dup2\n      sload\n      dup2\n      mstore\n      swap1\n      0x01\n      add\n      swap1\n      0x20\n      add\n      dup1\n      dup4\n      gt\n      tag_183\n      jumpi\n      dup3\n      swap1\n      sub\n      0x1f\n      and\n      dup3\n      add\n      swap2\n    tag_181:\n      pop\n      pop\n      pop\n      pop\n      pop\n      dup2\n      mstore\n      0x20\n      add\n      0x03\n      dup3\n      add\n      sload\n      dup2\n      mstore\n      0x20\n      add\n      0x04\n      dup3\n      add\n      sload\n      dup2\n      mstore\n      pop\n      pop\n      swap1\n      pop\n        /* \"contracts/Twitter.sol\":2779:2888  function getTweet(uint256 _i) public view returns(Tweet memory){... */\n      swap2\n      swap1\n      pop\n      jump\t// out\n        /* \"@openzeppelin/contracts/access/Ownable.sol\":2543:2758  function transferOwnership(address newOwner) public virtual onlyOwner {... */\n    tag_65:\n        /* \"@openzeppelin/contracts/access/Ownable.sol\":1531:1544  _checkOwner() */\n      tag_185\n        /* \"@openzeppelin/contracts/access/Ownable.sol\":1531:1542  _checkOwner */\n      tag_118\n        /* \"@openzeppelin/contracts/access/Ownable.sol\":1531:1544  _checkOwner() */\n      jump\t// in\n    tag_185:\n        /* \"@openzeppelin/contracts/access/Ownable.sol\":2647:2648  0 */\n      0x00\n        /* \"@openzeppelin/contracts/access/Ownable.sol\":2627:2649  newOwner == address(0) */\n      0xffffffffffffffffffffffffffffffffffffffff\n      and\n        /* \"@openzeppelin/contracts/access/Ownable.sol\":2627:2635  newOwner */\n      dup2\n        /* \"@openzeppelin/contracts/access/Ownable.sol\":2627:2649  newOwner == address(0) */\n      0xffffffffffffffffffffffffffffffffffffffff\n      and\n      sub\n        /* \"@openzeppelin/contracts/access/Ownable.sol\":2623:2714  if (newOwner == address(0)) {... */\n      tag_187\n      jumpi\n        /* \"@openzeppelin/contracts/access/Ownable.sol\":2700:2701  0 */\n      0x00\n        /* \"@openzeppelin/contracts/access/Ownable.sol\":2672:2703  OwnableInvalidOwner(address(0)) */\n      mload(0x40)\n      0x1e4fbdf700000000000000000000000000000000000000000000000000000000\n      dup2\n      mstore\n      0x04\n      add\n      tag_188\n      swap2\n      swap1\n      tag_52\n      jump\t// in\n    tag_188:\n      mload(0x40)\n      dup1\n      swap2\n      sub\n      swap1\n      revert\n        /* \"@openzeppelin/contracts/access/Ownable.sol\":2623:2714  if (newOwner == address(0)) {... */\n    tag_187:\n        /* \"@openzeppelin/contracts/access/Ownable.sol\":2723:2751  _transferOwnership(newOwner) */\n      tag_189\n        /* \"@openzeppelin/contracts/access/Ownable.sol\":2742:2750  newOwner */\n      dup2\n        /* \"@openzeppelin/contracts/access/Ownable.sol\":2723:2741  _transferOwnership */\n      tag_146\n        /* \"@openzeppelin/contracts/access/Ownable.sol\":2723:2751  _transferOwnership(newOwner) */\n      jump\t// in\n    tag_189:\n        /* \"@openzeppelin/contracts/access/Ownable.sol\":2543:2758  function transferOwnership(address newOwner) public virtual onlyOwner {... */\n      pop\n      jump\t// out\n        /* \"@openzeppelin/contracts/access/Ownable.sol\":1796:1958  function _checkOwner() internal view virtual {... */\n    tag_118:\n        /* \"@openzeppelin/contracts/access/Ownable.sol\":1866:1878  _msgSender() */\n      tag_191\n        /* \"@openzeppelin/contracts/access/Ownable.sol\":1866:1876  _msgSender */\n      tag_192\n        /* \"@openzeppelin/contracts/access/Ownable.sol\":1866:1878  _msgSender() */\n      jump\t// in\n    tag_191:\n        /* \"@openzeppelin/contracts/access/Ownable.sol\":1855:1878  owner() != _msgSender() */\n      0xffffffffffffffffffffffffffffffffffffffff\n      and\n        /* \"@openzeppelin/contracts/access/Ownable.sol\":1855:1862  owner() */\n      tag_193\n        /* \"@openzeppelin/contracts/access/Ownable.sol\":1855:1860  owner */\n      tag_50\n        /* \"@openzeppelin/contracts/access/Ownable.sol\":1855:1862  owner() */\n      jump\t// in\n    tag_193:\n        /* \"@openzeppelin/contracts/access/Ownable.sol\":1855:1878  owner() != _msgSender() */\n      0xffffffffffffffffffffffffffffffffffffffff\n      and\n      eq\n        /* \"@openzeppelin/contracts/access/Ownable.sol\":1851:1952  if (owner() != _msgSender()) {... */\n      tag_194\n      jumpi\n        /* \"@openzeppelin/contracts/access/Ownable.sol\":1928:1940  _msgSender() */\n      tag_195\n        /* \"@openzeppelin/contracts/access/Ownable.sol\":1928:1938  _msgSender */\n      tag_192\n        /* \"@openzeppelin/contracts/access/Ownable.sol\":1928:1940  _msgSender() */\n      jump\t// in\n    tag_195:\n        /* \"@openzeppelin/contracts/access/Ownable.sol\":1901:1941  OwnableUnauthorizedAccount(_msgSender()) */\n      mload(0x40)\n      0x118cdaa700000000000000000000000000000000000000000000000000000000\n      dup2\n      mstore\n      0x04\n      add\n      tag_196\n      swap2\n      swap1\n      tag_52\n      jump\t// in\n    tag_196:\n      mload(0x40)\n      dup1\n      swap2\n      sub\n      swap1\n      revert\n        /* \"@openzeppelin/contracts/access/Ownable.sol\":1851:1952  if (owner() != _msgSender()) {... */\n    tag_194:\n        /* \"@openzeppelin/contracts/access/Ownable.sol\":1796:1958  function _checkOwner() internal view virtual {... */\n      jump\t// out\n        /* \"@openzeppelin/contracts/access/Ownable.sol\":2912:3099  function _transferOwnership(address newOwner) internal virtual {... */\n    tag_146:\n        /* \"@openzeppelin/contracts/access/Ownable.sol\":2985:3001  address oldOwner */\n      0x00\n        /* \"@openzeppelin/contracts/access/Ownable.sol\":3004:3010  _owner */\n      dup1\n      0x00\n      swap1\n      sload\n      swap1\n      0x0100\n      exp\n      swap1\n      div\n      0xffffffffffffffffffffffffffffffffffffffff\n      and\n        /* \"@openzeppelin/contracts/access/Ownable.sol\":2985:3010  address oldOwner = _owner */\n      swap1\n      pop\n        /* \"@openzeppelin/contracts/access/Ownable.sol\":3029:3037  newOwner */\n      dup2\n        /* \"@openzeppelin/contracts/access/Ownable.sol\":3020:3026  _owner */\n      0x00\n      dup1\n        /* \"@openzeppelin/contracts/access/Ownable.sol\":3020:3037  _owner = newOwner */\n      0x0100\n      exp\n      dup2\n      sload\n      dup2\n      0xffffffffffffffffffffffffffffffffffffffff\n      mul\n      not\n      and\n      swap1\n      dup4\n      0xffffffffffffffffffffffffffffffffffffffff\n      and\n      mul\n      or\n      swap1\n      sstore\n      pop\n        /* \"@openzeppelin/contracts/access/Ownable.sol\":3083:3091  newOwner */\n      dup2\n        /* \"@openzeppelin/contracts/access/Ownable.sol\":3052:3092  OwnershipTransferred(oldOwner, newOwner) */\n      0xffffffffffffffffffffffffffffffffffffffff\n      and\n        /* \"@openzeppelin/contracts/access/Ownable.sol\":3073:3081  oldOwner */\n      dup2\n        /* \"@openzeppelin/contracts/access/Ownable.sol\":3052:3092  OwnershipTransferred(oldOwner, newOwner) */\n      0xffffffffffffffffffffffffffffffffffffffff\n      and\n      0x8be0079c531659141344cd1fd0a4f28419497f9722a3daafe3b4186f6b6457e0\n      mload(0x40)\n      mload(0x40)\n      dup1\n      swap2\n      sub\n      swap1\n      log3\n        /* \"@openzeppelin/contracts/access/Ownable.sol\":2975:3099  {... */\n      pop\n        /* \"@openzeppelin/contracts/access/Ownable.sol\":2912:3099  function _transferOwnership(address newOwner) internal virtual {... */\n      pop\n      jump\t// out\n        /* \"@openzeppelin/contracts/utils/Context.sol\":656:752  function _msgSender() internal view virtual returns (address) {... */\n    tag_192:\n        /* \"@openzeppelin/contracts/utils/Context.sol\":709:716  address */\n      0x00\n        /* \"@openzeppelin/contracts/utils/Context.sol\":735:745  msg.sender */\n      caller\n        /* \"@openzeppelin/contracts/utils/Context.sol\":728:745  return msg.sender */\n      swap1\n      pop\n        /* \"@openzeppelin/contracts/utils/Context.sol\":656:752  function _msgSender() internal view virtual returns (address) {... */\n      swap1\n      jump\t// out\n    tag_174:\n      mload(0x40)\n      dup1\n      0xa0\n      add\n      0x40\n      mstore\n      dup1\n      0x00\n      dup2\n      mstore\n      0x20\n      add\n      and(0xffffffffffffffffffffffffffffffffffffffff, 0x00)\n      dup2\n      mstore\n      0x20\n      add\n      0x60\n      dup2\n      mstore\n      0x20\n      add\n      0x00\n      dup2\n      mstore\n      0x20\n      add\n      0x00\n      dup2\n      mstore\n      pop\n      swap1\n      jump\t// out\n        /* \"#utility.yul\":7:82   */\n    tag_199:\n        /* \"#utility.yul\":40:46   */\n      0x00\n        /* \"#utility.yul\":73:75   */\n      0x40\n        /* \"#utility.yul\":67:76   */\n      mload\n        /* \"#utility.yul\":57:76   */\n      swap1\n      pop\n        /* \"#utility.yul\":7:82   */\n      swap1\n      jump\t// out\n        /* \"#utility.yul\":88:205   */\n    tag_200:\n        /* \"#utility.yul\":197:198   */\n      0x00\n        /* \"#utility.yul\":194:195   */\n      dup1\n        /* \"#utility.yul\":187:199   */\n      revert\n        /* \"#utility.yul\":211:328   */\n    tag_201:\n        /* \"#utility.yul\":320:321   */\n      0x00\n        /* \"#utility.yul\":317:318   */\n      dup1\n        /* \"#utility.yul\":310:322   */\n      revert\n        /* \"#utility.yul\":334:460   */\n    tag_202:\n        /* \"#utility.yul\":371:378   */\n      0x00\n        /* \"#utility.yul\":411:453   */\n      0xffffffffffffffffffffffffffffffffffffffff\n        /* \"#utility.yul\":404:409   */\n      dup3\n        /* \"#utility.yul\":400:454   */\n      and\n        /* \"#utility.yul\":389:454   */\n      swap1\n      pop\n        /* \"#utility.yul\":334:460   */\n      swap2\n      swap1\n      pop\n      jump\t// out\n        /* \"#utility.yul\":466:562   */\n    tag_203:\n        /* \"#utility.yul\":503:510   */\n      0x00\n        /* \"#utility.yul\":532:556   */\n      tag_277\n        /* \"#utility.yul\":550:555   */\n      dup3\n        /* \"#utility.yul\":532:556   */\n      tag_202\n      jump\t// in\n    tag_277:\n        /* \"#utility.yul\":521:556   */\n      swap1\n      pop\n        /* \"#utility.yul\":466:562   */\n      swap2\n      swap1\n      pop\n      jump\t// out\n        /* \"#utility.yul\":568:690   */\n    tag_204:\n        /* \"#utility.yul\":641:665   */\n      tag_279\n        /* \"#utility.yul\":659:664   */\n      dup2\n        /* \"#utility.yul\":641:665   */\n      tag_203\n      jump\t// in\n    tag_279:\n        /* \"#utility.yul\":634:639   */\n      dup2\n        /* \"#utility.yul\":631:666   */\n      eq\n        /* \"#utility.yul\":621:684   */\n      tag_280\n      jumpi\n        /* \"#utility.yul\":680:681   */\n      0x00\n        /* \"#utility.yul\":677:678   */\n      dup1\n        /* \"#utility.yul\":670:682   */\n      revert\n        /* \"#utility.yul\":621:684   */\n    tag_280:\n        /* \"#utility.yul\":568:690   */\n      pop\n      jump\t// out\n        /* \"#utility.yul\":696:835   */\n    tag_205:\n        /* \"#utility.yul\":742:747   */\n      0x00\n        /* \"#utility.yul\":780:786   */\n      dup2\n        /* \"#utility.yul\":767:787   */\n      calldataload\n        /* \"#utility.yul\":758:787   */\n      swap1\n      pop\n        /* \"#utility.yul\":796:829   */\n      tag_282\n        /* \"#utility.yul\":823:828   */\n      dup2\n        /* \"#utility.yul\":796:829   */\n      tag_204\n      jump\t// in\n    tag_282:\n        /* \"#utility.yul\":696:835   */\n      swap3\n      swap2\n      pop\n      pop\n      jump\t// out\n        /* \"#utility.yul\":841:918   */\n    tag_206:\n        /* \"#utility.yul\":878:885   */\n      0x00\n        /* \"#utility.yul\":907:912   */\n      dup2\n        /* \"#utility.yul\":896:912   */\n      swap1\n      pop\n        /* \"#utility.yul\":841:918   */\n      swap2\n      swap1\n      pop\n      jump\t// out\n        /* \"#utility.yul\":924:1046   */\n    tag_207:\n        /* \"#utility.yul\":997:1021   */\n      tag_285\n        /* \"#utility.yul\":1015:1020   */\n      dup2\n        /* \"#utility.yul\":997:1021   */\n      tag_206\n      jump\t// in\n    tag_285:\n        /* \"#utility.yul\":990:995   */\n      dup2\n        /* \"#utility.yul\":987:1022   */\n      eq\n        /* \"#utility.yul\":977:1040   */\n      tag_286\n      jumpi\n        /* \"#utility.yul\":1036:1037   */\n      0x00\n        /* \"#utility.yul\":1033:1034   */\n      dup1\n        /* \"#utility.yul\":1026:1038   */\n      revert\n        /* \"#utility.yul\":977:1040   */\n    tag_286:\n        /* \"#utility.yul\":924:1046   */\n      pop\n      jump\t// out\n        /* \"#utility.yul\":1052:1191   */\n    tag_208:\n        /* \"#utility.yul\":1098:1103   */\n      0x00\n        /* \"#utility.yul\":1136:1142   */\n      dup2\n        /* \"#utility.yul\":1123:1143   */\n      calldataload\n        /* \"#utility.yul\":1114:1143   */\n      swap1\n      pop\n        /* \"#utility.yul\":1152:1185   */\n      tag_288\n        /* \"#utility.yul\":1179:1184   */\n      dup2\n        /* \"#utility.yul\":1152:1185   */\n      tag_207\n      jump\t// in\n    tag_288:\n        /* \"#utility.yul\":1052:1191   */\n      swap3\n      swap2\n      pop\n      pop\n      jump\t// out\n        /* \"#utility.yul\":1197:1671   */\n    tag_18:\n        /* \"#utility.yul\":1265:1271   */\n      0x00\n        /* \"#utility.yul\":1273:1279   */\n      dup1\n        /* \"#utility.yul\":1322:1324   */\n      0x40\n        /* \"#utility.yul\":1310:1319   */\n      dup4\n        /* \"#utility.yul\":1301:1308   */\n      dup6\n        /* \"#utility.yul\":1297:1320   */\n      sub\n        /* \"#utility.yul\":1293:1325   */\n      slt\n        /* \"#utility.yul\":1290:1409   */\n      iszero\n      tag_290\n      jumpi\n        /* \"#utility.yul\":1328:1407   */\n      tag_291\n      tag_200\n      jump\t// in\n    tag_291:\n        /* \"#utility.yul\":1290:1409   */\n    tag_290:\n        /* \"#utility.yul\":1448:1449   */\n      0x00\n        /* \"#utility.yul\":1473:1526   */\n      tag_292\n        /* \"#utility.yul\":1518:1525   */\n      dup6\n        /* \"#utility.yul\":1509:1515   */\n      dup3\n        /* \"#utility.yul\":1498:1507   */\n      dup7\n        /* \"#utility.yul\":1494:1516   */\n      add\n        /* \"#utility.yul\":1473:1526   */\n      tag_205\n      jump\t// in\n    tag_292:\n        /* \"#utility.yul\":1463:1526   */\n      swap3\n      pop\n        /* \"#utility.yul\":1419:1536   */\n      pop\n        /* \"#utility.yul\":1575:1577   */\n      0x20\n        /* \"#utility.yul\":1601:1654   */\n      tag_293\n        /* \"#utility.yul\":1646:1653   */\n      dup6\n        /* \"#utility.yul\":1637:1643   */\n      dup3\n        /* \"#utility.yul\":1626:1635   */\n      dup7\n        /* \"#utility.yul\":1622:1644   */\n      add\n        /* \"#utility.yul\":1601:1654   */\n      tag_208\n      jump\t// in\n    tag_293:\n        /* \"#utility.yul\":1591:1654   */\n      swap2\n      pop\n        /* \"#utility.yul\":1546:1664   */\n      pop\n        /* \"#utility.yul\":1197:1671   */\n      swap3\n      pop\n      swap3\n      swap1\n      pop\n      jump\t// out\n        /* \"#utility.yul\":1677:1795   */\n    tag_209:\n        /* \"#utility.yul\":1764:1788   */\n      tag_295\n        /* \"#utility.yul\":1782:1787   */\n      dup2\n        /* \"#utility.yul\":1764:1788   */\n      tag_206\n      jump\t// in\n    tag_295:\n        /* \"#utility.yul\":1759:1762   */\n      dup3\n        /* \"#utility.yul\":1752:1789   */\n      mstore\n        /* \"#utility.yul\":1677:1795   */\n      pop\n      pop\n      jump\t// out\n        /* \"#utility.yul\":1801:1919   */\n    tag_210:\n        /* \"#utility.yul\":1888:1912   */\n      tag_297\n        /* \"#utility.yul\":1906:1911   */\n      dup2\n        /* \"#utility.yul\":1888:1912   */\n      tag_203\n      jump\t// in\n    tag_297:\n        /* \"#utility.yul\":1883:1886   */\n      dup3\n        /* \"#utility.yul\":1876:1913   */\n      mstore\n        /* \"#utility.yul\":1801:1919   */\n      pop\n      pop\n      jump\t// out\n        /* \"#utility.yul\":1925:2024   */\n    tag_211:\n        /* \"#utility.yul\":1977:1983   */\n      0x00\n        /* \"#utility.yul\":2011:2016   */\n      dup2\n        /* \"#utility.yul\":2005:2017   */\n      mload\n        /* \"#utility.yul\":1995:2017   */\n      swap1\n      pop\n        /* \"#utility.yul\":1925:2024   */\n      swap2\n      swap1\n      pop\n      jump\t// out\n        /* \"#utility.yul\":2030:2199   */\n    tag_212:\n        /* \"#utility.yul\":2114:2125   */\n      0x00\n        /* \"#utility.yul\":2148:2154   */\n      dup3\n        /* \"#utility.yul\":2143:2146   */\n      dup3\n        /* \"#utility.yul\":2136:2155   */\n      mstore\n        /* \"#utility.yul\":2188:2192   */\n      0x20\n        /* \"#utility.yul\":2183:2186   */\n      dup3\n        /* \"#utility.yul\":2179:2193   */\n      add\n        /* \"#utility.yul\":2164:2193   */\n      swap1\n      pop\n        /* \"#utility.yul\":2030:2199   */\n      swap3\n      swap2\n      pop\n      pop\n      jump\t// out\n        /* \"#utility.yul\":2205:2344   */\n    tag_213:\n        /* \"#utility.yul\":2294:2300   */\n      dup3\n        /* \"#utility.yul\":2289:2292   */\n      dup2\n        /* \"#utility.yul\":2284:2287   */\n      dup4\n        /* \"#utility.yul\":2278:2301   */\n      mcopy\n        /* \"#utility.yul\":2335:2336   */\n      0x00\n        /* \"#utility.yul\":2326:2332   */\n      dup4\n        /* \"#utility.yul\":2321:2324   */\n      dup4\n        /* \"#utility.yul\":2317:2333   */\n      add\n        /* \"#utility.yul\":2310:2337   */\n      mstore\n        /* \"#utility.yul\":2205:2344   */\n      pop\n      pop\n      pop\n      jump\t// out\n        /* \"#utility.yul\":2350:2452   */\n    tag_214:\n        /* \"#utility.yul\":2391:2397   */\n      0x00\n        /* \"#utility.yul\":2442:2444   */\n      0x1f\n        /* \"#utility.yul\":2438:2445   */\n      not\n        /* \"#utility.yul\":2433:2435   */\n      0x1f\n        /* \"#utility.yul\":2426:2431   */\n      dup4\n        /* \"#utility.yul\":2422:2436   */\n      add\n        /* \"#utility.yul\":2418:2446   */\n      and\n        /* \"#utility.yul\":2408:2446   */\n      swap1\n      pop\n        /* \"#utility.yul\":2350:2452   */\n      swap2\n      swap1\n      pop\n      jump\t// out\n        /* \"#utility.yul\":2458:2835   */\n    tag_215:\n        /* \"#utility.yul\":2546:2549   */\n      0x00\n        /* \"#utility.yul\":2574:2613   */\n      tag_303\n        /* \"#utility.yul\":2607:2612   */\n      dup3\n        /* \"#utility.yul\":2574:2613   */\n      tag_211\n      jump\t// in\n    tag_303:\n        /* \"#utility.yul\":2629:2700   */\n      tag_304\n        /* \"#utility.yul\":2693:2699   */\n      dup2\n        /* \"#utility.yul\":2688:2691   */\n      dup6\n        /* \"#utility.yul\":2629:2700   */\n      tag_212\n      jump\t// in\n    tag_304:\n        /* \"#utility.yul\":2622:2700   */\n      swap4\n      pop\n        /* \"#utility.yul\":2709:2774   */\n      tag_305\n        /* \"#utility.yul\":2767:2773   */\n      dup2\n        /* \"#utility.yul\":2762:2765   */\n      dup6\n        /* \"#utility.yul\":2755:2759   */\n      0x20\n        /* \"#utility.yul\":2748:2753   */\n      dup7\n        /* \"#utility.yul\":2744:2760   */\n      add\n        /* \"#utility.yul\":2709:2774   */\n      tag_213\n      jump\t// in\n    tag_305:\n        /* \"#utility.yul\":2799:2828   */\n      tag_306\n        /* \"#utility.yul\":2821:2827   */\n      dup2\n        /* \"#utility.yul\":2799:2828   */\n      tag_214\n      jump\t// in\n    tag_306:\n        /* \"#utility.yul\":2794:2797   */\n      dup5\n        /* \"#utility.yul\":2790:2829   */\n      add\n        /* \"#utility.yul\":2783:2829   */\n      swap2\n      pop\n        /* \"#utility.yul\":2550:2835   */\n      pop\n        /* \"#utility.yul\":2458:2835   */\n      swap3\n      swap2\n      pop\n      pop\n      jump\t// out\n        /* \"#utility.yul\":2841:3596   */\n    tag_21:\n        /* \"#utility.yul\":3066:3070   */\n      0x00\n        /* \"#utility.yul\":3104:3107   */\n      0xa0\n        /* \"#utility.yul\":3093:3102   */\n      dup3\n        /* \"#utility.yul\":3089:3108   */\n      add\n        /* \"#utility.yul\":3081:3108   */\n      swap1\n      pop\n        /* \"#utility.yul\":3118:3189   */\n      tag_308\n        /* \"#utility.yul\":3186:3187   */\n      0x00\n        /* \"#utility.yul\":3175:3184   */\n      dup4\n        /* \"#utility.yul\":3171:3188   */\n      add\n        /* \"#utility.yul\":3162:3168   */\n      dup9\n        /* \"#utility.yul\":3118:3189   */\n      tag_209\n      jump\t// in\n    tag_308:\n        /* \"#utility.yul\":3199:3271   */\n      tag_309\n        /* \"#utility.yul\":3267:3269   */\n      0x20\n        /* \"#utility.yul\":3256:3265   */\n      dup4\n        /* \"#utility.yul\":3252:3270   */\n      add\n        /* \"#utility.yul\":3243:3249   */\n      dup8\n        /* \"#utility.yul\":3199:3271   */\n      tag_210\n      jump\t// in\n    tag_309:\n        /* \"#utility.yul\":3318:3327   */\n      dup2\n        /* \"#utility.yul\":3312:3316   */\n      dup2\n        /* \"#utility.yul\":3308:3328   */\n      sub\n        /* \"#utility.yul\":3303:3305   */\n      0x40\n        /* \"#utility.yul\":3292:3301   */\n      dup4\n        /* \"#utility.yul\":3288:3306   */\n      add\n        /* \"#utility.yul\":3281:3329   */\n      mstore\n        /* \"#utility.yul\":3346:3424   */\n      tag_310\n        /* \"#utility.yul\":3419:3423   */\n      dup2\n        /* \"#utility.yul\":3410:3416   */\n      dup7\n        /* \"#utility.yul\":3346:3424   */\n      tag_215\n      jump\t// in\n    tag_310:\n        /* \"#utility.yul\":3338:3424   */\n      swap1\n      pop\n        /* \"#utility.yul\":3434:3506   */\n      tag_311\n        /* \"#utility.yul\":3502:3504   */\n      0x60\n        /* \"#utility.yul\":3491:3500   */\n      dup4\n        /* \"#utility.yul\":3487:3505   */\n      add\n        /* \"#utility.yul\":3478:3484   */\n      dup6\n        /* \"#utility.yul\":3434:3506   */\n      tag_209\n      jump\t// in\n    tag_311:\n        /* \"#utility.yul\":3516:3589   */\n      tag_312\n        /* \"#utility.yul\":3584:3587   */\n      0x80\n        /* \"#utility.yul\":3573:3582   */\n      dup4\n        /* \"#utility.yul\":3569:3588   */\n      add\n        /* \"#utility.yul\":3560:3566   */\n      dup5\n        /* \"#utility.yul\":3516:3589   */\n      tag_209\n      jump\t// in\n    tag_312:\n        /* \"#utility.yul\":2841:3596   */\n      swap7\n      swap6\n      pop\n      pop\n      pop\n      pop\n      pop\n      pop\n      jump\t// out\n        /* \"#utility.yul\":3602:3931   */\n    tag_24:\n        /* \"#utility.yul\":3661:3667   */\n      0x00\n        /* \"#utility.yul\":3710:3712   */\n      0x20\n        /* \"#utility.yul\":3698:3707   */\n      dup3\n        /* \"#utility.yul\":3689:3696   */\n      dup5\n        /* \"#utility.yul\":3685:3708   */\n      sub\n        /* \"#utility.yul\":3681:3713   */\n      slt\n        /* \"#utility.yul\":3678:3797   */\n      iszero\n      tag_314\n      jumpi\n        /* \"#utility.yul\":3716:3795   */\n      tag_315\n      tag_200\n      jump\t// in\n    tag_315:\n        /* \"#utility.yul\":3678:3797   */\n    tag_314:\n        /* \"#utility.yul\":3836:3837   */\n      0x00\n        /* \"#utility.yul\":3861:3914   */\n      tag_316\n        /* \"#utility.yul\":3906:3913   */\n      dup5\n        /* \"#utility.yul\":3897:3903   */\n      dup3\n        /* \"#utility.yul\":3886:3895   */\n      dup6\n        /* \"#utility.yul\":3882:3904   */\n      add\n        /* \"#utility.yul\":3861:3914   */\n      tag_205\n      jump\t// in\n    tag_316:\n        /* \"#utility.yul\":3851:3914   */\n      swap2\n      pop\n        /* \"#utility.yul\":3807:3924   */\n      pop\n        /* \"#utility.yul\":3602:3931   */\n      swap3\n      swap2\n      pop\n      pop\n      jump\t// out\n        /* \"#utility.yul\":3937:4073   */\n    tag_216:\n        /* \"#utility.yul\":4026:4032   */\n      0x00\n        /* \"#utility.yul\":4060:4065   */\n      dup2\n        /* \"#utility.yul\":4054:4066   */\n      mload\n        /* \"#utility.yul\":4044:4066   */\n      swap1\n      pop\n        /* \"#utility.yul\":3937:4073   */\n      swap2\n      swap1\n      pop\n      jump\t// out\n        /* \"#utility.yul\":4079:4285   */\n    tag_217:\n        /* \"#utility.yul\":4200:4211   */\n      0x00\n        /* \"#utility.yul\":4234:4240   */\n      dup3\n        /* \"#utility.yul\":4229:4232   */\n      dup3\n        /* \"#utility.yul\":4222:4241   */\n      mstore\n        /* \"#utility.yul\":4274:4278   */\n      0x20\n        /* \"#utility.yul\":4269:4272   */\n      dup3\n        /* \"#utility.yul\":4265:4279   */\n      add\n        /* \"#utility.yul\":4250:4279   */\n      swap1\n      pop\n        /* \"#utility.yul\":4079:4285   */\n      swap3\n      swap2\n      pop\n      pop\n      jump\t// out\n        /* \"#utility.yul\":4291:4445   */\n    tag_218:\n        /* \"#utility.yul\":4380:4384   */\n      0x00\n        /* \"#utility.yul\":4403:4406   */\n      dup2\n        /* \"#utility.yul\":4395:4406   */\n      swap1\n      pop\n        /* \"#utility.yul\":4433:4437   */\n      0x20\n        /* \"#utility.yul\":4428:4431   */\n      dup3\n        /* \"#utility.yul\":4424:4438   */\n      add\n        /* \"#utility.yul\":4416:4438   */\n      swap1\n      pop\n        /* \"#utility.yul\":4291:4445   */\n      swap2\n      swap1\n      pop\n      jump\t// out\n        /* \"#utility.yul\":4451:4559   */\n    tag_219:\n        /* \"#utility.yul\":4528:4552   */\n      tag_321\n        /* \"#utility.yul\":4546:4551   */\n      dup2\n        /* \"#utility.yul\":4528:4552   */\n      tag_206\n      jump\t// in\n    tag_321:\n        /* \"#utility.yul\":4523:4526   */\n      dup3\n        /* \"#utility.yul\":4516:4553   */\n      mstore\n        /* \"#utility.yul\":4451:4559   */\n      pop\n      pop\n      jump\t// out\n        /* \"#utility.yul\":4565:4673   */\n    tag_220:\n        /* \"#utility.yul\":4642:4666   */\n      tag_323\n        /* \"#utility.yul\":4660:4665   */\n      dup2\n        /* \"#utility.yul\":4642:4666   */\n      tag_203\n      jump\t// in\n    tag_323:\n        /* \"#utility.yul\":4637:4640   */\n      dup3\n        /* \"#utility.yul\":4630:4667   */\n      mstore\n        /* \"#utility.yul\":4565:4673   */\n      pop\n      pop\n      jump\t// out\n        /* \"#utility.yul\":4679:4838   */\n    tag_221:\n        /* \"#utility.yul\":4753:4764   */\n      0x00\n        /* \"#utility.yul\":4787:4793   */\n      dup3\n        /* \"#utility.yul\":4782:4785   */\n      dup3\n        /* \"#utility.yul\":4775:4794   */\n      mstore\n        /* \"#utility.yul\":4827:4831   */\n      0x20\n        /* \"#utility.yul\":4822:4825   */\n      dup3\n        /* \"#utility.yul\":4818:4832   */\n      add\n        /* \"#utility.yul\":4803:4832   */\n      swap1\n      pop\n        /* \"#utility.yul\":4679:4838   */\n      swap3\n      swap2\n      pop\n      pop\n      jump\t// out\n        /* \"#utility.yul\":4844:5201   */\n    tag_222:\n        /* \"#utility.yul\":4922:4925   */\n      0x00\n        /* \"#utility.yul\":4950:4989   */\n      tag_326\n        /* \"#utility.yul\":4983:4988   */\n      dup3\n        /* \"#utility.yul\":4950:4989   */\n      tag_211\n      jump\t// in\n    tag_326:\n        /* \"#utility.yul\":5005:5066   */\n      tag_327\n        /* \"#utility.yul\":5059:5065   */\n      dup2\n        /* \"#utility.yul\":5054:5057   */\n      dup6\n        /* \"#utility.yul\":5005:5066   */\n      tag_221\n      jump\t// in\n    tag_327:\n        /* \"#utility.yul\":4998:5066   */\n      swap4\n      pop\n        /* \"#utility.yul\":5075:5140   */\n      tag_328\n        /* \"#utility.yul\":5133:5139   */\n      dup2\n        /* \"#utility.yul\":5128:5131   */\n      dup6\n        /* \"#utility.yul\":5121:5125   */\n      0x20\n        /* \"#utility.yul\":5114:5119   */\n      dup7\n        /* \"#utility.yul\":5110:5126   */\n      add\n        /* \"#utility.yul\":5075:5140   */\n      tag_213\n      jump\t// in\n    tag_328:\n        /* \"#utility.yul\":5165:5194   */\n      tag_329\n        /* \"#utility.yul\":5187:5193   */\n      dup2\n        /* \"#utility.yul\":5165:5194   */\n      tag_214\n      jump\t// in\n    tag_329:\n        /* \"#utility.yul\":5160:5163   */\n      dup5\n        /* \"#utility.yul\":5156:5195   */\n      add\n        /* \"#utility.yul\":5149:5195   */\n      swap2\n      pop\n        /* \"#utility.yul\":4926:5201   */\n      pop\n        /* \"#utility.yul\":4844:5201   */\n      swap3\n      swap2\n      pop\n      pop\n      jump\t// out\n        /* \"#utility.yul\":5259:6380   */\n    tag_223:\n        /* \"#utility.yul\":5362:5365   */\n      0x00\n        /* \"#utility.yul\":5398:5402   */\n      0xa0\n        /* \"#utility.yul\":5393:5396   */\n      dup4\n        /* \"#utility.yul\":5389:5403   */\n      add\n        /* \"#utility.yul\":5483:5487   */\n      0x00\n        /* \"#utility.yul\":5476:5481   */\n      dup4\n        /* \"#utility.yul\":5472:5488   */\n      add\n        /* \"#utility.yul\":5466:5489   */\n      mload\n        /* \"#utility.yul\":5502:5565   */\n      tag_331\n        /* \"#utility.yul\":5559:5563   */\n      0x00\n        /* \"#utility.yul\":5554:5557   */\n      dup7\n        /* \"#utility.yul\":5550:5564   */\n      add\n        /* \"#utility.yul\":5536:5548   */\n      dup3\n        /* \"#utility.yul\":5502:5565   */\n      tag_219\n      jump\t// in\n    tag_331:\n        /* \"#utility.yul\":5413:5575   */\n      pop\n        /* \"#utility.yul\":5659:5663   */\n      0x20\n        /* \"#utility.yul\":5652:5657   */\n      dup4\n        /* \"#utility.yul\":5648:5664   */\n      add\n        /* \"#utility.yul\":5642:5665   */\n      mload\n        /* \"#utility.yul\":5678:5741   */\n      tag_332\n        /* \"#utility.yul\":5735:5739   */\n      0x20\n        /* \"#utility.yul\":5730:5733   */\n      dup7\n        /* \"#utility.yul\":5726:5740   */\n      add\n        /* \"#utility.yul\":5712:5724   */\n      dup3\n        /* \"#utility.yul\":5678:5741   */\n      tag_220\n      jump\t// in\n    tag_332:\n        /* \"#utility.yul\":5585:5751   */\n      pop\n        /* \"#utility.yul\":5836:5840   */\n      0x40\n        /* \"#utility.yul\":5829:5834   */\n      dup4\n        /* \"#utility.yul\":5825:5841   */\n      add\n        /* \"#utility.yul\":5819:5842   */\n      mload\n        /* \"#utility.yul\":5889:5892   */\n      dup5\n        /* \"#utility.yul\":5883:5887   */\n      dup3\n        /* \"#utility.yul\":5879:5893   */\n      sub\n        /* \"#utility.yul\":5872:5876   */\n      0x40\n        /* \"#utility.yul\":5867:5870   */\n      dup7\n        /* \"#utility.yul\":5863:5877   */\n      add\n        /* \"#utility.yul\":5856:5894   */\n      mstore\n        /* \"#utility.yul\":5915:5988   */\n      tag_333\n        /* \"#utility.yul\":5983:5987   */\n      dup3\n        /* \"#utility.yul\":5969:5981   */\n      dup3\n        /* \"#utility.yul\":5915:5988   */\n      tag_222\n      jump\t// in\n    tag_333:\n        /* \"#utility.yul\":5907:5988   */\n      swap2\n      pop\n        /* \"#utility.yul\":5761:5999   */\n      pop\n        /* \"#utility.yul\":6086:6090   */\n      0x60\n        /* \"#utility.yul\":6079:6084   */\n      dup4\n        /* \"#utility.yul\":6075:6091   */\n      add\n        /* \"#utility.yul\":6069:6092   */\n      mload\n        /* \"#utility.yul\":6105:6168   */\n      tag_334\n        /* \"#utility.yul\":6162:6166   */\n      0x60\n        /* \"#utility.yul\":6157:6160   */\n      dup7\n        /* \"#utility.yul\":6153:6167   */\n      add\n        /* \"#utility.yul\":6139:6151   */\n      dup3\n        /* \"#utility.yul\":6105:6168   */\n      tag_219\n      jump\t// in\n    tag_334:\n        /* \"#utility.yul\":6009:6178   */\n      pop\n        /* \"#utility.yul\":6261:6265   */\n      0x80\n        /* \"#utility.yul\":6254:6259   */\n      dup4\n        /* \"#utility.yul\":6250:6266   */\n      add\n        /* \"#utility.yul\":6244:6267   */\n      mload\n        /* \"#utility.yul\":6280:6343   */\n      tag_335\n        /* \"#utility.yul\":6337:6341   */\n      0x80\n        /* \"#utility.yul\":6332:6335   */\n      dup7\n        /* \"#utility.yul\":6328:6342   */\n      add\n        /* \"#utility.yul\":6314:6326   */\n      dup3\n        /* \"#utility.yul\":6280:6343   */\n      tag_219\n      jump\t// in\n    tag_335:\n        /* \"#utility.yul\":6188:6353   */\n      pop\n        /* \"#utility.yul\":6370:6374   */\n      dup1\n        /* \"#utility.yul\":6363:6374   */\n      swap2\n      pop\n        /* \"#utility.yul\":5367:6380   */\n      pop\n        /* \"#utility.yul\":5259:6380   */\n      swap3\n      swap2\n      pop\n      pop\n      jump\t// out\n        /* \"#utility.yul\":6386:6630   */\n    tag_224:\n        /* \"#utility.yul\":6499:6509   */\n      0x00\n        /* \"#utility.yul\":6534:6624   */\n      tag_337\n        /* \"#utility.yul\":6620:6623   */\n      dup4\n        /* \"#utility.yul\":6612:6618   */\n      dup4\n        /* \"#utility.yul\":6534:6624   */\n      tag_223\n      jump\t// in\n    tag_337:\n        /* \"#utility.yul\":6520:6624   */\n      swap1\n      pop\n        /* \"#utility.yul\":6386:6630   */\n      swap3\n      swap2\n      pop\n      pop\n      jump\t// out\n        /* \"#utility.yul\":6636:6771   */\n    tag_225:\n        /* \"#utility.yul\":6728:6732   */\n      0x00\n        /* \"#utility.yul\":6760:6764   */\n      0x20\n        /* \"#utility.yul\":6755:6758   */\n      dup3\n        /* \"#utility.yul\":6751:6765   */\n      add\n        /* \"#utility.yul\":6743:6765   */\n      swap1\n      pop\n        /* \"#utility.yul\":6636:6771   */\n      swap2\n      swap1\n      pop\n      jump\t// out\n        /* \"#utility.yul\":6833:7920   */\n    tag_226:\n        /* \"#utility.yul\":6996:6999   */\n      0x00\n        /* \"#utility.yul\":7025:7101   */\n      tag_340\n        /* \"#utility.yul\":7095:7100   */\n      dup3\n        /* \"#utility.yul\":7025:7101   */\n      tag_216\n      jump\t// in\n    tag_340:\n        /* \"#utility.yul\":7117:7225   */\n      tag_341\n        /* \"#utility.yul\":7218:7224   */\n      dup2\n        /* \"#utility.yul\":7213:7216   */\n      dup6\n        /* \"#utility.yul\":7117:7225   */\n      tag_217\n      jump\t// in\n    tag_341:\n        /* \"#utility.yul\":7110:7225   */\n      swap4\n      pop\n        /* \"#utility.yul\":7251:7254   */\n      dup4\n        /* \"#utility.yul\":7296:7300   */\n      0x20\n        /* \"#utility.yul\":7288:7294   */\n      dup3\n        /* \"#utility.yul\":7284:7301   */\n      mul\n        /* \"#utility.yul\":7279:7282   */\n      dup6\n        /* \"#utility.yul\":7275:7302   */\n      add\n        /* \"#utility.yul\":7326:7404   */\n      tag_342\n        /* \"#utility.yul\":7398:7403   */\n      dup6\n        /* \"#utility.yul\":7326:7404   */\n      tag_218\n      jump\t// in\n    tag_342:\n        /* \"#utility.yul\":7427:7434   */\n      dup1\n        /* \"#utility.yul\":7458:7459   */\n      0x00\n        /* \"#utility.yul\":7443:7875   */\n    tag_343:\n        /* \"#utility.yul\":7468:7474   */\n      dup6\n        /* \"#utility.yul\":7465:7466   */\n      dup2\n        /* \"#utility.yul\":7462:7475   */\n      lt\n        /* \"#utility.yul\":7443:7875   */\n      iszero\n      tag_345\n      jumpi\n        /* \"#utility.yul\":7539:7548   */\n      dup5\n        /* \"#utility.yul\":7533:7537   */\n      dup5\n        /* \"#utility.yul\":7529:7549   */\n      sub\n        /* \"#utility.yul\":7524:7527   */\n      dup10\n        /* \"#utility.yul\":7517:7550   */\n      mstore\n        /* \"#utility.yul\":7590:7596   */\n      dup2\n        /* \"#utility.yul\":7584:7597   */\n      mload\n        /* \"#utility.yul\":7618:7726   */\n      tag_346\n        /* \"#utility.yul\":7721:7725   */\n      dup6\n        /* \"#utility.yul\":7706:7719   */\n      dup3\n        /* \"#utility.yul\":7618:7726   */\n      tag_224\n      jump\t// in\n    tag_346:\n        /* \"#utility.yul\":7610:7726   */\n      swap5\n      pop\n        /* \"#utility.yul\":7749:7831   */\n      tag_347\n        /* \"#utility.yul\":7824:7830   */\n      dup4\n        /* \"#utility.yul\":7749:7831   */\n      tag_225\n      jump\t// in\n    tag_347:\n        /* \"#utility.yul\":7739:7831   */\n      swap3\n      pop\n        /* \"#utility.yul\":7860:7864   */\n      0x20\n        /* \"#utility.yul\":7855:7858   */\n      dup11\n        /* \"#utility.yul\":7851:7865   */\n      add\n        /* \"#utility.yul\":7844:7865   */\n      swap10\n      pop\n        /* \"#utility.yul\":7503:7875   */\n      pop\n        /* \"#utility.yul\":7490:7491   */\n      0x01\n        /* \"#utility.yul\":7487:7488   */\n      dup2\n        /* \"#utility.yul\":7483:7492   */\n      add\n        /* \"#utility.yul\":7478:7492   */\n      swap1\n      pop\n        /* \"#utility.yul\":7443:7875   */\n      jump(tag_343)\n    tag_345:\n        /* \"#utility.yul\":7447:7461   */\n      pop\n        /* \"#utility.yul\":7891:7895   */\n      dup3\n        /* \"#utility.yul\":7884:7895   */\n      swap8\n      pop\n        /* \"#utility.yul\":7911:7914   */\n      dup8\n        /* \"#utility.yul\":7904:7914   */\n      swap6\n      pop\n        /* \"#utility.yul\":7001:7920   */\n      pop\n      pop\n      pop\n      pop\n      pop\n        /* \"#utility.yul\":6833:7920   */\n      swap3\n      swap2\n      pop\n      pop\n      jump\t// out\n        /* \"#utility.yul\":7926:8387   */\n    tag_27:\n        /* \"#utility.yul\":8113:8117   */\n      0x00\n        /* \"#utility.yul\":8151:8153   */\n      0x20\n        /* \"#utility.yul\":8140:8149   */\n      dup3\n        /* \"#utility.yul\":8136:8154   */\n      add\n        /* \"#utility.yul\":8128:8154   */\n      swap1\n      pop\n        /* \"#utility.yul\":8200:8209   */\n      dup2\n        /* \"#utility.yul\":8194:8198   */\n      dup2\n        /* \"#utility.yul\":8190:8210   */\n      sub\n        /* \"#utility.yul\":8186:8187   */\n      0x00\n        /* \"#utility.yul\":8175:8184   */\n      dup4\n        /* \"#utility.yul\":8171:8188   */\n      add\n        /* \"#utility.yul\":8164:8211   */\n      mstore\n        /* \"#utility.yul\":8228:8380   */\n      tag_349\n        /* \"#utility.yul\":8375:8379   */\n      dup2\n        /* \"#utility.yul\":8366:8372   */\n      dup5\n        /* \"#utility.yul\":8228:8380   */\n      tag_226\n      jump\t// in\n    tag_349:\n        /* \"#utility.yul\":8220:8380   */\n      swap1\n      pop\n        /* \"#utility.yul\":7926:8387   */\n      swap3\n      swap2\n      pop\n      pop\n      jump\t// out\n        /* \"#utility.yul\":8393:8482   */\n    tag_227:\n        /* \"#utility.yul\":8429:8436   */\n      0x00\n        /* \"#utility.yul\":8469:8475   */\n      0xffff\n        /* \"#utility.yul\":8462:8467   */\n      dup3\n        /* \"#utility.yul\":8458:8476   */\n      and\n        /* \"#utility.yul\":8447:8476   */\n      swap1\n      pop\n        /* \"#utility.yul\":8393:8482   */\n      swap2\n      swap1\n      pop\n      jump\t// out\n        /* \"#utility.yul\":8488:8608   */\n    tag_228:\n        /* \"#utility.yul\":8560:8583   */\n      tag_352\n        /* \"#utility.yul\":8577:8582   */\n      dup2\n        /* \"#utility.yul\":8560:8583   */\n      tag_227\n      jump\t// in\n    tag_352:\n        /* \"#utility.yul\":8553:8558   */\n      dup2\n        /* \"#utility.yul\":8550:8584   */\n      eq\n        /* \"#utility.yul\":8540:8602   */\n      tag_353\n      jumpi\n        /* \"#utility.yul\":8598:8599   */\n      0x00\n        /* \"#utility.yul\":8595:8596   */\n      dup1\n        /* \"#utility.yul\":8588:8600   */\n      revert\n        /* \"#utility.yul\":8540:8602   */\n    tag_353:\n        /* \"#utility.yul\":8488:8608   */\n      pop\n      jump\t// out\n        /* \"#utility.yul\":8614:8751   */\n    tag_229:\n        /* \"#utility.yul\":8659:8664   */\n      0x00\n        /* \"#utility.yul\":8697:8703   */\n      dup2\n        /* \"#utility.yul\":8684:8704   */\n      calldataload\n        /* \"#utility.yul\":8675:8704   */\n      swap1\n      pop\n        /* \"#utility.yul\":8713:8745   */\n      tag_355\n        /* \"#utility.yul\":8739:8744   */\n      dup2\n        /* \"#utility.yul\":8713:8745   */\n      tag_228\n      jump\t// in\n    tag_355:\n        /* \"#utility.yul\":8614:8751   */\n      swap3\n      swap2\n      pop\n      pop\n      jump\t// out\n        /* \"#utility.yul\":8757:9084   */\n    tag_33:\n        /* \"#utility.yul\":8815:8821   */\n      0x00\n        /* \"#utility.yul\":8864:8866   */\n      0x20\n        /* \"#utility.yul\":8852:8861   */\n      dup3\n        /* \"#utility.yul\":8843:8850   */\n      dup5\n        /* \"#utility.yul\":8839:8862   */\n      sub\n        /* \"#utility.yul\":8835:8867   */\n      slt\n        /* \"#utility.yul\":8832:8951   */\n      iszero\n      tag_357\n      jumpi\n        /* \"#utility.yul\":8870:8949   */\n      tag_358\n      tag_200\n      jump\t// in\n    tag_358:\n        /* \"#utility.yul\":8832:8951   */\n    tag_357:\n        /* \"#utility.yul\":8990:8991   */\n      0x00\n        /* \"#utility.yul\":9015:9067   */\n      tag_359\n        /* \"#utility.yul\":9059:9066   */\n      dup5\n        /* \"#utility.yul\":9050:9056   */\n      dup3\n        /* \"#utility.yul\":9039:9048   */\n      dup6\n        /* \"#utility.yul\":9035:9057   */\n      add\n        /* \"#utility.yul\":9015:9067   */\n      tag_229\n      jump\t// in\n    tag_359:\n        /* \"#utility.yul\":9005:9067   */\n      swap2\n      pop\n        /* \"#utility.yul\":8961:9077   */\n      pop\n        /* \"#utility.yul\":8757:9084   */\n      swap3\n      swap2\n      pop\n      pop\n      jump\t// out\n        /* \"#utility.yul\":9090:9205   */\n    tag_230:\n        /* \"#utility.yul\":9175:9198   */\n      tag_361\n        /* \"#utility.yul\":9192:9197   */\n      dup2\n        /* \"#utility.yul\":9175:9198   */\n      tag_227\n      jump\t// in\n    tag_361:\n        /* \"#utility.yul\":9170:9173   */\n      dup3\n        /* \"#utility.yul\":9163:9199   */\n      mstore\n        /* \"#utility.yul\":9090:9205   */\n      pop\n      pop\n      jump\t// out\n        /* \"#utility.yul\":9211:9429   */\n    tag_41:\n        /* \"#utility.yul\":9302:9306   */\n      0x00\n        /* \"#utility.yul\":9340:9342   */\n      0x20\n        /* \"#utility.yul\":9329:9338   */\n      dup3\n        /* \"#utility.yul\":9325:9343   */\n      add\n        /* \"#utility.yul\":9317:9343   */\n      swap1\n      pop\n        /* \"#utility.yul\":9353:9422   */\n      tag_363\n        /* \"#utility.yul\":9419:9420   */\n      0x00\n        /* \"#utility.yul\":9408:9417   */\n      dup4\n        /* \"#utility.yul\":9404:9421   */\n      add\n        /* \"#utility.yul\":9395:9401   */\n      dup5\n        /* \"#utility.yul\":9353:9422   */\n      tag_230\n      jump\t// in\n    tag_363:\n        /* \"#utility.yul\":9211:9429   */\n      swap3\n      swap2\n      pop\n      pop\n      jump\t// out\n        /* \"#utility.yul\":9435:9657   */\n    tag_48:\n        /* \"#utility.yul\":9528:9532   */\n      0x00\n        /* \"#utility.yul\":9566:9568   */\n      0x20\n        /* \"#utility.yul\":9555:9564   */\n      dup3\n        /* \"#utility.yul\":9551:9569   */\n      add\n        /* \"#utility.yul\":9543:9569   */\n      swap1\n      pop\n        /* \"#utility.yul\":9579:9650   */\n      tag_365\n        /* \"#utility.yul\":9647:9648   */\n      0x00\n        /* \"#utility.yul\":9636:9645   */\n      dup4\n        /* \"#utility.yul\":9632:9649   */\n      add\n        /* \"#utility.yul\":9623:9629   */\n      dup5\n        /* \"#utility.yul\":9579:9650   */\n      tag_209\n      jump\t// in\n    tag_365:\n        /* \"#utility.yul\":9435:9657   */\n      swap3\n      swap2\n      pop\n      pop\n      jump\t// out\n        /* \"#utility.yul\":9663:9885   */\n    tag_52:\n        /* \"#utility.yul\":9756:9760   */\n      0x00\n        /* \"#utility.yul\":9794:9796   */\n      0x20\n        /* \"#utility.yul\":9783:9792   */\n      dup3\n        /* \"#utility.yul\":9779:9797   */\n      add\n        /* \"#utility.yul\":9771:9797   */\n      swap1\n      pop\n        /* \"#utility.yul\":9807:9878   */\n      tag_367\n        /* \"#utility.yul\":9875:9876   */\n      0x00\n        /* \"#utility.yul\":9864:9873   */\n      dup4\n        /* \"#utility.yul\":9860:9877   */\n      add\n        /* \"#utility.yul\":9851:9857   */\n      dup5\n        /* \"#utility.yul\":9807:9878   */\n      tag_210\n      jump\t// in\n    tag_367:\n        /* \"#utility.yul\":9663:9885   */\n      swap3\n      swap2\n      pop\n      pop\n      jump\t// out\n        /* \"#utility.yul\":9891:10008   */\n    tag_231:\n        /* \"#utility.yul\":10000:10001   */\n      0x00\n        /* \"#utility.yul\":9997:9998   */\n      dup1\n        /* \"#utility.yul\":9990:10002   */\n      revert\n        /* \"#utility.yul\":10014:10131   */\n    tag_232:\n        /* \"#utility.yul\":10123:10124   */\n      0x00\n        /* \"#utility.yul\":10120:10121   */\n      dup1\n        /* \"#utility.yul\":10113:10125   */\n      revert\n        /* \"#utility.yul\":10137:10317   */\n    tag_233:\n        /* \"#utility.yul\":10185:10262   */\n      0x4e487b7100000000000000000000000000000000000000000000000000000000\n        /* \"#utility.yul\":10182:10183   */\n      0x00\n        /* \"#utility.yul\":10175:10263   */\n      mstore\n        /* \"#utility.yul\":10282:10286   */\n      0x41\n        /* \"#utility.yul\":10279:10280   */\n      0x04\n        /* \"#utility.yul\":10272:10287   */\n      mstore\n        /* \"#utility.yul\":10306:10310   */\n      0x24\n        /* \"#utility.yul\":10303:10304   */\n      0x00\n        /* \"#utility.yul\":10296:10311   */\n      revert\n        /* \"#utility.yul\":10323:10604   */\n    tag_234:\n        /* \"#utility.yul\":10406:10433   */\n      tag_372\n        /* \"#utility.yul\":10428:10432   */\n      dup3\n        /* \"#utility.yul\":10406:10433   */\n      tag_214\n      jump\t// in\n    tag_372:\n        /* \"#utility.yul\":10398:10404   */\n      dup2\n        /* \"#utility.yul\":10394:10434   */\n      add\n        /* \"#utility.yul\":10536:10542   */\n      dup2\n        /* \"#utility.yul\":10524:10534   */\n      dup2\n        /* \"#utility.yul\":10521:10543   */\n      lt\n        /* \"#utility.yul\":10500:10518   */\n      0xffffffffffffffff\n        /* \"#utility.yul\":10488:10498   */\n      dup3\n        /* \"#utility.yul\":10485:10519   */\n      gt\n        /* \"#utility.yul\":10482:10544   */\n      or\n        /* \"#utility.yul\":10479:10567   */\n      iszero\n      tag_373\n      jumpi\n        /* \"#utility.yul\":10547:10565   */\n      tag_374\n      tag_233\n      jump\t// in\n    tag_374:\n        /* \"#utility.yul\":10479:10567   */\n    tag_373:\n        /* \"#utility.yul\":10587:10597   */\n      dup1\n        /* \"#utility.yul\":10583:10585   */\n      0x40\n        /* \"#utility.yul\":10576:10598   */\n      mstore\n        /* \"#utility.yul\":10366:10604   */\n      pop\n        /* \"#utility.yul\":10323:10604   */\n      pop\n      pop\n      jump\t// out\n        /* \"#utility.yul\":10610:10739   */\n    tag_235:\n        /* \"#utility.yul\":10644:10650   */\n      0x00\n        /* \"#utility.yul\":10671:10691   */\n      tag_376\n      tag_199\n      jump\t// in\n    tag_376:\n        /* \"#utility.yul\":10661:10691   */\n      swap1\n      pop\n        /* \"#utility.yul\":10700:10733   */\n      tag_377\n        /* \"#utility.yul\":10728:10732   */\n      dup3\n        /* \"#utility.yul\":10720:10726   */\n      dup3\n        /* \"#utility.yul\":10700:10733   */\n      tag_234\n      jump\t// in\n    tag_377:\n        /* \"#utility.yul\":10610:10739   */\n      swap2\n      swap1\n      pop\n      jump\t// out\n        /* \"#utility.yul\":10745:11053   */\n    tag_236:\n        /* \"#utility.yul\":10807:10811   */\n      0x00\n        /* \"#utility.yul\":10897:10915   */\n      0xffffffffffffffff\n        /* \"#utility.yul\":10889:10895   */\n      dup3\n        /* \"#utility.yul\":10886:10916   */\n      gt\n        /* \"#utility.yul\":10883:10939   */\n      iszero\n      tag_379\n      jumpi\n        /* \"#utility.yul\":10919:10937   */\n      tag_380\n      tag_233\n      jump\t// in\n    tag_380:\n        /* \"#utility.yul\":10883:10939   */\n    tag_379:\n        /* \"#utility.yul\":10957:10986   */\n      tag_381\n        /* \"#utility.yul\":10979:10985   */\n      dup3\n        /* \"#utility.yul\":10957:10986   */\n      tag_214\n      jump\t// in\n    tag_381:\n        /* \"#utility.yul\":10949:10986   */\n      swap1\n      pop\n        /* \"#utility.yul\":11041:11045   */\n      0x20\n        /* \"#utility.yul\":11035:11039   */\n      dup2\n        /* \"#utility.yul\":11031:11046   */\n      add\n        /* \"#utility.yul\":11023:11046   */\n      swap1\n      pop\n        /* \"#utility.yul\":10745:11053   */\n      swap2\n      swap1\n      pop\n      jump\t// out\n        /* \"#utility.yul\":11059:11207   */\n    tag_237:\n        /* \"#utility.yul\":11157:11163   */\n      dup3\n        /* \"#utility.yul\":11152:11155   */\n      dup2\n        /* \"#utility.yul\":11147:11150   */\n      dup4\n        /* \"#utility.yul\":11134:11164   */\n      calldatacopy\n        /* \"#utility.yul\":11198:11199   */\n      0x00\n        /* \"#utility.yul\":11189:11195   */\n      dup4\n        /* \"#utility.yul\":11184:11187   */\n      dup4\n        /* \"#utility.yul\":11180:11196   */\n      add\n        /* \"#utility.yul\":11173:11200   */\n      mstore\n        /* \"#utility.yul\":11059:11207   */\n      pop\n      pop\n      pop\n      jump\t// out\n        /* \"#utility.yul\":11213:11638   */\n    tag_238:\n        /* \"#utility.yul\":11291:11296   */\n      0x00\n        /* \"#utility.yul\":11316:11382   */\n      tag_384\n        /* \"#utility.yul\":11332:11381   */\n      tag_385\n        /* \"#utility.yul\":11374:11380   */\n      dup5\n        /* \"#utility.yul\":11332:11381   */\n      tag_236\n      jump\t// in\n    tag_385:\n        /* \"#utility.yul\":11316:11382   */\n      tag_235\n      jump\t// in\n    tag_384:\n        /* \"#utility.yul\":11307:11382   */\n      swap1\n      pop\n        /* \"#utility.yul\":11405:11411   */\n      dup3\n        /* \"#utility.yul\":11398:11403   */\n      dup2\n        /* \"#utility.yul\":11391:11412   */\n      mstore\n        /* \"#utility.yul\":11443:11447   */\n      0x20\n        /* \"#utility.yul\":11436:11441   */\n      dup2\n        /* \"#utility.yul\":11432:11448   */\n      add\n        /* \"#utility.yul\":11481:11484   */\n      dup5\n        /* \"#utility.yul\":11472:11478   */\n      dup5\n        /* \"#utility.yul\":11467:11470   */\n      dup5\n        /* \"#utility.yul\":11463:11479   */\n      add\n        /* \"#utility.yul\":11460:11485   */\n      gt\n        /* \"#utility.yul\":11457:11569   */\n      iszero\n      tag_386\n      jumpi\n        /* \"#utility.yul\":11488:11567   */\n      tag_387\n      tag_232\n      jump\t// in\n    tag_387:\n        /* \"#utility.yul\":11457:11569   */\n    tag_386:\n        /* \"#utility.yul\":11578:11632   */\n      tag_388\n        /* \"#utility.yul\":11625:11631   */\n      dup5\n        /* \"#utility.yul\":11620:11623   */\n      dup3\n        /* \"#utility.yul\":11615:11618   */\n      dup6\n        /* \"#utility.yul\":11578:11632   */\n      tag_237\n      jump\t// in\n    tag_388:\n        /* \"#utility.yul\":11297:11638   */\n      pop\n        /* \"#utility.yul\":11213:11638   */\n      swap4\n      swap3\n      pop\n      pop\n      pop\n      jump\t// out\n        /* \"#utility.yul\":11658:11998   */\n    tag_239:\n        /* \"#utility.yul\":11714:11719   */\n      0x00\n        /* \"#utility.yul\":11763:11766   */\n      dup3\n        /* \"#utility.yul\":11756:11760   */\n      0x1f\n        /* \"#utility.yul\":11748:11754   */\n      dup4\n        /* \"#utility.yul\":11744:11761   */\n      add\n        /* \"#utility.yul\":11740:11767   */\n      slt\n        /* \"#utility.yul\":11730:11852   */\n      tag_390\n      jumpi\n        /* \"#utility.yul\":11771:11850   */\n      tag_391\n      tag_231\n      jump\t// in\n    tag_391:\n        /* \"#utility.yul\":11730:11852   */\n    tag_390:\n        /* \"#utility.yul\":11888:11894   */\n      dup2\n        /* \"#utility.yul\":11875:11895   */\n      calldataload\n        /* \"#utility.yul\":11913:11992   */\n      tag_392\n        /* \"#utility.yul\":11988:11991   */\n      dup5\n        /* \"#utility.yul\":11980:11986   */\n      dup3\n        /* \"#utility.yul\":11973:11977   */\n      0x20\n        /* \"#utility.yul\":11965:11971   */\n      dup7\n        /* \"#utility.yul\":11961:11978   */\n      add\n        /* \"#utility.yul\":11913:11992   */\n      tag_238\n      jump\t// in\n    tag_392:\n        /* \"#utility.yul\":11904:11992   */\n      swap2\n      pop\n        /* \"#utility.yul\":11720:11998   */\n      pop\n        /* \"#utility.yul\":11658:11998   */\n      swap3\n      swap2\n      pop\n      pop\n      jump\t// out\n        /* \"#utility.yul\":12004:12513   */\n    tag_55:\n        /* \"#utility.yul\":12073:12079   */\n      0x00\n        /* \"#utility.yul\":12122:12124   */\n      0x20\n        /* \"#utility.yul\":12110:12119   */\n      dup3\n        /* \"#utility.yul\":12101:12108   */\n      dup5\n        /* \"#utility.yul\":12097:12120   */\n      sub\n        /* \"#utility.yul\":12093:12125   */\n      slt\n        /* \"#utility.yul\":12090:12209   */\n      iszero\n      tag_394\n      jumpi\n        /* \"#utility.yul\":12128:12207   */\n      tag_395\n      tag_200\n      jump\t// in\n    tag_395:\n        /* \"#utility.yul\":12090:12209   */\n    tag_394:\n        /* \"#utility.yul\":12276:12277   */\n      0x00\n        /* \"#utility.yul\":12265:12274   */\n      dup3\n        /* \"#utility.yul\":12261:12278   */\n      add\n        /* \"#utility.yul\":12248:12279   */\n      calldataload\n        /* \"#utility.yul\":12306:12324   */\n      0xffffffffffffffff\n        /* \"#utility.yul\":12298:12304   */\n      dup2\n        /* \"#utility.yul\":12295:12325   */\n      gt\n        /* \"#utility.yul\":12292:12409   */\n      iszero\n      tag_396\n      jumpi\n        /* \"#utility.yul\":12328:12407   */\n      tag_397\n      tag_201\n      jump\t// in\n    tag_397:\n        /* \"#utility.yul\":12292:12409   */\n    tag_396:\n        /* \"#utility.yul\":12433:12496   */\n      tag_398\n        /* \"#utility.yul\":12488:12495   */\n      dup5\n        /* \"#utility.yul\":12479:12485   */\n      dup3\n        /* \"#utility.yul\":12468:12477   */\n      dup6\n        /* \"#utility.yul\":12464:12486   */\n      add\n        /* \"#utility.yul\":12433:12496   */\n      tag_239\n      jump\t// in\n    tag_398:\n        /* \"#utility.yul\":12423:12496   */\n      swap2\n      pop\n        /* \"#utility.yul\":12219:12506   */\n      pop\n        /* \"#utility.yul\":12004:12513   */\n      swap3\n      swap2\n      pop\n      pop\n      jump\t// out\n        /* \"#utility.yul\":12519:12848   */\n    tag_59:\n        /* \"#utility.yul\":12578:12584   */\n      0x00\n        /* \"#utility.yul\":12627:12629   */\n      0x20\n        /* \"#utility.yul\":12615:12624   */\n      dup3\n        /* \"#utility.yul\":12606:12613   */\n      dup5\n        /* \"#utility.yul\":12602:12625   */\n      sub\n        /* \"#utility.yul\":12598:12630   */\n      slt\n        /* \"#utility.yul\":12595:12714   */\n      iszero\n      tag_400\n      jumpi\n        /* \"#utility.yul\":12633:12712   */\n      tag_401\n      tag_200\n      jump\t// in\n    tag_401:\n        /* \"#utility.yul\":12595:12714   */\n    tag_400:\n        /* \"#utility.yul\":12753:12754   */\n      0x00\n        /* \"#utility.yul\":12778:12831   */\n      tag_402\n        /* \"#utility.yul\":12823:12830   */\n      dup5\n        /* \"#utility.yul\":12814:12820   */\n      dup3\n        /* \"#utility.yul\":12803:12812   */\n      dup6\n        /* \"#utility.yul\":12799:12821   */\n      add\n        /* \"#utility.yul\":12778:12831   */\n      tag_208\n      jump\t// in\n    tag_402:\n        /* \"#utility.yul\":12768:12831   */\n      swap2\n      pop\n        /* \"#utility.yul\":12724:12841   */\n      pop\n        /* \"#utility.yul\":12519:12848   */\n      swap3\n      swap2\n      pop\n      pop\n      jump\t// out\n        /* \"#utility.yul\":12906:14037   */\n    tag_240:\n        /* \"#utility.yul\":13019:13022   */\n      0x00\n        /* \"#utility.yul\":13055:13059   */\n      0xa0\n        /* \"#utility.yul\":13050:13053   */\n      dup4\n        /* \"#utility.yul\":13046:13060   */\n      add\n        /* \"#utility.yul\":13140:13144   */\n      0x00\n        /* \"#utility.yul\":13133:13138   */\n      dup4\n        /* \"#utility.yul\":13129:13145   */\n      add\n        /* \"#utility.yul\":13123:13146   */\n      mload\n        /* \"#utility.yul\":13159:13222   */\n      tag_404\n        /* \"#utility.yul\":13216:13220   */\n      0x00\n        /* \"#utility.yul\":13211:13214   */\n      dup7\n        /* \"#utility.yul\":13207:13221   */\n      add\n        /* \"#utility.yul\":13193:13205   */\n      dup3\n        /* \"#utility.yul\":13159:13222   */\n      tag_219\n      jump\t// in\n    tag_404:\n        /* \"#utility.yul\":13070:13232   */\n      pop\n        /* \"#utility.yul\":13316:13320   */\n      0x20\n        /* \"#utility.yul\":13309:13314   */\n      dup4\n        /* \"#utility.yul\":13305:13321   */\n      add\n        /* \"#utility.yul\":13299:13322   */\n      mload\n        /* \"#utility.yul\":13335:13398   */\n      tag_405\n        /* \"#utility.yul\":13392:13396   */\n      0x20\n        /* \"#utility.yul\":13387:13390   */\n      dup7\n        /* \"#utility.yul\":13383:13397   */\n      add\n        /* \"#utility.yul\":13369:13381   */\n      dup3\n        /* \"#utility.yul\":13335:13398   */\n      tag_220\n      jump\t// in\n    tag_405:\n        /* \"#utility.yul\":13242:13408   */\n      pop\n        /* \"#utility.yul\":13493:13497   */\n      0x40\n        /* \"#utility.yul\":13486:13491   */\n      dup4\n        /* \"#utility.yul\":13482:13498   */\n      add\n        /* \"#utility.yul\":13476:13499   */\n      mload\n        /* \"#utility.yul\":13546:13549   */\n      dup5\n        /* \"#utility.yul\":13540:13544   */\n      dup3\n        /* \"#utility.yul\":13536:13550   */\n      sub\n        /* \"#utility.yul\":13529:13533   */\n      0x40\n        /* \"#utility.yul\":13524:13527   */\n      dup7\n        /* \"#utility.yul\":13520:13534   */\n      add\n        /* \"#utility.yul\":13513:13551   */\n      mstore\n        /* \"#utility.yul\":13572:13645   */\n      tag_406\n        /* \"#utility.yul\":13640:13644   */\n      dup3\n        /* \"#utility.yul\":13626:13638   */\n      dup3\n        /* \"#utility.yul\":13572:13645   */\n      tag_222\n      jump\t// in\n    tag_406:\n        /* \"#utility.yul\":13564:13645   */\n      swap2\n      pop\n        /* \"#utility.yul\":13418:13656   */\n      pop\n        /* \"#utility.yul\":13743:13747   */\n      0x60\n        /* \"#utility.yul\":13736:13741   */\n      dup4\n        /* \"#utility.yul\":13732:13748   */\n      add\n        /* \"#utility.yul\":13726:13749   */\n      mload\n        /* \"#utility.yul\":13762:13825   */\n      tag_407\n        /* \"#utility.yul\":13819:13823   */\n      0x60\n        /* \"#utility.yul\":13814:13817   */\n      dup7\n        /* \"#utility.yul\":13810:13824   */\n      add\n        /* \"#utility.yul\":13796:13808   */\n      dup3\n        /* \"#utility.yul\":13762:13825   */\n      tag_219\n      jump\t// in\n    tag_407:\n        /* \"#utility.yul\":13666:13835   */\n      pop\n        /* \"#utility.yul\":13918:13922   */\n      0x80\n        /* \"#utility.yul\":13911:13916   */\n      dup4\n        /* \"#utility.yul\":13907:13923   */\n      add\n        /* \"#utility.yul\":13901:13924   */\n      mload\n        /* \"#utility.yul\":13937:14000   */\n      tag_408\n        /* \"#utility.yul\":13994:13998   */\n      0x80\n        /* \"#utility.yul\":13989:13992   */\n      dup7\n        /* \"#utility.yul\":13985:13999   */\n      add\n        /* \"#utility.yul\":13971:13983   */\n      dup3\n        /* \"#utility.yul\":13937:14000   */\n      tag_219\n      jump\t// in\n    tag_408:\n        /* \"#utility.yul\":13845:14010   */\n      pop\n        /* \"#utility.yul\":14027:14031   */\n      dup1\n        /* \"#utility.yul\":14020:14031   */\n      swap2\n      pop\n        /* \"#utility.yul\":13024:14037   */\n      pop\n        /* \"#utility.yul\":12906:14037   */\n      swap3\n      swap2\n      pop\n      pop\n      jump\t// out\n        /* \"#utility.yul\":14043:14404   */\n    tag_62:\n        /* \"#utility.yul\":14180:14184   */\n      0x00\n        /* \"#utility.yul\":14218:14220   */\n      0x20\n        /* \"#utility.yul\":14207:14216   */\n      dup3\n        /* \"#utility.yul\":14203:14221   */\n      add\n        /* \"#utility.yul\":14195:14221   */\n      swap1\n      pop\n        /* \"#utility.yul\":14267:14276   */\n      dup2\n        /* \"#utility.yul\":14261:14265   */\n      dup2\n        /* \"#utility.yul\":14257:14277   */\n      sub\n        /* \"#utility.yul\":14253:14254   */\n      0x00\n        /* \"#utility.yul\":14242:14251   */\n      dup4\n        /* \"#utility.yul\":14238:14255   */\n      add\n        /* \"#utility.yul\":14231:14278   */\n      mstore\n        /* \"#utility.yul\":14295:14397   */\n      tag_410\n        /* \"#utility.yul\":14392:14396   */\n      dup2\n        /* \"#utility.yul\":14383:14389   */\n      dup5\n        /* \"#utility.yul\":14295:14397   */\n      tag_240\n      jump\t// in\n    tag_410:\n        /* \"#utility.yul\":14287:14397   */\n      swap1\n      pop\n        /* \"#utility.yul\":14043:14404   */\n      swap3\n      swap2\n      pop\n      pop\n      jump\t// out\n        /* \"#utility.yul\":14410:14590   */\n    tag_241:\n        /* \"#utility.yul\":14458:14535   */\n      0x4e487b7100000000000000000000000000000000000000000000000000000000\n        /* \"#utility.yul\":14455:14456   */\n      0x00\n        /* \"#utility.yul\":14448:14536   */\n      mstore\n        /* \"#utility.yul\":14555:14559   */\n      0x22\n        /* \"#utility.yul\":14552:14553   */\n      0x04\n        /* \"#utility.yul\":14545:14560   */\n      mstore\n        /* \"#utility.yul\":14579:14583   */\n      0x24\n        /* \"#utility.yul\":14576:14577   */\n      0x00\n        /* \"#utility.yul\":14569:14584   */\n      revert\n        /* \"#utility.yul\":14596:14916   */\n    tag_69:\n        /* \"#utility.yul\":14640:14646   */\n      0x00\n        /* \"#utility.yul\":14677:14678   */\n      0x02\n        /* \"#utility.yul\":14671:14675   */\n      dup3\n        /* \"#utility.yul\":14667:14679   */\n      div\n        /* \"#utility.yul\":14657:14679   */\n      swap1\n      pop\n        /* \"#utility.yul\":14724:14725   */\n      0x01\n        /* \"#utility.yul\":14718:14722   */\n      dup3\n        /* \"#utility.yul\":14714:14726   */\n      and\n        /* \"#utility.yul\":14745:14763   */\n      dup1\n        /* \"#utility.yul\":14735:14816   */\n      tag_413\n      jumpi\n        /* \"#utility.yul\":14801:14805   */\n      0x7f\n        /* \"#utility.yul\":14793:14799   */\n      dup3\n        /* \"#utility.yul\":14789:14806   */\n      and\n        /* \"#utility.yul\":14779:14806   */\n      swap2\n      pop\n        /* \"#utility.yul\":14735:14816   */\n    tag_413:\n        /* \"#utility.yul\":14863:14865   */\n      0x20\n        /* \"#utility.yul\":14855:14861   */\n      dup3\n        /* \"#utility.yul\":14852:14866   */\n      lt\n        /* \"#utility.yul\":14832:14850   */\n      dup2\n        /* \"#utility.yul\":14829:14867   */\n      sub\n        /* \"#utility.yul\":14826:14910   */\n      tag_414\n      jumpi\n        /* \"#utility.yul\":14882:14900   */\n      tag_415\n      tag_241\n      jump\t// in\n    tag_415:\n        /* \"#utility.yul\":14826:14910   */\n    tag_414:\n        /* \"#utility.yul\":14647:14916   */\n      pop\n        /* \"#utility.yul\":14596:14916   */\n      swap2\n      swap1\n      pop\n      jump\t// out\n        /* \"#utility.yul\":14922:15039   */\n    tag_242:\n        /* \"#utility.yul\":15031:15032   */\n      0x00\n        /* \"#utility.yul\":15028:15029   */\n      dup1\n        /* \"#utility.yul\":15021:15033   */\n      revert\n        /* \"#utility.yul\":15045:15162   */\n    tag_243:\n        /* \"#utility.yul\":15154:15155   */\n      0x00\n        /* \"#utility.yul\":15151:15152   */\n      dup1\n        /* \"#utility.yul\":15144:15156   */\n      revert\n        /* \"#utility.yul\":15168:15602   */\n    tag_244:\n        /* \"#utility.yul\":15257:15262   */\n      0x00\n        /* \"#utility.yul\":15282:15348   */\n      tag_419\n        /* \"#utility.yul\":15298:15347   */\n      tag_420\n        /* \"#utility.yul\":15340:15346   */\n      dup5\n        /* \"#utility.yul\":15298:15347   */\n      tag_236\n      jump\t// in\n    tag_420:\n        /* \"#utility.yul\":15282:15348   */\n      tag_235\n      jump\t// in\n    tag_419:\n        /* \"#utility.yul\":15273:15348   */\n      swap1\n      pop\n        /* \"#utility.yul\":15371:15377   */\n      dup3\n        /* \"#utility.yul\":15364:15369   */\n      dup2\n        /* \"#utility.yul\":15357:15378   */\n      mstore\n        /* \"#utility.yul\":15409:15413   */\n      0x20\n        /* \"#utility.yul\":15402:15407   */\n      dup2\n        /* \"#utility.yul\":15398:15414   */\n      add\n        /* \"#utility.yul\":15447:15450   */\n      dup5\n        /* \"#utility.yul\":15438:15444   */\n      dup5\n        /* \"#utility.yul\":15433:15436   */\n      dup5\n        /* \"#utility.yul\":15429:15445   */\n      add\n        /* \"#utility.yul\":15426:15451   */\n      gt\n        /* \"#utility.yul\":15423:15535   */\n      iszero\n      tag_421\n      jumpi\n        /* \"#utility.yul\":15454:15533   */\n      tag_422\n      tag_232\n      jump\t// in\n    tag_422:\n        /* \"#utility.yul\":15423:15535   */\n    tag_421:\n        /* \"#utility.yul\":15544:15596   */\n      tag_423\n        /* \"#utility.yul\":15589:15595   */\n      dup5\n        /* \"#utility.yul\":15584:15587   */\n      dup3\n        /* \"#utility.yul\":15579:15582   */\n      dup6\n        /* \"#utility.yul\":15544:15596   */\n      tag_213\n      jump\t// in\n    tag_423:\n        /* \"#utility.yul\":15263:15602   */\n      pop\n        /* \"#utility.yul\":15168:15602   */\n      swap4\n      swap3\n      pop\n      pop\n      pop\n      jump\t// out\n        /* \"#utility.yul\":15622:15977   */\n    tag_245:\n        /* \"#utility.yul\":15689:15694   */\n      0x00\n        /* \"#utility.yul\":15738:15741   */\n      dup3\n        /* \"#utility.yul\":15731:15735   */\n      0x1f\n        /* \"#utility.yul\":15723:15729   */\n      dup4\n        /* \"#utility.yul\":15719:15736   */\n      add\n        /* \"#utility.yul\":15715:15742   */\n      slt\n        /* \"#utility.yul\":15705:15827   */\n      tag_425\n      jumpi\n        /* \"#utility.yul\":15746:15825   */\n      tag_426\n      tag_231\n      jump\t// in\n    tag_426:\n        /* \"#utility.yul\":15705:15827   */\n    tag_425:\n        /* \"#utility.yul\":15856:15862   */\n      dup2\n        /* \"#utility.yul\":15850:15863   */\n      mload\n        /* \"#utility.yul\":15881:15971   */\n      tag_427\n        /* \"#utility.yul\":15967:15970   */\n      dup5\n        /* \"#utility.yul\":15959:15965   */\n      dup3\n        /* \"#utility.yul\":15952:15956   */\n      0x20\n        /* \"#utility.yul\":15944:15950   */\n      dup7\n        /* \"#utility.yul\":15940:15957   */\n      add\n        /* \"#utility.yul\":15881:15971   */\n      tag_244\n      jump\t// in\n    tag_427:\n        /* \"#utility.yul\":15872:15971   */\n      swap2\n      pop\n        /* \"#utility.yul\":15695:15977   */\n      pop\n        /* \"#utility.yul\":15622:15977   */\n      swap3\n      swap2\n      pop\n      pop\n      jump\t// out\n        /* \"#utility.yul\":16018:16960   */\n    tag_246:\n        /* \"#utility.yul\":16106:16111   */\n      0x00\n        /* \"#utility.yul\":16150:16154   */\n      0x40\n        /* \"#utility.yul\":16138:16147   */\n      dup3\n        /* \"#utility.yul\":16133:16136   */\n      dup5\n        /* \"#utility.yul\":16129:16148   */\n      sub\n        /* \"#utility.yul\":16125:16155   */\n      slt\n        /* \"#utility.yul\":16122:16239   */\n      iszero\n      tag_429\n      jumpi\n        /* \"#utility.yul\":16158:16237   */\n      tag_430\n      tag_242\n      jump\t// in\n    tag_430:\n        /* \"#utility.yul\":16122:16239   */\n    tag_429:\n        /* \"#utility.yul\":16257:16278   */\n      tag_431\n        /* \"#utility.yul\":16273:16277   */\n      0x40\n        /* \"#utility.yul\":16257:16278   */\n      tag_235\n      jump\t// in\n    tag_431:\n        /* \"#utility.yul\":16248:16278   */\n      swap1\n      pop\n        /* \"#utility.yul\":16365:16366   */\n      0x00\n        /* \"#utility.yul\":16354:16363   */\n      dup3\n        /* \"#utility.yul\":16350:16367   */\n      add\n        /* \"#utility.yul\":16344:16368   */\n      mload\n        /* \"#utility.yul\":16395:16413   */\n      0xffffffffffffffff\n        /* \"#utility.yul\":16387:16393   */\n      dup2\n        /* \"#utility.yul\":16384:16414   */\n      gt\n        /* \"#utility.yul\":16381:16498   */\n      iszero\n      tag_432\n      jumpi\n        /* \"#utility.yul\":16417:16496   */\n      tag_433\n      tag_243\n      jump\t// in\n    tag_433:\n        /* \"#utility.yul\":16381:16498   */\n    tag_432:\n        /* \"#utility.yul\":16537:16607   */\n      tag_434\n        /* \"#utility.yul\":16603:16606   */\n      dup5\n        /* \"#utility.yul\":16594:16600   */\n      dup3\n        /* \"#utility.yul\":16583:16592   */\n      dup6\n        /* \"#utility.yul\":16579:16601   */\n      add\n        /* \"#utility.yul\":16537:16607   */\n      tag_245\n      jump\t// in\n    tag_434:\n        /* \"#utility.yul\":16530:16534   */\n      0x00\n        /* \"#utility.yul\":16523:16528   */\n      dup4\n        /* \"#utility.yul\":16519:16535   */\n      add\n        /* \"#utility.yul\":16512:16608   */\n      mstore\n        /* \"#utility.yul\":16288:16619   */\n      pop\n        /* \"#utility.yul\":16698:16700   */\n      0x20\n        /* \"#utility.yul\":16687:16696   */\n      dup3\n        /* \"#utility.yul\":16683:16701   */\n      add\n        /* \"#utility.yul\":16677:16702   */\n      mload\n        /* \"#utility.yul\":16729:16747   */\n      0xffffffffffffffff\n        /* \"#utility.yul\":16721:16727   */\n      dup2\n        /* \"#utility.yul\":16718:16748   */\n      gt\n        /* \"#utility.yul\":16715:16832   */\n      iszero\n      tag_435\n      jumpi\n        /* \"#utility.yul\":16751:16830   */\n      tag_436\n      tag_243\n      jump\t// in\n    tag_436:\n        /* \"#utility.yul\":16715:16832   */\n    tag_435:\n        /* \"#utility.yul\":16871:16941   */\n      tag_437\n        /* \"#utility.yul\":16937:16940   */\n      dup5\n        /* \"#utility.yul\":16928:16934   */\n      dup3\n        /* \"#utility.yul\":16917:16926   */\n      dup6\n        /* \"#utility.yul\":16913:16935   */\n      add\n        /* \"#utility.yul\":16871:16941   */\n      tag_245\n      jump\t// in\n    tag_437:\n        /* \"#utility.yul\":16864:16868   */\n      0x20\n        /* \"#utility.yul\":16857:16862   */\n      dup4\n        /* \"#utility.yul\":16853:16869   */\n      add\n        /* \"#utility.yul\":16846:16942   */\n      mstore\n        /* \"#utility.yul\":16629:16953   */\n      pop\n        /* \"#utility.yul\":16018:16960   */\n      swap3\n      swap2\n      pop\n      pop\n      jump\t// out\n        /* \"#utility.yul\":16966:17526   */\n    tag_88:\n        /* \"#utility.yul\":17064:17070   */\n      0x00\n        /* \"#utility.yul\":17113:17115   */\n      0x20\n        /* \"#utility.yul\":17101:17110   */\n      dup3\n        /* \"#utility.yul\":17092:17099   */\n      dup5\n        /* \"#utility.yul\":17088:17111   */\n      sub\n        /* \"#utility.yul\":17084:17116   */\n      slt\n        /* \"#utility.yul\":17081:17200   */\n      iszero\n      tag_439\n      jumpi\n        /* \"#utility.yul\":17119:17198   */\n      tag_440\n      tag_200\n      jump\t// in\n    tag_440:\n        /* \"#utility.yul\":17081:17200   */\n    tag_439:\n        /* \"#utility.yul\":17260:17261   */\n      0x00\n        /* \"#utility.yul\":17249:17258   */\n      dup3\n        /* \"#utility.yul\":17245:17262   */\n      add\n        /* \"#utility.yul\":17239:17263   */\n      mload\n        /* \"#utility.yul\":17290:17308   */\n      0xffffffffffffffff\n        /* \"#utility.yul\":17282:17288   */\n      dup2\n        /* \"#utility.yul\":17279:17309   */\n      gt\n        /* \"#utility.yul\":17276:17393   */\n      iszero\n      tag_441\n      jumpi\n        /* \"#utility.yul\":17312:17391   */\n      tag_442\n      tag_201\n      jump\t// in\n    tag_442:\n        /* \"#utility.yul\":17276:17393   */\n    tag_441:\n        /* \"#utility.yul\":17417:17509   */\n      tag_443\n        /* \"#utility.yul\":17501:17508   */\n      dup5\n        /* \"#utility.yul\":17492:17498   */\n      dup3\n        /* \"#utility.yul\":17481:17490   */\n      dup6\n        /* \"#utility.yul\":17477:17499   */\n      add\n        /* \"#utility.yul\":17417:17509   */\n      tag_246\n      jump\t// in\n    tag_443:\n        /* \"#utility.yul\":17407:17509   */\n      swap2\n      pop\n        /* \"#utility.yul\":17210:17519   */\n      pop\n        /* \"#utility.yul\":16966:17526   */\n      swap3\n      swap2\n      pop\n      pop\n      jump\t// out\n        /* \"#utility.yul\":17532:17701   */\n    tag_247:\n        /* \"#utility.yul\":17672:17693   */\n      0x55534552204e4f54205245474953544552454400000000000000000000000000\n        /* \"#utility.yul\":17668:17669   */\n      0x00\n        /* \"#utility.yul\":17660:17666   */\n      dup3\n        /* \"#utility.yul\":17656:17670   */\n      add\n        /* \"#utility.yul\":17649:17694   */\n      mstore\n        /* \"#utility.yul\":17532:17701   */\n      pop\n      jump\t// out\n        /* \"#utility.yul\":17707:18073   */\n    tag_248:\n        /* \"#utility.yul\":17849:17852   */\n      0x00\n        /* \"#utility.yul\":17870:17937   */\n      tag_446\n        /* \"#utility.yul\":17934:17936   */\n      0x13\n        /* \"#utility.yul\":17929:17932   */\n      dup4\n        /* \"#utility.yul\":17870:17937   */\n      tag_212\n      jump\t// in\n    tag_446:\n        /* \"#utility.yul\":17863:17937   */\n      swap2\n      pop\n        /* \"#utility.yul\":17946:18039   */\n      tag_447\n        /* \"#utility.yul\":18035:18038   */\n      dup3\n        /* \"#utility.yul\":17946:18039   */\n      tag_247\n      jump\t// in\n    tag_447:\n        /* \"#utility.yul\":18064:18066   */\n      0x20\n        /* \"#utility.yul\":18059:18062   */\n      dup3\n        /* \"#utility.yul\":18055:18067   */\n      add\n        /* \"#utility.yul\":18048:18067   */\n      swap1\n      pop\n        /* \"#utility.yul\":17707:18073   */\n      swap2\n      swap1\n      pop\n      jump\t// out\n        /* \"#utility.yul\":18079:18498   */\n    tag_91:\n        /* \"#utility.yul\":18245:18249   */\n      0x00\n        /* \"#utility.yul\":18283:18285   */\n      0x20\n        /* \"#utility.yul\":18272:18281   */\n      dup3\n        /* \"#utility.yul\":18268:18286   */\n      add\n        /* \"#utility.yul\":18260:18286   */\n      swap1\n      pop\n        /* \"#utility.yul\":18332:18341   */\n      dup2\n        /* \"#utility.yul\":18326:18330   */\n      dup2\n        /* \"#utility.yul\":18322:18342   */\n      sub\n        /* \"#utility.yul\":18318:18319   */\n      0x00\n        /* \"#utility.yul\":18307:18316   */\n      dup4\n        /* \"#utility.yul\":18303:18320   */\n      add\n        /* \"#utility.yul\":18296:18343   */\n      mstore\n        /* \"#utility.yul\":18360:18491   */\n      tag_449\n        /* \"#utility.yul\":18486:18490   */\n      dup2\n        /* \"#utility.yul\":18360:18491   */\n      tag_248\n      jump\t// in\n    tag_449:\n        /* \"#utility.yul\":18352:18491   */\n      swap1\n      pop\n        /* \"#utility.yul\":18079:18498   */\n      swap2\n      swap1\n      pop\n      jump\t// out\n        /* \"#utility.yul\":18504:18684   */\n    tag_95:\n        /* \"#utility.yul\":18552:18629   */\n      0x4e487b7100000000000000000000000000000000000000000000000000000000\n        /* \"#utility.yul\":18549:18550   */\n      0x00\n        /* \"#utility.yul\":18542:18630   */\n      mstore\n        /* \"#utility.yul\":18649:18653   */\n      0x32\n        /* \"#utility.yul\":18646:18647   */\n      0x04\n        /* \"#utility.yul\":18639:18654   */\n      mstore\n        /* \"#utility.yul\":18673:18677   */\n      0x24\n        /* \"#utility.yul\":18670:18671   */\n      0x00\n        /* \"#utility.yul\":18663:18678   */\n      revert\n        /* \"#utility.yul\":18690:18860   */\n    tag_249:\n        /* \"#utility.yul\":18830:18852   */\n      0x547765657420446f6573204e6f74204578697374000000000000000000000000\n        /* \"#utility.yul\":18826:18827   */\n      0x00\n        /* \"#utility.yul\":18818:18824   */\n      dup3\n        /* \"#utility.yul\":18814:18828   */\n      add\n        /* \"#utility.yul\":18807:18853   */\n      mstore\n        /* \"#utility.yul\":18690:18860   */\n      pop\n      jump\t// out\n        /* \"#utility.yul\":18866:19232   */\n    tag_250:\n        /* \"#utility.yul\":19008:19011   */\n      0x00\n        /* \"#utility.yul\":19029:19096   */\n      tag_453\n        /* \"#utility.yul\":19093:19095   */\n      0x14\n        /* \"#utility.yul\":19088:19091   */\n      dup4\n        /* \"#utility.yul\":19029:19096   */\n      tag_212\n      jump\t// in\n    tag_453:\n        /* \"#utility.yul\":19022:19096   */\n      swap2\n      pop\n        /* \"#utility.yul\":19105:19198   */\n      tag_454\n        /* \"#utility.yul\":19194:19197   */\n      dup3\n        /* \"#utility.yul\":19105:19198   */\n      tag_249\n      jump\t// in\n    tag_454:\n        /* \"#utility.yul\":19223:19225   */\n      0x20\n        /* \"#utility.yul\":19218:19221   */\n      dup3\n        /* \"#utility.yul\":19214:19226   */\n      add\n        /* \"#utility.yul\":19207:19226   */\n      swap1\n      pop\n        /* \"#utility.yul\":18866:19232   */\n      swap2\n      swap1\n      pop\n      jump\t// out\n        /* \"#utility.yul\":19238:19657   */\n    tag_99:\n        /* \"#utility.yul\":19404:19408   */\n      0x00\n        /* \"#utility.yul\":19442:19444   */\n      0x20\n        /* \"#utility.yul\":19431:19440   */\n      dup3\n        /* \"#utility.yul\":19427:19445   */\n      add\n        /* \"#utility.yul\":19419:19445   */\n      swap1\n      pop\n        /* \"#utility.yul\":19491:19500   */\n      dup2\n        /* \"#utility.yul\":19485:19489   */\n      dup2\n        /* \"#utility.yul\":19481:19501   */\n      sub\n        /* \"#utility.yul\":19477:19478   */\n      0x00\n        /* \"#utility.yul\":19466:19475   */\n      dup4\n        /* \"#utility.yul\":19462:19479   */\n      add\n        /* \"#utility.yul\":19455:19502   */\n      mstore\n        /* \"#utility.yul\":19519:19650   */\n      tag_456\n        /* \"#utility.yul\":19645:19649   */\n      dup2\n        /* \"#utility.yul\":19519:19650   */\n      tag_250\n      jump\t// in\n    tag_456:\n        /* \"#utility.yul\":19511:19650   */\n      swap1\n      pop\n        /* \"#utility.yul\":19238:19657   */\n      swap2\n      swap1\n      pop\n      jump\t// out\n        /* \"#utility.yul\":19663:19831   */\n    tag_251:\n        /* \"#utility.yul\":19803:19823   */\n      0x547765657420486173204e6f204c696b65730000000000000000000000000000\n        /* \"#utility.yul\":19799:19800   */\n      0x00\n        /* \"#utility.yul\":19791:19797   */\n      dup3\n        /* \"#utility.yul\":19787:19801   */\n      add\n        /* \"#utility.yul\":19780:19824   */\n      mstore\n        /* \"#utility.yul\":19663:19831   */\n      pop\n      jump\t// out\n        /* \"#utility.yul\":19837:20203   */\n    tag_252:\n        /* \"#utility.yul\":19979:19982   */\n      0x00\n        /* \"#utility.yul\":20000:20067   */\n      tag_459\n        /* \"#utility.yul\":20064:20066   */\n      0x12\n        /* \"#utility.yul\":20059:20062   */\n      dup4\n        /* \"#utility.yul\":20000:20067   */\n      tag_212\n      jump\t// in\n    tag_459:\n        /* \"#utility.yul\":19993:20067   */\n      swap2\n      pop\n        /* \"#utility.yul\":20076:20169   */\n      tag_460\n        /* \"#utility.yul\":20165:20168   */\n      dup3\n        /* \"#utility.yul\":20076:20169   */\n      tag_251\n      jump\t// in\n    tag_460:\n        /* \"#utility.yul\":20194:20196   */\n      0x20\n        /* \"#utility.yul\":20189:20192   */\n      dup3\n        /* \"#utility.yul\":20185:20197   */\n      add\n        /* \"#utility.yul\":20178:20197   */\n      swap1\n      pop\n        /* \"#utility.yul\":19837:20203   */\n      swap2\n      swap1\n      pop\n      jump\t// out\n        /* \"#utility.yul\":20209:20628   */\n    tag_105:\n        /* \"#utility.yul\":20375:20379   */\n      0x00\n        /* \"#utility.yul\":20413:20415   */\n      0x20\n        /* \"#utility.yul\":20402:20411   */\n      dup3\n        /* \"#utility.yul\":20398:20416   */\n      add\n        /* \"#utility.yul\":20390:20416   */\n      swap1\n      pop\n        /* \"#utility.yul\":20462:20471   */\n      dup2\n        /* \"#utility.yul\":20456:20460   */\n      dup2\n        /* \"#utility.yul\":20452:20472   */\n      sub\n        /* \"#utility.yul\":20448:20449   */\n      0x00\n        /* \"#utility.yul\":20437:20446   */\n      dup4\n        /* \"#utility.yul\":20433:20450   */\n      add\n        /* \"#utility.yul\":20426:20473   */\n      mstore\n        /* \"#utility.yul\":20490:20621   */\n      tag_462\n        /* \"#utility.yul\":20616:20620   */\n      dup2\n        /* \"#utility.yul\":20490:20621   */\n      tag_252\n      jump\t// in\n    tag_462:\n        /* \"#utility.yul\":20482:20621   */\n      swap1\n      pop\n        /* \"#utility.yul\":20209:20628   */\n      swap2\n      swap1\n      pop\n      jump\t// out\n        /* \"#utility.yul\":20634:20814   */\n    tag_253:\n        /* \"#utility.yul\":20682:20759   */\n      0x4e487b7100000000000000000000000000000000000000000000000000000000\n        /* \"#utility.yul\":20679:20680   */\n      0x00\n        /* \"#utility.yul\":20672:20760   */\n      mstore\n        /* \"#utility.yul\":20779:20783   */\n      0x11\n        /* \"#utility.yul\":20776:20777   */\n      0x04\n        /* \"#utility.yul\":20769:20784   */\n      mstore\n        /* \"#utility.yul\":20803:20807   */\n      0x24\n        /* \"#utility.yul\":20800:20801   */\n      0x00\n        /* \"#utility.yul\":20793:20808   */\n      revert\n        /* \"#utility.yul\":20820:20991   */\n    tag_110:\n        /* \"#utility.yul\":20859:20862   */\n      0x00\n        /* \"#utility.yul\":20882:20906   */\n      tag_465\n        /* \"#utility.yul\":20900:20905   */\n      dup3\n        /* \"#utility.yul\":20882:20906   */\n      tag_206\n      jump\t// in\n    tag_465:\n        /* \"#utility.yul\":20873:20906   */\n      swap2\n      pop\n        /* \"#utility.yul\":20928:20932   */\n      0x00\n        /* \"#utility.yul\":20921:20926   */\n      dup3\n        /* \"#utility.yul\":20918:20933   */\n      sub\n        /* \"#utility.yul\":20915:20956   */\n      tag_466\n      jumpi\n        /* \"#utility.yul\":20936:20954   */\n      tag_467\n      tag_253\n      jump\t// in\n    tag_467:\n        /* \"#utility.yul\":20915:20956   */\n    tag_466:\n        /* \"#utility.yul\":20983:20984   */\n      0x01\n        /* \"#utility.yul\":20976:20981   */\n      dup3\n        /* \"#utility.yul\":20972:20985   */\n      sub\n        /* \"#utility.yul\":20965:20985   */\n      swap1\n      pop\n        /* \"#utility.yul\":20820:20991   */\n      swap2\n      swap1\n      pop\n      jump\t// out\n        /* \"#utility.yul\":20997:21550   */\n    tag_115:\n        /* \"#utility.yul\":21174:21178   */\n      0x00\n        /* \"#utility.yul\":21212:21215   */\n      0x80\n        /* \"#utility.yul\":21201:21210   */\n      dup3\n        /* \"#utility.yul\":21197:21216   */\n      add\n        /* \"#utility.yul\":21189:21216   */\n      swap1\n      pop\n        /* \"#utility.yul\":21226:21297   */\n      tag_469\n        /* \"#utility.yul\":21294:21295   */\n      0x00\n        /* \"#utility.yul\":21283:21292   */\n      dup4\n        /* \"#utility.yul\":21279:21296   */\n      add\n        /* \"#utility.yul\":21270:21276   */\n      dup8\n        /* \"#utility.yul\":21226:21297   */\n      tag_210\n      jump\t// in\n    tag_469:\n        /* \"#utility.yul\":21307:21379   */\n      tag_470\n        /* \"#utility.yul\":21375:21377   */\n      0x20\n        /* \"#utility.yul\":21364:21373   */\n      dup4\n        /* \"#utility.yul\":21360:21378   */\n      add\n        /* \"#utility.yul\":21351:21357   */\n      dup7\n        /* \"#utility.yul\":21307:21379   */\n      tag_210\n      jump\t// in\n    tag_470:\n        /* \"#utility.yul\":21389:21461   */\n      tag_471\n        /* \"#utility.yul\":21457:21459   */\n      0x40\n        /* \"#utility.yul\":21446:21455   */\n      dup4\n        /* \"#utility.yul\":21442:21460   */\n      add\n        /* \"#utility.yul\":21433:21439   */\n      dup6\n        /* \"#utility.yul\":21389:21461   */\n      tag_209\n      jump\t// in\n    tag_471:\n        /* \"#utility.yul\":21471:21543   */\n      tag_472\n        /* \"#utility.yul\":21539:21541   */\n      0x60\n        /* \"#utility.yul\":21528:21537   */\n      dup4\n        /* \"#utility.yul\":21524:21542   */\n      add\n        /* \"#utility.yul\":21515:21521   */\n      dup5\n        /* \"#utility.yul\":21471:21543   */\n      tag_209\n      jump\t// in\n    tag_472:\n        /* \"#utility.yul\":20997:21550   */\n      swap6\n      swap5\n      pop\n      pop\n      pop\n      pop\n      pop\n      jump\t// out\n        /* \"#utility.yul\":21556:21789   */\n    tag_137:\n        /* \"#utility.yul\":21595:21598   */\n      0x00\n        /* \"#utility.yul\":21618:21642   */\n      tag_474\n        /* \"#utility.yul\":21636:21641   */\n      dup3\n        /* \"#utility.yul\":21618:21642   */\n      tag_206\n      jump\t// in\n    tag_474:\n        /* \"#utility.yul\":21609:21642   */\n      swap2\n      pop\n        /* \"#utility.yul\":21664:21730   */\n      0xffffffffffffffffffffffffffffffffffffffffffffffffffffffffffffffff\n        /* \"#utility.yul\":21657:21662   */\n      dup3\n        /* \"#utility.yul\":21654:21731   */\n      sub\n        /* \"#utility.yul\":21651:21754   */\n      tag_475\n      jumpi\n        /* \"#utility.yul\":21734:21752   */\n      tag_476\n      tag_253\n      jump\t// in\n    tag_476:\n        /* \"#utility.yul\":21651:21754   */\n    tag_475:\n        /* \"#utility.yul\":21781:21782   */\n      0x01\n        /* \"#utility.yul\":21774:21779   */\n      dup3\n        /* \"#utility.yul\":21770:21783   */\n      add\n        /* \"#utility.yul\":21763:21783   */\n      swap1\n      pop\n        /* \"#utility.yul\":21556:21789   */\n      swap2\n      swap1\n      pop\n      jump\t// out\n        /* \"#utility.yul\":21795:21986   */\n    tag_155:\n        /* \"#utility.yul\":21835:21838   */\n      0x00\n        /* \"#utility.yul\":21854:21874   */\n      tag_478\n        /* \"#utility.yul\":21872:21873   */\n      dup3\n        /* \"#utility.yul\":21854:21874   */\n      tag_206\n      jump\t// in\n    tag_478:\n        /* \"#utility.yul\":21849:21874   */\n      swap2\n      pop\n        /* \"#utility.yul\":21888:21908   */\n      tag_479\n        /* \"#utility.yul\":21906:21907   */\n      dup4\n        /* \"#utility.yul\":21888:21908   */\n      tag_206\n      jump\t// in\n    tag_479:\n        /* \"#utility.yul\":21883:21908   */\n      swap3\n      pop\n        /* \"#utility.yul\":21931:21932   */\n      dup3\n        /* \"#utility.yul\":21928:21929   */\n      dup3\n        /* \"#utility.yul\":21924:21933   */\n      add\n        /* \"#utility.yul\":21917:21933   */\n      swap1\n      pop\n        /* \"#utility.yul\":21952:21955   */\n      dup1\n        /* \"#utility.yul\":21949:21950   */\n      dup3\n        /* \"#utility.yul\":21946:21956   */\n      gt\n        /* \"#utility.yul\":21943:21979   */\n      iszero\n      tag_480\n      jumpi\n        /* \"#utility.yul\":21959:21977   */\n      tag_481\n      tag_253\n      jump\t// in\n    tag_481:\n        /* \"#utility.yul\":21943:21979   */\n    tag_480:\n        /* \"#utility.yul\":21795:21986   */\n      swap3\n      swap2\n      pop\n      pop\n      jump\t// out\n        /* \"#utility.yul\":21992:22161   */\n    tag_254:\n        /* \"#utility.yul\":22132:22153   */\n      0x596f75207368616c6c206e6f7420706173732100000000000000000000000000\n        /* \"#utility.yul\":22128:22129   */\n      0x00\n        /* \"#utility.yul\":22120:22126   */\n      dup3\n        /* \"#utility.yul\":22116:22130   */\n      add\n        /* \"#utility.yul\":22109:22154   */\n      mstore\n        /* \"#utility.yul\":21992:22161   */\n      pop\n      jump\t// out\n        /* \"#utility.yul\":22167:22533   */\n    tag_255:\n        /* \"#utility.yul\":22309:22312   */\n      0x00\n        /* \"#utility.yul\":22330:22397   */\n      tag_484\n        /* \"#utility.yul\":22394:22396   */\n      0x13\n        /* \"#utility.yul\":22389:22392   */\n      dup4\n        /* \"#utility.yul\":22330:22397   */\n      tag_212\n      jump\t// in\n    tag_484:\n        /* \"#utility.yul\":22323:22397   */\n      swap2\n      pop\n        /* \"#utility.yul\":22406:22499   */\n      tag_485\n        /* \"#utility.yul\":22495:22498   */\n      dup3\n        /* \"#utility.yul\":22406:22499   */\n      tag_254\n      jump\t// in\n    tag_485:\n        /* \"#utility.yul\":22524:22526   */\n      0x20\n        /* \"#utility.yul\":22519:22522   */\n      dup3\n        /* \"#utility.yul\":22515:22527   */\n      add\n        /* \"#utility.yul\":22508:22527   */\n      swap1\n      pop\n        /* \"#utility.yul\":22167:22533   */\n      swap2\n      swap1\n      pop\n      jump\t// out\n        /* \"#utility.yul\":22539:22958   */\n    tag_167:\n        /* \"#utility.yul\":22705:22709   */\n      0x00\n        /* \"#utility.yul\":22743:22745   */\n      0x20\n        /* \"#utility.yul\":22732:22741   */\n      dup3\n        /* \"#utility.yul\":22728:22746   */\n      add\n        /* \"#utility.yul\":22720:22746   */\n      swap1\n      pop\n        /* \"#utility.yul\":22792:22801   */\n      dup2\n        /* \"#utility.yul\":22786:22790   */\n      dup2\n        /* \"#utility.yul\":22782:22802   */\n      sub\n        /* \"#utility.yul\":22778:22779   */\n      0x00\n        /* \"#utility.yul\":22767:22776   */\n      dup4\n        /* \"#utility.yul\":22763:22780   */\n      add\n        /* \"#utility.yul\":22756:22803   */\n      mstore\n        /* \"#utility.yul\":22820:22951   */\n      tag_487\n        /* \"#utility.yul\":22946:22950   */\n      dup2\n        /* \"#utility.yul\":22820:22951   */\n      tag_255\n      jump\t// in\n    tag_487:\n        /* \"#utility.yul\":22812:22951   */\n      swap1\n      pop\n        /* \"#utility.yul\":22539:22958   */\n      swap2\n      swap1\n      pop\n      jump\t// out\n        /* \"#utility.yul\":22964:23105   */\n    tag_256:\n        /* \"#utility.yul\":23013:23017   */\n      0x00\n        /* \"#utility.yul\":23036:23039   */\n      dup2\n        /* \"#utility.yul\":23028:23039   */\n      swap1\n      pop\n        /* \"#utility.yul\":23059:23062   */\n      dup2\n        /* \"#utility.yul\":23056:23057   */\n      0x00\n        /* \"#utility.yul\":23049:23063   */\n      mstore\n        /* \"#utility.yul\":23093:23097   */\n      0x20\n        /* \"#utility.yul\":23090:23091   */\n      0x00\n        /* \"#utility.yul\":23080:23098   */\n      keccak256\n        /* \"#utility.yul\":23072:23098   */\n      swap1\n      pop\n        /* \"#utility.yul\":22964:23105   */\n      swap2\n      swap1\n      pop\n      jump\t// out\n        /* \"#utility.yul\":23111:23204   */\n    tag_257:\n        /* \"#utility.yul\":23148:23154   */\n      0x00\n        /* \"#utility.yul\":23195:23197   */\n      0x20\n        /* \"#utility.yul\":23190:23192   */\n      0x1f\n        /* \"#utility.yul\":23183:23188   */\n      dup4\n        /* \"#utility.yul\":23179:23193   */\n      add\n        /* \"#utility.yul\":23175:23198   */\n      div\n        /* \"#utility.yul\":23165:23198   */\n      swap1\n      pop\n        /* \"#utility.yul\":23111:23204   */\n      swap2\n      swap1\n      pop\n      jump\t// out\n        /* \"#utility.yul\":23210:23317   */\n    tag_258:\n        /* \"#utility.yul\":23254:23262   */\n      0x00\n        /* \"#utility.yul\":23304:23309   */\n      dup3\n        /* \"#utility.yul\":23298:23302   */\n      dup3\n        /* \"#utility.yul\":23294:23310   */\n      shl\n        /* \"#utility.yul\":23273:23310   */\n      swap1\n      pop\n        /* \"#utility.yul\":23210:23317   */\n      swap3\n      swap2\n      pop\n      pop\n      jump\t// out\n        /* \"#utility.yul\":23323:23716   */\n    tag_259:\n        /* \"#utility.yul\":23392:23398   */\n      0x00\n        /* \"#utility.yul\":23442:23443   */\n      0x08\n        /* \"#utility.yul\":23430:23440   */\n      dup4\n        /* \"#utility.yul\":23426:23444   */\n      mul\n        /* \"#utility.yul\":23465:23562   */\n      tag_492\n        /* \"#utility.yul\":23495:23561   */\n      0xffffffffffffffffffffffffffffffffffffffffffffffffffffffffffffffff\n        /* \"#utility.yul\":23484:23493   */\n      dup3\n        /* \"#utility.yul\":23465:23562   */\n      tag_258\n      jump\t// in\n    tag_492:\n        /* \"#utility.yul\":23583:23622   */\n      tag_493\n        /* \"#utility.yul\":23613:23621   */\n      dup7\n        /* \"#utility.yul\":23602:23611   */\n      dup4\n        /* \"#utility.yul\":23583:23622   */\n      tag_258\n      jump\t// in\n    tag_493:\n        /* \"#utility.yul\":23571:23622   */\n      swap6\n      pop\n        /* \"#utility.yul\":23655:23659   */\n      dup1\n        /* \"#utility.yul\":23651:23660   */\n      not\n        /* \"#utility.yul\":23644:23649   */\n      dup5\n        /* \"#utility.yul\":23640:23661   */\n      and\n        /* \"#utility.yul\":23631:23661   */\n      swap4\n      pop\n        /* \"#utility.yul\":23704:23708   */\n      dup1\n        /* \"#utility.yul\":23694:23702   */\n      dup7\n        /* \"#utility.yul\":23690:23709   */\n      and\n        /* \"#utility.yul\":23683:23688   */\n      dup5\n        /* \"#utility.yul\":23680:23710   */\n      or\n        /* \"#utility.yul\":23670:23710   */\n      swap3\n      pop\n        /* \"#utility.yul\":23399:23716   */\n      pop\n      pop\n        /* \"#utility.yul\":23323:23716   */\n      swap4\n      swap3\n      pop\n      pop\n      pop\n      jump\t// out\n        /* \"#utility.yul\":23722:23782   */\n    tag_260:\n        /* \"#utility.yul\":23750:23753   */\n      0x00\n        /* \"#utility.yul\":23771:23776   */\n      dup2\n        /* \"#utility.yul\":23764:23776   */\n      swap1\n      pop\n        /* \"#utility.yul\":23722:23782   */\n      swap2\n      swap1\n      pop\n      jump\t// out\n        /* \"#utility.yul\":23788:23930   */\n    tag_261:\n        /* \"#utility.yul\":23838:23847   */\n      0x00\n        /* \"#utility.yul\":23871:23924   */\n      tag_496\n        /* \"#utility.yul\":23889:23923   */\n      tag_497\n        /* \"#utility.yul\":23898:23922   */\n      tag_498\n        /* \"#utility.yul\":23916:23921   */\n      dup5\n        /* \"#utility.yul\":23898:23922   */\n      tag_206\n      jump\t// in\n    tag_498:\n        /* \"#utility.yul\":23889:23923   */\n      tag_260\n      jump\t// in\n    tag_497:\n        /* \"#utility.yul\":23871:23924   */\n      tag_206\n      jump\t// in\n    tag_496:\n        /* \"#utility.yul\":23858:23924   */\n      swap1\n      pop\n        /* \"#utility.yul\":23788:23930   */\n      swap2\n      swap1\n      pop\n      jump\t// out\n        /* \"#utility.yul\":23936:24011   */\n    tag_262:\n        /* \"#utility.yul\":23979:23982   */\n      0x00\n        /* \"#utility.yul\":24000:24005   */\n      dup2\n        /* \"#utility.yul\":23993:24005   */\n      swap1\n      pop\n        /* \"#utility.yul\":23936:24011   */\n      swap2\n      swap1\n      pop\n      jump\t// out\n        /* \"#utility.yul\":24017:24286   */\n    tag_263:\n        /* \"#utility.yul\":24127:24166   */\n      tag_501\n        /* \"#utility.yul\":24158:24165   */\n      dup4\n        /* \"#utility.yul\":24127:24166   */\n      tag_261\n      jump\t// in\n    tag_501:\n        /* \"#utility.yul\":24188:24279   */\n      tag_502\n        /* \"#utility.yul\":24237:24278   */\n      tag_503\n        /* \"#utility.yul\":24261:24277   */\n      dup3\n        /* \"#utility.yul\":24237:24278   */\n      tag_262\n      jump\t// in\n    tag_503:\n        /* \"#utility.yul\":24229:24235   */\n      dup5\n        /* \"#utility.yul\":24222:24226   */\n      dup5\n        /* \"#utility.yul\":24216:24227   */\n      sload\n        /* \"#utility.yul\":24188:24279   */\n      tag_259\n      jump\t// in\n    tag_502:\n        /* \"#utility.yul\":24182:24186   */\n      dup3\n        /* \"#utility.yul\":24175:24280   */\n      sstore\n        /* \"#utility.yul\":24093:24286   */\n      pop\n        /* \"#utility.yul\":24017:24286   */\n      pop\n      pop\n      pop\n      jump\t// out\n        /* \"#utility.yul\":24292:24365   */\n    tag_264:\n        /* \"#utility.yul\":24337:24340   */\n      0x00\n        /* \"#utility.yul\":24292:24365   */\n      swap1\n      jump\t// out\n        /* \"#utility.yul\":24371:24560   */\n    tag_265:\n        /* \"#utility.yul\":24448:24480   */\n      tag_506\n      tag_264\n      jump\t// in\n    tag_506:\n        /* \"#utility.yul\":24489:24554   */\n      tag_507\n        /* \"#utility.yul\":24547:24553   */\n      dup2\n        /* \"#utility.yul\":24539:24545   */\n      dup5\n        /* \"#utility.yul\":24533:24537   */\n      dup5\n        /* \"#utility.yul\":24489:24554   */\n      tag_263\n      jump\t// in\n    tag_507:\n        /* \"#utility.yul\":24424:24560   */\n      pop\n        /* \"#utility.yul\":24371:24560   */\n      pop\n      pop\n      jump\t// out\n        /* \"#utility.yul\":24566:24752   */\n    tag_266:\n        /* \"#utility.yul\":24626:24746   */\n    tag_509:\n        /* \"#utility.yul\":24643:24646   */\n      dup2\n        /* \"#utility.yul\":24636:24641   */\n      dup2\n        /* \"#utility.yul\":24633:24647   */\n      lt\n        /* \"#utility.yul\":24626:24746   */\n      iszero\n      tag_511\n      jumpi\n        /* \"#utility.yul\":24697:24736   */\n      tag_512\n        /* \"#utility.yul\":24734:24735   */\n      0x00\n        /* \"#utility.yul\":24727:24732   */\n      dup3\n        /* \"#utility.yul\":24697:24736   */\n      tag_265\n      jump\t// in\n    tag_512:\n        /* \"#utility.yul\":24670:24671   */\n      0x01\n        /* \"#utility.yul\":24663:24668   */\n      dup2\n        /* \"#utility.yul\":24659:24672   */\n      add\n        /* \"#utility.yul\":24650:24672   */\n      swap1\n      pop\n        /* \"#utility.yul\":24626:24746   */\n      jump(tag_509)\n    tag_511:\n        /* \"#utility.yul\":24566:24752   */\n      pop\n      pop\n      jump\t// out\n        /* \"#utility.yul\":24758:25301   */\n    tag_267:\n        /* \"#utility.yul\":24859:24861   */\n      0x1f\n        /* \"#utility.yul\":24854:24857   */\n      dup3\n        /* \"#utility.yul\":24851:24862   */\n      gt\n        /* \"#utility.yul\":24848:25294   */\n      iszero\n      tag_514\n      jumpi\n        /* \"#utility.yul\":24893:24931   */\n      tag_515\n        /* \"#utility.yul\":24925:24930   */\n      dup2\n        /* \"#utility.yul\":24893:24931   */\n      tag_256\n      jump\t// in\n    tag_515:\n        /* \"#utility.yul\":24977:25006   */\n      tag_516\n        /* \"#utility.yul\":24995:25005   */\n      dup5\n        /* \"#utility.yul\":24977:25006   */\n      tag_257\n      jump\t// in\n    tag_516:\n        /* \"#utility.yul\":24967:24975   */\n      dup2\n        /* \"#utility.yul\":24963:25007   */\n      add\n        /* \"#utility.yul\":25160:25162   */\n      0x20\n        /* \"#utility.yul\":25148:25158   */\n      dup6\n        /* \"#utility.yul\":25145:25163   */\n      lt\n        /* \"#utility.yul\":25142:25191   */\n      iszero\n      tag_517\n      jumpi\n        /* \"#utility.yul\":25181:25189   */\n      dup2\n        /* \"#utility.yul\":25166:25189   */\n      swap1\n      pop\n        /* \"#utility.yul\":25142:25191   */\n    tag_517:\n        /* \"#utility.yul\":25204:25284   */\n      tag_518\n        /* \"#utility.yul\":25260:25282   */\n      tag_519\n        /* \"#utility.yul\":25278:25281   */\n      dup6\n        /* \"#utility.yul\":25260:25282   */\n      tag_257\n      jump\t// in\n    tag_519:\n        /* \"#utility.yul\":25250:25258   */\n      dup4\n        /* \"#utility.yul\":25246:25283   */\n      add\n        /* \"#utility.yul\":25233:25244   */\n      dup3\n        /* \"#utility.yul\":25204:25284   */\n      tag_266\n      jump\t// in\n    tag_518:\n        /* \"#utility.yul\":24863:25294   */\n      pop\n      pop\n        /* \"#utility.yul\":24848:25294   */\n    tag_514:\n        /* \"#utility.yul\":24758:25301   */\n      pop\n      pop\n      pop\n      jump\t// out\n        /* \"#utility.yul\":25307:25424   */\n    tag_268:\n        /* \"#utility.yul\":25361:25369   */\n      0x00\n        /* \"#utility.yul\":25411:25416   */\n      dup3\n        /* \"#utility.yul\":25405:25409   */\n      dup3\n        /* \"#utility.yul\":25401:25417   */\n      shr\n        /* \"#utility.yul\":25380:25417   */\n      swap1\n      pop\n        /* \"#utility.yul\":25307:25424   */\n      swap3\n      swap2\n      pop\n      pop\n      jump\t// out\n        /* \"#utility.yul\":25430:25599   */\n    tag_269:\n        /* \"#utility.yul\":25474:25480   */\n      0x00\n        /* \"#utility.yul\":25507:25558   */\n      tag_522\n        /* \"#utility.yul\":25555:25556   */\n      0x00\n        /* \"#utility.yul\":25551:25557   */\n      not\n        /* \"#utility.yul\":25543:25548   */\n      dup5\n        /* \"#utility.yul\":25540:25541   */\n      0x08\n        /* \"#utility.yul\":25536:25549   */\n      mul\n        /* \"#utility.yul\":25507:25558   */\n      tag_268\n      jump\t// in\n    tag_522:\n        /* \"#utility.yul\":25503:25559   */\n      not\n        /* \"#utility.yul\":25588:25592   */\n      dup1\n        /* \"#utility.yul\":25582:25586   */\n      dup4\n        /* \"#utility.yul\":25578:25593   */\n      and\n        /* \"#utility.yul\":25568:25593   */\n      swap2\n      pop\n        /* \"#utility.yul\":25481:25599   */\n      pop\n        /* \"#utility.yul\":25430:25599   */\n      swap3\n      swap2\n      pop\n      pop\n      jump\t// out\n        /* \"#utility.yul\":25604:25899   */\n    tag_270:\n        /* \"#utility.yul\":25680:25684   */\n      0x00\n        /* \"#utility.yul\":25826:25855   */\n      tag_524\n        /* \"#utility.yul\":25851:25854   */\n      dup4\n        /* \"#utility.yul\":25845:25849   */\n      dup4\n        /* \"#utility.yul\":25826:25855   */\n      tag_269\n      jump\t// in\n    tag_524:\n        /* \"#utility.yul\":25818:25855   */\n      swap2\n      pop\n        /* \"#utility.yul\":25888:25891   */\n      dup3\n        /* \"#utility.yul\":25885:25886   */\n      0x02\n        /* \"#utility.yul\":25881:25892   */\n      mul\n        /* \"#utility.yul\":25875:25879   */\n      dup3\n        /* \"#utility.yul\":25872:25893   */\n      or\n        /* \"#utility.yul\":25864:25893   */\n      swap1\n      pop\n        /* \"#utility.yul\":25604:25899   */\n      swap3\n      swap2\n      pop\n      pop\n      jump\t// out\n        /* \"#utility.yul\":25904:27299   */\n    tag_170:\n        /* \"#utility.yul\":26021:26058   */\n      tag_526\n        /* \"#utility.yul\":26054:26057   */\n      dup3\n        /* \"#utility.yul\":26021:26058   */\n      tag_211\n      jump\t// in\n    tag_526:\n        /* \"#utility.yul\":26123:26141   */\n      0xffffffffffffffff\n        /* \"#utility.yul\":26115:26121   */\n      dup2\n        /* \"#utility.yul\":26112:26142   */\n      gt\n        /* \"#utility.yul\":26109:26165   */\n      iszero\n      tag_527\n      jumpi\n        /* \"#utility.yul\":26145:26163   */\n      tag_528\n      tag_233\n      jump\t// in\n    tag_528:\n        /* \"#utility.yul\":26109:26165   */\n    tag_527:\n        /* \"#utility.yul\":26189:26227   */\n      tag_529\n        /* \"#utility.yul\":26221:26225   */\n      dup3\n        /* \"#utility.yul\":26215:26226   */\n      sload\n        /* \"#utility.yul\":26189:26227   */\n      tag_69\n      jump\t// in\n    tag_529:\n        /* \"#utility.yul\":26274:26341   */\n      tag_530\n        /* \"#utility.yul\":26334:26340   */\n      dup3\n        /* \"#utility.yul\":26326:26332   */\n      dup3\n        /* \"#utility.yul\":26320:26324   */\n      dup6\n        /* \"#utility.yul\":26274:26341   */\n      tag_267\n      jump\t// in\n    tag_530:\n        /* \"#utility.yul\":26368:26369   */\n      0x00\n        /* \"#utility.yul\":26392:26396   */\n      0x20\n        /* \"#utility.yul\":26379:26396   */\n      swap1\n      pop\n        /* \"#utility.yul\":26424:26426   */\n      0x1f\n        /* \"#utility.yul\":26416:26422   */\n      dup4\n        /* \"#utility.yul\":26413:26427   */\n      gt\n        /* \"#utility.yul\":26441:26442   */\n      0x01\n        /* \"#utility.yul\":26436:27054   */\n      dup2\n      eq\n      tag_532\n      jumpi\n        /* \"#utility.yul\":27098:27099   */\n      0x00\n        /* \"#utility.yul\":27115:27121   */\n      dup5\n        /* \"#utility.yul\":27112:27189   */\n      iszero\n      tag_533\n      jumpi\n        /* \"#utility.yul\":27164:27173   */\n      dup3\n        /* \"#utility.yul\":27159:27162   */\n      dup8\n        /* \"#utility.yul\":27155:27174   */\n      add\n        /* \"#utility.yul\":27149:27175   */\n      mload\n        /* \"#utility.yul\":27140:27175   */\n      swap1\n      pop\n        /* \"#utility.yul\":27112:27189   */\n    tag_533:\n        /* \"#utility.yul\":27215:27282   */\n      tag_534\n        /* \"#utility.yul\":27275:27281   */\n      dup6\n        /* \"#utility.yul\":27268:27273   */\n      dup3\n        /* \"#utility.yul\":27215:27282   */\n      tag_270\n      jump\t// in\n    tag_534:\n        /* \"#utility.yul\":27209:27213   */\n      dup7\n        /* \"#utility.yul\":27202:27283   */\n      sstore\n        /* \"#utility.yul\":27071:27293   */\n      pop\n        /* \"#utility.yul\":26406:27293   */\n      jump(tag_531)\n        /* \"#utility.yul\":26436:27054   */\n    tag_532:\n        /* \"#utility.yul\":26488:26492   */\n      0x1f\n        /* \"#utility.yul\":26484:26493   */\n      not\n        /* \"#utility.yul\":26476:26482   */\n      dup5\n        /* \"#utility.yul\":26472:26494   */\n      and\n        /* \"#utility.yul\":26522:26559   */\n      tag_535\n        /* \"#utility.yul\":26554:26558   */\n      dup7\n        /* \"#utility.yul\":26522:26559   */\n      tag_256\n      jump\t// in\n    tag_535:\n        /* \"#utility.yul\":26581:26582   */\n      0x00\n        /* \"#utility.yul\":26595:26803   */\n    tag_536:\n        /* \"#utility.yul\":26609:26616   */\n      dup3\n        /* \"#utility.yul\":26606:26607   */\n      dup2\n        /* \"#utility.yul\":26603:26617   */\n      lt\n        /* \"#utility.yul\":26595:26803   */\n      iszero\n      tag_538\n      jumpi\n        /* \"#utility.yul\":26688:26697   */\n      dup5\n        /* \"#utility.yul\":26683:26686   */\n      dup10\n        /* \"#utility.yul\":26679:26698   */\n      add\n        /* \"#utility.yul\":26673:26699   */\n      mload\n        /* \"#utility.yul\":26665:26671   */\n      dup3\n        /* \"#utility.yul\":26658:26700   */\n      sstore\n        /* \"#utility.yul\":26739:26740   */\n      0x01\n        /* \"#utility.yul\":26731:26737   */\n      dup3\n        /* \"#utility.yul\":26727:26741   */\n      add\n        /* \"#utility.yul\":26717:26741   */\n      swap2\n      pop\n        /* \"#utility.yul\":26786:26788   */\n      0x20\n        /* \"#utility.yul\":26775:26784   */\n      dup6\n        /* \"#utility.yul\":26771:26789   */\n      add\n        /* \"#utility.yul\":26758:26789   */\n      swap5\n      pop\n        /* \"#utility.yul\":26632:26636   */\n      0x20\n        /* \"#utility.yul\":26629:26630   */\n      dup2\n        /* \"#utility.yul\":26625:26637   */\n      add\n        /* \"#utility.yul\":26620:26637   */\n      swap1\n      pop\n        /* \"#utility.yul\":26595:26803   */\n      jump(tag_536)\n    tag_538:\n        /* \"#utility.yul\":26831:26837   */\n      dup7\n        /* \"#utility.yul\":26822:26829   */\n      dup4\n        /* \"#utility.yul\":26819:26838   */\n      lt\n        /* \"#utility.yul\":26816:26995   */\n      iszero\n      tag_539\n      jumpi\n        /* \"#utility.yul\":26889:26898   */\n      dup5\n        /* \"#utility.yul\":26884:26887   */\n      dup10\n        /* \"#utility.yul\":26880:26899   */\n      add\n        /* \"#utility.yul\":26874:26900   */\n      mload\n        /* \"#utility.yul\":26932:26980   */\n      tag_540\n        /* \"#utility.yul\":26974:26978   */\n      0x1f\n        /* \"#utility.yul\":26966:26972   */\n      dup10\n        /* \"#utility.yul\":26962:26979   */\n      and\n        /* \"#utility.yul\":26951:26960   */\n      dup3\n        /* \"#utility.yul\":26932:26980   */\n      tag_269\n      jump\t// in\n    tag_540:\n        /* \"#utility.yul\":26924:26930   */\n      dup4\n        /* \"#utility.yul\":26917:26981   */\n      sstore\n        /* \"#utility.yul\":26839:26995   */\n      pop\n        /* \"#utility.yul\":26816:26995   */\n    tag_539:\n        /* \"#utility.yul\":27041:27042   */\n      0x01\n        /* \"#utility.yul\":27037:27038   */\n      0x02\n        /* \"#utility.yul\":27029:27035   */\n      dup9\n        /* \"#utility.yul\":27025:27039   */\n      mul\n        /* \"#utility.yul\":27021:27043   */\n      add\n        /* \"#utility.yul\":27015:27019   */\n      dup9\n        /* \"#utility.yul\":27008:27044   */\n      sstore\n        /* \"#utility.yul\":26443:27054   */\n      pop\n      pop\n      pop\n        /* \"#utility.yul\":26406:27293   */\n    tag_531:\n      pop\n        /* \"#utility.yul\":25996:27299   */\n      pop\n      pop\n      pop\n        /* \"#utility.yul\":25904:27299   */\n      pop\n      pop\n      jump\t// out\n        /* \"#utility.yul\":27305:27949   */\n    tag_172:\n        /* \"#utility.yul\":27502:27506   */\n      0x00\n        /* \"#utility.yul\":27540:27543   */\n      0x80\n        /* \"#utility.yul\":27529:27538   */\n      dup3\n        /* \"#utility.yul\":27525:27544   */\n      add\n        /* \"#utility.yul\":27517:27544   */\n      swap1\n      pop\n        /* \"#utility.yul\":27554:27625   */\n      tag_542\n        /* \"#utility.yul\":27622:27623   */\n      0x00\n        /* \"#utility.yul\":27611:27620   */\n      dup4\n        /* \"#utility.yul\":27607:27624   */\n      add\n        /* \"#utility.yul\":27598:27604   */\n      dup8\n        /* \"#utility.yul\":27554:27625   */\n      tag_209\n      jump\t// in\n    tag_542:\n        /* \"#utility.yul\":27635:27707   */\n      tag_543\n        /* \"#utility.yul\":27703:27705   */\n      0x20\n        /* \"#utility.yul\":27692:27701   */\n      dup4\n        /* \"#utility.yul\":27688:27706   */\n      add\n        /* \"#utility.yul\":27679:27685   */\n      dup7\n        /* \"#utility.yul\":27635:27707   */\n      tag_210\n      jump\t// in\n    tag_543:\n        /* \"#utility.yul\":27754:27763   */\n      dup2\n        /* \"#utility.yul\":27748:27752   */\n      dup2\n        /* \"#utility.yul\":27744:27764   */\n      sub\n        /* \"#utility.yul\":27739:27741   */\n      0x40\n        /* \"#utility.yul\":27728:27737   */\n      dup4\n        /* \"#utility.yul\":27724:27742   */\n      add\n        /* \"#utility.yul\":27717:27765   */\n      mstore\n        /* \"#utility.yul\":27782:27860   */\n      tag_544\n        /* \"#utility.yul\":27855:27859   */\n      dup2\n        /* \"#utility.yul\":27846:27852   */\n      dup6\n        /* \"#utility.yul\":27782:27860   */\n      tag_215\n      jump\t// in\n    tag_544:\n        /* \"#utility.yul\":27774:27860   */\n      swap1\n      pop\n        /* \"#utility.yul\":27870:27942   */\n      tag_545\n        /* \"#utility.yul\":27938:27940   */\n      0x60\n        /* \"#utility.yul\":27927:27936   */\n      dup4\n        /* \"#utility.yul\":27923:27941   */\n      add\n        /* \"#utility.yul\":27914:27920   */\n      dup5\n        /* \"#utility.yul\":27870:27942   */\n      tag_209\n      jump\t// in\n    tag_545:\n        /* \"#utility.yul\":27305:27949   */\n      swap6\n      swap5\n      pop\n      pop\n      pop\n      pop\n      pop\n      jump\t// out\n\n    auxdata: 0xa26469706673582212207b848ded1b55c107ffe86a448c4845763733cc0dcbf952fc1201b509a7c6bc4664736f6c634300081a0033\n}\n",
				"bytecode": {
					"linkReferences": {},
					"object": "60806040526101185f60146101000a81548161ffff021916908361ffff16021790555034801561002d575f80fd5b506040516122eb3803806122eb833981810160405281019061004f9190610235565b335f73ffffffffffffffffffffffffffffffffffffffff168173ffffffffffffffffffffffffffffffffffffffff16036100c0575f6040517f1e4fbdf70000000000000000000000000000000000000000000000000000000081526004016100b7919061026f565b60405180910390fd5b6100cf8161011660201b60201c565b508060025f6101000a81548173ffffffffffffffffffffffffffffffffffffffff021916908373ffffffffffffffffffffffffffffffffffffffff16021790555050610288565b5f805f9054906101000a900473ffffffffffffffffffffffffffffffffffffffff169050815f806101000a81548173ffffffffffffffffffffffffffffffffffffffff021916908373ffffffffffffffffffffffffffffffffffffffff1602179055508173ffffffffffffffffffffffffffffffffffffffff168173ffffffffffffffffffffffffffffffffffffffff167f8be0079c531659141344cd1fd0a4f28419497f9722a3daafe3b4186f6b6457e060405160405180910390a35050565b5f80fd5b5f73ffffffffffffffffffffffffffffffffffffffff82169050919050565b5f610204826101db565b9050919050565b610214816101fa565b811461021e575f80fd5b50565b5f8151905061022f8161020b565b92915050565b5f6020828403121561024a576102496101d7565b5b5f61025784828501610221565b91505092915050565b610269816101fa565b82525050565b5f6020820190506102825f830184610260565b92915050565b612056806102955f395ff3fe608060405234801561000f575f80fd5b50600436106100b2575f3560e01c8063715018a61161006f578063715018a61461018c578063820785cc146101965780638da5cb5b146101c6578063b8e4f167146101e4578063c3ad5ecb14610200578063f2fde38b14610230576100b2565b806305a1b4a9146100b657806312e7ee1c146100ea5780633d9b569f1461011a57806358bfa4ab1461013657806363378216146101525780636eb107971461016e575b5f80fd5b6100d060048036038101906100cb91906112fd565b61024c565b6040516100e19594939291906113c9565b60405180910390f35b61010460048036038101906100ff9190611421565b61033d565b60405161011191906115e0565b60405180910390f35b610134600480360381019061012f91906112fd565b6104d8565b005b610150600480360381019061014b9190611637565b61080f565b005b61016c600480360381019061016791906112fd565b610836565b005b610176610acd565b6040516101839190611671565b60405180910390f35b610194610ae0565b005b6101b060048036038101906101ab9190611421565b610af3565b6040516101bd919061168a565b60405180910390f35b6101ce610bc2565b6040516101db91906116a3565b60405180910390f35b6101fe60048036038101906101f991906117e8565b610be9565b005b61021a6004803603810190610215919061182f565b610ed4565b60405161022791906118cd565b60405180910390f35b61024a60048036038101906102459190611421565b61104b565b005b6001602052815f5260405f208181548110610265575f80fd5b905f5260205f2090600502015f9150915050805f015490806001015f9054906101000a900473ffffffffffffffffffffffffffffffffffffffff16908060020180546102b09061191a565b80601f01602080910402602001604051908101604052809291908181526020018280546102dc9061191a565b80156103275780601f106102fe57610100808354040283529160200191610327565b820191905f5260205f20905b81548152906001019060200180831161030a57829003601f168201915b5050505050908060030154908060040154905085565b606060015f8373ffffffffffffffffffffffffffffffffffffffff1673ffffffffffffffffffffffffffffffffffffffff1681526020019081526020015f20805480602002602001604051908101604052809291908181526020015f905b828210156104cd578382905f5260205f2090600502016040518060a00160405290815f8201548152602001600182015f9054906101000a900473ffffffffffffffffffffffffffffffffffffffff1673ffffffffffffffffffffffffffffffffffffffff1673ffffffffffffffffffffffffffffffffffffffff16815260200160028201805461042a9061191a565b80601f01602080910402602001604051908101604052809291908181526020018280546104569061191a565b80156104a15780601f10610478576101008083540402835291602001916104a1565b820191905f5260205f20905b81548152906001019060200180831161048457829003601f168201915b50505050508152602001600382015481526020016004820154815250508152602001906001019061039b565b505050509050919050565b5f60025f9054906101000a900473ffffffffffffffffffffffffffffffffffffffff1673ffffffffffffffffffffffffffffffffffffffff16630f53a470336040518263ffffffff1660e01b815260040161053391906116a3565b5f60405180830381865afa15801561054d573d5f803e3d5ffd5b505050506040513d5f823e3d601f19601f820116820180604052508101906105759190611a45565b90505f815f015151116105bd576040517f08c379a00000000000000000000000000000000000000000000000000000000081526004016105b490611ad6565b60405180910390fd5b8160015f8573ffffffffffffffffffffffffffffffffffffffff1673ffffffffffffffffffffffffffffffffffffffff1681526020019081526020015f20838154811061060d5761060c611af4565b5b905f5260205f2090600502015f01541461065c576040517f08c379a000000000000000000000000000000000000000000000000000000000815260040161065390611b6b565b60405180910390fd5b5f60015f8573ffffffffffffffffffffffffffffffffffffffff1673ffffffffffffffffffffffffffffffffffffffff1681526020019081526020015f2083815481106106ac576106ab611af4565b5b905f5260205f20906005020160040154116106fc576040517f08c379a00000000000000000000000000000000000000000000000000000000081526004016106f390611bd3565b60405180910390fd5b60015f8473ffffffffffffffffffffffffffffffffffffffff1673ffffffffffffffffffffffffffffffffffffffff1681526020019081526020015f20828154811061074b5761074a611af4565b5b905f5260205f2090600502016004015f81548092919061076a90611c1e565b91905055507f762c2616349603ac16eba0de8e6141b79129a07ab63bd99e0a80b3a47171694333848460015f8873ffffffffffffffffffffffffffffffffffffffff1673ffffffffffffffffffffffffffffffffffffffff1681526020019081526020015f2086815481106107e2576107e1611af4565b5b905f5260205f209060050201600401546040516108029493929190611c45565b60405180910390a1505050565b6108176110cf565b805f60146101000a81548161ffff021916908361ffff16021790555050565b5f60025f9054906101000a900473ffffffffffffffffffffffffffffffffffffffff1673ffffffffffffffffffffffffffffffffffffffff16630f53a470336040518263ffffffff1660e01b815260040161089191906116a3565b5f60405180830381865afa1580156108ab573d5f803e3d5ffd5b505050506040513d5f823e3d601f19601f820116820180604052508101906108d39190611a45565b90505f815f0151511161091b576040517f08c379a000000000000000000000000000000000000000000000000000000000815260040161091290611ad6565b60405180910390fd5b8160015f8573ffffffffffffffffffffffffffffffffffffffff1673ffffffffffffffffffffffffffffffffffffffff1681526020019081526020015f20838154811061096b5761096a611af4565b5b905f5260205f2090600502015f0154146109ba576040517f08c379a00000000000000000000000000000000000000000000000000000000081526004016109b190611b6b565b60405180910390fd5b60015f8473ffffffffffffffffffffffffffffffffffffffff1673ffffffffffffffffffffffffffffffffffffffff1681526020019081526020015f208281548110610a0957610a08611af4565b5b905f5260205f2090600502016004015f815480929190610a2890611c88565b91905055507fe8a76fc0f16d11a00d1e93b689b63d76cf60af914dd3d915375dc41d01a0c3c833848460015f8873ffffffffffffffffffffffffffffffffffffffff1673ffffffffffffffffffffffffffffffffffffffff1681526020019081526020015f208681548110610aa057610a9f611af4565b5b905f5260205f20906005020160040154604051610ac09493929190611c45565b60405180910390a1505050565b5f60149054906101000a900461ffff1681565b610ae86110cf565b610af15f611156565b565b5f805f5b60015f8573ffffffffffffffffffffffffffffffffffffffff1673ffffffffffffffffffffffffffffffffffffffff1681526020019081526020015f2080549050811015610bb85760015f8573ffffffffffffffffffffffffffffffffffffffff1673ffffffffffffffffffffffffffffffffffffffff1681526020019081526020015f208181548110610b8e57610b8d611af4565b5b905f5260205f2090600502016004015482610ba99190611ccf565b91508080600101915050610af7565b5080915050919050565b5f805f9054906101000a900473ffffffffffffffffffffffffffffffffffffffff16905090565b5f60025f9054906101000a900473ffffffffffffffffffffffffffffffffffffffff1673ffffffffffffffffffffffffffffffffffffffff16630f53a470336040518263ffffffff1660e01b8152600401610c4491906116a3565b5f60405180830381865afa158015610c5e573d5f803e3d5ffd5b505050506040513d5f823e3d601f19601f82011682018060405250810190610c869190611a45565b90505f815f01515111610cce576040517f08c379a0000000000000000000000000000000000000000000000000000000008152600401610cc590611ad6565b60405180910390fd5b5f60149054906101000a900461ffff1661ffff1682511115610d25576040517f08c379a0000000000000000000000000000000000000000000000000000000008152600401610d1c90611d4c565b60405180910390fd5b5f6040518060a0016040528060015f3373ffffffffffffffffffffffffffffffffffffffff1673ffffffffffffffffffffffffffffffffffffffff1681526020019081526020015f208054905081526020013373ffffffffffffffffffffffffffffffffffffffff1681526020018481526020014281526020015f815250905060015f3373ffffffffffffffffffffffffffffffffffffffff1673ffffffffffffffffffffffffffffffffffffffff1681526020019081526020015f2081908060018154018082558091505060019003905f5260205f2090600502015f909190919091505f820151815f01556020820151816001015f6101000a81548173ffffffffffffffffffffffffffffffffffffffff021916908373ffffffffffffffffffffffffffffffffffffffff1602179055506040820151816002019081610e6c9190611f07565b50606082015181600301556080820151816004015550507f16fd3c13e9d46923e0a8bce11c7b473ec508a72e6c96cd2404b29ce972afc29e815f0151826020015183604001518460600151604051610ec79493929190611fd6565b60405180910390a1505050565b610edc61121e565b60015f3373ffffffffffffffffffffffffffffffffffffffff1673ffffffffffffffffffffffffffffffffffffffff1681526020019081526020015f208281548110610f2b57610f2a611af4565b5b905f5260205f2090600502016040518060a00160405290815f8201548152602001600182015f9054906101000a900473ffffffffffffffffffffffffffffffffffffffff1673ffffffffffffffffffffffffffffffffffffffff1673ffffffffffffffffffffffffffffffffffffffff168152602001600282018054610fb09061191a565b80601f0160208091040260200160405190810160405280929190818152602001828054610fdc9061191a565b80156110275780601f10610ffe57610100808354040283529160200191611027565b820191905f5260205f20905b81548152906001019060200180831161100a57829003601f168201915b50505050508152602001600382015481526020016004820154815250509050919050565b6110536110cf565b5f73ffffffffffffffffffffffffffffffffffffffff168173ffffffffffffffffffffffffffffffffffffffff16036110c3575f6040517f1e4fbdf70000000000000000000000000000000000000000000000000000000081526004016110ba91906116a3565b60405180910390fd5b6110cc81611156565b50565b6110d7611217565b73ffffffffffffffffffffffffffffffffffffffff166110f5610bc2565b73ffffffffffffffffffffffffffffffffffffffff161461115457611118611217565b6040517f118cdaa700000000000000000000000000000000000000000000000000000000815260040161114b91906116a3565b60405180910390fd5b565b5f805f9054906101000a900473ffffffffffffffffffffffffffffffffffffffff169050815f806101000a81548173ffffffffffffffffffffffffffffffffffffffff021916908373ffffffffffffffffffffffffffffffffffffffff1602179055508173ffffffffffffffffffffffffffffffffffffffff168173ffffffffffffffffffffffffffffffffffffffff167f8be0079c531659141344cd1fd0a4f28419497f9722a3daafe3b4186f6b6457e060405160405180910390a35050565b5f33905090565b6040518060a001604052805f81526020015f73ffffffffffffffffffffffffffffffffffffffff168152602001606081526020015f81526020015f81525090565b5f604051905090565b5f80fd5b5f80fd5b5f73ffffffffffffffffffffffffffffffffffffffff82169050919050565b5f61129982611270565b9050919050565b6112a98161128f565b81146112b3575f80fd5b50565b5f813590506112c4816112a0565b92915050565b5f819050919050565b6112dc816112ca565b81146112e6575f80fd5b50565b5f813590506112f7816112d3565b92915050565b5f806040838503121561131357611312611268565b5b5f611320858286016112b6565b9250506020611331858286016112e9565b9150509250929050565b611344816112ca565b82525050565b6113538161128f565b82525050565b5f81519050919050565b5f82825260208201905092915050565b8281835e5f83830152505050565b5f601f19601f8301169050919050565b5f61139b82611359565b6113a58185611363565b93506113b5818560208601611373565b6113be81611381565b840191505092915050565b5f60a0820190506113dc5f83018861133b565b6113e9602083018761134a565b81810360408301526113fb8186611391565b905061140a606083018561133b565b611417608083018461133b565b9695505050505050565b5f6020828403121561143657611435611268565b5b5f611443848285016112b6565b91505092915050565b5f81519050919050565b5f82825260208201905092915050565b5f819050602082019050919050565b61147e816112ca565b82525050565b61148d8161128f565b82525050565b5f82825260208201905092915050565b5f6114ad82611359565b6114b78185611493565b93506114c7818560208601611373565b6114d081611381565b840191505092915050565b5f60a083015f8301516114f05f860182611475565b5060208301516115036020860182611484565b506040830151848203604086015261151b82826114a3565b91505060608301516115306060860182611475565b5060808301516115436080860182611475565b508091505092915050565b5f61155983836114db565b905092915050565b5f602082019050919050565b5f6115778261144c565b6115818185611456565b93508360208202850161159385611466565b805f5b858110156115ce57848403895281516115af858261154e565b94506115ba83611561565b925060208a01995050600181019050611596565b50829750879550505050505092915050565b5f6020820190508181035f8301526115f8818461156d565b905092915050565b5f61ffff82169050919050565b61161681611600565b8114611620575f80fd5b50565b5f813590506116318161160d565b92915050565b5f6020828403121561164c5761164b611268565b5b5f61165984828501611623565b91505092915050565b61166b81611600565b82525050565b5f6020820190506116845f830184611662565b92915050565b5f60208201905061169d5f83018461133b565b92915050565b5f6020820190506116b65f83018461134a565b92915050565b5f80fd5b5f80fd5b7f4e487b71000000000000000000000000000000000000000000000000000000005f52604160045260245ffd5b6116fa82611381565b810181811067ffffffffffffffff82111715611719576117186116c4565b5b80604052505050565b5f61172b61125f565b905061173782826116f1565b919050565b5f67ffffffffffffffff821115611756576117556116c4565b5b61175f82611381565b9050602081019050919050565b828183375f83830152505050565b5f61178c6117878461173c565b611722565b9050828152602081018484840111156117a8576117a76116c0565b5b6117b384828561176c565b509392505050565b5f82601f8301126117cf576117ce6116bc565b5b81356117df84826020860161177a565b91505092915050565b5f602082840312156117fd576117fc611268565b5b5f82013567ffffffffffffffff81111561181a5761181961126c565b5b611826848285016117bb565b91505092915050565b5f6020828403121561184457611843611268565b5b5f611851848285016112e9565b91505092915050565b5f60a083015f83015161186f5f860182611475565b5060208301516118826020860182611484565b506040830151848203604086015261189a82826114a3565b91505060608301516118af6060860182611475565b5060808301516118c26080860182611475565b508091505092915050565b5f6020820190508181035f8301526118e5818461185a565b905092915050565b7f4e487b71000000000000000000000000000000000000000000000000000000005f52602260045260245ffd5b5f600282049050600182168061193157607f821691505b602082108103611944576119436118ed565b5b50919050565b5f80fd5b5f80fd5b5f61196461195f8461173c565b611722565b9050828152602081018484840111156119805761197f6116c0565b5b61198b848285611373565b509392505050565b5f82601f8301126119a7576119a66116bc565b5b81516119b7848260208601611952565b91505092915050565b5f604082840312156119d5576119d461194a565b5b6119df6040611722565b90505f82015167ffffffffffffffff8111156119fe576119fd61194e565b5b611a0a84828501611993565b5f83015250602082015167ffffffffffffffff811115611a2d57611a2c61194e565b5b611a3984828501611993565b60208301525092915050565b5f60208284031215611a5a57611a59611268565b5b5f82015167ffffffffffffffff811115611a7757611a7661126c565b5b611a83848285016119c0565b91505092915050565b7f55534552204e4f542052454749535445524544000000000000000000000000005f82015250565b5f611ac0601383611363565b9150611acb82611a8c565b602082019050919050565b5f6020820190508181035f830152611aed81611ab4565b9050919050565b7f4e487b71000000000000000000000000000000000000000000000000000000005f52603260045260245ffd5b7f547765657420446f6573204e6f742045786973740000000000000000000000005f82015250565b5f611b55601483611363565b9150611b6082611b21565b602082019050919050565b5f6020820190508181035f830152611b8281611b49565b9050919050565b7f547765657420486173204e6f204c696b657300000000000000000000000000005f82015250565b5f611bbd601283611363565b9150611bc882611b89565b602082019050919050565b5f6020820190508181035f830152611bea81611bb1565b9050919050565b7f4e487b71000000000000000000000000000000000000000000000000000000005f52601160045260245ffd5b5f611c28826112ca565b91505f8203611c3a57611c39611bf1565b5b600182039050919050565b5f608082019050611c585f83018761134a565b611c65602083018661134a565b611c72604083018561133b565b611c7f606083018461133b565b95945050505050565b5f611c92826112ca565b91507fffffffffffffffffffffffffffffffffffffffffffffffffffffffffffffffff8203611cc457611cc3611bf1565b5b600182019050919050565b5f611cd9826112ca565b9150611ce4836112ca565b9250828201905080821115611cfc57611cfb611bf1565b5b92915050565b7f596f75207368616c6c206e6f74207061737321000000000000000000000000005f82015250565b5f611d36601383611363565b9150611d4182611d02565b602082019050919050565b5f6020820190508181035f830152611d6381611d2a565b9050919050565b5f819050815f5260205f209050919050565b5f6020601f8301049050919050565b5f82821b905092915050565b5f60088302611dc67fffffffffffffffffffffffffffffffffffffffffffffffffffffffffffffffff82611d8b565b611dd08683611d8b565b95508019841693508086168417925050509392505050565b5f819050919050565b5f611e0b611e06611e01846112ca565b611de8565b6112ca565b9050919050565b5f819050919050565b611e2483611df1565b611e38611e3082611e12565b848454611d97565b825550505050565b5f90565b611e4c611e40565b611e57818484611e1b565b505050565b5b81811015611e7a57611e6f5f82611e44565b600181019050611e5d565b5050565b601f821115611ebf57611e9081611d6a565b611e9984611d7c565b81016020851015611ea8578190505b611ebc611eb485611d7c565b830182611e5c565b50505b505050565b5f82821c905092915050565b5f611edf5f1984600802611ec4565b1980831691505092915050565b5f611ef78383611ed0565b9150826002028217905092915050565b611f1082611359565b67ffffffffffffffff811115611f2957611f286116c4565b5b611f33825461191a565b611f3e828285611e7e565b5f60209050601f831160018114611f6f575f8415611f5d578287015190505b611f678582611eec565b865550611fce565b601f198416611f7d86611d6a565b5f5b82811015611fa457848901518255600182019150602085019450602081019050611f7f565b86831015611fc15784890151611fbd601f891682611ed0565b8355505b6001600288020188555050505b505050505050565b5f608082019050611fe95f83018761133b565b611ff6602083018661134a565b81810360408301526120088185611391565b9050612017606083018461133b565b9594505050505056fea26469706673582212207b848ded1b55c107ffe86a448c4845763733cc0dcbf952fc1201b509a7c6bc4664736f6c634300081a0033",
					"opcodes": "PUSH1 0x80 PUSH1 0x40 MSTORE PUSH2 0x118 PUSH0 PUSH1 0x14 PUSH2 0x100 EXP DUP2 SLOAD DUP2 PUSH2 0xFFFF MUL NOT AND SWAP1 DUP4 PUSH2 0xFFFF AND MUL OR SWAP1 SSTORE POP CALLVALUE DUP1 ISZERO PUSH2 0x2D JUMPI PUSH0 DUP1 REVERT JUMPDEST POP PUSH1 0x40 MLOAD PUSH2 0x22EB CODESIZE SUB DUP1 PUSH2 0x22EB DUP4 CODECOPY DUP2 DUP2 ADD PUSH1 0x40 MSTORE DUP2 ADD SWAP1 PUSH2 0x4F SWAP2 SWAP1 PUSH2 0x235 JUMP JUMPDEST CALLER PUSH0 PUSH20 0xFFFFFFFFFFFFFFFFFFFFFFFFFFFFFFFFFFFFFFFF AND DUP2 PUSH20 0xFFFFFFFFFFFFFFFFFFFFFFFFFFFFFFFFFFFFFFFF AND SUB PUSH2 0xC0 JUMPI PUSH0 PUSH1 0x40 MLOAD PUSH32 0x1E4FBDF700000000000000000000000000000000000000000000000000000000 DUP2 MSTORE PUSH1 0x4 ADD PUSH2 0xB7 SWAP2 SWAP1 PUSH2 0x26F JUMP JUMPDEST PUSH1 0x40 MLOAD DUP1 SWAP2 SUB SWAP1 REVERT JUMPDEST PUSH2 0xCF DUP2 PUSH2 0x116 PUSH1 0x20 SHL PUSH1 0x20 SHR JUMP JUMPDEST POP DUP1 PUSH1 0x2 PUSH0 PUSH2 0x100 EXP DUP2 SLOAD DUP2 PUSH20 0xFFFFFFFFFFFFFFFFFFFFFFFFFFFFFFFFFFFFFFFF MUL NOT AND SWAP1 DUP4 PUSH20 0xFFFFFFFFFFFFFFFFFFFFFFFFFFFFFFFFFFFFFFFF AND MUL OR SWAP1 SSTORE POP POP PUSH2 0x288 JUMP JUMPDEST PUSH0 DUP1 PUSH0 SWAP1 SLOAD SWAP1 PUSH2 0x100 EXP SWAP1 DIV PUSH20 0xFFFFFFFFFFFFFFFFFFFFFFFFFFFFFFFFFFFFFFFF AND SWAP1 POP DUP2 PUSH0 DUP1 PUSH2 0x100 EXP DUP2 SLOAD DUP2 PUSH20 0xFFFFFFFFFFFFFFFFFFFFFFFFFFFFFFFFFFFFFFFF MUL NOT AND SWAP1 DUP4 PUSH20 0xFFFFFFFFFFFFFFFFFFFFFFFFFFFFFFFFFFFFFFFF AND MUL OR SWAP1 SSTORE POP DUP2 PUSH20 0xFFFFFFFFFFFFFFFFFFFFFFFFFFFFFFFFFFFFFFFF AND DUP2 PUSH20 0xFFFFFFFFFFFFFFFFFFFFFFFFFFFFFFFFFFFFFFFF AND PUSH32 0x8BE0079C531659141344CD1FD0A4F28419497F9722A3DAAFE3B4186F6B6457E0 PUSH1 0x40 MLOAD PUSH1 0x40 MLOAD DUP1 SWAP2 SUB SWAP1 LOG3 POP POP JUMP JUMPDEST PUSH0 DUP1 REVERT JUMPDEST PUSH0 PUSH20 0xFFFFFFFFFFFFFFFFFFFFFFFFFFFFFFFFFFFFFFFF DUP3 AND SWAP1 POP SWAP2 SWAP1 POP JUMP JUMPDEST PUSH0 PUSH2 0x204 DUP3 PUSH2 0x1DB JUMP JUMPDEST SWAP1 POP SWAP2 SWAP1 POP JUMP JUMPDEST PUSH2 0x214 DUP2 PUSH2 0x1FA JUMP JUMPDEST DUP2 EQ PUSH2 0x21E JUMPI PUSH0 DUP1 REVERT JUMPDEST POP JUMP JUMPDEST PUSH0 DUP2 MLOAD SWAP1 POP PUSH2 0x22F DUP2 PUSH2 0x20B JUMP JUMPDEST SWAP3 SWAP2 POP POP JUMP JUMPDEST PUSH0 PUSH1 0x20 DUP3 DUP5 SUB SLT ISZERO PUSH2 0x24A JUMPI PUSH2 0x249 PUSH2 0x1D7 JUMP JUMPDEST JUMPDEST PUSH0 PUSH2 0x257 DUP5 DUP3 DUP6 ADD PUSH2 0x221 JUMP JUMPDEST SWAP2 POP POP SWAP3 SWAP2 POP POP JUMP JUMPDEST PUSH2 0x269 DUP2 PUSH2 0x1FA JUMP JUMPDEST DUP3 MSTORE POP POP JUMP JUMPDEST PUSH0 PUSH1 0x20 DUP3 ADD SWAP1 POP PUSH2 0x282 PUSH0 DUP4 ADD DUP5 PUSH2 0x260 JUMP JUMPDEST SWAP3 SWAP2 POP POP JUMP JUMPDEST PUSH2 0x2056 DUP1 PUSH2 0x295 PUSH0 CODECOPY PUSH0 RETURN INVALID PUSH1 0x80 PUSH1 0x40 MSTORE CALLVALUE DUP1 ISZERO PUSH2 0xF JUMPI PUSH0 DUP1 REVERT JUMPDEST POP PUSH1 0x4 CALLDATASIZE LT PUSH2 0xB2 JUMPI PUSH0 CALLDATALOAD PUSH1 0xE0 SHR DUP1 PUSH4 0x715018A6 GT PUSH2 0x6F JUMPI DUP1 PUSH4 0x715018A6 EQ PUSH2 0x18C JUMPI DUP1 PUSH4 0x820785CC EQ PUSH2 0x196 JUMPI DUP1 PUSH4 0x8DA5CB5B EQ PUSH2 0x1C6 JUMPI DUP1 PUSH4 0xB8E4F167 EQ PUSH2 0x1E4 JUMPI DUP1 PUSH4 0xC3AD5ECB EQ PUSH2 0x200 JUMPI DUP1 PUSH4 0xF2FDE38B EQ PUSH2 0x230 JUMPI PUSH2 0xB2 JUMP JUMPDEST DUP1 PUSH4 0x5A1B4A9 EQ PUSH2 0xB6 JUMPI DUP1 PUSH4 0x12E7EE1C EQ PUSH2 0xEA JUMPI DUP1 PUSH4 0x3D9B569F EQ PUSH2 0x11A JUMPI DUP1 PUSH4 0x58BFA4AB EQ PUSH2 0x136 JUMPI DUP1 PUSH4 0x63378216 EQ PUSH2 0x152 JUMPI DUP1 PUSH4 0x6EB10797 EQ PUSH2 0x16E JUMPI JUMPDEST PUSH0 DUP1 REVERT JUMPDEST PUSH2 0xD0 PUSH1 0x4 DUP1 CALLDATASIZE SUB DUP2 ADD SWAP1 PUSH2 0xCB SWAP2 SWAP1 PUSH2 0x12FD JUMP JUMPDEST PUSH2 0x24C JUMP JUMPDEST PUSH1 0x40 MLOAD PUSH2 0xE1 SWAP6 SWAP5 SWAP4 SWAP3 SWAP2 SWAP1 PUSH2 0x13C9 JUMP JUMPDEST PUSH1 0x40 MLOAD DUP1 SWAP2 SUB SWAP1 RETURN JUMPDEST PUSH2 0x104 PUSH1 0x4 DUP1 CALLDATASIZE SUB DUP2 ADD SWAP1 PUSH2 0xFF SWAP2 SWAP1 PUSH2 0x1421 JUMP JUMPDEST PUSH2 0x33D JUMP JUMPDEST PUSH1 0x40 MLOAD PUSH2 0x111 SWAP2 SWAP1 PUSH2 0x15E0 JUMP JUMPDEST PUSH1 0x40 MLOAD DUP1 SWAP2 SUB SWAP1 RETURN JUMPDEST PUSH2 0x134 PUSH1 0x4 DUP1 CALLDATASIZE SUB DUP2 ADD SWAP1 PUSH2 0x12F SWAP2 SWAP1 PUSH2 0x12FD JUMP JUMPDEST PUSH2 0x4D8 JUMP JUMPDEST STOP JUMPDEST PUSH2 0x150 PUSH1 0x4 DUP1 CALLDATASIZE SUB DUP2 ADD SWAP1 PUSH2 0x14B SWAP2 SWAP1 PUSH2 0x1637 JUMP JUMPDEST PUSH2 0x80F JUMP JUMPDEST STOP JUMPDEST PUSH2 0x16C PUSH1 0x4 DUP1 CALLDATASIZE SUB DUP2 ADD SWAP1 PUSH2 0x167 SWAP2 SWAP1 PUSH2 0x12FD JUMP JUMPDEST PUSH2 0x836 JUMP JUMPDEST STOP JUMPDEST PUSH2 0x176 PUSH2 0xACD JUMP JUMPDEST PUSH1 0x40 MLOAD PUSH2 0x183 SWAP2 SWAP1 PUSH2 0x1671 JUMP JUMPDEST PUSH1 0x40 MLOAD DUP1 SWAP2 SUB SWAP1 RETURN JUMPDEST PUSH2 0x194 PUSH2 0xAE0 JUMP JUMPDEST STOP JUMPDEST PUSH2 0x1B0 PUSH1 0x4 DUP1 CALLDATASIZE SUB DUP2 ADD SWAP1 PUSH2 0x1AB SWAP2 SWAP1 PUSH2 0x1421 JUMP JUMPDEST PUSH2 0xAF3 JUMP JUMPDEST PUSH1 0x40 MLOAD PUSH2 0x1BD SWAP2 SWAP1 PUSH2 0x168A JUMP JUMPDEST PUSH1 0x40 MLOAD DUP1 SWAP2 SUB SWAP1 RETURN JUMPDEST PUSH2 0x1CE PUSH2 0xBC2 JUMP JUMPDEST PUSH1 0x40 MLOAD PUSH2 0x1DB SWAP2 SWAP1 PUSH2 0x16A3 JUMP JUMPDEST PUSH1 0x40 MLOAD DUP1 SWAP2 SUB SWAP1 RETURN JUMPDEST PUSH2 0x1FE PUSH1 0x4 DUP1 CALLDATASIZE SUB DUP2 ADD SWAP1 PUSH2 0x1F9 SWAP2 SWAP1 PUSH2 0x17E8 JUMP JUMPDEST PUSH2 0xBE9 JUMP JUMPDEST STOP JUMPDEST PUSH2 0x21A PUSH1 0x4 DUP1 CALLDATASIZE SUB DUP2 ADD SWAP1 PUSH2 0x215 SWAP2 SWAP1 PUSH2 0x182F JUMP JUMPDEST PUSH2 0xED4 JUMP JUMPDEST PUSH1 0x40 MLOAD PUSH2 0x227 SWAP2 SWAP1 PUSH2 0x18CD JUMP JUMPDEST PUSH1 0x40 MLOAD DUP1 SWAP2 SUB SWAP1 RETURN JUMPDEST PUSH2 0x24A PUSH1 0x4 DUP1 CALLDATASIZE SUB DUP2 ADD SWAP1 PUSH2 0x245 SWAP2 SWAP1 PUSH2 0x1421 JUMP JUMPDEST PUSH2 0x104B JUMP JUMPDEST STOP JUMPDEST PUSH1 0x1 PUSH1 0x20 MSTORE DUP2 PUSH0 MSTORE PUSH1 0x40 PUSH0 KECCAK256 DUP2 DUP2 SLOAD DUP2 LT PUSH2 0x265 JUMPI PUSH0 DUP1 REVERT JUMPDEST SWAP1 PUSH0 MSTORE PUSH1 0x20 PUSH0 KECCAK256 SWAP1 PUSH1 0x5 MUL ADD PUSH0 SWAP2 POP SWAP2 POP POP DUP1 PUSH0 ADD SLOAD SWAP1 DUP1 PUSH1 0x1 ADD PUSH0 SWAP1 SLOAD SWAP1 PUSH2 0x100 EXP SWAP1 DIV PUSH20 0xFFFFFFFFFFFFFFFFFFFFFFFFFFFFFFFFFFFFFFFF AND SWAP1 DUP1 PUSH1 0x2 ADD DUP1 SLOAD PUSH2 0x2B0 SWAP1 PUSH2 0x191A JUMP JUMPDEST DUP1 PUSH1 0x1F ADD PUSH1 0x20 DUP1 SWAP2 DIV MUL PUSH1 0x20 ADD PUSH1 0x40 MLOAD SWAP1 DUP2 ADD PUSH1 0x40 MSTORE DUP1 SWAP3 SWAP2 SWAP1 DUP2 DUP2 MSTORE PUSH1 0x20 ADD DUP3 DUP1 SLOAD PUSH2 0x2DC SWAP1 PUSH2 0x191A JUMP JUMPDEST DUP1 ISZERO PUSH2 0x327 JUMPI DUP1 PUSH1 0x1F LT PUSH2 0x2FE JUMPI PUSH2 0x100 DUP1 DUP4 SLOAD DIV MUL DUP4 MSTORE SWAP2 PUSH1 0x20 ADD SWAP2 PUSH2 0x327 JUMP JUMPDEST DUP3 ADD SWAP2 SWAP1 PUSH0 MSTORE PUSH1 0x20 PUSH0 KECCAK256 SWAP1 JUMPDEST DUP2 SLOAD DUP2 MSTORE SWAP1 PUSH1 0x1 ADD SWAP1 PUSH1 0x20 ADD DUP1 DUP4 GT PUSH2 0x30A JUMPI DUP3 SWAP1 SUB PUSH1 0x1F AND DUP3 ADD SWAP2 JUMPDEST POP POP POP POP POP SWAP1 DUP1 PUSH1 0x3 ADD SLOAD SWAP1 DUP1 PUSH1 0x4 ADD SLOAD SWAP1 POP DUP6 JUMP JUMPDEST PUSH1 0x60 PUSH1 0x1 PUSH0 DUP4 PUSH20 0xFFFFFFFFFFFFFFFFFFFFFFFFFFFFFFFFFFFFFFFF AND PUSH20 0xFFFFFFFFFFFFFFFFFFFFFFFFFFFFFFFFFFFFFFFF AND DUP2 MSTORE PUSH1 0x20 ADD SWAP1 DUP2 MSTORE PUSH1 0x20 ADD PUSH0 KECCAK256 DUP1 SLOAD DUP1 PUSH1 0x20 MUL PUSH1 0x20 ADD PUSH1 0x40 MLOAD SWAP1 DUP2 ADD PUSH1 0x40 MSTORE DUP1 SWAP3 SWAP2 SWAP1 DUP2 DUP2 MSTORE PUSH1 0x20 ADD PUSH0 SWAP1 JUMPDEST DUP3 DUP3 LT ISZERO PUSH2 0x4CD JUMPI DUP4 DUP3 SWAP1 PUSH0 MSTORE PUSH1 0x20 PUSH0 KECCAK256 SWAP1 PUSH1 0x5 MUL ADD PUSH1 0x40 MLOAD DUP1 PUSH1 0xA0 ADD PUSH1 0x40 MSTORE SWAP1 DUP2 PUSH0 DUP3 ADD SLOAD DUP2 MSTORE PUSH1 0x20 ADD PUSH1 0x1 DUP3 ADD PUSH0 SWAP1 SLOAD SWAP1 PUSH2 0x100 EXP SWAP1 DIV PUSH20 0xFFFFFFFFFFFFFFFFFFFFFFFFFFFFFFFFFFFFFFFF AND PUSH20 0xFFFFFFFFFFFFFFFFFFFFFFFFFFFFFFFFFFFFFFFF AND PUSH20 0xFFFFFFFFFFFFFFFFFFFFFFFFFFFFFFFFFFFFFFFF AND DUP2 MSTORE PUSH1 0x20 ADD PUSH1 0x2 DUP3 ADD DUP1 SLOAD PUSH2 0x42A SWAP1 PUSH2 0x191A JUMP JUMPDEST DUP1 PUSH1 0x1F ADD PUSH1 0x20 DUP1 SWAP2 DIV MUL PUSH1 0x20 ADD PUSH1 0x40 MLOAD SWAP1 DUP2 ADD PUSH1 0x40 MSTORE DUP1 SWAP3 SWAP2 SWAP1 DUP2 DUP2 MSTORE PUSH1 0x20 ADD DUP3 DUP1 SLOAD PUSH2 0x456 SWAP1 PUSH2 0x191A JUMP JUMPDEST DUP1 ISZERO PUSH2 0x4A1 JUMPI DUP1 PUSH1 0x1F LT PUSH2 0x478 JUMPI PUSH2 0x100 DUP1 DUP4 SLOAD DIV MUL DUP4 MSTORE SWAP2 PUSH1 0x20 ADD SWAP2 PUSH2 0x4A1 JUMP JUMPDEST DUP3 ADD SWAP2 SWAP1 PUSH0 MSTORE PUSH1 0x20 PUSH0 KECCAK256 SWAP1 JUMPDEST DUP2 SLOAD DUP2 MSTORE SWAP1 PUSH1 0x1 ADD SWAP1 PUSH1 0x20 ADD DUP1 DUP4 GT PUSH2 0x484 JUMPI DUP3 SWAP1 SUB PUSH1 0x1F AND DUP3 ADD SWAP2 JUMPDEST POP POP POP POP POP DUP2 MSTORE PUSH1 0x20 ADD PUSH1 0x3 DUP3 ADD SLOAD DUP2 MSTORE PUSH1 0x20 ADD PUSH1 0x4 DUP3 ADD SLOAD DUP2 MSTORE POP POP DUP2 MSTORE PUSH1 0x20 ADD SWAP1 PUSH1 0x1 ADD SWAP1 PUSH2 0x39B JUMP JUMPDEST POP POP POP POP SWAP1 POP SWAP2 SWAP1 POP JUMP JUMPDEST PUSH0 PUSH1 0x2 PUSH0 SWAP1 SLOAD SWAP1 PUSH2 0x100 EXP SWAP1 DIV PUSH20 0xFFFFFFFFFFFFFFFFFFFFFFFFFFFFFFFFFFFFFFFF AND PUSH20 0xFFFFFFFFFFFFFFFFFFFFFFFFFFFFFFFFFFFFFFFF AND PUSH4 0xF53A470 CALLER PUSH1 0x40 MLOAD DUP3 PUSH4 0xFFFFFFFF AND PUSH1 0xE0 SHL DUP2 MSTORE PUSH1 0x4 ADD PUSH2 0x533 SWAP2 SWAP1 PUSH2 0x16A3 JUMP JUMPDEST PUSH0 PUSH1 0x40 MLOAD DUP1 DUP4 SUB DUP2 DUP7 GAS STATICCALL ISZERO DUP1 ISZERO PUSH2 0x54D JUMPI RETURNDATASIZE PUSH0 DUP1 RETURNDATACOPY RETURNDATASIZE PUSH0 REVERT JUMPDEST POP POP POP POP PUSH1 0x40 MLOAD RETURNDATASIZE PUSH0 DUP3 RETURNDATACOPY RETURNDATASIZE PUSH1 0x1F NOT PUSH1 0x1F DUP3 ADD AND DUP3 ADD DUP1 PUSH1 0x40 MSTORE POP DUP2 ADD SWAP1 PUSH2 0x575 SWAP2 SWAP1 PUSH2 0x1A45 JUMP JUMPDEST SWAP1 POP PUSH0 DUP2 PUSH0 ADD MLOAD MLOAD GT PUSH2 0x5BD JUMPI PUSH1 0x40 MLOAD PUSH32 0x8C379A000000000000000000000000000000000000000000000000000000000 DUP2 MSTORE PUSH1 0x4 ADD PUSH2 0x5B4 SWAP1 PUSH2 0x1AD6 JUMP JUMPDEST PUSH1 0x40 MLOAD DUP1 SWAP2 SUB SWAP1 REVERT JUMPDEST DUP2 PUSH1 0x1 PUSH0 DUP6 PUSH20 0xFFFFFFFFFFFFFFFFFFFFFFFFFFFFFFFFFFFFFFFF AND PUSH20 0xFFFFFFFFFFFFFFFFFFFFFFFFFFFFFFFFFFFFFFFF AND DUP2 MSTORE PUSH1 0x20 ADD SWAP1 DUP2 MSTORE PUSH1 0x20 ADD PUSH0 KECCAK256 DUP4 DUP2 SLOAD DUP2 LT PUSH2 0x60D JUMPI PUSH2 0x60C PUSH2 0x1AF4 JUMP JUMPDEST JUMPDEST SWAP1 PUSH0 MSTORE PUSH1 0x20 PUSH0 KECCAK256 SWAP1 PUSH1 0x5 MUL ADD PUSH0 ADD SLOAD EQ PUSH2 0x65C JUMPI PUSH1 0x40 MLOAD PUSH32 0x8C379A000000000000000000000000000000000000000000000000000000000 DUP2 MSTORE PUSH1 0x4 ADD PUSH2 0x653 SWAP1 PUSH2 0x1B6B JUMP JUMPDEST PUSH1 0x40 MLOAD DUP1 SWAP2 SUB SWAP1 REVERT JUMPDEST PUSH0 PUSH1 0x1 PUSH0 DUP6 PUSH20 0xFFFFFFFFFFFFFFFFFFFFFFFFFFFFFFFFFFFFFFFF AND PUSH20 0xFFFFFFFFFFFFFFFFFFFFFFFFFFFFFFFFFFFFFFFF AND DUP2 MSTORE PUSH1 0x20 ADD SWAP1 DUP2 MSTORE PUSH1 0x20 ADD PUSH0 KECCAK256 DUP4 DUP2 SLOAD DUP2 LT PUSH2 0x6AC JUMPI PUSH2 0x6AB PUSH2 0x1AF4 JUMP JUMPDEST JUMPDEST SWAP1 PUSH0 MSTORE PUSH1 0x20 PUSH0 KECCAK256 SWAP1 PUSH1 0x5 MUL ADD PUSH1 0x4 ADD SLOAD GT PUSH2 0x6FC JUMPI PUSH1 0x40 MLOAD PUSH32 0x8C379A000000000000000000000000000000000000000000000000000000000 DUP2 MSTORE PUSH1 0x4 ADD PUSH2 0x6F3 SWAP1 PUSH2 0x1BD3 JUMP JUMPDEST PUSH1 0x40 MLOAD DUP1 SWAP2 SUB SWAP1 REVERT JUMPDEST PUSH1 0x1 PUSH0 DUP5 PUSH20 0xFFFFFFFFFFFFFFFFFFFFFFFFFFFFFFFFFFFFFFFF AND PUSH20 0xFFFFFFFFFFFFFFFFFFFFFFFFFFFFFFFFFFFFFFFF AND DUP2 MSTORE PUSH1 0x20 ADD SWAP1 DUP2 MSTORE PUSH1 0x20 ADD PUSH0 KECCAK256 DUP3 DUP2 SLOAD DUP2 LT PUSH2 0x74B JUMPI PUSH2 0x74A PUSH2 0x1AF4 JUMP JUMPDEST JUMPDEST SWAP1 PUSH0 MSTORE PUSH1 0x20 PUSH0 KECCAK256 SWAP1 PUSH1 0x5 MUL ADD PUSH1 0x4 ADD PUSH0 DUP2 SLOAD DUP1 SWAP3 SWAP2 SWAP1 PUSH2 0x76A SWAP1 PUSH2 0x1C1E JUMP JUMPDEST SWAP2 SWAP1 POP SSTORE POP PUSH32 0x762C2616349603AC16EBA0DE8E6141B79129A07AB63BD99E0A80B3A471716943 CALLER DUP5 DUP5 PUSH1 0x1 PUSH0 DUP9 PUSH20 0xFFFFFFFFFFFFFFFFFFFFFFFFFFFFFFFFFFFFFFFF AND PUSH20 0xFFFFFFFFFFFFFFFFFFFFFFFFFFFFFFFFFFFFFFFF AND DUP2 MSTORE PUSH1 0x20 ADD SWAP1 DUP2 MSTORE PUSH1 0x20 ADD PUSH0 KECCAK256 DUP7 DUP2 SLOAD DUP2 LT PUSH2 0x7E2 JUMPI PUSH2 0x7E1 PUSH2 0x1AF4 JUMP JUMPDEST JUMPDEST SWAP1 PUSH0 MSTORE PUSH1 0x20 PUSH0 KECCAK256 SWAP1 PUSH1 0x5 MUL ADD PUSH1 0x4 ADD SLOAD PUSH1 0x40 MLOAD PUSH2 0x802 SWAP5 SWAP4 SWAP3 SWAP2 SWAP1 PUSH2 0x1C45 JUMP JUMPDEST PUSH1 0x40 MLOAD DUP1 SWAP2 SUB SWAP1 LOG1 POP POP POP JUMP JUMPDEST PUSH2 0x817 PUSH2 0x10CF JUMP JUMPDEST DUP1 PUSH0 PUSH1 0x14 PUSH2 0x100 EXP DUP2 SLOAD DUP2 PUSH2 0xFFFF MUL NOT AND SWAP1 DUP4 PUSH2 0xFFFF AND MUL OR SWAP1 SSTORE POP POP JUMP JUMPDEST PUSH0 PUSH1 0x2 PUSH0 SWAP1 SLOAD SWAP1 PUSH2 0x100 EXP SWAP1 DIV PUSH20 0xFFFFFFFFFFFFFFFFFFFFFFFFFFFFFFFFFFFFFFFF AND PUSH20 0xFFFFFFFFFFFFFFFFFFFFFFFFFFFFFFFFFFFFFFFF AND PUSH4 0xF53A470 CALLER PUSH1 0x40 MLOAD DUP3 PUSH4 0xFFFFFFFF AND PUSH1 0xE0 SHL DUP2 MSTORE PUSH1 0x4 ADD PUSH2 0x891 SWAP2 SWAP1 PUSH2 0x16A3 JUMP JUMPDEST PUSH0 PUSH1 0x40 MLOAD DUP1 DUP4 SUB DUP2 DUP7 GAS STATICCALL ISZERO DUP1 ISZERO PUSH2 0x8AB JUMPI RETURNDATASIZE PUSH0 DUP1 RETURNDATACOPY RETURNDATASIZE PUSH0 REVERT JUMPDEST POP POP POP POP PUSH1 0x40 MLOAD RETURNDATASIZE PUSH0 DUP3 RETURNDATACOPY RETURNDATASIZE PUSH1 0x1F NOT PUSH1 0x1F DUP3 ADD AND DUP3 ADD DUP1 PUSH1 0x40 MSTORE POP DUP2 ADD SWAP1 PUSH2 0x8D3 SWAP2 SWAP1 PUSH2 0x1A45 JUMP JUMPDEST SWAP1 POP PUSH0 DUP2 PUSH0 ADD MLOAD MLOAD GT PUSH2 0x91B JUMPI PUSH1 0x40 MLOAD PUSH32 0x8C379A000000000000000000000000000000000000000000000000000000000 DUP2 MSTORE PUSH1 0x4 ADD PUSH2 0x912 SWAP1 PUSH2 0x1AD6 JUMP JUMPDEST PUSH1 0x40 MLOAD DUP1 SWAP2 SUB SWAP1 REVERT JUMPDEST DUP2 PUSH1 0x1 PUSH0 DUP6 PUSH20 0xFFFFFFFFFFFFFFFFFFFFFFFFFFFFFFFFFFFFFFFF AND PUSH20 0xFFFFFFFFFFFFFFFFFFFFFFFFFFFFFFFFFFFFFFFF AND DUP2 MSTORE PUSH1 0x20 ADD SWAP1 DUP2 MSTORE PUSH1 0x20 ADD PUSH0 KECCAK256 DUP4 DUP2 SLOAD DUP2 LT PUSH2 0x96B JUMPI PUSH2 0x96A PUSH2 0x1AF4 JUMP JUMPDEST JUMPDEST SWAP1 PUSH0 MSTORE PUSH1 0x20 PUSH0 KECCAK256 SWAP1 PUSH1 0x5 MUL ADD PUSH0 ADD SLOAD EQ PUSH2 0x9BA JUMPI PUSH1 0x40 MLOAD PUSH32 0x8C379A000000000000000000000000000000000000000000000000000000000 DUP2 MSTORE PUSH1 0x4 ADD PUSH2 0x9B1 SWAP1 PUSH2 0x1B6B JUMP JUMPDEST PUSH1 0x40 MLOAD DUP1 SWAP2 SUB SWAP1 REVERT JUMPDEST PUSH1 0x1 PUSH0 DUP5 PUSH20 0xFFFFFFFFFFFFFFFFFFFFFFFFFFFFFFFFFFFFFFFF AND PUSH20 0xFFFFFFFFFFFFFFFFFFFFFFFFFFFFFFFFFFFFFFFF AND DUP2 MSTORE PUSH1 0x20 ADD SWAP1 DUP2 MSTORE PUSH1 0x20 ADD PUSH0 KECCAK256 DUP3 DUP2 SLOAD DUP2 LT PUSH2 0xA09 JUMPI PUSH2 0xA08 PUSH2 0x1AF4 JUMP JUMPDEST JUMPDEST SWAP1 PUSH0 MSTORE PUSH1 0x20 PUSH0 KECCAK256 SWAP1 PUSH1 0x5 MUL ADD PUSH1 0x4 ADD PUSH0 DUP2 SLOAD DUP1 SWAP3 SWAP2 SWAP1 PUSH2 0xA28 SWAP1 PUSH2 0x1C88 JUMP JUMPDEST SWAP2 SWAP1 POP SSTORE POP PUSH32 0xE8A76FC0F16D11A00D1E93B689B63D76CF60AF914DD3D915375DC41D01A0C3C8 CALLER DUP5 DUP5 PUSH1 0x1 PUSH0 DUP9 PUSH20 0xFFFFFFFFFFFFFFFFFFFFFFFFFFFFFFFFFFFFFFFF AND PUSH20 0xFFFFFFFFFFFFFFFFFFFFFFFFFFFFFFFFFFFFFFFF AND DUP2 MSTORE PUSH1 0x20 ADD SWAP1 DUP2 MSTORE PUSH1 0x20 ADD PUSH0 KECCAK256 DUP7 DUP2 SLOAD DUP2 LT PUSH2 0xAA0 JUMPI PUSH2 0xA9F PUSH2 0x1AF4 JUMP JUMPDEST JUMPDEST SWAP1 PUSH0 MSTORE PUSH1 0x20 PUSH0 KECCAK256 SWAP1 PUSH1 0x5 MUL ADD PUSH1 0x4 ADD SLOAD PUSH1 0x40 MLOAD PUSH2 0xAC0 SWAP5 SWAP4 SWAP3 SWAP2 SWAP1 PUSH2 0x1C45 JUMP JUMPDEST PUSH1 0x40 MLOAD DUP1 SWAP2 SUB SWAP1 LOG1 POP POP POP JUMP JUMPDEST PUSH0 PUSH1 0x14 SWAP1 SLOAD SWAP1 PUSH2 0x100 EXP SWAP1 DIV PUSH2 0xFFFF AND DUP2 JUMP JUMPDEST PUSH2 0xAE8 PUSH2 0x10CF JUMP JUMPDEST PUSH2 0xAF1 PUSH0 PUSH2 0x1156 JUMP JUMPDEST JUMP JUMPDEST PUSH0 DUP1 PUSH0 JUMPDEST PUSH1 0x1 PUSH0 DUP6 PUSH20 0xFFFFFFFFFFFFFFFFFFFFFFFFFFFFFFFFFFFFFFFF AND PUSH20 0xFFFFFFFFFFFFFFFFFFFFFFFFFFFFFFFFFFFFFFFF AND DUP2 MSTORE PUSH1 0x20 ADD SWAP1 DUP2 MSTORE PUSH1 0x20 ADD PUSH0 KECCAK256 DUP1 SLOAD SWAP1 POP DUP2 LT ISZERO PUSH2 0xBB8 JUMPI PUSH1 0x1 PUSH0 DUP6 PUSH20 0xFFFFFFFFFFFFFFFFFFFFFFFFFFFFFFFFFFFFFFFF AND PUSH20 0xFFFFFFFFFFFFFFFFFFFFFFFFFFFFFFFFFFFFFFFF AND DUP2 MSTORE PUSH1 0x20 ADD SWAP1 DUP2 MSTORE PUSH1 0x20 ADD PUSH0 KECCAK256 DUP2 DUP2 SLOAD DUP2 LT PUSH2 0xB8E JUMPI PUSH2 0xB8D PUSH2 0x1AF4 JUMP JUMPDEST JUMPDEST SWAP1 PUSH0 MSTORE PUSH1 0x20 PUSH0 KECCAK256 SWAP1 PUSH1 0x5 MUL ADD PUSH1 0x4 ADD SLOAD DUP3 PUSH2 0xBA9 SWAP2 SWAP1 PUSH2 0x1CCF JUMP JUMPDEST SWAP2 POP DUP1 DUP1 PUSH1 0x1 ADD SWAP2 POP POP PUSH2 0xAF7 JUMP JUMPDEST POP DUP1 SWAP2 POP POP SWAP2 SWAP1 POP JUMP JUMPDEST PUSH0 DUP1 PUSH0 SWAP1 SLOAD SWAP1 PUSH2 0x100 EXP SWAP1 DIV PUSH20 0xFFFFFFFFFFFFFFFFFFFFFFFFFFFFFFFFFFFFFFFF AND SWAP1 POP SWAP1 JUMP JUMPDEST PUSH0 PUSH1 0x2 PUSH0 SWAP1 SLOAD SWAP1 PUSH2 0x100 EXP SWAP1 DIV PUSH20 0xFFFFFFFFFFFFFFFFFFFFFFFFFFFFFFFFFFFFFFFF AND PUSH20 0xFFFFFFFFFFFFFFFFFFFFFFFFFFFFFFFFFFFFFFFF AND PUSH4 0xF53A470 CALLER PUSH1 0x40 MLOAD DUP3 PUSH4 0xFFFFFFFF AND PUSH1 0xE0 SHL DUP2 MSTORE PUSH1 0x4 ADD PUSH2 0xC44 SWAP2 SWAP1 PUSH2 0x16A3 JUMP JUMPDEST PUSH0 PUSH1 0x40 MLOAD DUP1 DUP4 SUB DUP2 DUP7 GAS STATICCALL ISZERO DUP1 ISZERO PUSH2 0xC5E JUMPI RETURNDATASIZE PUSH0 DUP1 RETURNDATACOPY RETURNDATASIZE PUSH0 REVERT JUMPDEST POP POP POP POP PUSH1 0x40 MLOAD RETURNDATASIZE PUSH0 DUP3 RETURNDATACOPY RETURNDATASIZE PUSH1 0x1F NOT PUSH1 0x1F DUP3 ADD AND DUP3 ADD DUP1 PUSH1 0x40 MSTORE POP DUP2 ADD SWAP1 PUSH2 0xC86 SWAP2 SWAP1 PUSH2 0x1A45 JUMP JUMPDEST SWAP1 POP PUSH0 DUP2 PUSH0 ADD MLOAD MLOAD GT PUSH2 0xCCE JUMPI PUSH1 0x40 MLOAD PUSH32 0x8C379A000000000000000000000000000000000000000000000000000000000 DUP2 MSTORE PUSH1 0x4 ADD PUSH2 0xCC5 SWAP1 PUSH2 0x1AD6 JUMP JUMPDEST PUSH1 0x40 MLOAD DUP1 SWAP2 SUB SWAP1 REVERT JUMPDEST PUSH0 PUSH1 0x14 SWAP1 SLOAD SWAP1 PUSH2 0x100 EXP SWAP1 DIV PUSH2 0xFFFF AND PUSH2 0xFFFF AND DUP3 MLOAD GT ISZERO PUSH2 0xD25 JUMPI PUSH1 0x40 MLOAD PUSH32 0x8C379A000000000000000000000000000000000000000000000000000000000 DUP2 MSTORE PUSH1 0x4 ADD PUSH2 0xD1C SWAP1 PUSH2 0x1D4C JUMP JUMPDEST PUSH1 0x40 MLOAD DUP1 SWAP2 SUB SWAP1 REVERT JUMPDEST PUSH0 PUSH1 0x40 MLOAD DUP1 PUSH1 0xA0 ADD PUSH1 0x40 MSTORE DUP1 PUSH1 0x1 PUSH0 CALLER PUSH20 0xFFFFFFFFFFFFFFFFFFFFFFFFFFFFFFFFFFFFFFFF AND PUSH20 0xFFFFFFFFFFFFFFFFFFFFFFFFFFFFFFFFFFFFFFFF AND DUP2 MSTORE PUSH1 0x20 ADD SWAP1 DUP2 MSTORE PUSH1 0x20 ADD PUSH0 KECCAK256 DUP1 SLOAD SWAP1 POP DUP2 MSTORE PUSH1 0x20 ADD CALLER PUSH20 0xFFFFFFFFFFFFFFFFFFFFFFFFFFFFFFFFFFFFFFFF AND DUP2 MSTORE PUSH1 0x20 ADD DUP5 DUP2 MSTORE PUSH1 0x20 ADD TIMESTAMP DUP2 MSTORE PUSH1 0x20 ADD PUSH0 DUP2 MSTORE POP SWAP1 POP PUSH1 0x1 PUSH0 CALLER PUSH20 0xFFFFFFFFFFFFFFFFFFFFFFFFFFFFFFFFFFFFFFFF AND PUSH20 0xFFFFFFFFFFFFFFFFFFFFFFFFFFFFFFFFFFFFFFFF AND DUP2 MSTORE PUSH1 0x20 ADD SWAP1 DUP2 MSTORE PUSH1 0x20 ADD PUSH0 KECCAK256 DUP2 SWAP1 DUP1 PUSH1 0x1 DUP2 SLOAD ADD DUP1 DUP3 SSTORE DUP1 SWAP2 POP POP PUSH1 0x1 SWAP1 SUB SWAP1 PUSH0 MSTORE PUSH1 0x20 PUSH0 KECCAK256 SWAP1 PUSH1 0x5 MUL ADD PUSH0 SWAP1 SWAP2 SWAP1 SWAP2 SWAP1 SWAP2 POP PUSH0 DUP3 ADD MLOAD DUP2 PUSH0 ADD SSTORE PUSH1 0x20 DUP3 ADD MLOAD DUP2 PUSH1 0x1 ADD PUSH0 PUSH2 0x100 EXP DUP2 SLOAD DUP2 PUSH20 0xFFFFFFFFFFFFFFFFFFFFFFFFFFFFFFFFFFFFFFFF MUL NOT AND SWAP1 DUP4 PUSH20 0xFFFFFFFFFFFFFFFFFFFFFFFFFFFFFFFFFFFFFFFF AND MUL OR SWAP1 SSTORE POP PUSH1 0x40 DUP3 ADD MLOAD DUP2 PUSH1 0x2 ADD SWAP1 DUP2 PUSH2 0xE6C SWAP2 SWAP1 PUSH2 0x1F07 JUMP JUMPDEST POP PUSH1 0x60 DUP3 ADD MLOAD DUP2 PUSH1 0x3 ADD SSTORE PUSH1 0x80 DUP3 ADD MLOAD DUP2 PUSH1 0x4 ADD SSTORE POP POP PUSH32 0x16FD3C13E9D46923E0A8BCE11C7B473EC508A72E6C96CD2404B29CE972AFC29E DUP2 PUSH0 ADD MLOAD DUP3 PUSH1 0x20 ADD MLOAD DUP4 PUSH1 0x40 ADD MLOAD DUP5 PUSH1 0x60 ADD MLOAD PUSH1 0x40 MLOAD PUSH2 0xEC7 SWAP5 SWAP4 SWAP3 SWAP2 SWAP1 PUSH2 0x1FD6 JUMP JUMPDEST PUSH1 0x40 MLOAD DUP1 SWAP2 SUB SWAP1 LOG1 POP POP POP JUMP JUMPDEST PUSH2 0xEDC PUSH2 0x121E JUMP JUMPDEST PUSH1 0x1 PUSH0 CALLER PUSH20 0xFFFFFFFFFFFFFFFFFFFFFFFFFFFFFFFFFFFFFFFF AND PUSH20 0xFFFFFFFFFFFFFFFFFFFFFFFFFFFFFFFFFFFFFFFF AND DUP2 MSTORE PUSH1 0x20 ADD SWAP1 DUP2 MSTORE PUSH1 0x20 ADD PUSH0 KECCAK256 DUP3 DUP2 SLOAD DUP2 LT PUSH2 0xF2B JUMPI PUSH2 0xF2A PUSH2 0x1AF4 JUMP JUMPDEST JUMPDEST SWAP1 PUSH0 MSTORE PUSH1 0x20 PUSH0 KECCAK256 SWAP1 PUSH1 0x5 MUL ADD PUSH1 0x40 MLOAD DUP1 PUSH1 0xA0 ADD PUSH1 0x40 MSTORE SWAP1 DUP2 PUSH0 DUP3 ADD SLOAD DUP2 MSTORE PUSH1 0x20 ADD PUSH1 0x1 DUP3 ADD PUSH0 SWAP1 SLOAD SWAP1 PUSH2 0x100 EXP SWAP1 DIV PUSH20 0xFFFFFFFFFFFFFFFFFFFFFFFFFFFFFFFFFFFFFFFF AND PUSH20 0xFFFFFFFFFFFFFFFFFFFFFFFFFFFFFFFFFFFFFFFF AND PUSH20 0xFFFFFFFFFFFFFFFFFFFFFFFFFFFFFFFFFFFFFFFF AND DUP2 MSTORE PUSH1 0x20 ADD PUSH1 0x2 DUP3 ADD DUP1 SLOAD PUSH2 0xFB0 SWAP1 PUSH2 0x191A JUMP JUMPDEST DUP1 PUSH1 0x1F ADD PUSH1 0x20 DUP1 SWAP2 DIV MUL PUSH1 0x20 ADD PUSH1 0x40 MLOAD SWAP1 DUP2 ADD PUSH1 0x40 MSTORE DUP1 SWAP3 SWAP2 SWAP1 DUP2 DUP2 MSTORE PUSH1 0x20 ADD DUP3 DUP1 SLOAD PUSH2 0xFDC SWAP1 PUSH2 0x191A JUMP JUMPDEST DUP1 ISZERO PUSH2 0x1027 JUMPI DUP1 PUSH1 0x1F LT PUSH2 0xFFE JUMPI PUSH2 0x100 DUP1 DUP4 SLOAD DIV MUL DUP4 MSTORE SWAP2 PUSH1 0x20 ADD SWAP2 PUSH2 0x1027 JUMP JUMPDEST DUP3 ADD SWAP2 SWAP1 PUSH0 MSTORE PUSH1 0x20 PUSH0 KECCAK256 SWAP1 JUMPDEST DUP2 SLOAD DUP2 MSTORE SWAP1 PUSH1 0x1 ADD SWAP1 PUSH1 0x20 ADD DUP1 DUP4 GT PUSH2 0x100A JUMPI DUP3 SWAP1 SUB PUSH1 0x1F AND DUP3 ADD SWAP2 JUMPDEST POP POP POP POP POP DUP2 MSTORE PUSH1 0x20 ADD PUSH1 0x3 DUP3 ADD SLOAD DUP2 MSTORE PUSH1 0x20 ADD PUSH1 0x4 DUP3 ADD SLOAD DUP2 MSTORE POP POP SWAP1 POP SWAP2 SWAP1 POP JUMP JUMPDEST PUSH2 0x1053 PUSH2 0x10CF JUMP JUMPDEST PUSH0 PUSH20 0xFFFFFFFFFFFFFFFFFFFFFFFFFFFFFFFFFFFFFFFF AND DUP2 PUSH20 0xFFFFFFFFFFFFFFFFFFFFFFFFFFFFFFFFFFFFFFFF AND SUB PUSH2 0x10C3 JUMPI PUSH0 PUSH1 0x40 MLOAD PUSH32 0x1E4FBDF700000000000000000000000000000000000000000000000000000000 DUP2 MSTORE PUSH1 0x4 ADD PUSH2 0x10BA SWAP2 SWAP1 PUSH2 0x16A3 JUMP JUMPDEST PUSH1 0x40 MLOAD DUP1 SWAP2 SUB SWAP1 REVERT JUMPDEST PUSH2 0x10CC DUP2 PUSH2 0x1156 JUMP JUMPDEST POP JUMP JUMPDEST PUSH2 0x10D7 PUSH2 0x1217 JUMP JUMPDEST PUSH20 0xFFFFFFFFFFFFFFFFFFFFFFFFFFFFFFFFFFFFFFFF AND PUSH2 0x10F5 PUSH2 0xBC2 JUMP JUMPDEST PUSH20 0xFFFFFFFFFFFFFFFFFFFFFFFFFFFFFFFFFFFFFFFF AND EQ PUSH2 0x1154 JUMPI PUSH2 0x1118 PUSH2 0x1217 JUMP JUMPDEST PUSH1 0x40 MLOAD PUSH32 0x118CDAA700000000000000000000000000000000000000000000000000000000 DUP2 MSTORE PUSH1 0x4 ADD PUSH2 0x114B SWAP2 SWAP1 PUSH2 0x16A3 JUMP JUMPDEST PUSH1 0x40 MLOAD DUP1 SWAP2 SUB SWAP1 REVERT JUMPDEST JUMP JUMPDEST PUSH0 DUP1 PUSH0 SWAP1 SLOAD SWAP1 PUSH2 0x100 EXP SWAP1 DIV PUSH20 0xFFFFFFFFFFFFFFFFFFFFFFFFFFFFFFFFFFFFFFFF AND SWAP1 POP DUP2 PUSH0 DUP1 PUSH2 0x100 EXP DUP2 SLOAD DUP2 PUSH20 0xFFFFFFFFFFFFFFFFFFFFFFFFFFFFFFFFFFFFFFFF MUL NOT AND SWAP1 DUP4 PUSH20 0xFFFFFFFFFFFFFFFFFFFFFFFFFFFFFFFFFFFFFFFF AND MUL OR SWAP1 SSTORE POP DUP2 PUSH20 0xFFFFFFFFFFFFFFFFFFFFFFFFFFFFFFFFFFFFFFFF AND DUP2 PUSH20 0xFFFFFFFFFFFFFFFFFFFFFFFFFFFFFFFFFFFFFFFF AND PUSH32 0x8BE0079C531659141344CD1FD0A4F28419497F9722A3DAAFE3B4186F6B6457E0 PUSH1 0x40 MLOAD PUSH1 0x40 MLOAD DUP1 SWAP2 SUB SWAP1 LOG3 POP POP JUMP JUMPDEST PUSH0 CALLER SWAP1 POP SWAP1 JUMP JUMPDEST PUSH1 0x40 MLOAD DUP1 PUSH1 0xA0 ADD PUSH1 0x40 MSTORE DUP1 PUSH0 DUP2 MSTORE PUSH1 0x20 ADD PUSH0 PUSH20 0xFFFFFFFFFFFFFFFFFFFFFFFFFFFFFFFFFFFFFFFF AND DUP2 MSTORE PUSH1 0x20 ADD PUSH1 0x60 DUP2 MSTORE PUSH1 0x20 ADD PUSH0 DUP2 MSTORE PUSH1 0x20 ADD PUSH0 DUP2 MSTORE POP SWAP1 JUMP JUMPDEST PUSH0 PUSH1 0x40 MLOAD SWAP1 POP SWAP1 JUMP JUMPDEST PUSH0 DUP1 REVERT JUMPDEST PUSH0 DUP1 REVERT JUMPDEST PUSH0 PUSH20 0xFFFFFFFFFFFFFFFFFFFFFFFFFFFFFFFFFFFFFFFF DUP3 AND SWAP1 POP SWAP2 SWAP1 POP JUMP JUMPDEST PUSH0 PUSH2 0x1299 DUP3 PUSH2 0x1270 JUMP JUMPDEST SWAP1 POP SWAP2 SWAP1 POP JUMP JUMPDEST PUSH2 0x12A9 DUP2 PUSH2 0x128F JUMP JUMPDEST DUP2 EQ PUSH2 0x12B3 JUMPI PUSH0 DUP1 REVERT JUMPDEST POP JUMP JUMPDEST PUSH0 DUP2 CALLDATALOAD SWAP1 POP PUSH2 0x12C4 DUP2 PUSH2 0x12A0 JUMP JUMPDEST SWAP3 SWAP2 POP POP JUMP JUMPDEST PUSH0 DUP2 SWAP1 POP SWAP2 SWAP1 POP JUMP JUMPDEST PUSH2 0x12DC DUP2 PUSH2 0x12CA JUMP JUMPDEST DUP2 EQ PUSH2 0x12E6 JUMPI PUSH0 DUP1 REVERT JUMPDEST POP JUMP JUMPDEST PUSH0 DUP2 CALLDATALOAD SWAP1 POP PUSH2 0x12F7 DUP2 PUSH2 0x12D3 JUMP JUMPDEST SWAP3 SWAP2 POP POP JUMP JUMPDEST PUSH0 DUP1 PUSH1 0x40 DUP4 DUP6 SUB SLT ISZERO PUSH2 0x1313 JUMPI PUSH2 0x1312 PUSH2 0x1268 JUMP JUMPDEST JUMPDEST PUSH0 PUSH2 0x1320 DUP6 DUP3 DUP7 ADD PUSH2 0x12B6 JUMP JUMPDEST SWAP3 POP POP PUSH1 0x20 PUSH2 0x1331 DUP6 DUP3 DUP7 ADD PUSH2 0x12E9 JUMP JUMPDEST SWAP2 POP POP SWAP3 POP SWAP3 SWAP1 POP JUMP JUMPDEST PUSH2 0x1344 DUP2 PUSH2 0x12CA JUMP JUMPDEST DUP3 MSTORE POP POP JUMP JUMPDEST PUSH2 0x1353 DUP2 PUSH2 0x128F JUMP JUMPDEST DUP3 MSTORE POP POP JUMP JUMPDEST PUSH0 DUP2 MLOAD SWAP1 POP SWAP2 SWAP1 POP JUMP JUMPDEST PUSH0 DUP3 DUP3 MSTORE PUSH1 0x20 DUP3 ADD SWAP1 POP SWAP3 SWAP2 POP POP JUMP JUMPDEST DUP3 DUP2 DUP4 MCOPY PUSH0 DUP4 DUP4 ADD MSTORE POP POP POP JUMP JUMPDEST PUSH0 PUSH1 0x1F NOT PUSH1 0x1F DUP4 ADD AND SWAP1 POP SWAP2 SWAP1 POP JUMP JUMPDEST PUSH0 PUSH2 0x139B DUP3 PUSH2 0x1359 JUMP JUMPDEST PUSH2 0x13A5 DUP2 DUP6 PUSH2 0x1363 JUMP JUMPDEST SWAP4 POP PUSH2 0x13B5 DUP2 DUP6 PUSH1 0x20 DUP7 ADD PUSH2 0x1373 JUMP JUMPDEST PUSH2 0x13BE DUP2 PUSH2 0x1381 JUMP JUMPDEST DUP5 ADD SWAP2 POP POP SWAP3 SWAP2 POP POP JUMP JUMPDEST PUSH0 PUSH1 0xA0 DUP3 ADD SWAP1 POP PUSH2 0x13DC PUSH0 DUP4 ADD DUP9 PUSH2 0x133B JUMP JUMPDEST PUSH2 0x13E9 PUSH1 0x20 DUP4 ADD DUP8 PUSH2 0x134A JUMP JUMPDEST DUP2 DUP2 SUB PUSH1 0x40 DUP4 ADD MSTORE PUSH2 0x13FB DUP2 DUP7 PUSH2 0x1391 JUMP JUMPDEST SWAP1 POP PUSH2 0x140A PUSH1 0x60 DUP4 ADD DUP6 PUSH2 0x133B JUMP JUMPDEST PUSH2 0x1417 PUSH1 0x80 DUP4 ADD DUP5 PUSH2 0x133B JUMP JUMPDEST SWAP7 SWAP6 POP POP POP POP POP POP JUMP JUMPDEST PUSH0 PUSH1 0x20 DUP3 DUP5 SUB SLT ISZERO PUSH2 0x1436 JUMPI PUSH2 0x1435 PUSH2 0x1268 JUMP JUMPDEST JUMPDEST PUSH0 PUSH2 0x1443 DUP5 DUP3 DUP6 ADD PUSH2 0x12B6 JUMP JUMPDEST SWAP2 POP POP SWAP3 SWAP2 POP POP JUMP JUMPDEST PUSH0 DUP2 MLOAD SWAP1 POP SWAP2 SWAP1 POP JUMP JUMPDEST PUSH0 DUP3 DUP3 MSTORE PUSH1 0x20 DUP3 ADD SWAP1 POP SWAP3 SWAP2 POP POP JUMP JUMPDEST PUSH0 DUP2 SWAP1 POP PUSH1 0x20 DUP3 ADD SWAP1 POP SWAP2 SWAP1 POP JUMP JUMPDEST PUSH2 0x147E DUP2 PUSH2 0x12CA JUMP JUMPDEST DUP3 MSTORE POP POP JUMP JUMPDEST PUSH2 0x148D DUP2 PUSH2 0x128F JUMP JUMPDEST DUP3 MSTORE POP POP JUMP JUMPDEST PUSH0 DUP3 DUP3 MSTORE PUSH1 0x20 DUP3 ADD SWAP1 POP SWAP3 SWAP2 POP POP JUMP JUMPDEST PUSH0 PUSH2 0x14AD DUP3 PUSH2 0x1359 JUMP JUMPDEST PUSH2 0x14B7 DUP2 DUP6 PUSH2 0x1493 JUMP JUMPDEST SWAP4 POP PUSH2 0x14C7 DUP2 DUP6 PUSH1 0x20 DUP7 ADD PUSH2 0x1373 JUMP JUMPDEST PUSH2 0x14D0 DUP2 PUSH2 0x1381 JUMP JUMPDEST DUP5 ADD SWAP2 POP POP SWAP3 SWAP2 POP POP JUMP JUMPDEST PUSH0 PUSH1 0xA0 DUP4 ADD PUSH0 DUP4 ADD MLOAD PUSH2 0x14F0 PUSH0 DUP7 ADD DUP3 PUSH2 0x1475 JUMP JUMPDEST POP PUSH1 0x20 DUP4 ADD MLOAD PUSH2 0x1503 PUSH1 0x20 DUP7 ADD DUP3 PUSH2 0x1484 JUMP JUMPDEST POP PUSH1 0x40 DUP4 ADD MLOAD DUP5 DUP3 SUB PUSH1 0x40 DUP7 ADD MSTORE PUSH2 0x151B DUP3 DUP3 PUSH2 0x14A3 JUMP JUMPDEST SWAP2 POP POP PUSH1 0x60 DUP4 ADD MLOAD PUSH2 0x1530 PUSH1 0x60 DUP7 ADD DUP3 PUSH2 0x1475 JUMP JUMPDEST POP PUSH1 0x80 DUP4 ADD MLOAD PUSH2 0x1543 PUSH1 0x80 DUP7 ADD DUP3 PUSH2 0x1475 JUMP JUMPDEST POP DUP1 SWAP2 POP POP SWAP3 SWAP2 POP POP JUMP JUMPDEST PUSH0 PUSH2 0x1559 DUP4 DUP4 PUSH2 0x14DB JUMP JUMPDEST SWAP1 POP SWAP3 SWAP2 POP POP JUMP JUMPDEST PUSH0 PUSH1 0x20 DUP3 ADD SWAP1 POP SWAP2 SWAP1 POP JUMP JUMPDEST PUSH0 PUSH2 0x1577 DUP3 PUSH2 0x144C JUMP JUMPDEST PUSH2 0x1581 DUP2 DUP6 PUSH2 0x1456 JUMP JUMPDEST SWAP4 POP DUP4 PUSH1 0x20 DUP3 MUL DUP6 ADD PUSH2 0x1593 DUP6 PUSH2 0x1466 JUMP JUMPDEST DUP1 PUSH0 JUMPDEST DUP6 DUP2 LT ISZERO PUSH2 0x15CE JUMPI DUP5 DUP5 SUB DUP10 MSTORE DUP2 MLOAD PUSH2 0x15AF DUP6 DUP3 PUSH2 0x154E JUMP JUMPDEST SWAP5 POP PUSH2 0x15BA DUP4 PUSH2 0x1561 JUMP JUMPDEST SWAP3 POP PUSH1 0x20 DUP11 ADD SWAP10 POP POP PUSH1 0x1 DUP2 ADD SWAP1 POP PUSH2 0x1596 JUMP JUMPDEST POP DUP3 SWAP8 POP DUP8 SWAP6 POP POP POP POP POP POP SWAP3 SWAP2 POP POP JUMP JUMPDEST PUSH0 PUSH1 0x20 DUP3 ADD SWAP1 POP DUP2 DUP2 SUB PUSH0 DUP4 ADD MSTORE PUSH2 0x15F8 DUP2 DUP5 PUSH2 0x156D JUMP JUMPDEST SWAP1 POP SWAP3 SWAP2 POP POP JUMP JUMPDEST PUSH0 PUSH2 0xFFFF DUP3 AND SWAP1 POP SWAP2 SWAP1 POP JUMP JUMPDEST PUSH2 0x1616 DUP2 PUSH2 0x1600 JUMP JUMPDEST DUP2 EQ PUSH2 0x1620 JUMPI PUSH0 DUP1 REVERT JUMPDEST POP JUMP JUMPDEST PUSH0 DUP2 CALLDATALOAD SWAP1 POP PUSH2 0x1631 DUP2 PUSH2 0x160D JUMP JUMPDEST SWAP3 SWAP2 POP POP JUMP JUMPDEST PUSH0 PUSH1 0x20 DUP3 DUP5 SUB SLT ISZERO PUSH2 0x164C JUMPI PUSH2 0x164B PUSH2 0x1268 JUMP JUMPDEST JUMPDEST PUSH0 PUSH2 0x1659 DUP5 DUP3 DUP6 ADD PUSH2 0x1623 JUMP JUMPDEST SWAP2 POP POP SWAP3 SWAP2 POP POP JUMP JUMPDEST PUSH2 0x166B DUP2 PUSH2 0x1600 JUMP JUMPDEST DUP3 MSTORE POP POP JUMP JUMPDEST PUSH0 PUSH1 0x20 DUP3 ADD SWAP1 POP PUSH2 0x1684 PUSH0 DUP4 ADD DUP5 PUSH2 0x1662 JUMP JUMPDEST SWAP3 SWAP2 POP POP JUMP JUMPDEST PUSH0 PUSH1 0x20 DUP3 ADD SWAP1 POP PUSH2 0x169D PUSH0 DUP4 ADD DUP5 PUSH2 0x133B JUMP JUMPDEST SWAP3 SWAP2 POP POP JUMP JUMPDEST PUSH0 PUSH1 0x20 DUP3 ADD SWAP1 POP PUSH2 0x16B6 PUSH0 DUP4 ADD DUP5 PUSH2 0x134A JUMP JUMPDEST SWAP3 SWAP2 POP POP JUMP JUMPDEST PUSH0 DUP1 REVERT JUMPDEST PUSH0 DUP1 REVERT JUMPDEST PUSH32 0x4E487B7100000000000000000000000000000000000000000000000000000000 PUSH0 MSTORE PUSH1 0x41 PUSH1 0x4 MSTORE PUSH1 0x24 PUSH0 REVERT JUMPDEST PUSH2 0x16FA DUP3 PUSH2 0x1381 JUMP JUMPDEST DUP2 ADD DUP2 DUP2 LT PUSH8 0xFFFFFFFFFFFFFFFF DUP3 GT OR ISZERO PUSH2 0x1719 JUMPI PUSH2 0x1718 PUSH2 0x16C4 JUMP JUMPDEST JUMPDEST DUP1 PUSH1 0x40 MSTORE POP POP POP JUMP JUMPDEST PUSH0 PUSH2 0x172B PUSH2 0x125F JUMP JUMPDEST SWAP1 POP PUSH2 0x1737 DUP3 DUP3 PUSH2 0x16F1 JUMP JUMPDEST SWAP2 SWAP1 POP JUMP JUMPDEST PUSH0 PUSH8 0xFFFFFFFFFFFFFFFF DUP3 GT ISZERO PUSH2 0x1756 JUMPI PUSH2 0x1755 PUSH2 0x16C4 JUMP JUMPDEST JUMPDEST PUSH2 0x175F DUP3 PUSH2 0x1381 JUMP JUMPDEST SWAP1 POP PUSH1 0x20 DUP2 ADD SWAP1 POP SWAP2 SWAP1 POP JUMP JUMPDEST DUP3 DUP2 DUP4 CALLDATACOPY PUSH0 DUP4 DUP4 ADD MSTORE POP POP POP JUMP JUMPDEST PUSH0 PUSH2 0x178C PUSH2 0x1787 DUP5 PUSH2 0x173C JUMP JUMPDEST PUSH2 0x1722 JUMP JUMPDEST SWAP1 POP DUP3 DUP2 MSTORE PUSH1 0x20 DUP2 ADD DUP5 DUP5 DUP5 ADD GT ISZERO PUSH2 0x17A8 JUMPI PUSH2 0x17A7 PUSH2 0x16C0 JUMP JUMPDEST JUMPDEST PUSH2 0x17B3 DUP5 DUP3 DUP6 PUSH2 0x176C JUMP JUMPDEST POP SWAP4 SWAP3 POP POP POP JUMP JUMPDEST PUSH0 DUP3 PUSH1 0x1F DUP4 ADD SLT PUSH2 0x17CF JUMPI PUSH2 0x17CE PUSH2 0x16BC JUMP JUMPDEST JUMPDEST DUP2 CALLDATALOAD PUSH2 0x17DF DUP5 DUP3 PUSH1 0x20 DUP7 ADD PUSH2 0x177A JUMP JUMPDEST SWAP2 POP POP SWAP3 SWAP2 POP POP JUMP JUMPDEST PUSH0 PUSH1 0x20 DUP3 DUP5 SUB SLT ISZERO PUSH2 0x17FD JUMPI PUSH2 0x17FC PUSH2 0x1268 JUMP JUMPDEST JUMPDEST PUSH0 DUP3 ADD CALLDATALOAD PUSH8 0xFFFFFFFFFFFFFFFF DUP2 GT ISZERO PUSH2 0x181A JUMPI PUSH2 0x1819 PUSH2 0x126C JUMP JUMPDEST JUMPDEST PUSH2 0x1826 DUP5 DUP3 DUP6 ADD PUSH2 0x17BB JUMP JUMPDEST SWAP2 POP POP SWAP3 SWAP2 POP POP JUMP JUMPDEST PUSH0 PUSH1 0x20 DUP3 DUP5 SUB SLT ISZERO PUSH2 0x1844 JUMPI PUSH2 0x1843 PUSH2 0x1268 JUMP JUMPDEST JUMPDEST PUSH0 PUSH2 0x1851 DUP5 DUP3 DUP6 ADD PUSH2 0x12E9 JUMP JUMPDEST SWAP2 POP POP SWAP3 SWAP2 POP POP JUMP JUMPDEST PUSH0 PUSH1 0xA0 DUP4 ADD PUSH0 DUP4 ADD MLOAD PUSH2 0x186F PUSH0 DUP7 ADD DUP3 PUSH2 0x1475 JUMP JUMPDEST POP PUSH1 0x20 DUP4 ADD MLOAD PUSH2 0x1882 PUSH1 0x20 DUP7 ADD DUP3 PUSH2 0x1484 JUMP JUMPDEST POP PUSH1 0x40 DUP4 ADD MLOAD DUP5 DUP3 SUB PUSH1 0x40 DUP7 ADD MSTORE PUSH2 0x189A DUP3 DUP3 PUSH2 0x14A3 JUMP JUMPDEST SWAP2 POP POP PUSH1 0x60 DUP4 ADD MLOAD PUSH2 0x18AF PUSH1 0x60 DUP7 ADD DUP3 PUSH2 0x1475 JUMP JUMPDEST POP PUSH1 0x80 DUP4 ADD MLOAD PUSH2 0x18C2 PUSH1 0x80 DUP7 ADD DUP3 PUSH2 0x1475 JUMP JUMPDEST POP DUP1 SWAP2 POP POP SWAP3 SWAP2 POP POP JUMP JUMPDEST PUSH0 PUSH1 0x20 DUP3 ADD SWAP1 POP DUP2 DUP2 SUB PUSH0 DUP4 ADD MSTORE PUSH2 0x18E5 DUP2 DUP5 PUSH2 0x185A JUMP JUMPDEST SWAP1 POP SWAP3 SWAP2 POP POP JUMP JUMPDEST PUSH32 0x4E487B7100000000000000000000000000000000000000000000000000000000 PUSH0 MSTORE PUSH1 0x22 PUSH1 0x4 MSTORE PUSH1 0x24 PUSH0 REVERT JUMPDEST PUSH0 PUSH1 0x2 DUP3 DIV SWAP1 POP PUSH1 0x1 DUP3 AND DUP1 PUSH2 0x1931 JUMPI PUSH1 0x7F DUP3 AND SWAP2 POP JUMPDEST PUSH1 0x20 DUP3 LT DUP2 SUB PUSH2 0x1944 JUMPI PUSH2 0x1943 PUSH2 0x18ED JUMP JUMPDEST JUMPDEST POP SWAP2 SWAP1 POP JUMP JUMPDEST PUSH0 DUP1 REVERT JUMPDEST PUSH0 DUP1 REVERT JUMPDEST PUSH0 PUSH2 0x1964 PUSH2 0x195F DUP5 PUSH2 0x173C JUMP JUMPDEST PUSH2 0x1722 JUMP JUMPDEST SWAP1 POP DUP3 DUP2 MSTORE PUSH1 0x20 DUP2 ADD DUP5 DUP5 DUP5 ADD GT ISZERO PUSH2 0x1980 JUMPI PUSH2 0x197F PUSH2 0x16C0 JUMP JUMPDEST JUMPDEST PUSH2 0x198B DUP5 DUP3 DUP6 PUSH2 0x1373 JUMP JUMPDEST POP SWAP4 SWAP3 POP POP POP JUMP JUMPDEST PUSH0 DUP3 PUSH1 0x1F DUP4 ADD SLT PUSH2 0x19A7 JUMPI PUSH2 0x19A6 PUSH2 0x16BC JUMP JUMPDEST JUMPDEST DUP2 MLOAD PUSH2 0x19B7 DUP5 DUP3 PUSH1 0x20 DUP7 ADD PUSH2 0x1952 JUMP JUMPDEST SWAP2 POP POP SWAP3 SWAP2 POP POP JUMP JUMPDEST PUSH0 PUSH1 0x40 DUP3 DUP5 SUB SLT ISZERO PUSH2 0x19D5 JUMPI PUSH2 0x19D4 PUSH2 0x194A JUMP JUMPDEST JUMPDEST PUSH2 0x19DF PUSH1 0x40 PUSH2 0x1722 JUMP JUMPDEST SWAP1 POP PUSH0 DUP3 ADD MLOAD PUSH8 0xFFFFFFFFFFFFFFFF DUP2 GT ISZERO PUSH2 0x19FE JUMPI PUSH2 0x19FD PUSH2 0x194E JUMP JUMPDEST JUMPDEST PUSH2 0x1A0A DUP5 DUP3 DUP6 ADD PUSH2 0x1993 JUMP JUMPDEST PUSH0 DUP4 ADD MSTORE POP PUSH1 0x20 DUP3 ADD MLOAD PUSH8 0xFFFFFFFFFFFFFFFF DUP2 GT ISZERO PUSH2 0x1A2D JUMPI PUSH2 0x1A2C PUSH2 0x194E JUMP JUMPDEST JUMPDEST PUSH2 0x1A39 DUP5 DUP3 DUP6 ADD PUSH2 0x1993 JUMP JUMPDEST PUSH1 0x20 DUP4 ADD MSTORE POP SWAP3 SWAP2 POP POP JUMP JUMPDEST PUSH0 PUSH1 0x20 DUP3 DUP5 SUB SLT ISZERO PUSH2 0x1A5A JUMPI PUSH2 0x1A59 PUSH2 0x1268 JUMP JUMPDEST JUMPDEST PUSH0 DUP3 ADD MLOAD PUSH8 0xFFFFFFFFFFFFFFFF DUP2 GT ISZERO PUSH2 0x1A77 JUMPI PUSH2 0x1A76 PUSH2 0x126C JUMP JUMPDEST JUMPDEST PUSH2 0x1A83 DUP5 DUP3 DUP6 ADD PUSH2 0x19C0 JUMP JUMPDEST SWAP2 POP POP SWAP3 SWAP2 POP POP JUMP JUMPDEST PUSH32 0x55534552204E4F54205245474953544552454400000000000000000000000000 PUSH0 DUP3 ADD MSTORE POP JUMP JUMPDEST PUSH0 PUSH2 0x1AC0 PUSH1 0x13 DUP4 PUSH2 0x1363 JUMP JUMPDEST SWAP2 POP PUSH2 0x1ACB DUP3 PUSH2 0x1A8C JUMP JUMPDEST PUSH1 0x20 DUP3 ADD SWAP1 POP SWAP2 SWAP1 POP JUMP JUMPDEST PUSH0 PUSH1 0x20 DUP3 ADD SWAP1 POP DUP2 DUP2 SUB PUSH0 DUP4 ADD MSTORE PUSH2 0x1AED DUP2 PUSH2 0x1AB4 JUMP JUMPDEST SWAP1 POP SWAP2 SWAP1 POP JUMP JUMPDEST PUSH32 0x4E487B7100000000000000000000000000000000000000000000000000000000 PUSH0 MSTORE PUSH1 0x32 PUSH1 0x4 MSTORE PUSH1 0x24 PUSH0 REVERT JUMPDEST PUSH32 0x547765657420446F6573204E6F74204578697374000000000000000000000000 PUSH0 DUP3 ADD MSTORE POP JUMP JUMPDEST PUSH0 PUSH2 0x1B55 PUSH1 0x14 DUP4 PUSH2 0x1363 JUMP JUMPDEST SWAP2 POP PUSH2 0x1B60 DUP3 PUSH2 0x1B21 JUMP JUMPDEST PUSH1 0x20 DUP3 ADD SWAP1 POP SWAP2 SWAP1 POP JUMP JUMPDEST PUSH0 PUSH1 0x20 DUP3 ADD SWAP1 POP DUP2 DUP2 SUB PUSH0 DUP4 ADD MSTORE PUSH2 0x1B82 DUP2 PUSH2 0x1B49 JUMP JUMPDEST SWAP1 POP SWAP2 SWAP1 POP JUMP JUMPDEST PUSH32 0x547765657420486173204E6F204C696B65730000000000000000000000000000 PUSH0 DUP3 ADD MSTORE POP JUMP JUMPDEST PUSH0 PUSH2 0x1BBD PUSH1 0x12 DUP4 PUSH2 0x1363 JUMP JUMPDEST SWAP2 POP PUSH2 0x1BC8 DUP3 PUSH2 0x1B89 JUMP JUMPDEST PUSH1 0x20 DUP3 ADD SWAP1 POP SWAP2 SWAP1 POP JUMP JUMPDEST PUSH0 PUSH1 0x20 DUP3 ADD SWAP1 POP DUP2 DUP2 SUB PUSH0 DUP4 ADD MSTORE PUSH2 0x1BEA DUP2 PUSH2 0x1BB1 JUMP JUMPDEST SWAP1 POP SWAP2 SWAP1 POP JUMP JUMPDEST PUSH32 0x4E487B7100000000000000000000000000000000000000000000000000000000 PUSH0 MSTORE PUSH1 0x11 PUSH1 0x4 MSTORE PUSH1 0x24 PUSH0 REVERT JUMPDEST PUSH0 PUSH2 0x1C28 DUP3 PUSH2 0x12CA JUMP JUMPDEST SWAP2 POP PUSH0 DUP3 SUB PUSH2 0x1C3A JUMPI PUSH2 0x1C39 PUSH2 0x1BF1 JUMP JUMPDEST JUMPDEST PUSH1 0x1 DUP3 SUB SWAP1 POP SWAP2 SWAP1 POP JUMP JUMPDEST PUSH0 PUSH1 0x80 DUP3 ADD SWAP1 POP PUSH2 0x1C58 PUSH0 DUP4 ADD DUP8 PUSH2 0x134A JUMP JUMPDEST PUSH2 0x1C65 PUSH1 0x20 DUP4 ADD DUP7 PUSH2 0x134A JUMP JUMPDEST PUSH2 0x1C72 PUSH1 0x40 DUP4 ADD DUP6 PUSH2 0x133B JUMP JUMPDEST PUSH2 0x1C7F PUSH1 0x60 DUP4 ADD DUP5 PUSH2 0x133B JUMP JUMPDEST SWAP6 SWAP5 POP POP POP POP POP JUMP JUMPDEST PUSH0 PUSH2 0x1C92 DUP3 PUSH2 0x12CA JUMP JUMPDEST SWAP2 POP PUSH32 0xFFFFFFFFFFFFFFFFFFFFFFFFFFFFFFFFFFFFFFFFFFFFFFFFFFFFFFFFFFFFFFFF DUP3 SUB PUSH2 0x1CC4 JUMPI PUSH2 0x1CC3 PUSH2 0x1BF1 JUMP JUMPDEST JUMPDEST PUSH1 0x1 DUP3 ADD SWAP1 POP SWAP2 SWAP1 POP JUMP JUMPDEST PUSH0 PUSH2 0x1CD9 DUP3 PUSH2 0x12CA JUMP JUMPDEST SWAP2 POP PUSH2 0x1CE4 DUP4 PUSH2 0x12CA JUMP JUMPDEST SWAP3 POP DUP3 DUP3 ADD SWAP1 POP DUP1 DUP3 GT ISZERO PUSH2 0x1CFC JUMPI PUSH2 0x1CFB PUSH2 0x1BF1 JUMP JUMPDEST JUMPDEST SWAP3 SWAP2 POP POP JUMP JUMPDEST PUSH32 0x596F75207368616C6C206E6F7420706173732100000000000000000000000000 PUSH0 DUP3 ADD MSTORE POP JUMP JUMPDEST PUSH0 PUSH2 0x1D36 PUSH1 0x13 DUP4 PUSH2 0x1363 JUMP JUMPDEST SWAP2 POP PUSH2 0x1D41 DUP3 PUSH2 0x1D02 JUMP JUMPDEST PUSH1 0x20 DUP3 ADD SWAP1 POP SWAP2 SWAP1 POP JUMP JUMPDEST PUSH0 PUSH1 0x20 DUP3 ADD SWAP1 POP DUP2 DUP2 SUB PUSH0 DUP4 ADD MSTORE PUSH2 0x1D63 DUP2 PUSH2 0x1D2A JUMP JUMPDEST SWAP1 POP SWAP2 SWAP1 POP JUMP JUMPDEST PUSH0 DUP2 SWAP1 POP DUP2 PUSH0 MSTORE PUSH1 0x20 PUSH0 KECCAK256 SWAP1 POP SWAP2 SWAP1 POP JUMP JUMPDEST PUSH0 PUSH1 0x20 PUSH1 0x1F DUP4 ADD DIV SWAP1 POP SWAP2 SWAP1 POP JUMP JUMPDEST PUSH0 DUP3 DUP3 SHL SWAP1 POP SWAP3 SWAP2 POP POP JUMP JUMPDEST PUSH0 PUSH1 0x8 DUP4 MUL PUSH2 0x1DC6 PUSH32 0xFFFFFFFFFFFFFFFFFFFFFFFFFFFFFFFFFFFFFFFFFFFFFFFFFFFFFFFFFFFFFFFF DUP3 PUSH2 0x1D8B JUMP JUMPDEST PUSH2 0x1DD0 DUP7 DUP4 PUSH2 0x1D8B JUMP JUMPDEST SWAP6 POP DUP1 NOT DUP5 AND SWAP4 POP DUP1 DUP7 AND DUP5 OR SWAP3 POP POP POP SWAP4 SWAP3 POP POP POP JUMP JUMPDEST PUSH0 DUP2 SWAP1 POP SWAP2 SWAP1 POP JUMP JUMPDEST PUSH0 PUSH2 0x1E0B PUSH2 0x1E06 PUSH2 0x1E01 DUP5 PUSH2 0x12CA JUMP JUMPDEST PUSH2 0x1DE8 JUMP JUMPDEST PUSH2 0x12CA JUMP JUMPDEST SWAP1 POP SWAP2 SWAP1 POP JUMP JUMPDEST PUSH0 DUP2 SWAP1 POP SWAP2 SWAP1 POP JUMP JUMPDEST PUSH2 0x1E24 DUP4 PUSH2 0x1DF1 JUMP JUMPDEST PUSH2 0x1E38 PUSH2 0x1E30 DUP3 PUSH2 0x1E12 JUMP JUMPDEST DUP5 DUP5 SLOAD PUSH2 0x1D97 JUMP JUMPDEST DUP3 SSTORE POP POP POP POP JUMP JUMPDEST PUSH0 SWAP1 JUMP JUMPDEST PUSH2 0x1E4C PUSH2 0x1E40 JUMP JUMPDEST PUSH2 0x1E57 DUP2 DUP5 DUP5 PUSH2 0x1E1B JUMP JUMPDEST POP POP POP JUMP JUMPDEST JUMPDEST DUP2 DUP2 LT ISZERO PUSH2 0x1E7A JUMPI PUSH2 0x1E6F PUSH0 DUP3 PUSH2 0x1E44 JUMP JUMPDEST PUSH1 0x1 DUP2 ADD SWAP1 POP PUSH2 0x1E5D JUMP JUMPDEST POP POP JUMP JUMPDEST PUSH1 0x1F DUP3 GT ISZERO PUSH2 0x1EBF JUMPI PUSH2 0x1E90 DUP2 PUSH2 0x1D6A JUMP JUMPDEST PUSH2 0x1E99 DUP5 PUSH2 0x1D7C JUMP JUMPDEST DUP2 ADD PUSH1 0x20 DUP6 LT ISZERO PUSH2 0x1EA8 JUMPI DUP2 SWAP1 POP JUMPDEST PUSH2 0x1EBC PUSH2 0x1EB4 DUP6 PUSH2 0x1D7C JUMP JUMPDEST DUP4 ADD DUP3 PUSH2 0x1E5C JUMP JUMPDEST POP POP JUMPDEST POP POP POP JUMP JUMPDEST PUSH0 DUP3 DUP3 SHR SWAP1 POP SWAP3 SWAP2 POP POP JUMP JUMPDEST PUSH0 PUSH2 0x1EDF PUSH0 NOT DUP5 PUSH1 0x8 MUL PUSH2 0x1EC4 JUMP JUMPDEST NOT DUP1 DUP4 AND SWAP2 POP POP SWAP3 SWAP2 POP POP JUMP JUMPDEST PUSH0 PUSH2 0x1EF7 DUP4 DUP4 PUSH2 0x1ED0 JUMP JUMPDEST SWAP2 POP DUP3 PUSH1 0x2 MUL DUP3 OR SWAP1 POP SWAP3 SWAP2 POP POP JUMP JUMPDEST PUSH2 0x1F10 DUP3 PUSH2 0x1359 JUMP JUMPDEST PUSH8 0xFFFFFFFFFFFFFFFF DUP2 GT ISZERO PUSH2 0x1F29 JUMPI PUSH2 0x1F28 PUSH2 0x16C4 JUMP JUMPDEST JUMPDEST PUSH2 0x1F33 DUP3 SLOAD PUSH2 0x191A JUMP JUMPDEST PUSH2 0x1F3E DUP3 DUP3 DUP6 PUSH2 0x1E7E JUMP JUMPDEST PUSH0 PUSH1 0x20 SWAP1 POP PUSH1 0x1F DUP4 GT PUSH1 0x1 DUP2 EQ PUSH2 0x1F6F JUMPI PUSH0 DUP5 ISZERO PUSH2 0x1F5D JUMPI DUP3 DUP8 ADD MLOAD SWAP1 POP JUMPDEST PUSH2 0x1F67 DUP6 DUP3 PUSH2 0x1EEC JUMP JUMPDEST DUP7 SSTORE POP PUSH2 0x1FCE JUMP JUMPDEST PUSH1 0x1F NOT DUP5 AND PUSH2 0x1F7D DUP7 PUSH2 0x1D6A JUMP JUMPDEST PUSH0 JUMPDEST DUP3 DUP2 LT ISZERO PUSH2 0x1FA4 JUMPI DUP5 DUP10 ADD MLOAD DUP3 SSTORE PUSH1 0x1 DUP3 ADD SWAP2 POP PUSH1 0x20 DUP6 ADD SWAP5 POP PUSH1 0x20 DUP2 ADD SWAP1 POP PUSH2 0x1F7F JUMP JUMPDEST DUP7 DUP4 LT ISZERO PUSH2 0x1FC1 JUMPI DUP5 DUP10 ADD MLOAD PUSH2 0x1FBD PUSH1 0x1F DUP10 AND DUP3 PUSH2 0x1ED0 JUMP JUMPDEST DUP4 SSTORE POP JUMPDEST PUSH1 0x1 PUSH1 0x2 DUP9 MUL ADD DUP9 SSTORE POP POP POP JUMPDEST POP POP POP POP POP POP JUMP JUMPDEST PUSH0 PUSH1 0x80 DUP3 ADD SWAP1 POP PUSH2 0x1FE9 PUSH0 DUP4 ADD DUP8 PUSH2 0x133B JUMP JUMPDEST PUSH2 0x1FF6 PUSH1 0x20 DUP4 ADD DUP7 PUSH2 0x134A JUMP JUMPDEST DUP2 DUP2 SUB PUSH1 0x40 DUP4 ADD MSTORE PUSH2 0x2008 DUP2 DUP6 PUSH2 0x1391 JUMP JUMPDEST SWAP1 POP PUSH2 0x2017 PUSH1 0x60 DUP4 ADD DUP5 PUSH2 0x133B JUMP JUMPDEST SWAP6 SWAP5 POP POP POP POP POP JUMP INVALID LOG2 PUSH5 0x6970667358 0x22 SLT KECCAK256 PUSH28 0x848DED1B55C107FFE86A448C4845763733CC0DCBF952FC1201B509A7 0xC6 0xBC CHAINID PUSH5 0x736F6C6343 STOP ADDMOD BYTE STOP CALLER "
				},
				"gasEstimates": {
					"creation": {
						"codeDepositCost": "1655600",
						"executionCost": "infinite",
						"totalCost": "infinite"
					},
					"external": {
						"MAX_TWEET_LENGTH()": "2627",
						"changeTweetLength(uint16)": "infinite",
						"createtweet(string)": "infinite",
						"getAllTweets(address)": "infinite",
						"getTotalLikes(address)": "infinite",
						"getTweet(uint256)": "infinite",
						"likeTweet(address,uint256)": "infinite",
						"owner()": "2559",
						"renounceOwnership()": "infinite",
						"transferOwnership(address)": "infinite",
						"tweets(address,uint256)": "infinite",
						"unlikeTweet(address,uint256)": "infinite"
					}
				},
				"methodIdentifiers": {
					"MAX_TWEET_LENGTH()": "6eb10797",
					"changeTweetLength(uint16)": "58bfa4ab",
					"createtweet(string)": "b8e4f167",
					"getAllTweets(address)": "12e7ee1c",
					"getTotalLikes(address)": "820785cc",
					"getTweet(uint256)": "c3ad5ecb",
					"likeTweet(address,uint256)": "63378216",
					"owner()": "8da5cb5b",
					"renounceOwnership()": "715018a6",
					"transferOwnership(address)": "f2fde38b",
					"tweets(address,uint256)": "05a1b4a9",
					"unlikeTweet(address,uint256)": "3d9b569f"
				}
			},
			"storageLayout": {
				"storage": [
					{
						"astId": 8,
						"contract": "contracts/Twitter.sol:Twitter",
						"label": "_owner",
						"offset": 0,
						"slot": "0",
						"type": "t_address"
					},
					{
						"astId": 200,
						"contract": "contracts/Twitter.sol:Twitter",
						"label": "MAX_TWEET_LENGTH",
						"offset": 20,
						"slot": "0",
						"type": "t_uint16"
					},
					{
						"astId": 217,
						"contract": "contracts/Twitter.sol:Twitter",
						"label": "tweets",
						"offset": 0,
						"slot": "1",
						"type": "t_mapping(t_address,t_array(t_struct(Tweet)211_storage)dyn_storage)"
					},
					{
						"astId": 220,
						"contract": "contracts/Twitter.sol:Twitter",
						"label": "profileContract",
						"offset": 0,
						"slot": "2",
						"type": "t_contract(IProfile)195"
					}
				],
				"types": {
					"t_address": {
						"encoding": "inplace",
						"label": "address",
						"numberOfBytes": "20"
					},
					"t_array(t_struct(Tweet)211_storage)dyn_storage": {
						"base": "t_struct(Tweet)211_storage",
						"encoding": "dynamic_array",
						"label": "struct Twitter.Tweet[]",
						"numberOfBytes": "32"
					},
					"t_contract(IProfile)195": {
						"encoding": "inplace",
						"label": "contract IProfile",
						"numberOfBytes": "20"
					},
					"t_mapping(t_address,t_array(t_struct(Tweet)211_storage)dyn_storage)": {
						"encoding": "mapping",
						"key": "t_address",
						"label": "mapping(address => struct Twitter.Tweet[])",
						"numberOfBytes": "32",
						"value": "t_array(t_struct(Tweet)211_storage)dyn_storage"
					},
					"t_string_storage": {
						"encoding": "bytes",
						"label": "string",
						"numberOfBytes": "32"
					},
					"t_struct(Tweet)211_storage": {
						"encoding": "inplace",
						"label": "struct Twitter.Tweet",
						"members": [
							{
								"astId": 202,
								"contract": "contracts/Twitter.sol:Twitter",
								"label": "id",
								"offset": 0,
								"slot": "0",
								"type": "t_uint256"
							},
							{
								"astId": 204,
								"contract": "contracts/Twitter.sol:Twitter",
								"label": "author",
								"offset": 0,
								"slot": "1",
								"type": "t_address"
							},
							{
								"astId": 206,
								"contract": "contracts/Twitter.sol:Twitter",
								"label": "content",
								"offset": 0,
								"slot": "2",
								"type": "t_string_storage"
							},
							{
								"astId": 208,
								"contract": "contracts/Twitter.sol:Twitter",
								"label": "timestamp",
								"offset": 0,
								"slot": "3",
								"type": "t_uint256"
							},
							{
								"astId": 210,
								"contract": "contracts/Twitter.sol:Twitter",
								"label": "likes",
								"offset": 0,
								"slot": "4",
								"type": "t_uint256"
							}
						],
						"numberOfBytes": "160"
					},
					"t_uint16": {
						"encoding": "inplace",
						"label": "uint16",
						"numberOfBytes": "2"
					},
					"t_uint256": {
						"encoding": "inplace",
						"label": "uint256",
						"numberOfBytes": "32"
					}
				}
			},
			"userdoc": {
				"kind": "user",
				"methods": {},
				"version": 1
			}
		}
	}
}